{
  "contractName": "Cards",
  "abi": [
    {
      "inputs": [],
      "stateMutability": "nonpayable",
      "type": "constructor"
    },
    {
      "anonymous": false,
      "inputs": [
        {
          "indexed": true,
          "internalType": "address",
          "name": "owner",
          "type": "address"
        },
        {
          "indexed": true,
          "internalType": "address",
          "name": "approved",
          "type": "address"
        },
        {
          "indexed": true,
          "internalType": "uint256",
          "name": "tokenId",
          "type": "uint256"
        }
      ],
      "name": "Approval",
      "type": "event"
    },
    {
      "anonymous": false,
      "inputs": [
        {
          "indexed": true,
          "internalType": "address",
          "name": "owner",
          "type": "address"
        },
        {
          "indexed": true,
          "internalType": "address",
          "name": "operator",
          "type": "address"
        },
        {
          "indexed": false,
          "internalType": "bool",
          "name": "approved",
          "type": "bool"
        }
      ],
      "name": "ApprovalForAll",
      "type": "event"
    },
    {
      "anonymous": false,
      "inputs": [
        {
          "indexed": true,
          "internalType": "address",
          "name": "from",
          "type": "address"
        },
        {
          "indexed": true,
          "internalType": "address",
          "name": "to",
          "type": "address"
        },
        {
          "indexed": true,
          "internalType": "uint256",
          "name": "tokenId",
          "type": "uint256"
        }
      ],
      "name": "Transfer",
      "type": "event"
    },
    {
      "inputs": [],
      "name": "admin",
      "outputs": [
        {
          "internalType": "address",
          "name": "",
          "type": "address"
        }
      ],
      "stateMutability": "view",
      "type": "function",
      "constant": true
    },
    {
      "inputs": [
        {
          "internalType": "address",
          "name": "to",
          "type": "address"
        },
        {
          "internalType": "uint256",
          "name": "tokenId",
          "type": "uint256"
        }
      ],
      "name": "approve",
      "outputs": [],
      "stateMutability": "nonpayable",
      "type": "function"
    },
    {
      "inputs": [
        {
          "internalType": "address",
          "name": "owner",
          "type": "address"
        }
      ],
      "name": "balanceOf",
      "outputs": [
        {
          "internalType": "uint256",
          "name": "",
          "type": "uint256"
        }
      ],
      "stateMutability": "view",
      "type": "function",
      "constant": true
    },
    {
      "inputs": [
        {
          "internalType": "uint256",
          "name": "tokenId",
          "type": "uint256"
        }
      ],
      "name": "getApproved",
      "outputs": [
        {
          "internalType": "address",
          "name": "",
          "type": "address"
        }
      ],
      "stateMutability": "view",
      "type": "function",
      "constant": true
    },
    {
      "inputs": [
        {
          "internalType": "address",
          "name": "owner",
          "type": "address"
        },
        {
          "internalType": "address",
          "name": "operator",
          "type": "address"
        }
      ],
      "name": "isApprovedForAll",
      "outputs": [
        {
          "internalType": "bool",
          "name": "",
          "type": "bool"
        }
      ],
      "stateMutability": "view",
      "type": "function",
      "constant": true
    },
    {
      "inputs": [
        {
          "internalType": "address",
          "name": "",
          "type": "address"
        }
      ],
      "name": "marketCards",
      "outputs": [
        {
          "internalType": "uint256",
          "name": "id",
          "type": "uint256"
        },
        {
          "internalType": "address",
          "name": "owner",
          "type": "address"
        },
        {
          "internalType": "uint256",
          "name": "price",
          "type": "uint256"
        },
        {
          "internalType": "string",
          "name": "description",
          "type": "string"
        },
        {
          "internalType": "string",
          "name": "urlPicture",
          "type": "string"
        },
        {
          "internalType": "uint256",
          "name": "timestamp",
          "type": "uint256"
        }
      ],
      "stateMutability": "view",
      "type": "function",
      "constant": true
    },
    {
      "inputs": [
        {
          "internalType": "address",
          "name": "",
          "type": "address"
        },
        {
          "internalType": "uint256",
          "name": "",
          "type": "uint256"
        }
      ],
      "name": "myCards",
      "outputs": [
        {
          "internalType": "uint256",
          "name": "id",
          "type": "uint256"
        },
        {
          "internalType": "address",
          "name": "owner",
          "type": "address"
        },
        {
          "internalType": "uint256",
          "name": "price",
          "type": "uint256"
        },
        {
          "internalType": "string",
          "name": "description",
          "type": "string"
        },
        {
          "internalType": "string",
          "name": "urlPicture",
          "type": "string"
        },
        {
          "internalType": "uint256",
          "name": "timestamp",
          "type": "uint256"
        }
      ],
      "stateMutability": "view",
      "type": "function",
      "constant": true
    },
    {
      "inputs": [],
      "name": "name",
      "outputs": [
        {
          "internalType": "string",
          "name": "",
          "type": "string"
        }
      ],
      "stateMutability": "view",
      "type": "function",
      "constant": true
    },
    {
      "inputs": [],
      "name": "nextItemId",
      "outputs": [
        {
          "internalType": "uint256",
          "name": "",
          "type": "uint256"
        }
      ],
      "stateMutability": "view",
      "type": "function",
      "constant": true
    },
    {
      "inputs": [
        {
          "internalType": "uint256",
          "name": "tokenId",
          "type": "uint256"
        }
      ],
      "name": "ownerOf",
      "outputs": [
        {
          "internalType": "address",
          "name": "",
          "type": "address"
        }
      ],
      "stateMutability": "view",
      "type": "function",
      "constant": true
    },
    {
      "inputs": [
        {
          "internalType": "address",
          "name": "from",
          "type": "address"
        },
        {
          "internalType": "address",
          "name": "to",
          "type": "address"
        },
        {
          "internalType": "uint256",
          "name": "tokenId",
          "type": "uint256"
        }
      ],
      "name": "safeTransferFrom",
      "outputs": [],
      "stateMutability": "nonpayable",
      "type": "function"
    },
    {
      "inputs": [
        {
          "internalType": "address",
          "name": "from",
          "type": "address"
        },
        {
          "internalType": "address",
          "name": "to",
          "type": "address"
        },
        {
          "internalType": "uint256",
          "name": "tokenId",
          "type": "uint256"
        },
        {
          "internalType": "bytes",
          "name": "_data",
          "type": "bytes"
        }
      ],
      "name": "safeTransferFrom",
      "outputs": [],
      "stateMutability": "nonpayable",
      "type": "function"
    },
    {
      "inputs": [
        {
          "internalType": "address",
          "name": "operator",
          "type": "address"
        },
        {
          "internalType": "bool",
          "name": "approved",
          "type": "bool"
        }
      ],
      "name": "setApprovalForAll",
      "outputs": [],
      "stateMutability": "nonpayable",
      "type": "function"
    },
    {
      "inputs": [
        {
          "internalType": "bytes4",
          "name": "interfaceId",
          "type": "bytes4"
        }
      ],
      "name": "supportsInterface",
      "outputs": [
        {
          "internalType": "bool",
          "name": "",
          "type": "bool"
        }
      ],
      "stateMutability": "view",
      "type": "function",
      "constant": true
    },
    {
      "inputs": [],
      "name": "symbol",
      "outputs": [
        {
          "internalType": "string",
          "name": "",
          "type": "string"
        }
      ],
      "stateMutability": "view",
      "type": "function",
      "constant": true
    },
    {
      "inputs": [
        {
          "internalType": "uint256",
          "name": "index",
          "type": "uint256"
        }
      ],
      "name": "tokenByIndex",
      "outputs": [
        {
          "internalType": "uint256",
          "name": "",
          "type": "uint256"
        }
      ],
      "stateMutability": "view",
      "type": "function",
      "constant": true
    },
    {
      "inputs": [
        {
          "internalType": "address",
          "name": "owner",
          "type": "address"
        },
        {
          "internalType": "uint256",
          "name": "index",
          "type": "uint256"
        }
      ],
      "name": "tokenOfOwnerByIndex",
      "outputs": [
        {
          "internalType": "uint256",
          "name": "",
          "type": "uint256"
        }
      ],
      "stateMutability": "view",
      "type": "function",
      "constant": true
    },
    {
      "inputs": [
        {
          "internalType": "uint256",
          "name": "tokenId",
          "type": "uint256"
        }
      ],
      "name": "tokenURI",
      "outputs": [
        {
          "internalType": "string",
          "name": "",
          "type": "string"
        }
      ],
      "stateMutability": "view",
      "type": "function",
      "constant": true
    },
    {
      "inputs": [],
      "name": "totalSupply",
      "outputs": [
        {
          "internalType": "uint256",
          "name": "",
          "type": "uint256"
        }
      ],
      "stateMutability": "view",
      "type": "function",
      "constant": true
    },
    {
      "inputs": [
        {
          "internalType": "address",
          "name": "from",
          "type": "address"
        },
        {
          "internalType": "address",
          "name": "to",
          "type": "address"
        },
        {
          "internalType": "uint256",
          "name": "tokenId",
          "type": "uint256"
        }
      ],
      "name": "transferFrom",
      "outputs": [],
      "stateMutability": "nonpayable",
      "type": "function"
    },
    {
      "inputs": [
        {
          "internalType": "uint256",
          "name": "_price",
          "type": "uint256"
        },
        {
          "internalType": "string",
          "name": "_description",
          "type": "string"
        },
        {
          "internalType": "string",
          "name": "_urlPicture",
          "type": "string"
        }
      ],
      "name": "mintCards",
      "outputs": [],
      "stateMutability": "nonpayable",
      "type": "function"
    }
  ],
  "bytecode": "0x60806040523480156200001157600080fd5b506040518060400160405280600d81526020017f43617264732046757465626f6c000000000000000000000000000000000000008152506040518060400160405280600381526020017f4655540000000000000000000000000000000000000000000000000000000000815250816000908051906020019062000096929190620000f9565b508060019080519060200190620000af929190620000f9565b50505033600a60006101000a81548173ffffffffffffffffffffffffffffffffffffffff021916908373ffffffffffffffffffffffffffffffffffffffff1602179055506200020e565b8280546200010790620001a9565b90600052602060002090601f0160209004810192826200012b576000855562000177565b82601f106200014657805160ff191683800117855562000177565b8280016001018555821562000177579182015b828111156200017657825182559160200191906001019062000159565b5b5090506200018691906200018a565b5090565b5b80821115620001a55760008160009055506001016200018b565b5090565b60006002820490506001821680620001c257607f821691505b60208210811415620001d957620001d8620001df565b5b50919050565b7f4e487b7100000000000000000000000000000000000000000000000000000000600052602260045260246000fd5b61350f806200021e6000396000f3fe608060405234801561001057600080fd5b50600436106101375760003560e01c80636352211e116100b8578063b88d4fde1161007c578063b88d4fde14610360578063c87b56dd1461037c578063e985e9c5146103ac578063e9cb5dd6146103dc578063ec13ffba14610411578063f851a4401461044657610137565b80636352211e146102a85780636a868974146102d857806370a08231146102f657806395d89b4114610326578063a22cb4651461034457610137565b806318160ddd116100ff57806318160ddd146101f257806323b872dd146102105780632f745c591461022c57806342842e0e1461025c5780634f6ccce71461027857610137565b806301ffc9a71461013c57806302d6db3a1461016c57806306fdde0314610188578063081812fc146101a6578063095ea7b3146101d6575b600080fd5b610156600480360381019061015191906125b5565b610464565b6040516101639190612df8565b60405180910390f35b61018660048036038101906101819190612630565b6104de565b005b610190610633565b60405161019d9190612e13565b60405180910390f35b6101c060048036038101906101bb9190612607565b6106c5565b6040516101cd9190612d91565b60405180910390f35b6101f060048036038101906101eb9190612579565b61074a565b005b6101fa610862565b6040516102079190613035565b60405180910390f35b61022a60048036038101906102259190612473565b61086f565b005b61024660048036038101906102419190612579565b6108cf565b6040516102539190613035565b60405180910390f35b61027660048036038101906102719190612473565b610974565b005b610292600480360381019061028d9190612607565b610994565b60405161029f9190613035565b60405180910390f35b6102c260048036038101906102bd9190612607565b610a2b565b6040516102cf9190612d91565b60405180910390f35b6102e0610add565b6040516102ed9190613035565b60405180910390f35b610310600480360381019061030b919061240e565b610ae3565b60405161031d9190613035565b60405180910390f35b61032e610b9b565b60405161033b9190612e13565b60405180910390f35b61035e6004803603810190610359919061253d565b610c2d565b005b61037a600480360381019061037591906124c2565b610dae565b005b61039660048036038101906103919190612607565b610e10565b6040516103a39190612e13565b60405180910390f35b6103c660048036038101906103c19190612437565b610eb7565b6040516103d39190612df8565b60405180910390f35b6103f660048036038101906103f19190612579565b610f4b565b60405161040896959493929190613050565b60405180910390f35b61042b6004803603810190610426919061240e565b6110c4565b60405161043d96959493929190613050565b60405180910390f35b61044e611230565b60405161045b9190612d91565b60405180910390f35b60007f780e9d63000000000000000000000000000000000000000000000000000000007bffffffffffffffffffffffffffffffffffffffffffffffffffffffff1916827bffffffffffffffffffffffffffffffffffffffffffffffffffffffff191614806104d757506104d682611256565b5b9050919050565b60006040518060c00160405280600b5481526020013073ffffffffffffffffffffffffffffffffffffffff16815260200185815260200184815260200183815260200142815250905061053330600b54611338565b80600c60003073ffffffffffffffffffffffffffffffffffffffff1673ffffffffffffffffffffffffffffffffffffffff1681526020019081526020016000206000820151816000015560208201518160010160006101000a81548173ffffffffffffffffffffffffffffffffffffffff021916908373ffffffffffffffffffffffffffffffffffffffff1602179055506040820151816002015560608201518160030190805190602001906105ea929190612232565b506080820151816004019080519060200190610607929190612232565b5060a08201518160050155905050600b600081548092919061062890613336565b919050555050505050565b60606000805461064290613304565b80601f016020809104026020016040519081016040528092919081815260200182805461066e90613304565b80156106bb5780601f10610690576101008083540402835291602001916106bb565b820191906000526020600020905b81548152906001019060200180831161069e57829003601f168201915b5050505050905090565b60006106d082611506565b61070f576040517f08c379a000000000000000000000000000000000000000000000000000000000815260040161070690612f75565b60405180910390fd5b6004600083815260200190815260200160002060009054906101000a900473ffffffffffffffffffffffffffffffffffffffff169050919050565b600061075582610a2b565b90508073ffffffffffffffffffffffffffffffffffffffff168373ffffffffffffffffffffffffffffffffffffffff1614156107c6576040517f08c379a00000000000000000000000000000000000000000000000000000000081526004016107bd90612fd5565b60405180910390fd5b8073ffffffffffffffffffffffffffffffffffffffff166107e5611572565b73ffffffffffffffffffffffffffffffffffffffff16148061081457506108138161080e611572565b610eb7565b5b610853576040517f08c379a000000000000000000000000000000000000000000000000000000000815260040161084a90612ef5565b60405180910390fd5b61085d838361157a565b505050565b6000600880549050905090565b61088061087a611572565b82611633565b6108bf576040517f08c379a00000000000000000000000000000000000000000000000000000000081526004016108b690612ff5565b60405180910390fd5b6108ca838383611711565b505050565b60006108da83610ae3565b821061091b576040517f08c379a000000000000000000000000000000000000000000000000000000000815260040161091290612e35565b60405180910390fd5b600660008473ffffffffffffffffffffffffffffffffffffffff1673ffffffffffffffffffffffffffffffffffffffff168152602001908152602001600020600083815260200190815260200160002054905092915050565b61098f83838360405180602001604052806000815250610dae565b505050565b600061099e610862565b82106109df576040517f08c379a00000000000000000000000000000000000000000000000000000000081526004016109d690613015565b60405180910390fd5b60088281548110610a19577f4e487b7100000000000000000000000000000000000000000000000000000000600052603260045260246000fd5b90600052602060002001549050919050565b6000806002600084815260200190815260200160002060009054906101000a900473ffffffffffffffffffffffffffffffffffffffff169050600073ffffffffffffffffffffffffffffffffffffffff168173ffffffffffffffffffffffffffffffffffffffff161415610ad4576040517f08c379a0000000000000000000000000000000000000000000000000000000008152600401610acb90612f35565b60405180910390fd5b80915050919050565b600b5481565b60008073ffffffffffffffffffffffffffffffffffffffff168273ffffffffffffffffffffffffffffffffffffffff161415610b54576040517f08c379a0000000000000000000000000000000000000000000000000000000008152600401610b4b90612f15565b60405180910390fd5b600360008373ffffffffffffffffffffffffffffffffffffffff1673ffffffffffffffffffffffffffffffffffffffff168152602001908152602001600020549050919050565b606060018054610baa90613304565b80601f0160208091040260200160405190810160405280929190818152602001828054610bd690613304565b8015610c235780601f10610bf857610100808354040283529160200191610c23565b820191906000526020600020905b815481529060010190602001808311610c0657829003601f168201915b5050505050905090565b610c35611572565b73ffffffffffffffffffffffffffffffffffffffff168273ffffffffffffffffffffffffffffffffffffffff161415610ca3576040517f08c379a0000000000000000000000000000000000000000000000000000000008152600401610c9a90612eb5565b60405180910390fd5b8060056000610cb0611572565b73ffffffffffffffffffffffffffffffffffffffff1673ffffffffffffffffffffffffffffffffffffffff16815260200190815260200160002060008473ffffffffffffffffffffffffffffffffffffffff1673ffffffffffffffffffffffffffffffffffffffff16815260200190815260200160002060006101000a81548160ff0219169083151502179055508173ffffffffffffffffffffffffffffffffffffffff16610d5d611572565b73ffffffffffffffffffffffffffffffffffffffff167f17307eab39ab6107e8899845ad3d59bd9653f200f220920489ca2b5937696c3183604051610da29190612df8565b60405180910390a35050565b610dbf610db9611572565b83611633565b610dfe576040517f08c379a0000000000000000000000000000000000000000000000000000000008152600401610df590612ff5565b60405180910390fd5b610e0a8484848461196d565b50505050565b6060610e1b82611506565b610e5a576040517f08c379a0000000000000000000000000000000000000000000000000000000008152600401610e5190612fb5565b60405180910390fd5b6000610e646119c9565b90506000815111610e845760405180602001604052806000815250610eaf565b80610e8e846119e0565b604051602001610e9f929190612d6d565b6040516020818303038152906040525b915050919050565b6000600560008473ffffffffffffffffffffffffffffffffffffffff1673ffffffffffffffffffffffffffffffffffffffff16815260200190815260200160002060008373ffffffffffffffffffffffffffffffffffffffff1673ffffffffffffffffffffffffffffffffffffffff16815260200190815260200160002060009054906101000a900460ff16905092915050565b600d602052816000526040600020602052806000526040600020600091509150508060000154908060010160009054906101000a900473ffffffffffffffffffffffffffffffffffffffff1690806002015490806003018054610fad90613304565b80601f0160208091040260200160405190810160405280929190818152602001828054610fd990613304565b80156110265780601f10610ffb57610100808354040283529160200191611026565b820191906000526020600020905b81548152906001019060200180831161100957829003601f168201915b50505050509080600401805461103b90613304565b80601f016020809104026020016040519081016040528092919081815260200182805461106790613304565b80156110b45780601f10611089576101008083540402835291602001916110b4565b820191906000526020600020905b81548152906001019060200180831161109757829003601f168201915b5050505050908060050154905086565b600c6020528060005260406000206000915090508060000154908060010160009054906101000a900473ffffffffffffffffffffffffffffffffffffffff169080600201549080600301805461111990613304565b80601f016020809104026020016040519081016040528092919081815260200182805461114590613304565b80156111925780601f1061116757610100808354040283529160200191611192565b820191906000526020600020905b81548152906001019060200180831161117557829003601f168201915b5050505050908060040180546111a790613304565b80601f01602080910402602001604051908101604052809291908181526020018280546111d390613304565b80156112205780601f106111f557610100808354040283529160200191611220565b820191906000526020600020905b81548152906001019060200180831161120357829003601f168201915b5050505050908060050154905086565b600a60009054906101000a900473ffffffffffffffffffffffffffffffffffffffff1681565b60007f80ac58cd000000000000000000000000000000000000000000000000000000007bffffffffffffffffffffffffffffffffffffffffffffffffffffffff1916827bffffffffffffffffffffffffffffffffffffffffffffffffffffffff1916148061132157507f5b5e139f000000000000000000000000000000000000000000000000000000007bffffffffffffffffffffffffffffffffffffffffffffffffffffffff1916827bffffffffffffffffffffffffffffffffffffffffffffffffffffffff1916145b80611331575061133082611b8d565b5b9050919050565b600073ffffffffffffffffffffffffffffffffffffffff168273ffffffffffffffffffffffffffffffffffffffff1614156113a8576040517f08c379a000000000000000000000000000000000000000000000000000000000815260040161139f90612f55565b60405180910390fd5b6113b181611506565b156113f1576040517f08c379a00000000000000000000000000000000000000000000000000000000081526004016113e890612e75565b60405180910390fd5b6113fd60008383611bf7565b6001600360008473ffffffffffffffffffffffffffffffffffffffff1673ffffffffffffffffffffffffffffffffffffffff168152602001908152602001600020600082825461144d9190613193565b92505081905550816002600083815260200190815260200160002060006101000a81548173ffffffffffffffffffffffffffffffffffffffff021916908373ffffffffffffffffffffffffffffffffffffffff160217905550808273ffffffffffffffffffffffffffffffffffffffff16600073ffffffffffffffffffffffffffffffffffffffff167fddf252ad1be2c89b69c2b068fc378daa952ba7f163c4a11628f55a4df523b3ef60405160405180910390a45050565b60008073ffffffffffffffffffffffffffffffffffffffff166002600084815260200190815260200160002060009054906101000a900473ffffffffffffffffffffffffffffffffffffffff1673ffffffffffffffffffffffffffffffffffffffff1614159050919050565b600033905090565b816004600083815260200190815260200160002060006101000a81548173ffffffffffffffffffffffffffffffffffffffff021916908373ffffffffffffffffffffffffffffffffffffffff160217905550808273ffffffffffffffffffffffffffffffffffffffff166115ed83610a2b565b73ffffffffffffffffffffffffffffffffffffffff167f8c5be1e5ebec7d5bd14f71427d1e84f3dd0314c0f7b2291e5b200ac8c7c3b92560405160405180910390a45050565b600061163e82611506565b61167d576040517f08c379a000000000000000000000000000000000000000000000000000000000815260040161167490612ed5565b60405180910390fd5b600061168883610a2b565b90508073ffffffffffffffffffffffffffffffffffffffff168473ffffffffffffffffffffffffffffffffffffffff1614806116f757508373ffffffffffffffffffffffffffffffffffffffff166116df846106c5565b73ffffffffffffffffffffffffffffffffffffffff16145b8061170857506117078185610eb7565b5b91505092915050565b8273ffffffffffffffffffffffffffffffffffffffff1661173182610a2b565b73ffffffffffffffffffffffffffffffffffffffff1614611787576040517f08c379a000000000000000000000000000000000000000000000000000000000815260040161177e90612f95565b60405180910390fd5b600073ffffffffffffffffffffffffffffffffffffffff168273ffffffffffffffffffffffffffffffffffffffff1614156117f7576040517f08c379a00000000000000000000000000000000000000000000000000000000081526004016117ee90612e95565b60405180910390fd5b611802838383611bf7565b61180d60008261157a565b6001600360008573ffffffffffffffffffffffffffffffffffffffff1673ffffffffffffffffffffffffffffffffffffffff168152602001908152602001600020600082825461185d919061321a565b925050819055506001600360008473ffffffffffffffffffffffffffffffffffffffff1673ffffffffffffffffffffffffffffffffffffffff16815260200190815260200160002060008282546118b49190613193565b92505081905550816002600083815260200190815260200160002060006101000a81548173ffffffffffffffffffffffffffffffffffffffff021916908373ffffffffffffffffffffffffffffffffffffffff160217905550808273ffffffffffffffffffffffffffffffffffffffff168473ffffffffffffffffffffffffffffffffffffffff167fddf252ad1be2c89b69c2b068fc378daa952ba7f163c4a11628f55a4df523b3ef60405160405180910390a4505050565b611978848484611711565b61198484848484611d0b565b6119c3576040517f08c379a00000000000000000000000000000000000000000000000000000000081526004016119ba90612e55565b60405180910390fd5b50505050565b606060405180602001604052806000815250905090565b60606000821415611a28576040518060400160405280600181526020017f30000000000000000000000000000000000000000000000000000000000000008152509050611b88565b600082905060005b60008214611a5a578080611a4390613336565b915050600a82611a5391906131e9565b9150611a30565b60008167ffffffffffffffff811115611a9c577f4e487b7100000000000000000000000000000000000000000000000000000000600052604160045260246000fd5b6040519080825280601f01601f191660200182016040528015611ace5781602001600182028036833780820191505090505b5090505b60008514611b8157600182611ae7919061321a565b9150600a85611af6919061337f565b6030611b029190613193565b60f81b818381518110611b3e577f4e487b7100000000000000000000000000000000000000000000000000000000600052603260045260246000fd5b60200101907effffffffffffffffffffffffffffffffffffffffffffffffffffffffffffff1916908160001a905350600a85611b7a91906131e9565b9450611ad2565b8093505050505b919050565b60007f01ffc9a7000000000000000000000000000000000000000000000000000000007bffffffffffffffffffffffffffffffffffffffffffffffffffffffff1916827bffffffffffffffffffffffffffffffffffffffffffffffffffffffff1916149050919050565b611c02838383611ea2565b600073ffffffffffffffffffffffffffffffffffffffff168373ffffffffffffffffffffffffffffffffffffffff161415611c4557611c4081611ea7565b611c84565b8173ffffffffffffffffffffffffffffffffffffffff168373ffffffffffffffffffffffffffffffffffffffff1614611c8357611c828382611ef0565b5b5b600073ffffffffffffffffffffffffffffffffffffffff168273ffffffffffffffffffffffffffffffffffffffff161415611cc757611cc28161205d565b611d06565b8273ffffffffffffffffffffffffffffffffffffffff168273ffffffffffffffffffffffffffffffffffffffff1614611d0557611d0482826121a0565b5b5b505050565b6000611d2c8473ffffffffffffffffffffffffffffffffffffffff1661221f565b15611e95578373ffffffffffffffffffffffffffffffffffffffff1663150b7a02611d55611572565b8786866040518563ffffffff1660e01b8152600401611d779493929190612dac565b602060405180830381600087803b158015611d9157600080fd5b505af1925050508015611dc257506040513d601f19601f82011682018060405250810190611dbf91906125de565b60015b611e45573d8060008114611df2576040519150601f19603f3d011682016040523d82523d6000602084013e611df7565b606091505b50600081511415611e3d576040517f08c379a0000000000000000000000000000000000000000000000000000000008152600401611e3490612e55565b60405180910390fd5b805181602001fd5b63150b7a0260e01b7bffffffffffffffffffffffffffffffffffffffffffffffffffffffff1916817bffffffffffffffffffffffffffffffffffffffffffffffffffffffff191614915050611e9a565b600190505b949350505050565b505050565b6008805490506009600083815260200190815260200160002081905550600881908060018154018082558091505060019003906000526020600020016000909190919091505550565b60006001611efd84610ae3565b611f07919061321a565b9050600060076000848152602001908152602001600020549050818114611fec576000600660008673ffffffffffffffffffffffffffffffffffffffff1673ffffffffffffffffffffffffffffffffffffffff168152602001908152602001600020600084815260200190815260200160002054905080600660008773ffffffffffffffffffffffffffffffffffffffff1673ffffffffffffffffffffffffffffffffffffffff168152602001908152602001600020600084815260200190815260200160002081905550816007600083815260200190815260200160002081905550505b6007600084815260200190815260200160002060009055600660008573ffffffffffffffffffffffffffffffffffffffff1673ffffffffffffffffffffffffffffffffffffffff16815260200190815260200160002060008381526020019081526020016000206000905550505050565b60006001600880549050612071919061321a565b90506000600960008481526020019081526020016000205490506000600883815481106120c7577f4e487b7100000000000000000000000000000000000000000000000000000000600052603260045260246000fd5b90600052602060002001549050806008838154811061210f577f4e487b7100000000000000000000000000000000000000000000000000000000600052603260045260246000fd5b906000526020600020018190555081600960008381526020019081526020016000208190555060096000858152602001908152602001600020600090556008805480612184577f4e487b7100000000000000000000000000000000000000000000000000000000600052603160045260246000fd5b6001900381819060005260206000200160009055905550505050565b60006121ab83610ae3565b905081600660008573ffffffffffffffffffffffffffffffffffffffff1673ffffffffffffffffffffffffffffffffffffffff168152602001908152602001600020600083815260200190815260200160002081905550806007600084815260200190815260200160002081905550505050565b600080823b905060008111915050919050565b82805461223e90613304565b90600052602060002090601f01602090048101928261226057600085556122a7565b82601f1061227957805160ff19168380011785556122a7565b828001600101855582156122a7579182015b828111156122a657825182559160200191906001019061228b565b5b5090506122b491906122b8565b5090565b5b808211156122d15760008160009055506001016122b9565b5090565b60006122e86122e3846130f0565b6130bf565b90508281526020810184848401111561230057600080fd5b61230b8482856132c2565b509392505050565b600061232661232184613120565b6130bf565b90508281526020810184848401111561233e57600080fd5b6123498482856132c2565b509392505050565b6000813590506123608161347d565b92915050565b60008135905061237581613494565b92915050565b60008135905061238a816134ab565b92915050565b60008151905061239f816134ab565b92915050565b600082601f8301126123b657600080fd5b81356123c68482602086016122d5565b91505092915050565b600082601f8301126123e057600080fd5b81356123f0848260208601612313565b91505092915050565b600081359050612408816134c2565b92915050565b60006020828403121561242057600080fd5b600061242e84828501612351565b91505092915050565b6000806040838503121561244a57600080fd5b600061245885828601612351565b925050602061246985828601612351565b9150509250929050565b60008060006060848603121561248857600080fd5b600061249686828701612351565b93505060206124a786828701612351565b92505060406124b8868287016123f9565b9150509250925092565b600080600080608085870312156124d857600080fd5b60006124e687828801612351565b94505060206124f787828801612351565b9350506040612508878288016123f9565b925050606085013567ffffffffffffffff81111561252557600080fd5b612531878288016123a5565b91505092959194509250565b6000806040838503121561255057600080fd5b600061255e85828601612351565b925050602061256f85828601612366565b9150509250929050565b6000806040838503121561258c57600080fd5b600061259a85828601612351565b92505060206125ab858286016123f9565b9150509250929050565b6000602082840312156125c757600080fd5b60006125d58482850161237b565b91505092915050565b6000602082840312156125f057600080fd5b60006125fe84828501612390565b91505092915050565b60006020828403121561261957600080fd5b6000612627848285016123f9565b91505092915050565b60008060006060848603121561264557600080fd5b6000612653868287016123f9565b935050602084013567ffffffffffffffff81111561267057600080fd5b61267c868287016123cf565b925050604084013567ffffffffffffffff81111561269957600080fd5b6126a5868287016123cf565b9150509250925092565b6126b88161324e565b82525050565b6126c781613260565b82525050565b60006126d882613150565b6126e28185613166565b93506126f28185602086016132d1565b6126fb8161346c565b840191505092915050565b60006127118261315b565b61271b8185613177565b935061272b8185602086016132d1565b6127348161346c565b840191505092915050565b600061274a8261315b565b6127548185613188565b93506127648185602086016132d1565b80840191505092915050565b600061277d602b83613177565b91507f455243373231456e756d657261626c653a206f776e657220696e646578206f7560008301527f74206f6620626f756e64730000000000000000000000000000000000000000006020830152604082019050919050565b60006127e3603283613177565b91507f4552433732313a207472616e7366657220746f206e6f6e20455243373231526560008301527f63656976657220696d706c656d656e74657200000000000000000000000000006020830152604082019050919050565b6000612849601c83613177565b91507f4552433732313a20746f6b656e20616c7265616479206d696e746564000000006000830152602082019050919050565b6000612889602483613177565b91507f4552433732313a207472616e7366657220746f20746865207a65726f2061646460008301527f72657373000000000000000000000000000000000000000000000000000000006020830152604082019050919050565b60006128ef601983613177565b91507f4552433732313a20617070726f766520746f2063616c6c6572000000000000006000830152602082019050919050565b600061292f602c83613177565b91507f4552433732313a206f70657261746f7220717565727920666f72206e6f6e657860008301527f697374656e7420746f6b656e00000000000000000000000000000000000000006020830152604082019050919050565b6000612995603883613177565b91507f4552433732313a20617070726f76652063616c6c6572206973206e6f74206f7760008301527f6e6572206e6f7220617070726f76656420666f7220616c6c00000000000000006020830152604082019050919050565b60006129fb602a83613177565b91507f4552433732313a2062616c616e636520717565727920666f7220746865207a6560008301527f726f2061646472657373000000000000000000000000000000000000000000006020830152604082019050919050565b6000612a61602983613177565b91507f4552433732313a206f776e657220717565727920666f72206e6f6e657869737460008301527f656e7420746f6b656e00000000000000000000000000000000000000000000006020830152604082019050919050565b6000612ac7602083613177565b91507f4552433732313a206d696e7420746f20746865207a65726f20616464726573736000830152602082019050919050565b6000612b07602c83613177565b91507f4552433732313a20617070726f76656420717565727920666f72206e6f6e657860008301527f697374656e7420746f6b656e00000000000000000000000000000000000000006020830152604082019050919050565b6000612b6d602983613177565b91507f4552433732313a207472616e73666572206f6620746f6b656e2074686174206960008301527f73206e6f74206f776e00000000000000000000000000000000000000000000006020830152604082019050919050565b6000612bd3602f83613177565b91507f4552433732314d657461646174613a2055524920717565727920666f72206e6f60008301527f6e6578697374656e7420746f6b656e00000000000000000000000000000000006020830152604082019050919050565b6000612c39602183613177565b91507f4552433732313a20617070726f76616c20746f2063757272656e74206f776e6560008301527f72000000000000000000000000000000000000000000000000000000000000006020830152604082019050919050565b6000612c9f603183613177565b91507f4552433732313a207472616e736665722063616c6c6572206973206e6f74206f60008301527f776e6572206e6f7220617070726f7665640000000000000000000000000000006020830152604082019050919050565b6000612d05602c83613177565b91507f455243373231456e756d657261626c653a20676c6f62616c20696e646578206f60008301527f7574206f6620626f756e647300000000000000000000000000000000000000006020830152604082019050919050565b612d67816132b8565b82525050565b6000612d79828561273f565b9150612d85828461273f565b91508190509392505050565b6000602082019050612da660008301846126af565b92915050565b6000608082019050612dc160008301876126af565b612dce60208301866126af565b612ddb6040830185612d5e565b8181036060830152612ded81846126cd565b905095945050505050565b6000602082019050612e0d60008301846126be565b92915050565b60006020820190508181036000830152612e2d8184612706565b905092915050565b60006020820190508181036000830152612e4e81612770565b9050919050565b60006020820190508181036000830152612e6e816127d6565b9050919050565b60006020820190508181036000830152612e8e8161283c565b9050919050565b60006020820190508181036000830152612eae8161287c565b9050919050565b60006020820190508181036000830152612ece816128e2565b9050919050565b60006020820190508181036000830152612eee81612922565b9050919050565b60006020820190508181036000830152612f0e81612988565b9050919050565b60006020820190508181036000830152612f2e816129ee565b9050919050565b60006020820190508181036000830152612f4e81612a54565b9050919050565b60006020820190508181036000830152612f6e81612aba565b9050919050565b60006020820190508181036000830152612f8e81612afa565b9050919050565b60006020820190508181036000830152612fae81612b60565b9050919050565b60006020820190508181036000830152612fce81612bc6565b9050919050565b60006020820190508181036000830152612fee81612c2c565b9050919050565b6000602082019050818103600083015261300e81612c92565b9050919050565b6000602082019050818103600083015261302e81612cf8565b9050919050565b600060208201905061304a6000830184612d5e565b92915050565b600060c0820190506130656000830189612d5e565b61307260208301886126af565b61307f6040830187612d5e565b81810360608301526130918186612706565b905081810360808301526130a58185612706565b90506130b460a0830184612d5e565b979650505050505050565b6000604051905081810181811067ffffffffffffffff821117156130e6576130e561343d565b5b8060405250919050565b600067ffffffffffffffff82111561310b5761310a61343d565b5b601f19601f8301169050602081019050919050565b600067ffffffffffffffff82111561313b5761313a61343d565b5b601f19601f8301169050602081019050919050565b600081519050919050565b600081519050919050565b600082825260208201905092915050565b600082825260208201905092915050565b600081905092915050565b600061319e826132b8565b91506131a9836132b8565b9250827fffffffffffffffffffffffffffffffffffffffffffffffffffffffffffffffff038211156131de576131dd6133b0565b5b828201905092915050565b60006131f4826132b8565b91506131ff836132b8565b92508261320f5761320e6133df565b5b828204905092915050565b6000613225826132b8565b9150613230836132b8565b925082821015613243576132426133b0565b5b828203905092915050565b600061325982613298565b9050919050565b60008115159050919050565b60007fffffffff0000000000000000000000000000000000000000000000000000000082169050919050565b600073ffffffffffffffffffffffffffffffffffffffff82169050919050565b6000819050919050565b82818337600083830152505050565b60005b838110156132ef5780820151818401526020810190506132d4565b838111156132fe576000848401525b50505050565b6000600282049050600182168061331c57607f821691505b602082108114156133305761332f61340e565b5b50919050565b6000613341826132b8565b91507fffffffffffffffffffffffffffffffffffffffffffffffffffffffffffffffff821415613374576133736133b0565b5b600182019050919050565b600061338a826132b8565b9150613395836132b8565b9250826133a5576133a46133df565b5b828206905092915050565b7f4e487b7100000000000000000000000000000000000000000000000000000000600052601160045260246000fd5b7f4e487b7100000000000000000000000000000000000000000000000000000000600052601260045260246000fd5b7f4e487b7100000000000000000000000000000000000000000000000000000000600052602260045260246000fd5b7f4e487b7100000000000000000000000000000000000000000000000000000000600052604160045260246000fd5b6000601f19601f8301169050919050565b6134868161324e565b811461349157600080fd5b50565b61349d81613260565b81146134a857600080fd5b50565b6134b48161326c565b81146134bf57600080fd5b50565b6134cb816132b8565b81146134d657600080fd5b5056fea26469706673582212207c2c199876633d16c3cfa6ba5b24b7ec1a9a6bafa024126d7806ad303be3ad6564736f6c63430008000033",
  "immutableReferences": {},
  "source": "// SPDX-License-Identifier: MIT\npragma solidity >=0.4.22 <0.9.0;\n\nimport \"@openzeppelin/contracts/token/ERC721/ERC721.sol\";\nimport \"@openzeppelin/contracts/token/ERC721/extensions/ERC721Enumerable.sol\";\n\ncontract Cards is ERC721Enumerable {\n    address public admin;\n    uint256 public nextItemId;\n\n    struct Card {\n        uint256 id;\n        address owner;\n        uint256 price;\n        string description;\n        string urlPicture;\n        uint256 timestamp;\n    }\n\n    mapping(address => Card) public marketCards;\n    mapping(address => mapping(uint256 => Card)) public myCards;\n\n    constructor() ERC721(\"Cards Futebol\", \"FUT\") {\n        admin = msg.sender;\n    }\n\n    function mintCards(\n        uint256 _price,\n        string memory _description,\n        string memory _urlPicture\n    ) external {\n\n        Card memory card = Card({\n            id: nextItemId,\n            owner: address(this),\n            price: _price,\n            description: _description,\n            urlPicture: _urlPicture,\n            timestamp: block.timestamp\n        });\n\n        _mint(address(this), nextItemId);\n        marketCards[address(this)] = card;\n\n        // tokenOfOwnerByIndex(owner, index);\n        // tokenByIndex(index);\n\n        nextItemId++;\n    }\n\n    function _baseURI() internal view virtual override returns (string memory) {\n        return \"\";\n    }\n}\n",
  "sourcePath": "/Volumes/APPLE HDD/reactprojects/cards-nft/contracts/Cards.sol",
  "compiler": {
    "name": "solc",
    "version": "0.8.0+commit.c7dfd78e.Emscripten.clang"
  },
  "schemaVersion": "3.4.3",
  "updatedAt": "2021-10-12T00:19:17.730Z",
  "networkType": "ethereum",
  "devdoc": {
    "kind": "dev",
    "methods": {
      "approve(address,uint256)": {
        "details": "See {IERC721-approve}."
      },
      "balanceOf(address)": {
        "details": "See {IERC721-balanceOf}."
      },
      "getApproved(uint256)": {
        "details": "See {IERC721-getApproved}."
      },
      "isApprovedForAll(address,address)": {
        "details": "See {IERC721-isApprovedForAll}."
      },
      "name()": {
        "details": "See {IERC721Metadata-name}."
      },
      "ownerOf(uint256)": {
        "details": "See {IERC721-ownerOf}."
      },
      "safeTransferFrom(address,address,uint256)": {
        "details": "See {IERC721-safeTransferFrom}."
      },
      "safeTransferFrom(address,address,uint256,bytes)": {
        "details": "See {IERC721-safeTransferFrom}."
      },
      "setApprovalForAll(address,bool)": {
        "details": "See {IERC721-setApprovalForAll}."
      },
      "supportsInterface(bytes4)": {
        "details": "See {IERC165-supportsInterface}."
      },
      "symbol()": {
        "details": "See {IERC721Metadata-symbol}."
      },
      "tokenByIndex(uint256)": {
        "details": "See {IERC721Enumerable-tokenByIndex}."
      },
      "tokenOfOwnerByIndex(address,uint256)": {
        "details": "See {IERC721Enumerable-tokenOfOwnerByIndex}."
      },
      "tokenURI(uint256)": {
        "details": "See {IERC721Metadata-tokenURI}."
      },
      "totalSupply()": {
        "details": "See {IERC721Enumerable-totalSupply}."
      },
      "transferFrom(address,address,uint256)": {
        "details": "See {IERC721-transferFrom}."
      }
    },
    "version": 1
  },
  "userdoc": {
    "kind": "user",
    "methods": {},
    "version": 1
  }
}