{
  "contractName": "Cards",
  "abi": [
    {
      "inputs": [],
      "stateMutability": "nonpayable",
      "type": "constructor"
    },
    {
      "anonymous": false,
      "inputs": [
        {
          "indexed": true,
          "internalType": "address",
          "name": "owner",
          "type": "address"
        },
        {
          "indexed": true,
          "internalType": "address",
          "name": "approved",
          "type": "address"
        },
        {
          "indexed": true,
          "internalType": "uint256",
          "name": "tokenId",
          "type": "uint256"
        }
      ],
      "name": "Approval",
      "type": "event"
    },
    {
      "anonymous": false,
      "inputs": [
        {
          "indexed": true,
          "internalType": "address",
          "name": "owner",
          "type": "address"
        },
        {
          "indexed": true,
          "internalType": "address",
          "name": "operator",
          "type": "address"
        },
        {
          "indexed": false,
          "internalType": "bool",
          "name": "approved",
          "type": "bool"
        }
      ],
      "name": "ApprovalForAll",
      "type": "event"
    },
    {
      "anonymous": false,
      "inputs": [
        {
          "indexed": true,
          "internalType": "address",
          "name": "from",
          "type": "address"
        },
        {
          "indexed": true,
          "internalType": "address",
          "name": "to",
          "type": "address"
        },
        {
          "indexed": true,
          "internalType": "uint256",
          "name": "tokenId",
          "type": "uint256"
        }
      ],
      "name": "Transfer",
      "type": "event"
    },
    {
      "anonymous": false,
      "inputs": [
        {
          "indexed": false,
          "internalType": "string",
          "name": "title",
          "type": "string"
        },
        {
          "indexed": false,
          "internalType": "uint256",
          "name": "id",
          "type": "uint256"
        },
        {
          "indexed": false,
          "internalType": "address",
          "name": "owner",
          "type": "address"
        },
        {
          "indexed": false,
          "internalType": "uint256",
          "name": "price",
          "type": "uint256"
        },
        {
          "indexed": false,
          "internalType": "string",
          "name": "description",
          "type": "string"
        },
        {
          "indexed": false,
          "internalType": "string",
          "name": "urlPicture",
          "type": "string"
        },
        {
          "indexed": false,
          "internalType": "uint256",
          "name": "timestamp",
          "type": "uint256"
        },
        {
          "indexed": false,
          "internalType": "uint256",
          "name": "totalAmount",
          "type": "uint256"
        },
        {
          "indexed": false,
          "internalType": "address",
          "name": "createdBy",
          "type": "address"
        }
      ],
      "name": "cardMinted",
      "type": "event"
    },
    {
      "anonymous": false,
      "inputs": [
        {
          "indexed": false,
          "internalType": "uint256",
          "name": "id",
          "type": "uint256"
        },
        {
          "indexed": false,
          "internalType": "address",
          "name": "from",
          "type": "address"
        },
        {
          "indexed": false,
          "internalType": "address",
          "name": "to",
          "type": "address"
        },
        {
          "indexed": false,
          "internalType": "uint256",
          "name": "timestamp",
          "type": "uint256"
        }
      ],
      "name": "cardTransfered",
      "type": "event"
    },
    {
      "inputs": [],
      "name": "CONTRACT_FEE",
      "outputs": [
        {
          "internalType": "uint256",
          "name": "",
          "type": "uint256"
        }
      ],
      "stateMutability": "view",
      "type": "function",
      "constant": true
    },
    {
      "inputs": [],
      "name": "CREATORS_FEE",
      "outputs": [
        {
          "internalType": "uint256",
          "name": "",
          "type": "uint256"
        }
      ],
      "stateMutability": "view",
      "type": "function",
      "constant": true
    },
    {
      "inputs": [],
      "name": "admin",
      "outputs": [
        {
          "internalType": "address",
          "name": "",
          "type": "address"
        }
      ],
      "stateMutability": "view",
      "type": "function",
      "constant": true
    },
    {
      "inputs": [
        {
          "internalType": "address",
          "name": "to",
          "type": "address"
        },
        {
          "internalType": "uint256",
          "name": "tokenId",
          "type": "uint256"
        }
      ],
      "name": "approve",
      "outputs": [],
      "stateMutability": "nonpayable",
      "type": "function"
    },
    {
      "inputs": [
        {
          "internalType": "address",
          "name": "owner",
          "type": "address"
        }
      ],
      "name": "balanceOf",
      "outputs": [
        {
          "internalType": "uint256",
          "name": "",
          "type": "uint256"
        }
      ],
      "stateMutability": "view",
      "type": "function",
      "constant": true
    },
    {
      "inputs": [
        {
          "internalType": "address",
          "name": "",
          "type": "address"
        }
      ],
      "name": "creators",
      "outputs": [
        {
          "internalType": "bool",
          "name": "",
          "type": "bool"
        }
      ],
      "stateMutability": "view",
      "type": "function",
      "constant": true
    },
    {
      "inputs": [
        {
          "internalType": "uint256",
          "name": "tokenId",
          "type": "uint256"
        }
      ],
      "name": "getApproved",
      "outputs": [
        {
          "internalType": "address",
          "name": "",
          "type": "address"
        }
      ],
      "stateMutability": "view",
      "type": "function",
      "constant": true
    },
    {
      "inputs": [
        {
          "internalType": "address",
          "name": "owner",
          "type": "address"
        },
        {
          "internalType": "address",
          "name": "operator",
          "type": "address"
        }
      ],
      "name": "isApprovedForAll",
      "outputs": [
        {
          "internalType": "bool",
          "name": "",
          "type": "bool"
        }
      ],
      "stateMutability": "view",
      "type": "function",
      "constant": true
    },
    {
      "inputs": [
        {
          "internalType": "address",
          "name": "",
          "type": "address"
        },
        {
          "internalType": "uint256",
          "name": "",
          "type": "uint256"
        }
      ],
      "name": "marketCards",
      "outputs": [
        {
          "internalType": "string",
          "name": "title",
          "type": "string"
        },
        {
          "internalType": "uint256",
          "name": "id",
          "type": "uint256"
        },
        {
          "internalType": "address",
          "name": "owner",
          "type": "address"
        },
        {
          "internalType": "uint256",
          "name": "price",
          "type": "uint256"
        },
        {
          "internalType": "string",
          "name": "description",
          "type": "string"
        },
        {
          "internalType": "string",
          "name": "urlPicture",
          "type": "string"
        },
        {
          "internalType": "string",
          "name": "club",
          "type": "string"
        },
        {
          "internalType": "uint256",
          "name": "timestamp",
          "type": "uint256"
        },
        {
          "internalType": "address",
          "name": "createdBy",
          "type": "address"
        },
        {
          "internalType": "uint256",
          "name": "totalAmount",
          "type": "uint256"
        }
      ],
      "stateMutability": "view",
      "type": "function",
      "constant": true
    },
    {
      "inputs": [
        {
          "internalType": "address",
          "name": "",
          "type": "address"
        },
        {
          "internalType": "uint256",
          "name": "",
          "type": "uint256"
        }
      ],
      "name": "myCards",
      "outputs": [
        {
          "internalType": "string",
          "name": "title",
          "type": "string"
        },
        {
          "internalType": "uint256",
          "name": "id",
          "type": "uint256"
        },
        {
          "internalType": "address",
          "name": "owner",
          "type": "address"
        },
        {
          "internalType": "uint256",
          "name": "price",
          "type": "uint256"
        },
        {
          "internalType": "string",
          "name": "description",
          "type": "string"
        },
        {
          "internalType": "string",
          "name": "urlPicture",
          "type": "string"
        },
        {
          "internalType": "string",
          "name": "club",
          "type": "string"
        },
        {
          "internalType": "uint256",
          "name": "timestamp",
          "type": "uint256"
        },
        {
          "internalType": "address",
          "name": "createdBy",
          "type": "address"
        },
        {
          "internalType": "uint256",
          "name": "totalAmount",
          "type": "uint256"
        }
      ],
      "stateMutability": "view",
      "type": "function",
      "constant": true
    },
    {
      "inputs": [],
      "name": "name",
      "outputs": [
        {
          "internalType": "string",
          "name": "",
          "type": "string"
        }
      ],
      "stateMutability": "view",
      "type": "function",
      "constant": true
    },
    {
      "inputs": [],
      "name": "nextItemId",
      "outputs": [
        {
          "internalType": "uint256",
          "name": "",
          "type": "uint256"
        }
      ],
      "stateMutability": "view",
      "type": "function",
      "constant": true
    },
    {
      "inputs": [
        {
          "internalType": "uint256",
          "name": "tokenId",
          "type": "uint256"
        }
      ],
      "name": "ownerOf",
      "outputs": [
        {
          "internalType": "address",
          "name": "",
          "type": "address"
        }
      ],
      "stateMutability": "view",
      "type": "function",
      "constant": true
    },
    {
      "inputs": [
        {
          "internalType": "address",
          "name": "from",
          "type": "address"
        },
        {
          "internalType": "address",
          "name": "to",
          "type": "address"
        },
        {
          "internalType": "uint256",
          "name": "tokenId",
          "type": "uint256"
        }
      ],
      "name": "safeTransferFrom",
      "outputs": [],
      "stateMutability": "nonpayable",
      "type": "function"
    },
    {
      "inputs": [
        {
          "internalType": "address",
          "name": "from",
          "type": "address"
        },
        {
          "internalType": "address",
          "name": "to",
          "type": "address"
        },
        {
          "internalType": "uint256",
          "name": "tokenId",
          "type": "uint256"
        },
        {
          "internalType": "bytes",
          "name": "_data",
          "type": "bytes"
        }
      ],
      "name": "safeTransferFrom",
      "outputs": [],
      "stateMutability": "nonpayable",
      "type": "function"
    },
    {
      "inputs": [
        {
          "internalType": "address",
          "name": "operator",
          "type": "address"
        },
        {
          "internalType": "bool",
          "name": "approved",
          "type": "bool"
        }
      ],
      "name": "setApprovalForAll",
      "outputs": [],
      "stateMutability": "nonpayable",
      "type": "function"
    },
    {
      "inputs": [
        {
          "internalType": "bytes4",
          "name": "interfaceId",
          "type": "bytes4"
        }
      ],
      "name": "supportsInterface",
      "outputs": [
        {
          "internalType": "bool",
          "name": "",
          "type": "bool"
        }
      ],
      "stateMutability": "view",
      "type": "function",
      "constant": true
    },
    {
      "inputs": [],
      "name": "symbol",
      "outputs": [
        {
          "internalType": "string",
          "name": "",
          "type": "string"
        }
      ],
      "stateMutability": "view",
      "type": "function",
      "constant": true
    },
    {
      "inputs": [
        {
          "internalType": "uint256",
          "name": "index",
          "type": "uint256"
        }
      ],
      "name": "tokenByIndex",
      "outputs": [
        {
          "internalType": "uint256",
          "name": "",
          "type": "uint256"
        }
      ],
      "stateMutability": "view",
      "type": "function",
      "constant": true
    },
    {
      "inputs": [
        {
          "internalType": "address",
          "name": "owner",
          "type": "address"
        },
        {
          "internalType": "uint256",
          "name": "index",
          "type": "uint256"
        }
      ],
      "name": "tokenOfOwnerByIndex",
      "outputs": [
        {
          "internalType": "uint256",
          "name": "",
          "type": "uint256"
        }
      ],
      "stateMutability": "view",
      "type": "function",
      "constant": true
    },
    {
      "inputs": [
        {
          "internalType": "uint256",
          "name": "tokenId",
          "type": "uint256"
        }
      ],
      "name": "tokenURI",
      "outputs": [
        {
          "internalType": "string",
          "name": "",
          "type": "string"
        }
      ],
      "stateMutability": "view",
      "type": "function",
      "constant": true
    },
    {
      "inputs": [],
      "name": "totalSupply",
      "outputs": [
        {
          "internalType": "uint256",
          "name": "",
          "type": "uint256"
        }
      ],
      "stateMutability": "view",
      "type": "function",
      "constant": true
    },
    {
      "inputs": [
        {
          "internalType": "address",
          "name": "from",
          "type": "address"
        },
        {
          "internalType": "address",
          "name": "to",
          "type": "address"
        },
        {
          "internalType": "uint256",
          "name": "tokenId",
          "type": "uint256"
        }
      ],
      "name": "transferFrom",
      "outputs": [],
      "stateMutability": "nonpayable",
      "type": "function"
    },
    {
      "inputs": [],
      "name": "retrieveFunds",
      "outputs": [],
      "stateMutability": "nonpayable",
      "type": "function"
    },
    {
      "inputs": [
        {
          "internalType": "address",
          "name": "_addr",
          "type": "address"
        }
      ],
      "name": "addCreator",
      "outputs": [],
      "stateMutability": "nonpayable",
      "type": "function"
    },
    {
      "inputs": [
        {
          "internalType": "address",
          "name": "_addr",
          "type": "address"
        }
      ],
      "name": "removeCreator",
      "outputs": [],
      "stateMutability": "nonpayable",
      "type": "function"
    },
    {
      "inputs": [],
      "name": "totalFundsCollected",
      "outputs": [
        {
          "internalType": "uint256",
          "name": "",
          "type": "uint256"
        }
      ],
      "stateMutability": "view",
      "type": "function",
      "constant": true
    },
    {
      "inputs": [
        {
          "internalType": "uint256",
          "name": "tokenId",
          "type": "uint256"
        }
      ],
      "name": "buyCardFromMarket",
      "outputs": [],
      "stateMutability": "payable",
      "type": "function",
      "payable": true
    },
    {
      "inputs": [
        {
          "internalType": "string",
          "name": "_title",
          "type": "string"
        },
        {
          "internalType": "uint256",
          "name": "_price",
          "type": "uint256"
        },
        {
          "internalType": "string",
          "name": "_description",
          "type": "string"
        },
        {
          "internalType": "string",
          "name": "_club",
          "type": "string"
        },
        {
          "internalType": "string",
          "name": "_urlPicture",
          "type": "string"
        },
        {
          "internalType": "uint256",
          "name": "_totalAmount",
          "type": "uint256"
        }
      ],
      "name": "mintCards",
      "outputs": [],
      "stateMutability": "nonpayable",
      "type": "function"
    }
  ],
  "bytecode": "0x60806040526103e8600c556107d0600d553480156200001d57600080fd5b506040518060400160405280600d81526020017f43617264732046757465626f6c000000000000000000000000000000000000008152506040518060400160405280600381526020017f46555400000000000000000000000000000000000000000000000000000000008152508160009080519060200190620000a292919062000105565b508060019080519060200190620000bb92919062000105565b50505033600a60006101000a81548173ffffffffffffffffffffffffffffffffffffffff021916908373ffffffffffffffffffffffffffffffffffffffff1602179055506200021a565b8280546200011390620001b5565b90600052602060002090601f01602090048101928262000137576000855562000183565b82601f106200015257805160ff191683800117855562000183565b8280016001018555821562000183579182015b828111156200018257825182559160200191906001019062000165565b5b50905062000192919062000196565b5090565b5b80821115620001b157600081600090555060010162000197565b5090565b60006002820490506001821680620001ce57607f821691505b60208210811415620001e557620001e4620001eb565b5b50919050565b7f4e487b7100000000000000000000000000000000000000000000000000000000600052602260045260246000fd5b614826806200022a6000396000f3fe6080604052600436106101c25760003560e01c80636ac408e5116100f7578063b88d4fde11610095578063e9cb5dd611610064578063e9cb5dd614610684578063f58a6d60146106ca578063f70d3746146106f5578063f851a44014610720576101c2565b8063b88d4fde146105b8578063bd6018bb146105e1578063c87b56dd1461060a578063e985e9c514610647576101c2565b8063895f9f9d116100d1578063895f9f9d146104fe578063933166e11461052757806395d89b4114610564578063a22cb4651461058f576101c2565b80636ac408e51461047a57806370a082311461049657806375fbbc87146104d3576101c2565b80632f745c59116101645780634f6ccce71161013e5780634f6ccce7146103be57806361b20d8c146103fb5780636352211e146104125780636a8689741461044f576101c2565b80632f745c591461032f5780633b9dce051461036c57806342842e0e14610395576101c2565b8063095ea7b3116101a0578063095ea7b31461026c57806318160ddd1461029557806323b872dd146102c05780632518d7e0146102e9576101c2565b806301ffc9a7146101c757806306fdde0314610204578063081812fc1461022f575b600080fd5b3480156101d357600080fd5b506101ee60048036038101906101e99190613577565b61074b565b6040516101fb9190613f4a565b60405180910390f35b34801561021057600080fd5b506102196107c5565b6040516102269190613f65565b60405180910390f35b34801561023b57600080fd5b50610256600480360381019061025191906136b2565b610857565b6040516102639190613ee3565b60405180910390f35b34801561027857600080fd5b50610293600480360381019061028e919061353b565b6108dc565b005b3480156102a157600080fd5b506102aa6109f4565b6040516102b79190614361565b60405180910390f35b3480156102cc57600080fd5b506102e760048036038101906102e29190613435565b610a01565b005b3480156102f557600080fd5b50610310600480360381019061030b919061353b565b610a61565b6040516103269a99989796959493929190613f87565b60405180910390f35b34801561033b57600080fd5b506103566004803603810190610351919061353b565b610d22565b6040516103639190614361565b60405180910390f35b34801561037857600080fd5b50610393600480360381019061038e91906133d0565b610dc7565b005b3480156103a157600080fd5b506103bc60048036038101906103b79190613435565b610eb2565b005b3480156103ca57600080fd5b506103e560048036038101906103e091906136b2565b610ed2565b6040516103f29190614361565b60405180910390f35b34801561040757600080fd5b50610410610f69565b005b34801561041e57600080fd5b50610439600480360381019061043491906136b2565b611064565b6040516104469190613ee3565b60405180910390f35b34801561045b57600080fd5b50610464611116565b6040516104719190614361565b60405180910390f35b610494600480360381019061048f91906136b2565b61111c565b005b3480156104a257600080fd5b506104bd60048036038101906104b891906133d0565b6115ac565b6040516104ca9190614361565b60405180910390f35b3480156104df57600080fd5b506104e8611664565b6040516104f59190614361565b60405180910390f35b34801561050a57600080fd5b50610525600480360381019061052091906135c9565b61166a565b005b34801561053357600080fd5b5061054e600480360381019061054991906133d0565b61191d565b60405161055b9190613f4a565b60405180910390f35b34801561057057600080fd5b5061057961193d565b6040516105869190613f65565b60405180910390f35b34801561059b57600080fd5b506105b660048036038101906105b191906134ff565b6119cf565b005b3480156105c457600080fd5b506105df60048036038101906105da9190613484565b611b50565b005b3480156105ed57600080fd5b50610608600480360381019061060391906133d0565b611bb2565b005b34801561061657600080fd5b50610631600480360381019061062c91906136b2565b611c9d565b60405161063e9190613f65565b60405180910390f35b34801561065357600080fd5b5061066e600480360381019061066991906133f9565b611d44565b60405161067b9190613f4a565b60405180910390f35b34801561069057600080fd5b506106ab60048036038101906106a6919061353b565b611dd8565b6040516106c19a99989796959493929190613f87565b60405180910390f35b3480156106d657600080fd5b506106df612099565b6040516106ec9190614361565b60405180910390f35b34801561070157600080fd5b5061070a6120a1565b6040516107179190614361565b60405180910390f35b34801561072c57600080fd5b506107356120a7565b6040516107429190613ee3565b60405180910390f35b60007f780e9d63000000000000000000000000000000000000000000000000000000007bffffffffffffffffffffffffffffffffffffffffffffffffffffffff1916827bffffffffffffffffffffffffffffffffffffffffffffffffffffffff191614806107be57506107bd826120cd565b5b9050919050565b6060600080546107d49061461b565b80601f01602080910402602001604051908101604052809291908181526020018280546108009061461b565b801561084d5780601f106108225761010080835404028352916020019161084d565b820191906000526020600020905b81548152906001019060200180831161083057829003601f168201915b5050505050905090565b6000610862826121af565b6108a1576040517f08c379a000000000000000000000000000000000000000000000000000000000815260040161089890614261565b60405180910390fd5b6004600083815260200190815260200160002060009054906101000a900473ffffffffffffffffffffffffffffffffffffffff169050919050565b60006108e782611064565b90508073ffffffffffffffffffffffffffffffffffffffff168373ffffffffffffffffffffffffffffffffffffffff161415610958576040517f08c379a000000000000000000000000000000000000000000000000000000000815260040161094f906142c1565b60405180910390fd5b8073ffffffffffffffffffffffffffffffffffffffff1661097761221b565b73ffffffffffffffffffffffffffffffffffffffff1614806109a657506109a5816109a061221b565b611d44565b5b6109e5576040517f08c379a00000000000000000000000000000000000000000000000000000000081526004016109dc906141c1565b60405180910390fd5b6109ef8383612223565b505050565b6000600880549050905090565b610a12610a0c61221b565b826122dc565b610a51576040517f08c379a0000000000000000000000000000000000000000000000000000000008152600401610a48906142e1565b60405180910390fd5b610a5c8383836123ba565b505050565b600e60205281600052604060002060205280600052604060002060009150915050806000018054610a919061461b565b80601f0160208091040260200160405190810160405280929190818152602001828054610abd9061461b565b8015610b0a5780601f10610adf57610100808354040283529160200191610b0a565b820191906000526020600020905b815481529060010190602001808311610aed57829003601f168201915b5050505050908060010154908060020160009054906101000a900473ffffffffffffffffffffffffffffffffffffffff1690806003015490806004018054610b519061461b565b80601f0160208091040260200160405190810160405280929190818152602001828054610b7d9061461b565b8015610bca5780601f10610b9f57610100808354040283529160200191610bca565b820191906000526020600020905b815481529060010190602001808311610bad57829003601f168201915b505050505090806005018054610bdf9061461b565b80601f0160208091040260200160405190810160405280929190818152602001828054610c0b9061461b565b8015610c585780601f10610c2d57610100808354040283529160200191610c58565b820191906000526020600020905b815481529060010190602001808311610c3b57829003601f168201915b505050505090806006018054610c6d9061461b565b80601f0160208091040260200160405190810160405280929190818152602001828054610c999061461b565b8015610ce65780601f10610cbb57610100808354040283529160200191610ce6565b820191906000526020600020905b815481529060010190602001808311610cc957829003601f168201915b5050505050908060070154908060080160009054906101000a900473ffffffffffffffffffffffffffffffffffffffff1690806009015490508a565b6000610d2d836115ac565b8210610d6e576040517f08c379a0000000000000000000000000000000000000000000000000000000008152600401610d65906140e1565b60405180910390fd5b600660008473ffffffffffffffffffffffffffffffffffffffff1673ffffffffffffffffffffffffffffffffffffffff168152602001908152602001600020600083815260200190815260200160002054905092915050565b3373ffffffffffffffffffffffffffffffffffffffff16600a60009054906101000a900473ffffffffffffffffffffffffffffffffffffffff1673ffffffffffffffffffffffffffffffffffffffff1614610e57576040517f08c379a0000000000000000000000000000000000000000000000000000000008152600401610e4e90614301565b60405180910390fd5b6001601060008373ffffffffffffffffffffffffffffffffffffffff1673ffffffffffffffffffffffffffffffffffffffff16815260200190815260200160002060006101000a81548160ff02191690831515021790555050565b610ecd83838360405180602001604052806000815250611b50565b505050565b6000610edc6109f4565b8210610f1d576040517f08c379a0000000000000000000000000000000000000000000000000000000008152600401610f1490614321565b60405180910390fd5b60088281548110610f57577f4e487b7100000000000000000000000000000000000000000000000000000000600052603260045260246000fd5b90600052602060002001549050919050565b600a60009054906101000a900473ffffffffffffffffffffffffffffffffffffffff1673ffffffffffffffffffffffffffffffffffffffff163373ffffffffffffffffffffffffffffffffffffffff1614610ff9576040517f08c379a0000000000000000000000000000000000000000000000000000000008152600401610ff090614221565b60405180910390fd5b600a60009054906101000a900473ffffffffffffffffffffffffffffffffffffffff1673ffffffffffffffffffffffffffffffffffffffff166108fc479081150290604051600060405180830381858888f19350505050158015611061573d6000803e3d6000fd5b50565b6000806002600084815260200190815260200160002060009054906101000a900473ffffffffffffffffffffffffffffffffffffffff169050600073ffffffffffffffffffffffffffffffffffffffff168173ffffffffffffffffffffffffffffffffffffffff16141561110d576040517f08c379a000000000000000000000000000000000000000000000000000000000815260040161110490614201565b60405180910390fd5b80915050919050565b600b5481565b600e60003073ffffffffffffffffffffffffffffffffffffffff1673ffffffffffffffffffffffffffffffffffffffff16815260200190815260200160002060008281526020019081526020016000206003015434146111b1576040517f08c379a00000000000000000000000000000000000000000000000000000000081526004016111a890614341565b60405180910390fd5b60006111bc34612616565b9050600e60003073ffffffffffffffffffffffffffffffffffffffff1673ffffffffffffffffffffffffffffffffffffffff168152602001908152602001600020600083815260200190815260200160002060080160009054906101000a900473ffffffffffffffffffffffffffffffffffffffff1673ffffffffffffffffffffffffffffffffffffffff166108fc82346112579190614531565b9081150290604051600060405180830381858888f19350505050158015611282573d6000803e3d6000fd5b5061128e3033846123ba565b600e60003073ffffffffffffffffffffffffffffffffffffffff1673ffffffffffffffffffffffffffffffffffffffff1681526020019081526020016000206000838152602001908152602001600020600f60003373ffffffffffffffffffffffffffffffffffffffff1673ffffffffffffffffffffffffffffffffffffffff168152602001908152602001600020600084815260200190815260200160002060008201816000019080546113429061461b565b61134d929190613127565b50600182015481600101556002820160009054906101000a900473ffffffffffffffffffffffffffffffffffffffff168160020160006101000a81548173ffffffffffffffffffffffffffffffffffffffff021916908373ffffffffffffffffffffffffffffffffffffffff1602179055506003820154816003015560048201816004019080546113dd9061461b565b6113e8929190613127565b5060058201816005019080546113fd9061461b565b611408929190613127565b50600682018160060190805461141d9061461b565b611428929190613127565b50600782015481600701556008820160009054906101000a900473ffffffffffffffffffffffffffffffffffffffff168160080160006101000a81548173ffffffffffffffffffffffffffffffffffffffff021916908373ffffffffffffffffffffffffffffffffffffffff16021790555060098201548160090155905050600e60003073ffffffffffffffffffffffffffffffffffffffff1673ffffffffffffffffffffffffffffffffffffffff16815260200190815260200160002060008381526020019081526020016000206000808201600061150891906131b4565b60018201600090556002820160006101000a81549073ffffffffffffffffffffffffffffffffffffffff0219169055600382016000905560048201600061154f91906131b4565b60058201600061155f91906131b4565b60068201600061156f91906131b4565b60078201600090556008820160006101000a81549073ffffffffffffffffffffffffffffffffffffffff0219169055600982016000905550505050565b60008073ffffffffffffffffffffffffffffffffffffffff168273ffffffffffffffffffffffffffffffffffffffff16141561161d576040517f08c379a0000000000000000000000000000000000000000000000000000000008152600401611614906141e1565b60405180910390fd5b600360008373ffffffffffffffffffffffffffffffffffffffff1673ffffffffffffffffffffffffffffffffffffffff168152602001908152602001600020549050919050565b600d5481565b60005b81811015611914576000604051806101400160405280898152602001600b5481526020013073ffffffffffffffffffffffffffffffffffffffff1681526020018881526020018781526020018581526020018681526020014281526020013373ffffffffffffffffffffffffffffffffffffffff1681526020018481525090506116f930600b54612694565b80600e60003073ffffffffffffffffffffffffffffffffffffffff1673ffffffffffffffffffffffffffffffffffffffff1681526020019081526020016000206000600b54815260200190815260200160002060008201518160000190805190602001906117689291906131f4565b506020820151816001015560408201518160020160006101000a81548173ffffffffffffffffffffffffffffffffffffffff021916908373ffffffffffffffffffffffffffffffffffffffff1602179055506060820151816003015560808201518160040190805190602001906117e09291906131f4565b5060a08201518160050190805190602001906117fd9291906131f4565b5060c082015181600601908051906020019061181a9291906131f4565b5060e082015181600701556101008201518160080160006101000a81548173ffffffffffffffffffffffffffffffffffffffff021916908373ffffffffffffffffffffffffffffffffffffffff1602179055506101208201518160090155905050600b600081548092919061188e9061464d565b91905055507f76d7fc2acd49c7f7e283c64228d295e5b6020449a55771e32a9ce55ffdeb8707816000015182602001518360400151846060015185608001518660a001518760e001518861012001518961010001516040516118f89998979695949392919061403f565b60405180910390a150808061190c9061464d565b91505061166d565b50505050505050565b60106020528060005260406000206000915054906101000a900460ff1681565b60606001805461194c9061461b565b80601f01602080910402602001604051908101604052809291908181526020018280546119789061461b565b80156119c55780601f1061199a576101008083540402835291602001916119c5565b820191906000526020600020905b8154815290600101906020018083116119a857829003601f168201915b5050505050905090565b6119d761221b565b73ffffffffffffffffffffffffffffffffffffffff168273ffffffffffffffffffffffffffffffffffffffff161415611a45576040517f08c379a0000000000000000000000000000000000000000000000000000000008152600401611a3c90614181565b60405180910390fd5b8060056000611a5261221b565b73ffffffffffffffffffffffffffffffffffffffff1673ffffffffffffffffffffffffffffffffffffffff16815260200190815260200160002060008473ffffffffffffffffffffffffffffffffffffffff1673ffffffffffffffffffffffffffffffffffffffff16815260200190815260200160002060006101000a81548160ff0219169083151502179055508173ffffffffffffffffffffffffffffffffffffffff16611aff61221b565b73ffffffffffffffffffffffffffffffffffffffff167f17307eab39ab6107e8899845ad3d59bd9653f200f220920489ca2b5937696c3183604051611b449190613f4a565b60405180910390a35050565b611b61611b5b61221b565b836122dc565b611ba0576040517f08c379a0000000000000000000000000000000000000000000000000000000008152600401611b97906142e1565b60405180910390fd5b611bac84848484612862565b50505050565b3373ffffffffffffffffffffffffffffffffffffffff16600a60009054906101000a900473ffffffffffffffffffffffffffffffffffffffff1673ffffffffffffffffffffffffffffffffffffffff1614611c42576040517f08c379a0000000000000000000000000000000000000000000000000000000008152600401611c3990614301565b60405180910390fd5b6000601060008373ffffffffffffffffffffffffffffffffffffffff1673ffffffffffffffffffffffffffffffffffffffff16815260200190815260200160002060006101000a81548160ff02191690831515021790555050565b6060611ca8826121af565b611ce7576040517f08c379a0000000000000000000000000000000000000000000000000000000008152600401611cde906142a1565b60405180910390fd5b6000611cf16128be565b90506000815111611d115760405180602001604052806000815250611d3c565b80611d1b846128d5565b604051602001611d2c929190613ebf565b6040516020818303038152906040525b915050919050565b6000600560008473ffffffffffffffffffffffffffffffffffffffff1673ffffffffffffffffffffffffffffffffffffffff16815260200190815260200160002060008373ffffffffffffffffffffffffffffffffffffffff1673ffffffffffffffffffffffffffffffffffffffff16815260200190815260200160002060009054906101000a900460ff16905092915050565b600f60205281600052604060002060205280600052604060002060009150915050806000018054611e089061461b565b80601f0160208091040260200160405190810160405280929190818152602001828054611e349061461b565b8015611e815780601f10611e5657610100808354040283529160200191611e81565b820191906000526020600020905b815481529060010190602001808311611e6457829003601f168201915b5050505050908060010154908060020160009054906101000a900473ffffffffffffffffffffffffffffffffffffffff1690806003015490806004018054611ec89061461b565b80601f0160208091040260200160405190810160405280929190818152602001828054611ef49061461b565b8015611f415780601f10611f1657610100808354040283529160200191611f41565b820191906000526020600020905b815481529060010190602001808311611f2457829003601f168201915b505050505090806005018054611f569061461b565b80601f0160208091040260200160405190810160405280929190818152602001828054611f829061461b565b8015611fcf5780601f10611fa457610100808354040283529160200191611fcf565b820191906000526020600020905b815481529060010190602001808311611fb257829003601f168201915b505050505090806006018054611fe49061461b565b80601f01602080910402602001604051908101604052809291908181526020018280546120109061461b565b801561205d5780601f106120325761010080835404028352916020019161205d565b820191906000526020600020905b81548152906001019060200180831161204057829003601f168201915b5050505050908060070154908060080160009054906101000a900473ffffffffffffffffffffffffffffffffffffffff1690806009015490508a565b600047905090565b600c5481565b600a60009054906101000a900473ffffffffffffffffffffffffffffffffffffffff1681565b60007f80ac58cd000000000000000000000000000000000000000000000000000000007bffffffffffffffffffffffffffffffffffffffffffffffffffffffff1916827bffffffffffffffffffffffffffffffffffffffffffffffffffffffff1916148061219857507f5b5e139f000000000000000000000000000000000000000000000000000000007bffffffffffffffffffffffffffffffffffffffffffffffffffffffff1916827bffffffffffffffffffffffffffffffffffffffffffffffffffffffff1916145b806121a857506121a782612a82565b5b9050919050565b60008073ffffffffffffffffffffffffffffffffffffffff166002600084815260200190815260200160002060009054906101000a900473ffffffffffffffffffffffffffffffffffffffff1673ffffffffffffffffffffffffffffffffffffffff1614159050919050565b600033905090565b816004600083815260200190815260200160002060006101000a81548173ffffffffffffffffffffffffffffffffffffffff021916908373ffffffffffffffffffffffffffffffffffffffff160217905550808273ffffffffffffffffffffffffffffffffffffffff1661229683611064565b73ffffffffffffffffffffffffffffffffffffffff167f8c5be1e5ebec7d5bd14f71427d1e84f3dd0314c0f7b2291e5b200ac8c7c3b92560405160405180910390a45050565b60006122e7826121af565b612326576040517f08c379a000000000000000000000000000000000000000000000000000000000815260040161231d906141a1565b60405180910390fd5b600061233183611064565b90508073ffffffffffffffffffffffffffffffffffffffff168473ffffffffffffffffffffffffffffffffffffffff1614806123a057508373ffffffffffffffffffffffffffffffffffffffff1661238884610857565b73ffffffffffffffffffffffffffffffffffffffff16145b806123b157506123b08185611d44565b5b91505092915050565b8273ffffffffffffffffffffffffffffffffffffffff166123da82611064565b73ffffffffffffffffffffffffffffffffffffffff1614612430576040517f08c379a000000000000000000000000000000000000000000000000000000000815260040161242790614281565b60405180910390fd5b600073ffffffffffffffffffffffffffffffffffffffff168273ffffffffffffffffffffffffffffffffffffffff1614156124a0576040517f08c379a000000000000000000000000000000000000000000000000000000000815260040161249790614161565b60405180910390fd5b6124ab838383612aec565b6124b6600082612223565b6001600360008573ffffffffffffffffffffffffffffffffffffffff1673ffffffffffffffffffffffffffffffffffffffff16815260200190815260200160002060008282546125069190614531565b925050819055506001600360008473ffffffffffffffffffffffffffffffffffffffff1673ffffffffffffffffffffffffffffffffffffffff168152602001908152602001600020600082825461255d9190614450565b92505081905550816002600083815260200190815260200160002060006101000a81548173ffffffffffffffffffffffffffffffffffffffff021916908373ffffffffffffffffffffffffffffffffffffffff160217905550808273ffffffffffffffffffffffffffffffffffffffff168473ffffffffffffffffffffffffffffffffffffffff167fddf252ad1be2c89b69c2b068fc378daa952ba7f163c4a11628f55a4df523b3ef60405160405180910390a4505050565b600081612710808461262891906144a6565b61263291906144d7565b14612672576040517f08c379a000000000000000000000000000000000000000000000000000000000815260040161266990614141565b60405180910390fd5b612710600c548361268391906144d7565b61268d91906144a6565b9050919050565b600073ffffffffffffffffffffffffffffffffffffffff168273ffffffffffffffffffffffffffffffffffffffff161415612704576040517f08c379a00000000000000000000000000000000000000000000000000000000081526004016126fb90614241565b60405180910390fd5b61270d816121af565b1561274d576040517f08c379a000000000000000000000000000000000000000000000000000000000815260040161274490614121565b60405180910390fd5b61275960008383612aec565b6001600360008473ffffffffffffffffffffffffffffffffffffffff1673ffffffffffffffffffffffffffffffffffffffff16815260200190815260200160002060008282546127a99190614450565b92505081905550816002600083815260200190815260200160002060006101000a81548173ffffffffffffffffffffffffffffffffffffffff021916908373ffffffffffffffffffffffffffffffffffffffff160217905550808273ffffffffffffffffffffffffffffffffffffffff16600073ffffffffffffffffffffffffffffffffffffffff167fddf252ad1be2c89b69c2b068fc378daa952ba7f163c4a11628f55a4df523b3ef60405160405180910390a45050565b61286d8484846123ba565b61287984848484612c00565b6128b8576040517f08c379a00000000000000000000000000000000000000000000000000000000081526004016128af90614101565b60405180910390fd5b50505050565b606060405180602001604052806000815250905090565b6060600082141561291d576040518060400160405280600181526020017f30000000000000000000000000000000000000000000000000000000000000008152509050612a7d565b600082905060005b6000821461294f5780806129389061464d565b915050600a8261294891906144a6565b9150612925565b60008167ffffffffffffffff811115612991577f4e487b7100000000000000000000000000000000000000000000000000000000600052604160045260246000fd5b6040519080825280601f01601f1916602001820160405280156129c35781602001600182028036833780820191505090505b5090505b60008514612a76576001826129dc9190614531565b9150600a856129eb9190614696565b60306129f79190614450565b60f81b818381518110612a33577f4e487b7100000000000000000000000000000000000000000000000000000000600052603260045260246000fd5b60200101907effffffffffffffffffffffffffffffffffffffffffffffffffffffffffffff1916908160001a905350600a85612a6f91906144a6565b94506129c7565b8093505050505b919050565b60007f01ffc9a7000000000000000000000000000000000000000000000000000000007bffffffffffffffffffffffffffffffffffffffffffffffffffffffff1916827bffffffffffffffffffffffffffffffffffffffffffffffffffffffff1916149050919050565b612af7838383612d97565b600073ffffffffffffffffffffffffffffffffffffffff168373ffffffffffffffffffffffffffffffffffffffff161415612b3a57612b3581612d9c565b612b79565b8173ffffffffffffffffffffffffffffffffffffffff168373ffffffffffffffffffffffffffffffffffffffff1614612b7857612b778382612de5565b5b5b600073ffffffffffffffffffffffffffffffffffffffff168273ffffffffffffffffffffffffffffffffffffffff161415612bbc57612bb781612f52565b612bfb565b8273ffffffffffffffffffffffffffffffffffffffff168273ffffffffffffffffffffffffffffffffffffffff1614612bfa57612bf98282613095565b5b5b505050565b6000612c218473ffffffffffffffffffffffffffffffffffffffff16613114565b15612d8a578373ffffffffffffffffffffffffffffffffffffffff1663150b7a02612c4a61221b565b8786866040518563ffffffff1660e01b8152600401612c6c9493929190613efe565b602060405180830381600087803b158015612c8657600080fd5b505af1925050508015612cb757506040513d601f19601f82011682018060405250810190612cb491906135a0565b60015b612d3a573d8060008114612ce7576040519150601f19603f3d011682016040523d82523d6000602084013e612cec565b606091505b50600081511415612d32576040517f08c379a0000000000000000000000000000000000000000000000000000000008152600401612d2990614101565b60405180910390fd5b805181602001fd5b63150b7a0260e01b7bffffffffffffffffffffffffffffffffffffffffffffffffffffffff1916817bffffffffffffffffffffffffffffffffffffffffffffffffffffffff191614915050612d8f565b600190505b949350505050565b505050565b6008805490506009600083815260200190815260200160002081905550600881908060018154018082558091505060019003906000526020600020016000909190919091505550565b60006001612df2846115ac565b612dfc9190614531565b9050600060076000848152602001908152602001600020549050818114612ee1576000600660008673ffffffffffffffffffffffffffffffffffffffff1673ffffffffffffffffffffffffffffffffffffffff168152602001908152602001600020600084815260200190815260200160002054905080600660008773ffffffffffffffffffffffffffffffffffffffff1673ffffffffffffffffffffffffffffffffffffffff168152602001908152602001600020600084815260200190815260200160002081905550816007600083815260200190815260200160002081905550505b6007600084815260200190815260200160002060009055600660008573ffffffffffffffffffffffffffffffffffffffff1673ffffffffffffffffffffffffffffffffffffffff16815260200190815260200160002060008381526020019081526020016000206000905550505050565b60006001600880549050612f669190614531565b9050600060096000848152602001908152602001600020549050600060088381548110612fbc577f4e487b7100000000000000000000000000000000000000000000000000000000600052603260045260246000fd5b906000526020600020015490508060088381548110613004577f4e487b7100000000000000000000000000000000000000000000000000000000600052603260045260246000fd5b906000526020600020018190555081600960008381526020019081526020016000208190555060096000858152602001908152602001600020600090556008805480613079577f4e487b7100000000000000000000000000000000000000000000000000000000600052603160045260246000fd5b6001900381819060005260206000200160009055905550505050565b60006130a0836115ac565b905081600660008573ffffffffffffffffffffffffffffffffffffffff1673ffffffffffffffffffffffffffffffffffffffff168152602001908152602001600020600083815260200190815260200160002081905550806007600084815260200190815260200160002081905550505050565b600080823b905060008111915050919050565b8280546131339061461b565b90600052602060002090601f01602090048101928261315557600085556131a3565b82601f1061316657805485556131a3565b828001600101855582156131a357600052602060002091601f016020900482015b828111156131a2578254825591600101919060010190613187565b5b5090506131b0919061327a565b5090565b5080546131c09061461b565b6000825580601f106131d257506131f1565b601f0160209004906000526020600020908101906131f0919061327a565b5b50565b8280546132009061461b565b90600052602060002090601f0160209004810192826132225760008555613269565b82601f1061323b57805160ff1916838001178555613269565b82800160010185558215613269579182015b8281111561326857825182559160200191906001019061324d565b5b509050613276919061327a565b5090565b5b8082111561329357600081600090555060010161327b565b5090565b60006132aa6132a5846143ad565b61437c565b9050828152602081018484840111156132c257600080fd5b6132cd8482856145d9565b509392505050565b60006132e86132e3846143dd565b61437c565b90508281526020810184848401111561330057600080fd5b61330b8482856145d9565b509392505050565b60008135905061332281614794565b92915050565b600081359050613337816147ab565b92915050565b60008135905061334c816147c2565b92915050565b600081519050613361816147c2565b92915050565b600082601f83011261337857600080fd5b8135613388848260208601613297565b91505092915050565b600082601f8301126133a257600080fd5b81356133b28482602086016132d5565b91505092915050565b6000813590506133ca816147d9565b92915050565b6000602082840312156133e257600080fd5b60006133f084828501613313565b91505092915050565b6000806040838503121561340c57600080fd5b600061341a85828601613313565b925050602061342b85828601613313565b9150509250929050565b60008060006060848603121561344a57600080fd5b600061345886828701613313565b935050602061346986828701613313565b925050604061347a868287016133bb565b9150509250925092565b6000806000806080858703121561349a57600080fd5b60006134a887828801613313565b94505060206134b987828801613313565b93505060406134ca878288016133bb565b925050606085013567ffffffffffffffff8111156134e757600080fd5b6134f387828801613367565b91505092959194509250565b6000806040838503121561351257600080fd5b600061352085828601613313565b925050602061353185828601613328565b9150509250929050565b6000806040838503121561354e57600080fd5b600061355c85828601613313565b925050602061356d858286016133bb565b9150509250929050565b60006020828403121561358957600080fd5b60006135978482850161333d565b91505092915050565b6000602082840312156135b257600080fd5b60006135c084828501613352565b91505092915050565b60008060008060008060c087890312156135e257600080fd5b600087013567ffffffffffffffff8111156135fc57600080fd5b61360889828a01613391565b965050602061361989828a016133bb565b955050604087013567ffffffffffffffff81111561363657600080fd5b61364289828a01613391565b945050606087013567ffffffffffffffff81111561365f57600080fd5b61366b89828a01613391565b935050608087013567ffffffffffffffff81111561368857600080fd5b61369489828a01613391565b92505060a06136a589828a016133bb565b9150509295509295509295565b6000602082840312156136c457600080fd5b60006136d2848285016133bb565b91505092915050565b6136e481614565565b82525050565b6136f381614577565b82525050565b60006137048261440d565b61370e8185614423565b935061371e8185602086016145e8565b61372781614783565b840191505092915050565b600061373d82614418565b6137478185614434565b93506137578185602086016145e8565b61376081614783565b840191505092915050565b600061377682614418565b6137808185614445565b93506137908185602086016145e8565b80840191505092915050565b60006137a9602b83614434565b91507f455243373231456e756d657261626c653a206f776e657220696e646578206f7560008301527f74206f6620626f756e64730000000000000000000000000000000000000000006020830152604082019050919050565b600061380f603283614434565b91507f4552433732313a207472616e7366657220746f206e6f6e20455243373231526560008301527f63656976657220696d706c656d656e74657200000000000000000000000000006020830152604082019050919050565b6000613875601c83614434565b91507f4552433732313a20746f6b656e20616c7265616479206d696e746564000000006000830152602082019050919050565b60006138b5600983614434565b91507f746f6f20736d616c6c00000000000000000000000000000000000000000000006000830152602082019050919050565b60006138f5602483614434565b91507f4552433732313a207472616e7366657220746f20746865207a65726f2061646460008301527f72657373000000000000000000000000000000000000000000000000000000006020830152604082019050919050565b600061395b601983614434565b91507f4552433732313a20617070726f766520746f2063616c6c6572000000000000006000830152602082019050919050565b600061399b602c83614434565b91507f4552433732313a206f70657261746f7220717565727920666f72206e6f6e657860008301527f697374656e7420746f6b656e00000000000000000000000000000000000000006020830152604082019050919050565b6000613a01603883614434565b91507f4552433732313a20617070726f76652063616c6c6572206973206e6f74206f7760008301527f6e6572206e6f7220617070726f76656420666f7220616c6c00000000000000006020830152604082019050919050565b6000613a67602a83614434565b91507f4552433732313a2062616c616e636520717565727920666f7220746865207a6560008301527f726f2061646472657373000000000000000000000000000000000000000000006020830152604082019050919050565b6000613acd602983614434565b91507f4552433732313a206f776e657220717565727920666f72206e6f6e657869737460008301527f656e7420746f6b656e00000000000000000000000000000000000000000000006020830152604082019050919050565b6000613b33601383614434565b91507f594f5520415245204e4f5420414c4c4f574544000000000000000000000000006000830152602082019050919050565b6000613b73602083614434565b91507f4552433732313a206d696e7420746f20746865207a65726f20616464726573736000830152602082019050919050565b6000613bb3602c83614434565b91507f4552433732313a20617070726f76656420717565727920666f72206e6f6e657860008301527f697374656e7420746f6b656e00000000000000000000000000000000000000006020830152604082019050919050565b6000613c19602983614434565b91507f4552433732313a207472616e73666572206f6620746f6b656e2074686174206960008301527f73206e6f74206f776e00000000000000000000000000000000000000000000006020830152604082019050919050565b6000613c7f602f83614434565b91507f4552433732314d657461646174613a2055524920717565727920666f72206e6f60008301527f6e6578697374656e7420746f6b656e00000000000000000000000000000000006020830152604082019050919050565b6000613ce5602183614434565b91507f4552433732313a20617070726f76616c20746f2063757272656e74206f776e6560008301527f72000000000000000000000000000000000000000000000000000000000000006020830152604082019050919050565b6000613d4b603183614434565b91507f4552433732313a207472616e736665722063616c6c6572206973206e6f74206f60008301527f776e6572206e6f7220617070726f7665640000000000000000000000000000006020830152604082019050919050565b6000613db1601183614434565b91507f594f5520415245204e4f542041444d494e0000000000000000000000000000006000830152602082019050919050565b6000613df1602c83614434565b91507f455243373231456e756d657261626c653a20676c6f62616c20696e646578206f60008301527f7574206f6620626f756e647300000000000000000000000000000000000000006020830152604082019050919050565b6000613e57603083614434565b91507f4e4f542054484520524947485420414d4f554e54204f46204554482c204d415960008301527f204245204d4f5245204f52204c455353000000000000000000000000000000006020830152604082019050919050565b613eb9816145cf565b82525050565b6000613ecb828561376b565b9150613ed7828461376b565b91508190509392505050565b6000602082019050613ef860008301846136db565b92915050565b6000608082019050613f1360008301876136db565b613f2060208301866136db565b613f2d6040830185613eb0565b8181036060830152613f3f81846136f9565b905095945050505050565b6000602082019050613f5f60008301846136ea565b92915050565b60006020820190508181036000830152613f7f8184613732565b905092915050565b6000610140820190508181036000830152613fa2818d613732565b9050613fb1602083018c613eb0565b613fbe604083018b6136db565b613fcb606083018a613eb0565b8181036080830152613fdd8189613732565b905081810360a0830152613ff18188613732565b905081810360c08301526140058187613732565b905061401460e0830186613eb0565b6140226101008301856136db565b614030610120830184613eb0565b9b9a5050505050505050505050565b600061012082019050818103600083015261405a818c613732565b9050614069602083018b613eb0565b614076604083018a6136db565b6140836060830189613eb0565b81810360808301526140958188613732565b905081810360a08301526140a98187613732565b90506140b860c0830186613eb0565b6140c560e0830185613eb0565b6140d36101008301846136db565b9a9950505050505050505050565b600060208201905081810360008301526140fa8161379c565b9050919050565b6000602082019050818103600083015261411a81613802565b9050919050565b6000602082019050818103600083015261413a81613868565b9050919050565b6000602082019050818103600083015261415a816138a8565b9050919050565b6000602082019050818103600083015261417a816138e8565b9050919050565b6000602082019050818103600083015261419a8161394e565b9050919050565b600060208201905081810360008301526141ba8161398e565b9050919050565b600060208201905081810360008301526141da816139f4565b9050919050565b600060208201905081810360008301526141fa81613a5a565b9050919050565b6000602082019050818103600083015261421a81613ac0565b9050919050565b6000602082019050818103600083015261423a81613b26565b9050919050565b6000602082019050818103600083015261425a81613b66565b9050919050565b6000602082019050818103600083015261427a81613ba6565b9050919050565b6000602082019050818103600083015261429a81613c0c565b9050919050565b600060208201905081810360008301526142ba81613c72565b9050919050565b600060208201905081810360008301526142da81613cd8565b9050919050565b600060208201905081810360008301526142fa81613d3e565b9050919050565b6000602082019050818103600083015261431a81613da4565b9050919050565b6000602082019050818103600083015261433a81613de4565b9050919050565b6000602082019050818103600083015261435a81613e4a565b9050919050565b60006020820190506143766000830184613eb0565b92915050565b6000604051905081810181811067ffffffffffffffff821117156143a3576143a2614754565b5b8060405250919050565b600067ffffffffffffffff8211156143c8576143c7614754565b5b601f19601f8301169050602081019050919050565b600067ffffffffffffffff8211156143f8576143f7614754565b5b601f19601f8301169050602081019050919050565b600081519050919050565b600081519050919050565b600082825260208201905092915050565b600082825260208201905092915050565b600081905092915050565b600061445b826145cf565b9150614466836145cf565b9250827fffffffffffffffffffffffffffffffffffffffffffffffffffffffffffffffff0382111561449b5761449a6146c7565b5b828201905092915050565b60006144b1826145cf565b91506144bc836145cf565b9250826144cc576144cb6146f6565b5b828204905092915050565b60006144e2826145cf565b91506144ed836145cf565b9250817fffffffffffffffffffffffffffffffffffffffffffffffffffffffffffffffff0483118215151615614526576145256146c7565b5b828202905092915050565b600061453c826145cf565b9150614547836145cf565b92508282101561455a576145596146c7565b5b828203905092915050565b6000614570826145af565b9050919050565b60008115159050919050565b60007fffffffff0000000000000000000000000000000000000000000000000000000082169050919050565b600073ffffffffffffffffffffffffffffffffffffffff82169050919050565b6000819050919050565b82818337600083830152505050565b60005b838110156146065780820151818401526020810190506145eb565b83811115614615576000848401525b50505050565b6000600282049050600182168061463357607f821691505b6020821081141561464757614646614725565b5b50919050565b6000614658826145cf565b91507fffffffffffffffffffffffffffffffffffffffffffffffffffffffffffffffff82141561468b5761468a6146c7565b5b600182019050919050565b60006146a1826145cf565b91506146ac836145cf565b9250826146bc576146bb6146f6565b5b828206905092915050565b7f4e487b7100000000000000000000000000000000000000000000000000000000600052601160045260246000fd5b7f4e487b7100000000000000000000000000000000000000000000000000000000600052601260045260246000fd5b7f4e487b7100000000000000000000000000000000000000000000000000000000600052602260045260246000fd5b7f4e487b7100000000000000000000000000000000000000000000000000000000600052604160045260246000fd5b6000601f19601f8301169050919050565b61479d81614565565b81146147a857600080fd5b50565b6147b481614577565b81146147bf57600080fd5b50565b6147cb81614583565b81146147d657600080fd5b50565b6147e2816145cf565b81146147ed57600080fd5b5056fea26469706673582212209fed5b3414f8296db93fc80f2c0d5ce36f83a35e51054f8cffc291e52efaffbc64736f6c63430008000033",
  "immutableReferences": {},
  "source": "// SPDX-License-Identifier: MIT\npragma solidity >=0.4.22 <0.9.0;\n\nimport \"@openzeppelin/contracts/token/ERC721/ERC721.sol\";\nimport \"@openzeppelin/contracts/token/ERC721/extensions/ERC721Enumerable.sol\";\n\ncontract Cards is ERC721Enumerable {\n    address public admin;\n    uint256 public nextItemId;\n    uint256 public CONTRACT_FEE = 1000; //10% fee\n    uint256 public CREATORS_FEE = 2000; // 20% fee\n    //185 basis points = 1.85 pct\n\n    mapping(address => mapping(uint256 => Card)) public marketCards;\n    mapping(address => mapping(uint256 => Card)) public myCards;\n\n    //\n    mapping(address => bool) public creators;\n\n    //if any errors it my be the clubs I added to the params\n    //if any errors it my be the clubs I added to the params\n    //if any errors it my be the clubs I added to the params\n    //if any errors it my be the clubs I added to the params\n\n    //owner of the contract retrieving all of its fee's\n    function retrieveFunds() external {\n        require(msg.sender == admin, \"YOU ARE NOT ALLOWED\");\n        payable(admin).transfer(address(this).balance);\n    }\n\n    // adding card creators, just admin allowed to add\n    function addCreator(address _addr) external {\n        require(admin == msg.sender, \"YOU ARE NOT ADMIN\");\n        creators[_addr] = true;\n    }\n\n    // removing card creators, just admin allowed to remove\n    function removeCreator(address _addr) external {\n        require(admin == msg.sender, \"YOU ARE NOT ADMIN\");\n        creators[_addr] = false;\n    }\n\n    function totalFundsCollected() external view returns (uint256) {\n        return address(this).balance;\n    }\n\n    event cardMinted(\n        string title,\n        uint256 id,\n        address owner,\n        uint256 price,\n        string description,\n        string urlPicture,\n        uint256 timestamp,\n        uint256 totalAmount,\n        address createdBy\n    );\n\n    event cardTransfered(\n        uint256 id,\n        address from,\n        address to,\n        uint256 timestamp\n    );\n\n    struct Card {\n        string title;\n        uint256 id;\n        address owner;\n        uint256 price;\n        string description;\n        string urlPicture;\n        string club;\n        uint256 timestamp;\n        address createdBy;\n        uint256 totalAmount;\n    }\n\n    constructor() ERC721(\"Cards Futebol\", \"FUT\") {\n        admin = msg.sender;\n    }\n\n    function buyCardFromMarket(uint256 tokenId) external payable {\n        require(\n            msg.value == marketCards[address(this)][tokenId].price,\n            \"NOT THE RIGHT AMOUNT OF ETH, MAY BE MORE OR LESS\"\n        );\n\n        uint256 _fee_contract = calculateFeeAdmin(msg.value); //msg.value - FEE\n        payable(marketCards[address(this)][tokenId].createdBy).transfer(\n            msg.value - _fee_contract\n        );\n\n        _transfer(address(this), msg.sender, tokenId);\n        myCards[msg.sender][tokenId] = marketCards[address(this)][tokenId];\n        delete marketCards[address(this)][tokenId];\n    }\n\n    function mintCards(\n        string memory _title,\n        uint256 _price,\n        string memory _description,\n        string memory _club,\n        string memory _urlPicture,\n        uint256 _totalAmount\n    ) external {\n        for (uint256 i = 0; i < _totalAmount; i++) {\n            Card memory card = Card({\n                title: _title,\n                id: nextItemId,\n                owner: address(this),\n                price: _price,\n                description: _description,\n                urlPicture: _urlPicture,\n                club: _club,\n                timestamp: block.timestamp,\n                createdBy: msg.sender,\n                totalAmount: _totalAmount\n            });\n            _mint(address(this), nextItemId);\n            marketCards[address(this)][nextItemId] = card;\n            nextItemId++;\n\n            emit cardMinted(\n                card.title,\n                card.id,\n                card.owner,\n                card.price,\n                card.description,\n                card.urlPicture,\n                card.timestamp,\n                card.totalAmount,\n                card.createdBy\n            );\n        }\n\n        // tokenOfOwnerByIndex(owner, index);\n        // tokenByIndex(index);\n    }\n\n    //100 basis points = 1.00 pct\n    function calculateFeeAdmin(uint256 amount) private view returns (uint256) {\n        require((amount / 10000) * 10000 == amount, \"too small\");\n        return (amount * CONTRACT_FEE) / 10000;\n    }\n\n    function calculateFeeCreator(uint256 amount)\n        private\n        view\n        returns (uint256)\n    {\n        require((amount / 10000) * 10000 == amount, \"too small\");\n        return (amount * CREATORS_FEE) / 10000;\n    }\n\n    function _baseURI() internal view virtual override returns (string memory) {\n        return \"\";\n    }\n}\n",
  "sourcePath": "/Volumes/APPLE HDD/reactprojects/cards-nft/contracts/Cards.sol",
  "compiler": {
    "name": "solc",
    "version": "0.8.0+commit.c7dfd78e.Emscripten.clang"
  },
  "schemaVersion": "3.4.3",
  "updatedAt": "2021-10-13T03:01:55.396Z",
  "networkType": "ethereum",
  "devdoc": {
    "kind": "dev",
    "methods": {
      "approve(address,uint256)": {
        "details": "See {IERC721-approve}."
      },
      "balanceOf(address)": {
        "details": "See {IERC721-balanceOf}."
      },
      "getApproved(uint256)": {
        "details": "See {IERC721-getApproved}."
      },
      "isApprovedForAll(address,address)": {
        "details": "See {IERC721-isApprovedForAll}."
      },
      "name()": {
        "details": "See {IERC721Metadata-name}."
      },
      "ownerOf(uint256)": {
        "details": "See {IERC721-ownerOf}."
      },
      "safeTransferFrom(address,address,uint256)": {
        "details": "See {IERC721-safeTransferFrom}."
      },
      "safeTransferFrom(address,address,uint256,bytes)": {
        "details": "See {IERC721-safeTransferFrom}."
      },
      "setApprovalForAll(address,bool)": {
        "details": "See {IERC721-setApprovalForAll}."
      },
      "supportsInterface(bytes4)": {
        "details": "See {IERC165-supportsInterface}."
      },
      "symbol()": {
        "details": "See {IERC721Metadata-symbol}."
      },
      "tokenByIndex(uint256)": {
        "details": "See {IERC721Enumerable-tokenByIndex}."
      },
      "tokenOfOwnerByIndex(address,uint256)": {
        "details": "See {IERC721Enumerable-tokenOfOwnerByIndex}."
      },
      "tokenURI(uint256)": {
        "details": "See {IERC721Metadata-tokenURI}."
      },
      "totalSupply()": {
        "details": "See {IERC721Enumerable-totalSupply}."
      },
      "transferFrom(address,address,uint256)": {
        "details": "See {IERC721-transferFrom}."
      }
    },
    "version": 1
  },
  "userdoc": {
    "kind": "user",
    "methods": {},
    "version": 1
  }
}