{
  "contractName": "Cards",
  "abi": [
    {
      "inputs": [],
      "stateMutability": "nonpayable",
      "type": "constructor"
    },
    {
      "anonymous": false,
      "inputs": [
        {
          "indexed": true,
          "internalType": "address",
          "name": "owner",
          "type": "address"
        },
        {
          "indexed": true,
          "internalType": "address",
          "name": "approved",
          "type": "address"
        },
        {
          "indexed": true,
          "internalType": "uint256",
          "name": "tokenId",
          "type": "uint256"
        }
      ],
      "name": "Approval",
      "type": "event"
    },
    {
      "anonymous": false,
      "inputs": [
        {
          "indexed": true,
          "internalType": "address",
          "name": "owner",
          "type": "address"
        },
        {
          "indexed": true,
          "internalType": "address",
          "name": "operator",
          "type": "address"
        },
        {
          "indexed": false,
          "internalType": "bool",
          "name": "approved",
          "type": "bool"
        }
      ],
      "name": "ApprovalForAll",
      "type": "event"
    },
    {
      "anonymous": false,
      "inputs": [
        {
          "indexed": true,
          "internalType": "address",
          "name": "from",
          "type": "address"
        },
        {
          "indexed": true,
          "internalType": "address",
          "name": "to",
          "type": "address"
        },
        {
          "indexed": true,
          "internalType": "uint256",
          "name": "tokenId",
          "type": "uint256"
        }
      ],
      "name": "Transfer",
      "type": "event"
    },
    {
      "anonymous": false,
      "inputs": [
        {
          "indexed": false,
          "internalType": "string",
          "name": "title",
          "type": "string"
        },
        {
          "indexed": false,
          "internalType": "uint256",
          "name": "id",
          "type": "uint256"
        },
        {
          "indexed": false,
          "internalType": "address",
          "name": "owner",
          "type": "address"
        },
        {
          "indexed": false,
          "internalType": "uint256",
          "name": "price",
          "type": "uint256"
        },
        {
          "indexed": false,
          "internalType": "string",
          "name": "description",
          "type": "string"
        },
        {
          "indexed": false,
          "internalType": "string",
          "name": "urlPicture",
          "type": "string"
        },
        {
          "indexed": false,
          "internalType": "uint256",
          "name": "timestamp",
          "type": "uint256"
        },
        {
          "indexed": false,
          "internalType": "uint256",
          "name": "totalAmount",
          "type": "uint256"
        },
        {
          "indexed": false,
          "internalType": "address",
          "name": "createdBy",
          "type": "address"
        }
      ],
      "name": "cardMinted",
      "type": "event"
    },
    {
      "anonymous": false,
      "inputs": [
        {
          "indexed": false,
          "internalType": "uint256",
          "name": "id",
          "type": "uint256"
        },
        {
          "indexed": false,
          "internalType": "address",
          "name": "from",
          "type": "address"
        },
        {
          "indexed": false,
          "internalType": "address",
          "name": "to",
          "type": "address"
        },
        {
          "indexed": false,
          "internalType": "uint256",
          "name": "timestamp",
          "type": "uint256"
        }
      ],
      "name": "cardTransfered",
      "type": "event"
    },
    {
      "inputs": [],
      "name": "CONTRACT_FEE",
      "outputs": [
        {
          "internalType": "uint256",
          "name": "",
          "type": "uint256"
        }
      ],
      "stateMutability": "view",
      "type": "function",
      "constant": true
    },
    {
      "inputs": [],
      "name": "admin",
      "outputs": [
        {
          "internalType": "address",
          "name": "",
          "type": "address"
        }
      ],
      "stateMutability": "view",
      "type": "function",
      "constant": true
    },
    {
      "inputs": [
        {
          "internalType": "address",
          "name": "to",
          "type": "address"
        },
        {
          "internalType": "uint256",
          "name": "tokenId",
          "type": "uint256"
        }
      ],
      "name": "approve",
      "outputs": [],
      "stateMutability": "nonpayable",
      "type": "function"
    },
    {
      "inputs": [
        {
          "internalType": "address",
          "name": "owner",
          "type": "address"
        }
      ],
      "name": "balanceOf",
      "outputs": [
        {
          "internalType": "uint256",
          "name": "",
          "type": "uint256"
        }
      ],
      "stateMutability": "view",
      "type": "function",
      "constant": true
    },
    {
      "inputs": [
        {
          "internalType": "string",
          "name": "",
          "type": "string"
        }
      ],
      "name": "clubToCreator",
      "outputs": [
        {
          "internalType": "address",
          "name": "",
          "type": "address"
        }
      ],
      "stateMutability": "view",
      "type": "function",
      "constant": true
    },
    {
      "inputs": [
        {
          "internalType": "address",
          "name": "",
          "type": "address"
        }
      ],
      "name": "creators",
      "outputs": [
        {
          "internalType": "bool",
          "name": "",
          "type": "bool"
        }
      ],
      "stateMutability": "view",
      "type": "function",
      "constant": true
    },
    {
      "inputs": [
        {
          "internalType": "uint256",
          "name": "tokenId",
          "type": "uint256"
        }
      ],
      "name": "getApproved",
      "outputs": [
        {
          "internalType": "address",
          "name": "",
          "type": "address"
        }
      ],
      "stateMutability": "view",
      "type": "function",
      "constant": true
    },
    {
      "inputs": [
        {
          "internalType": "address",
          "name": "owner",
          "type": "address"
        },
        {
          "internalType": "address",
          "name": "operator",
          "type": "address"
        }
      ],
      "name": "isApprovedForAll",
      "outputs": [
        {
          "internalType": "bool",
          "name": "",
          "type": "bool"
        }
      ],
      "stateMutability": "view",
      "type": "function",
      "constant": true
    },
    {
      "inputs": [
        {
          "internalType": "address",
          "name": "",
          "type": "address"
        },
        {
          "internalType": "uint256",
          "name": "",
          "type": "uint256"
        }
      ],
      "name": "marketCards",
      "outputs": [
        {
          "internalType": "string",
          "name": "title",
          "type": "string"
        },
        {
          "internalType": "uint256",
          "name": "id",
          "type": "uint256"
        },
        {
          "internalType": "address",
          "name": "owner",
          "type": "address"
        },
        {
          "internalType": "uint256",
          "name": "price",
          "type": "uint256"
        },
        {
          "internalType": "string",
          "name": "description",
          "type": "string"
        },
        {
          "internalType": "string",
          "name": "urlPicture",
          "type": "string"
        },
        {
          "internalType": "string",
          "name": "club",
          "type": "string"
        },
        {
          "internalType": "uint256",
          "name": "timestamp",
          "type": "uint256"
        },
        {
          "internalType": "address",
          "name": "createdBy",
          "type": "address"
        },
        {
          "internalType": "uint256",
          "name": "totalAmount",
          "type": "uint256"
        }
      ],
      "stateMutability": "view",
      "type": "function",
      "constant": true
    },
    {
      "inputs": [
        {
          "internalType": "address",
          "name": "",
          "type": "address"
        },
        {
          "internalType": "uint256",
          "name": "",
          "type": "uint256"
        }
      ],
      "name": "myCards",
      "outputs": [
        {
          "internalType": "string",
          "name": "title",
          "type": "string"
        },
        {
          "internalType": "uint256",
          "name": "id",
          "type": "uint256"
        },
        {
          "internalType": "address",
          "name": "owner",
          "type": "address"
        },
        {
          "internalType": "uint256",
          "name": "price",
          "type": "uint256"
        },
        {
          "internalType": "string",
          "name": "description",
          "type": "string"
        },
        {
          "internalType": "string",
          "name": "urlPicture",
          "type": "string"
        },
        {
          "internalType": "string",
          "name": "club",
          "type": "string"
        },
        {
          "internalType": "uint256",
          "name": "timestamp",
          "type": "uint256"
        },
        {
          "internalType": "address",
          "name": "createdBy",
          "type": "address"
        },
        {
          "internalType": "uint256",
          "name": "totalAmount",
          "type": "uint256"
        }
      ],
      "stateMutability": "view",
      "type": "function",
      "constant": true
    },
    {
      "inputs": [],
      "name": "name",
      "outputs": [
        {
          "internalType": "string",
          "name": "",
          "type": "string"
        }
      ],
      "stateMutability": "view",
      "type": "function",
      "constant": true
    },
    {
      "inputs": [],
      "name": "nextItemId",
      "outputs": [
        {
          "internalType": "uint256",
          "name": "",
          "type": "uint256"
        }
      ],
      "stateMutability": "view",
      "type": "function",
      "constant": true
    },
    {
      "inputs": [
        {
          "internalType": "uint256",
          "name": "tokenId",
          "type": "uint256"
        }
      ],
      "name": "ownerOf",
      "outputs": [
        {
          "internalType": "address",
          "name": "",
          "type": "address"
        }
      ],
      "stateMutability": "view",
      "type": "function",
      "constant": true
    },
    {
      "inputs": [
        {
          "internalType": "address",
          "name": "",
          "type": "address"
        }
      ],
      "name": "pendingCreator",
      "outputs": [
        {
          "internalType": "string",
          "name": "",
          "type": "string"
        }
      ],
      "stateMutability": "view",
      "type": "function",
      "constant": true
    },
    {
      "inputs": [
        {
          "internalType": "address",
          "name": "from",
          "type": "address"
        },
        {
          "internalType": "address",
          "name": "to",
          "type": "address"
        },
        {
          "internalType": "uint256",
          "name": "tokenId",
          "type": "uint256"
        }
      ],
      "name": "safeTransferFrom",
      "outputs": [],
      "stateMutability": "nonpayable",
      "type": "function"
    },
    {
      "inputs": [
        {
          "internalType": "address",
          "name": "from",
          "type": "address"
        },
        {
          "internalType": "address",
          "name": "to",
          "type": "address"
        },
        {
          "internalType": "uint256",
          "name": "tokenId",
          "type": "uint256"
        },
        {
          "internalType": "bytes",
          "name": "_data",
          "type": "bytes"
        }
      ],
      "name": "safeTransferFrom",
      "outputs": [],
      "stateMutability": "nonpayable",
      "type": "function"
    },
    {
      "inputs": [
        {
          "internalType": "address",
          "name": "operator",
          "type": "address"
        },
        {
          "internalType": "bool",
          "name": "approved",
          "type": "bool"
        }
      ],
      "name": "setApprovalForAll",
      "outputs": [],
      "stateMutability": "nonpayable",
      "type": "function"
    },
    {
      "inputs": [
        {
          "internalType": "bytes4",
          "name": "interfaceId",
          "type": "bytes4"
        }
      ],
      "name": "supportsInterface",
      "outputs": [
        {
          "internalType": "bool",
          "name": "",
          "type": "bool"
        }
      ],
      "stateMutability": "view",
      "type": "function",
      "constant": true
    },
    {
      "inputs": [],
      "name": "symbol",
      "outputs": [
        {
          "internalType": "string",
          "name": "",
          "type": "string"
        }
      ],
      "stateMutability": "view",
      "type": "function",
      "constant": true
    },
    {
      "inputs": [
        {
          "internalType": "uint256",
          "name": "index",
          "type": "uint256"
        }
      ],
      "name": "tokenByIndex",
      "outputs": [
        {
          "internalType": "uint256",
          "name": "",
          "type": "uint256"
        }
      ],
      "stateMutability": "view",
      "type": "function",
      "constant": true
    },
    {
      "inputs": [
        {
          "internalType": "address",
          "name": "owner",
          "type": "address"
        },
        {
          "internalType": "uint256",
          "name": "index",
          "type": "uint256"
        }
      ],
      "name": "tokenOfOwnerByIndex",
      "outputs": [
        {
          "internalType": "uint256",
          "name": "",
          "type": "uint256"
        }
      ],
      "stateMutability": "view",
      "type": "function",
      "constant": true
    },
    {
      "inputs": [
        {
          "internalType": "uint256",
          "name": "tokenId",
          "type": "uint256"
        }
      ],
      "name": "tokenURI",
      "outputs": [
        {
          "internalType": "string",
          "name": "",
          "type": "string"
        }
      ],
      "stateMutability": "view",
      "type": "function",
      "constant": true
    },
    {
      "inputs": [],
      "name": "totalSupply",
      "outputs": [
        {
          "internalType": "uint256",
          "name": "",
          "type": "uint256"
        }
      ],
      "stateMutability": "view",
      "type": "function",
      "constant": true
    },
    {
      "inputs": [
        {
          "internalType": "address",
          "name": "from",
          "type": "address"
        },
        {
          "internalType": "address",
          "name": "to",
          "type": "address"
        },
        {
          "internalType": "uint256",
          "name": "tokenId",
          "type": "uint256"
        }
      ],
      "name": "transferFrom",
      "outputs": [],
      "stateMutability": "nonpayable",
      "type": "function"
    },
    {
      "inputs": [
        {
          "internalType": "address",
          "name": "_addr",
          "type": "address"
        },
        {
          "internalType": "string",
          "name": "_club",
          "type": "string"
        }
      ],
      "name": "addCreator",
      "outputs": [],
      "stateMutability": "nonpayable",
      "type": "function"
    },
    {
      "inputs": [
        {
          "internalType": "string",
          "name": "_club",
          "type": "string"
        },
        {
          "internalType": "string",
          "name": "_newClubBadge",
          "type": "string"
        }
      ],
      "name": "setClubBadge",
      "outputs": [],
      "stateMutability": "nonpayable",
      "type": "function"
    },
    {
      "inputs": [
        {
          "internalType": "string",
          "name": "_title",
          "type": "string"
        },
        {
          "internalType": "uint256",
          "name": "_price",
          "type": "uint256"
        },
        {
          "internalType": "string",
          "name": "_description",
          "type": "string"
        },
        {
          "internalType": "string",
          "name": "_club",
          "type": "string"
        },
        {
          "internalType": "string",
          "name": "_urlPicture",
          "type": "string"
        },
        {
          "internalType": "uint256",
          "name": "_totalAmount",
          "type": "uint256"
        }
      ],
      "name": "mintCards",
      "outputs": [],
      "stateMutability": "nonpayable",
      "type": "function"
    },
    {
      "inputs": [],
      "name": "retrieveFunds",
      "outputs": [],
      "stateMutability": "nonpayable",
      "type": "function"
    },
    {
      "inputs": [
        {
          "internalType": "address",
          "name": "_addr",
          "type": "address"
        },
        {
          "internalType": "string",
          "name": "_club",
          "type": "string"
        }
      ],
      "name": "removeCreator",
      "outputs": [],
      "stateMutability": "nonpayable",
      "type": "function"
    },
    {
      "inputs": [],
      "name": "totalFundsCollected",
      "outputs": [
        {
          "internalType": "uint256",
          "name": "",
          "type": "uint256"
        }
      ],
      "stateMutability": "view",
      "type": "function",
      "constant": true
    },
    {
      "inputs": [
        {
          "internalType": "address",
          "name": "_addr",
          "type": "address"
        }
      ],
      "name": "isCreator",
      "outputs": [
        {
          "internalType": "bool",
          "name": "",
          "type": "bool"
        }
      ],
      "stateMutability": "view",
      "type": "function",
      "constant": true
    },
    {
      "inputs": [
        {
          "internalType": "string",
          "name": "_club",
          "type": "string"
        }
      ],
      "name": "isClubCreator",
      "outputs": [
        {
          "internalType": "bool",
          "name": "",
          "type": "bool"
        }
      ],
      "stateMutability": "view",
      "type": "function",
      "constant": true
    },
    {
      "inputs": [
        {
          "internalType": "uint256",
          "name": "tokenId",
          "type": "uint256"
        }
      ],
      "name": "buyCardFromMarket",
      "outputs": [],
      "stateMutability": "payable",
      "type": "function",
      "payable": true
    }
  ],
  "bytecode": "0x60a060405261251c600b553480156200001757600080fd5b506040518060400160405280600d81526020017f43617264732046757465626f6c000000000000000000000000000000000000008152506040518060400160405280600381526020017f465554000000000000000000000000000000000000000000000000000000000081525081600090805190602001906200009c9291906200014d565b508060019080519060200190620000b59291906200014d565b5050503373ffffffffffffffffffffffffffffffffffffffff1660808173ffffffffffffffffffffffffffffffffffffffff1660601b815250506001601060003373ffffffffffffffffffffffffffffffffffffffff1673ffffffffffffffffffffffffffffffffffffffff16815260200190815260200160002060006101000a81548160ff02191690831515021790555062000262565b8280546200015b90620001fd565b90600052602060002090601f0160209004810192826200017f5760008555620001cb565b82601f106200019a57805160ff1916838001178555620001cb565b82800160010185558215620001cb579182015b82811115620001ca578251825591602001919060010190620001ad565b5b509050620001da9190620001de565b5090565b5b80821115620001f9576000816000905550600101620001df565b5090565b600060028204905060018216806200021657607f821691505b602082108114156200022d576200022c62000233565b5b50919050565b7f4e487b7100000000000000000000000000000000000000000000000000000000600052602260045260246000fd5b60805160601c61524d620002b260003960008181610f67015281816111ce0152818161125c01528181611a1801528181611dcd0152818161213b015281816122dc01526127a9015261524d6000f3fe6080604052600436106101ee5760003560e01c80636ac408e51161010d578063b88d4fde116100a0578063e9cb5dd61161006f578063e9cb5dd614610765578063efd46065146107ab578063f58a6d60146107e8578063f70d374614610813578063f851a4401461083e576101ee565b8063b88d4fde14610699578063c87b56dd146106c2578063e24577b8146106ff578063e985e9c514610728576101ee565b8063933166e1116100dc578063933166e1146105cb57806395d89b4114610608578063a22cb46514610633578063a8b329df1461065c576101ee565b80636ac408e51461052057806370a082311461053c578063895f9f9d146105795780638bfef98a146105a2576101ee565b80632f745c59116101855780634f6ccce7116101545780634f6ccce71461046457806361b20d8c146104a15780636352211e146104b85780636a868974146104f5576101ee565b80632f745c591461039857806342842e0e146103d5578063453bc2a7146103fe5780634dd9469514610427576101ee565b806318160ddd116101c157806318160ddd146102c157806323b872dd146102ec57806324466df9146103155780632518d7e014610352576101ee565b806301ffc9a7146101f357806306fdde0314610230578063081812fc1461025b578063095ea7b314610298575b600080fd5b3480156101ff57600080fd5b5061021a60048036038101906102159190613cc9565b610869565b60405161022791906148ac565b60405180910390f35b34801561023c57600080fd5b506102456108e3565b60405161025291906148c7565b60405180910390f35b34801561026757600080fd5b50610282600480360381019061027d9190613eb1565b610975565b60405161028f9190614845565b60405180910390f35b3480156102a457600080fd5b506102bf60048036038101906102ba9190613c8d565b6109fa565b005b3480156102cd57600080fd5b506102d6610b12565b6040516102e39190614d43565b60405180910390f35b3480156102f857600080fd5b50610313600480360381019061030e9190613b33565b610b1f565b005b34801561032157600080fd5b5061033c60048036038101906103379190613d1b565b610b7f565b6040516103499190614845565b60405180910390f35b34801561035e57600080fd5b5061037960048036038101906103749190613c8d565b610bc8565b60405161038f9a999897969594939291906148e9565b60405180910390f35b3480156103a457600080fd5b506103bf60048036038101906103ba9190613c8d565b610e89565b6040516103cc9190614d43565b60405180910390f35b3480156103e157600080fd5b506103fc60048036038101906103f79190613b33565b610f2e565b005b34801561040a57600080fd5b5061042560048036038101906104209190613c39565b610f4e565b005b34801561043357600080fd5b5061044e60048036038101906104499190613ace565b611095565b60405161045b91906148c7565b60405180910390f35b34801561047057600080fd5b5061048b60048036038101906104869190613eb1565b611135565b6040516104989190614d43565b60405180910390f35b3480156104ad57600080fd5b506104b66111cc565b005b3480156104c457600080fd5b506104df60048036038101906104da9190613eb1565b6112c3565b6040516104ec9190614845565b60405180910390f35b34801561050157600080fd5b5061050a611375565b6040516105179190614d43565b60405180910390f35b61053a60048036038101906105359190613eb1565b61137b565b005b34801561054857600080fd5b50610563600480360381019061055e9190613ace565b611848565b6040516105709190614d43565b60405180910390f35b34801561058557600080fd5b506105a0600480360381019061059b9190613dc8565b611900565b005b3480156105ae57600080fd5b506105c960048036038101906105c49190613d5c565b611d41565b005b3480156105d757600080fd5b506105f260048036038101906105ed9190613ace565b611e7a565b6040516105ff91906148ac565b60405180910390f35b34801561061457600080fd5b5061061d611e9a565b60405161062a91906148c7565b60405180910390f35b34801561063f57600080fd5b5061065a60048036038101906106559190613bfd565b611f2c565b005b34801561066857600080fd5b50610683600480360381019061067e9190613d1b565b6120ad565b60405161069091906148ac565b60405180910390f35b3480156106a557600080fd5b506106c060048036038101906106bb9190613b82565b6121ba565b005b3480156106ce57600080fd5b506106e960048036038101906106e49190613eb1565b61221c565b6040516106f691906148c7565b60405180910390f35b34801561070b57600080fd5b5061072660048036038101906107219190613c39565b6122c3565b005b34801561073457600080fd5b5061074f600480360381019061074a9190613af7565b6123ee565b60405161075c91906148ac565b60405180910390f35b34801561077157600080fd5b5061078c60048036038101906107879190613c8d565b612482565b6040516107a29a999897969594939291906148e9565b60405180910390f35b3480156107b757600080fd5b506107d260048036038101906107cd9190613ace565b612743565b6040516107df91906148ac565b60405180910390f35b3480156107f457600080fd5b506107fd612799565b60405161080a9190614d43565b60405180910390f35b34801561081f57600080fd5b506108286127a1565b6040516108359190614d43565b60405180910390f35b34801561084a57600080fd5b506108536127a7565b6040516108609190614845565b60405180910390f35b60007f780e9d63000000000000000000000000000000000000000000000000000000007bffffffffffffffffffffffffffffffffffffffffffffffffffffffff1916827bffffffffffffffffffffffffffffffffffffffffffffffffffffffff191614806108dc57506108db826127cb565b5b9050919050565b6060600080546108f290615042565b80601f016020809104026020016040519081016040528092919081815260200182805461091e90615042565b801561096b5780601f106109405761010080835404028352916020019161096b565b820191906000526020600020905b81548152906001019060200180831161094e57829003601f168201915b5050505050905090565b6000610980826128ad565b6109bf576040517f08c379a00000000000000000000000000000000000000000000000000000000081526004016109b690614c03565b60405180910390fd5b6004600083815260200190815260200160002060009054906101000a900473ffffffffffffffffffffffffffffffffffffffff169050919050565b6000610a05826112c3565b90508073ffffffffffffffffffffffffffffffffffffffff168373ffffffffffffffffffffffffffffffffffffffff161415610a76576040517f08c379a0000000000000000000000000000000000000000000000000000000008152600401610a6d90614c83565b60405180910390fd5b8073ffffffffffffffffffffffffffffffffffffffff16610a95612919565b73ffffffffffffffffffffffffffffffffffffffff161480610ac45750610ac381610abe612919565b6123ee565b5b610b03576040517f08c379a0000000000000000000000000000000000000000000000000000000008152600401610afa90614b43565b60405180910390fd5b610b0d8383612921565b505050565b6000600880549050905090565b610b30610b2a612919565b826129da565b610b6f576040517f08c379a0000000000000000000000000000000000000000000000000000000008152600401610b6690614ca3565b60405180910390fd5b610b7a838383612ab8565b505050565b600f818051602081018201805184825260208301602085012081835280955050505050506000915054906101000a900473ffffffffffffffffffffffffffffffffffffffff1681565b600c60205281600052604060002060205280600052604060002060009150915050806000018054610bf890615042565b80601f0160208091040260200160405190810160405280929190818152602001828054610c2490615042565b8015610c715780601f10610c4657610100808354040283529160200191610c71565b820191906000526020600020905b815481529060010190602001808311610c5457829003601f168201915b5050505050908060010154908060020160009054906101000a900473ffffffffffffffffffffffffffffffffffffffff1690806003015490806004018054610cb890615042565b80601f0160208091040260200160405190810160405280929190818152602001828054610ce490615042565b8015610d315780601f10610d0657610100808354040283529160200191610d31565b820191906000526020600020905b815481529060010190602001808311610d1457829003601f168201915b505050505090806005018054610d4690615042565b80601f0160208091040260200160405190810160405280929190818152602001828054610d7290615042565b8015610dbf5780601f10610d9457610100808354040283529160200191610dbf565b820191906000526020600020905b815481529060010190602001808311610da257829003601f168201915b505050505090806006018054610dd490615042565b80601f0160208091040260200160405190810160405280929190818152602001828054610e0090615042565b8015610e4d5780601f10610e2257610100808354040283529160200191610e4d565b820191906000526020600020905b815481529060010190602001808311610e3057829003601f168201915b5050505050908060070154908060080160009054906101000a900473ffffffffffffffffffffffffffffffffffffffff1690806009015490508a565b6000610e9483611848565b8210610ed5576040517f08c379a0000000000000000000000000000000000000000000000000000000008152600401610ecc90614a43565b60405180910390fd5b600660008473ffffffffffffffffffffffffffffffffffffffff1673ffffffffffffffffffffffffffffffffffffffff168152602001908152602001600020600083815260200190815260200160002054905092915050565b610f49838383604051806020016040528060008152506121ba565b505050565b3373ffffffffffffffffffffffffffffffffffffffff167f000000000000000000000000000000000000000000000000000000000000000073ffffffffffffffffffffffffffffffffffffffff1614610fdc576040517f08c379a0000000000000000000000000000000000000000000000000000000008152600401610fd390614cc3565b60405180910390fd5b6001601060008473ffffffffffffffffffffffffffffffffffffffff1673ffffffffffffffffffffffffffffffffffffffff16815260200190815260200160002060006101000a81548160ff02191690831515021790555081600f82604051611045919061480a565b908152602001604051809103902060006101000a81548173ffffffffffffffffffffffffffffffffffffffff021916908373ffffffffffffffffffffffffffffffffffffffff1602179055505050565b601160205280600052604060002060009150905080546110b490615042565b80601f01602080910402602001604051908101604052809291908181526020018280546110e090615042565b801561112d5780601f106111025761010080835404028352916020019161112d565b820191906000526020600020905b81548152906001019060200180831161111057829003601f168201915b505050505081565b600061113f610b12565b8210611180576040517f08c379a000000000000000000000000000000000000000000000000000000000815260040161117790614ce3565b60405180910390fd5b600882815481106111ba577f4e487b7100000000000000000000000000000000000000000000000000000000600052603260045260246000fd5b90600052602060002001549050919050565b7f000000000000000000000000000000000000000000000000000000000000000073ffffffffffffffffffffffffffffffffffffffff163373ffffffffffffffffffffffffffffffffffffffff161461125a576040517f08c379a000000000000000000000000000000000000000000000000000000000815260040161125190614ba3565b60405180910390fd5b7f000000000000000000000000000000000000000000000000000000000000000073ffffffffffffffffffffffffffffffffffffffff166108fc479081150290604051600060405180830381858888f193505050501580156112c0573d6000803e3d6000fd5b50565b6000806002600084815260200190815260200160002060009054906101000a900473ffffffffffffffffffffffffffffffffffffffff169050600073ffffffffffffffffffffffffffffffffffffffff168173ffffffffffffffffffffffffffffffffffffffff16141561136c576040517f08c379a000000000000000000000000000000000000000000000000000000000815260040161136390614b83565b60405180910390fd5b80915050919050565b600a5481565b600c60003073ffffffffffffffffffffffffffffffffffffffff1673ffffffffffffffffffffffffffffffffffffffff1681526020019081526020016000206000828152602001908152602001600020600301543414611410576040517f08c379a000000000000000000000000000000000000000000000000000000000815260040161140790614d23565b60405180910390fd5b600061141b34612d14565b9050600c60003073ffffffffffffffffffffffffffffffffffffffff1673ffffffffffffffffffffffffffffffffffffffff168152602001908152602001600020600083815260200190815260200160002060080160009054906101000a900473ffffffffffffffffffffffffffffffffffffffff1673ffffffffffffffffffffffffffffffffffffffff166108fc82346114b69190614f58565b9081150290604051600060405180830381858888f193505050501580156114e1573d6000803e3d6000fd5b506114ed303384612ab8565b600c60003073ffffffffffffffffffffffffffffffffffffffff1673ffffffffffffffffffffffffffffffffffffffff1681526020019081526020016000206000838152602001908152602001600020600d60003373ffffffffffffffffffffffffffffffffffffffff1673ffffffffffffffffffffffffffffffffffffffff168152602001908152602001600020600084815260200190815260200160002060008201816000019080546115a190615042565b6115ac929190613825565b50600182015481600101556002820160009054906101000a900473ffffffffffffffffffffffffffffffffffffffff168160020160006101000a81548173ffffffffffffffffffffffffffffffffffffffff021916908373ffffffffffffffffffffffffffffffffffffffff16021790555060038201548160030155600482018160040190805461163c90615042565b611647929190613825565b50600582018160050190805461165c90615042565b611667929190613825565b50600682018160060190805461167c90615042565b611687929190613825565b50600782015481600701556008820160009054906101000a900473ffffffffffffffffffffffffffffffffffffffff168160080160006101000a81548173ffffffffffffffffffffffffffffffffffffffff021916908373ffffffffffffffffffffffffffffffffffffffff16021790555060098201548160090155905050600c60003073ffffffffffffffffffffffffffffffffffffffff1673ffffffffffffffffffffffffffffffffffffffff16815260200190815260200160002060008381526020019081526020016000206000808201600061176791906138b2565b60018201600090556002820160006101000a81549073ffffffffffffffffffffffffffffffffffffffff021916905560038201600090556004820160006117ae91906138b2565b6005820160006117be91906138b2565b6006820160006117ce91906138b2565b60078201600090556008820160006101000a81549073ffffffffffffffffffffffffffffffffffffffff0219169055600982016000905550507fb39e3962c0052e0629255c8a8ce98f8a76d55118a8282743b004081e8a60906b8230334260405161183c9493929190614d5e565b60405180910390a15050565b60008073ffffffffffffffffffffffffffffffffffffffff168273ffffffffffffffffffffffffffffffffffffffff1614156118b9576040517f08c379a00000000000000000000000000000000000000000000000000000000081526004016118b090614b63565b60405180910390fd5b600360008373ffffffffffffffffffffffffffffffffffffffff1673ffffffffffffffffffffffffffffffffffffffff168152602001908152602001600020549050919050565b601060003373ffffffffffffffffffffffffffffffffffffffff1673ffffffffffffffffffffffffffffffffffffffff16815260200190815260200160002060009054906101000a900460ff1661198c576040517f08c379a000000000000000000000000000000000000000000000000000000000815260040161198390614b23565b60405180910390fd5b3373ffffffffffffffffffffffffffffffffffffffff16600f846040516119b3919061480a565b908152602001604051809103902060009054906101000a900473ffffffffffffffffffffffffffffffffffffffff1673ffffffffffffffffffffffffffffffffffffffff161480611a4f57503373ffffffffffffffffffffffffffffffffffffffff167f000000000000000000000000000000000000000000000000000000000000000073ffffffffffffffffffffffffffffffffffffffff16145b611a8e576040517f08c379a0000000000000000000000000000000000000000000000000000000008152600401611a8590614c63565b60405180910390fd5b60005b81811015611d38576000604051806101400160405280898152602001600a5481526020013073ffffffffffffffffffffffffffffffffffffffff1681526020018881526020018781526020018581526020018681526020014281526020013373ffffffffffffffffffffffffffffffffffffffff168152602001848152509050611b1d30600a54612d92565b80600c60003073ffffffffffffffffffffffffffffffffffffffff1673ffffffffffffffffffffffffffffffffffffffff1681526020019081526020016000206000600a5481526020019081526020016000206000820151816000019080519060200190611b8c9291906138f2565b506020820151816001015560408201518160020160006101000a81548173ffffffffffffffffffffffffffffffffffffffff021916908373ffffffffffffffffffffffffffffffffffffffff160217905550606082015181600301556080820151816004019080519060200190611c049291906138f2565b5060a0820151816005019080519060200190611c219291906138f2565b5060c0820151816006019080519060200190611c3e9291906138f2565b5060e082015181600701556101008201518160080160006101000a81548173ffffffffffffffffffffffffffffffffffffffff021916908373ffffffffffffffffffffffffffffffffffffffff1602179055506101208201518160090155905050600a6000815480929190611cb290615074565b91905055507f76d7fc2acd49c7f7e283c64228d295e5b6020449a55771e32a9ce55ffdeb8707816000015182602001518360400151846060015185608001518660a001518760e00151886101200151896101000151604051611d1c999897969594939291906149a1565b60405180910390a1508080611d3090615074565b915050611a91565b50505050505050565b3373ffffffffffffffffffffffffffffffffffffffff16600f83604051611d68919061480a565b908152602001604051809103902060009054906101000a900473ffffffffffffffffffffffffffffffffffffffff1673ffffffffffffffffffffffffffffffffffffffff161480611e0457503373ffffffffffffffffffffffffffffffffffffffff167f000000000000000000000000000000000000000000000000000000000000000073ffffffffffffffffffffffffffffffffffffffff16145b611e43576040517f08c379a0000000000000000000000000000000000000000000000000000000008152600401611e3a90614bc3565b60405180910390fd5b80600e83604051611e54919061480a565b90815260200160405180910390209080519060200190611e759291906138f2565b505050565b60106020528060005260406000206000915054906101000a900460ff1681565b606060018054611ea990615042565b80601f0160208091040260200160405190810160405280929190818152602001828054611ed590615042565b8015611f225780601f10611ef757610100808354040283529160200191611f22565b820191906000526020600020905b815481529060010190602001808311611f0557829003601f168201915b5050505050905090565b611f34612919565b73ffffffffffffffffffffffffffffffffffffffff168273ffffffffffffffffffffffffffffffffffffffff161415611fa2576040517f08c379a0000000000000000000000000000000000000000000000000000000008152600401611f9990614ae3565b60405180910390fd5b8060056000611faf612919565b73ffffffffffffffffffffffffffffffffffffffff1673ffffffffffffffffffffffffffffffffffffffff16815260200190815260200160002060008473ffffffffffffffffffffffffffffffffffffffff1673ffffffffffffffffffffffffffffffffffffffff16815260200190815260200160002060006101000a81548160ff0219169083151502179055508173ffffffffffffffffffffffffffffffffffffffff1661205c612919565b73ffffffffffffffffffffffffffffffffffffffff167f17307eab39ab6107e8899845ad3d59bd9653f200f220920489ca2b5937696c31836040516120a191906148ac565b60405180910390a35050565b60003373ffffffffffffffffffffffffffffffffffffffff16600f836040516120d6919061480a565b908152602001604051809103902060009054906101000a900473ffffffffffffffffffffffffffffffffffffffff1673ffffffffffffffffffffffffffffffffffffffff16148061217257503373ffffffffffffffffffffffffffffffffffffffff167f000000000000000000000000000000000000000000000000000000000000000073ffffffffffffffffffffffffffffffffffffffff16145b6121b1576040517f08c379a00000000000000000000000000000000000000000000000000000000081526004016121a890614d03565b60405180910390fd5b60019050919050565b6121cb6121c5612919565b836129da565b61220a576040517f08c379a000000000000000000000000000000000000000000000000000000000815260040161220190614ca3565b60405180910390fd5b61221684848484612f60565b50505050565b6060612227826128ad565b612266576040517f08c379a000000000000000000000000000000000000000000000000000000000815260040161225d90614c43565b60405180910390fd5b6000612270612fbc565b9050600081511161229057604051806020016040528060008152506122bb565b8061229a84612fd3565b6040516020016122ab929190614821565b6040516020818303038152906040525b915050919050565b3373ffffffffffffffffffffffffffffffffffffffff167f000000000000000000000000000000000000000000000000000000000000000073ffffffffffffffffffffffffffffffffffffffff1614612351576040517f08c379a000000000000000000000000000000000000000000000000000000000815260040161234890614cc3565b60405180910390fd5b6000601060008473ffffffffffffffffffffffffffffffffffffffff1673ffffffffffffffffffffffffffffffffffffffff16815260200190815260200160002060006101000a81548160ff021916908315150217905550600f816040516123b9919061480a565b908152602001604051809103902060006101000a81549073ffffffffffffffffffffffffffffffffffffffff02191690555050565b6000600560008473ffffffffffffffffffffffffffffffffffffffff1673ffffffffffffffffffffffffffffffffffffffff16815260200190815260200160002060008373ffffffffffffffffffffffffffffffffffffffff1673ffffffffffffffffffffffffffffffffffffffff16815260200190815260200160002060009054906101000a900460ff16905092915050565b600d602052816000526040600020602052806000526040600020600091509150508060000180546124b290615042565b80601f01602080910402602001604051908101604052809291908181526020018280546124de90615042565b801561252b5780601f106125005761010080835404028352916020019161252b565b820191906000526020600020905b81548152906001019060200180831161250e57829003601f168201915b5050505050908060010154908060020160009054906101000a900473ffffffffffffffffffffffffffffffffffffffff169080600301549080600401805461257290615042565b80601f016020809104026020016040519081016040528092919081815260200182805461259e90615042565b80156125eb5780601f106125c0576101008083540402835291602001916125eb565b820191906000526020600020905b8154815290600101906020018083116125ce57829003601f168201915b50505050509080600501805461260090615042565b80601f016020809104026020016040519081016040528092919081815260200182805461262c90615042565b80156126795780601f1061264e57610100808354040283529160200191612679565b820191906000526020600020905b81548152906001019060200180831161265c57829003601f168201915b50505050509080600601805461268e90615042565b80601f01602080910402602001604051908101604052809291908181526020018280546126ba90615042565b80156127075780601f106126dc57610100808354040283529160200191612707565b820191906000526020600020905b8154815290600101906020018083116126ea57829003601f168201915b5050505050908060070154908060080160009054906101000a900473ffffffffffffffffffffffffffffffffffffffff1690806009015490508a565b6000601060008373ffffffffffffffffffffffffffffffffffffffff1673ffffffffffffffffffffffffffffffffffffffff16815260200190815260200160002060009054906101000a900460ff169050919050565b600047905090565b600b5481565b7f000000000000000000000000000000000000000000000000000000000000000081565b60007f80ac58cd000000000000000000000000000000000000000000000000000000007bffffffffffffffffffffffffffffffffffffffffffffffffffffffff1916827bffffffffffffffffffffffffffffffffffffffffffffffffffffffff1916148061289657507f5b5e139f000000000000000000000000000000000000000000000000000000007bffffffffffffffffffffffffffffffffffffffffffffffffffffffff1916827bffffffffffffffffffffffffffffffffffffffffffffffffffffffff1916145b806128a657506128a582613180565b5b9050919050565b60008073ffffffffffffffffffffffffffffffffffffffff166002600084815260200190815260200160002060009054906101000a900473ffffffffffffffffffffffffffffffffffffffff1673ffffffffffffffffffffffffffffffffffffffff1614159050919050565b600033905090565b816004600083815260200190815260200160002060006101000a81548173ffffffffffffffffffffffffffffffffffffffff021916908373ffffffffffffffffffffffffffffffffffffffff160217905550808273ffffffffffffffffffffffffffffffffffffffff16612994836112c3565b73ffffffffffffffffffffffffffffffffffffffff167f8c5be1e5ebec7d5bd14f71427d1e84f3dd0314c0f7b2291e5b200ac8c7c3b92560405160405180910390a45050565b60006129e5826128ad565b612a24576040517f08c379a0000000000000000000000000000000000000000000000000000000008152600401612a1b90614b03565b60405180910390fd5b6000612a2f836112c3565b90508073ffffffffffffffffffffffffffffffffffffffff168473ffffffffffffffffffffffffffffffffffffffff161480612a9e57508373ffffffffffffffffffffffffffffffffffffffff16612a8684610975565b73ffffffffffffffffffffffffffffffffffffffff16145b80612aaf5750612aae81856123ee565b5b91505092915050565b8273ffffffffffffffffffffffffffffffffffffffff16612ad8826112c3565b73ffffffffffffffffffffffffffffffffffffffff1614612b2e576040517f08c379a0000000000000000000000000000000000000000000000000000000008152600401612b2590614c23565b60405180910390fd5b600073ffffffffffffffffffffffffffffffffffffffff168273ffffffffffffffffffffffffffffffffffffffff161415612b9e576040517f08c379a0000000000000000000000000000000000000000000000000000000008152600401612b9590614ac3565b60405180910390fd5b612ba98383836131ea565b612bb4600082612921565b6001600360008573ffffffffffffffffffffffffffffffffffffffff1673ffffffffffffffffffffffffffffffffffffffff1681526020019081526020016000206000828254612c049190614f58565b925050819055506001600360008473ffffffffffffffffffffffffffffffffffffffff1673ffffffffffffffffffffffffffffffffffffffff1681526020019081526020016000206000828254612c5b9190614e77565b92505081905550816002600083815260200190815260200160002060006101000a81548173ffffffffffffffffffffffffffffffffffffffff021916908373ffffffffffffffffffffffffffffffffffffffff160217905550808273ffffffffffffffffffffffffffffffffffffffff168473ffffffffffffffffffffffffffffffffffffffff167fddf252ad1be2c89b69c2b068fc378daa952ba7f163c4a11628f55a4df523b3ef60405160405180910390a4505050565b6000816127108084612d269190614ecd565b612d309190614efe565b14612d70576040517f08c379a0000000000000000000000000000000000000000000000000000000008152600401612d6790614aa3565b60405180910390fd5b612710600b5483612d819190614efe565b612d8b9190614ecd565b9050919050565b600073ffffffffffffffffffffffffffffffffffffffff168273ffffffffffffffffffffffffffffffffffffffff161415612e02576040517f08c379a0000000000000000000000000000000000000000000000000000000008152600401612df990614be3565b60405180910390fd5b612e0b816128ad565b15612e4b576040517f08c379a0000000000000000000000000000000000000000000000000000000008152600401612e4290614a83565b60405180910390fd5b612e57600083836131ea565b6001600360008473ffffffffffffffffffffffffffffffffffffffff1673ffffffffffffffffffffffffffffffffffffffff1681526020019081526020016000206000828254612ea79190614e77565b92505081905550816002600083815260200190815260200160002060006101000a81548173ffffffffffffffffffffffffffffffffffffffff021916908373ffffffffffffffffffffffffffffffffffffffff160217905550808273ffffffffffffffffffffffffffffffffffffffff16600073ffffffffffffffffffffffffffffffffffffffff167fddf252ad1be2c89b69c2b068fc378daa952ba7f163c4a11628f55a4df523b3ef60405160405180910390a45050565b612f6b848484612ab8565b612f77848484846132fe565b612fb6576040517f08c379a0000000000000000000000000000000000000000000000000000000008152600401612fad90614a63565b60405180910390fd5b50505050565b606060405180602001604052806000815250905090565b6060600082141561301b576040518060400160405280600181526020017f3000000000000000000000000000000000000000000000000000000000000000815250905061317b565b600082905060005b6000821461304d57808061303690615074565b915050600a826130469190614ecd565b9150613023565b60008167ffffffffffffffff81111561308f577f4e487b7100000000000000000000000000000000000000000000000000000000600052604160045260246000fd5b6040519080825280601f01601f1916602001820160405280156130c15781602001600182028036833780820191505090505b5090505b60008514613174576001826130da9190614f58565b9150600a856130e991906150bd565b60306130f59190614e77565b60f81b818381518110613131577f4e487b7100000000000000000000000000000000000000000000000000000000600052603260045260246000fd5b60200101907effffffffffffffffffffffffffffffffffffffffffffffffffffffffffffff1916908160001a905350600a8561316d9190614ecd565b94506130c5565b8093505050505b919050565b60007f01ffc9a7000000000000000000000000000000000000000000000000000000007bffffffffffffffffffffffffffffffffffffffffffffffffffffffff1916827bffffffffffffffffffffffffffffffffffffffffffffffffffffffff1916149050919050565b6131f5838383613495565b600073ffffffffffffffffffffffffffffffffffffffff168373ffffffffffffffffffffffffffffffffffffffff161415613238576132338161349a565b613277565b8173ffffffffffffffffffffffffffffffffffffffff168373ffffffffffffffffffffffffffffffffffffffff16146132765761327583826134e3565b5b5b600073ffffffffffffffffffffffffffffffffffffffff168273ffffffffffffffffffffffffffffffffffffffff1614156132ba576132b581613650565b6132f9565b8273ffffffffffffffffffffffffffffffffffffffff168273ffffffffffffffffffffffffffffffffffffffff16146132f8576132f78282613793565b5b5b505050565b600061331f8473ffffffffffffffffffffffffffffffffffffffff16613812565b15613488578373ffffffffffffffffffffffffffffffffffffffff1663150b7a02613348612919565b8786866040518563ffffffff1660e01b815260040161336a9493929190614860565b602060405180830381600087803b15801561338457600080fd5b505af19250505080156133b557506040513d601f19601f820116820180604052508101906133b29190613cf2565b60015b613438573d80600081146133e5576040519150601f19603f3d011682016040523d82523d6000602084013e6133ea565b606091505b50600081511415613430576040517f08c379a000000000000000000000000000000000000000000000000000000000815260040161342790614a63565b60405180910390fd5b805181602001fd5b63150b7a0260e01b7bffffffffffffffffffffffffffffffffffffffffffffffffffffffff1916817bffffffffffffffffffffffffffffffffffffffffffffffffffffffff19161491505061348d565b600190505b949350505050565b505050565b6008805490506009600083815260200190815260200160002081905550600881908060018154018082558091505060019003906000526020600020016000909190919091505550565b600060016134f084611848565b6134fa9190614f58565b90506000600760008481526020019081526020016000205490508181146135df576000600660008673ffffffffffffffffffffffffffffffffffffffff1673ffffffffffffffffffffffffffffffffffffffff168152602001908152602001600020600084815260200190815260200160002054905080600660008773ffffffffffffffffffffffffffffffffffffffff1673ffffffffffffffffffffffffffffffffffffffff168152602001908152602001600020600084815260200190815260200160002081905550816007600083815260200190815260200160002081905550505b6007600084815260200190815260200160002060009055600660008573ffffffffffffffffffffffffffffffffffffffff1673ffffffffffffffffffffffffffffffffffffffff16815260200190815260200160002060008381526020019081526020016000206000905550505050565b600060016008805490506136649190614f58565b90506000600960008481526020019081526020016000205490506000600883815481106136ba577f4e487b7100000000000000000000000000000000000000000000000000000000600052603260045260246000fd5b906000526020600020015490508060088381548110613702577f4e487b7100000000000000000000000000000000000000000000000000000000600052603260045260246000fd5b906000526020600020018190555081600960008381526020019081526020016000208190555060096000858152602001908152602001600020600090556008805480613777577f4e487b7100000000000000000000000000000000000000000000000000000000600052603160045260246000fd5b6001900381819060005260206000200160009055905550505050565b600061379e83611848565b905081600660008573ffffffffffffffffffffffffffffffffffffffff1673ffffffffffffffffffffffffffffffffffffffff168152602001908152602001600020600083815260200190815260200160002081905550806007600084815260200190815260200160002081905550505050565b600080823b905060008111915050919050565b82805461383190615042565b90600052602060002090601f01602090048101928261385357600085556138a1565b82601f1061386457805485556138a1565b828001600101855582156138a157600052602060002091601f016020900482015b828111156138a0578254825591600101919060010190613885565b5b5090506138ae9190613978565b5090565b5080546138be90615042565b6000825580601f106138d057506138ef565b601f0160209004906000526020600020908101906138ee9190613978565b5b50565b8280546138fe90615042565b90600052602060002090601f0160209004810192826139205760008555613967565b82601f1061393957805160ff1916838001178555613967565b82800160010185558215613967579182015b8281111561396657825182559160200191906001019061394b565b5b5090506139749190613978565b5090565b5b80821115613991576000816000905550600101613979565b5090565b60006139a86139a384614dd4565b614da3565b9050828152602081018484840111156139c057600080fd5b6139cb848285615000565b509392505050565b60006139e66139e184614e04565b614da3565b9050828152602081018484840111156139fe57600080fd5b613a09848285615000565b509392505050565b600081359050613a20816151bb565b92915050565b600081359050613a35816151d2565b92915050565b600081359050613a4a816151e9565b92915050565b600081519050613a5f816151e9565b92915050565b600082601f830112613a7657600080fd5b8135613a86848260208601613995565b91505092915050565b600082601f830112613aa057600080fd5b8135613ab08482602086016139d3565b91505092915050565b600081359050613ac881615200565b92915050565b600060208284031215613ae057600080fd5b6000613aee84828501613a11565b91505092915050565b60008060408385031215613b0a57600080fd5b6000613b1885828601613a11565b9250506020613b2985828601613a11565b9150509250929050565b600080600060608486031215613b4857600080fd5b6000613b5686828701613a11565b9350506020613b6786828701613a11565b9250506040613b7886828701613ab9565b9150509250925092565b60008060008060808587031215613b9857600080fd5b6000613ba687828801613a11565b9450506020613bb787828801613a11565b9350506040613bc887828801613ab9565b925050606085013567ffffffffffffffff811115613be557600080fd5b613bf187828801613a65565b91505092959194509250565b60008060408385031215613c1057600080fd5b6000613c1e85828601613a11565b9250506020613c2f85828601613a26565b9150509250929050565b60008060408385031215613c4c57600080fd5b6000613c5a85828601613a11565b925050602083013567ffffffffffffffff811115613c7757600080fd5b613c8385828601613a8f565b9150509250929050565b60008060408385031215613ca057600080fd5b6000613cae85828601613a11565b9250506020613cbf85828601613ab9565b9150509250929050565b600060208284031215613cdb57600080fd5b6000613ce984828501613a3b565b91505092915050565b600060208284031215613d0457600080fd5b6000613d1284828501613a50565b91505092915050565b600060208284031215613d2d57600080fd5b600082013567ffffffffffffffff811115613d4757600080fd5b613d5384828501613a8f565b91505092915050565b60008060408385031215613d6f57600080fd5b600083013567ffffffffffffffff811115613d8957600080fd5b613d9585828601613a8f565b925050602083013567ffffffffffffffff811115613db257600080fd5b613dbe85828601613a8f565b9150509250929050565b60008060008060008060c08789031215613de157600080fd5b600087013567ffffffffffffffff811115613dfb57600080fd5b613e0789828a01613a8f565b9650506020613e1889828a01613ab9565b955050604087013567ffffffffffffffff811115613e3557600080fd5b613e4189828a01613a8f565b945050606087013567ffffffffffffffff811115613e5e57600080fd5b613e6a89828a01613a8f565b935050608087013567ffffffffffffffff811115613e8757600080fd5b613e9389828a01613a8f565b92505060a0613ea489828a01613ab9565b9150509295509295509295565b600060208284031215613ec357600080fd5b6000613ed184828501613ab9565b91505092915050565b613ee381614f8c565b82525050565b613ef281614f9e565b82525050565b6000613f0382614e34565b613f0d8185614e4a565b9350613f1d81856020860161500f565b613f26816151aa565b840191505092915050565b6000613f3c82614e3f565b613f468185614e5b565b9350613f5681856020860161500f565b613f5f816151aa565b840191505092915050565b6000613f7582614e3f565b613f7f8185614e6c565b9350613f8f81856020860161500f565b80840191505092915050565b6000613fa8602b83614e5b565b91507f455243373231456e756d657261626c653a206f776e657220696e646578206f7560008301527f74206f6620626f756e64730000000000000000000000000000000000000000006020830152604082019050919050565b600061400e603283614e5b565b91507f4552433732313a207472616e7366657220746f206e6f6e20455243373231526560008301527f63656976657220696d706c656d656e74657200000000000000000000000000006020830152604082019050919050565b6000614074601c83614e5b565b91507f4552433732313a20746f6b656e20616c7265616479206d696e746564000000006000830152602082019050919050565b60006140b4600983614e5b565b91507f746f6f20736d616c6c00000000000000000000000000000000000000000000006000830152602082019050919050565b60006140f4602483614e5b565b91507f4552433732313a207472616e7366657220746f20746865207a65726f2061646460008301527f72657373000000000000000000000000000000000000000000000000000000006020830152604082019050919050565b600061415a601983614e5b565b91507f4552433732313a20617070726f766520746f2063616c6c6572000000000000006000830152602082019050919050565b600061419a602c83614e5b565b91507f4552433732313a206f70657261746f7220717565727920666f72206e6f6e657860008301527f697374656e7420746f6b656e00000000000000000000000000000000000000006020830152604082019050919050565b6000614200601583614e5b565b91507f594f5520415245204e4f5420412043524541544f5200000000000000000000006000830152602082019050919050565b6000614240603883614e5b565b91507f4552433732313a20617070726f76652063616c6c6572206973206e6f74206f7760008301527f6e6572206e6f7220617070726f76656420666f7220616c6c00000000000000006020830152604082019050919050565b60006142a6602a83614e5b565b91507f4552433732313a2062616c616e636520717565727920666f7220746865207a6560008301527f726f2061646472657373000000000000000000000000000000000000000000006020830152604082019050919050565b600061430c602983614e5b565b91507f4552433732313a206f776e657220717565727920666f72206e6f6e657869737460008301527f656e7420746f6b656e00000000000000000000000000000000000000000000006020830152604082019050919050565b6000614372601383614e5b565b91507f594f5520415245204e4f5420414c4c4f574544000000000000000000000000006000830152602082019050919050565b60006143b2602383614e5b565b91507f594f555220415245204e4f5420412043524541544f52204f462054484953204360008301527f4c554200000000000000000000000000000000000000000000000000000000006020830152604082019050919050565b6000614418602083614e5b565b91507f4552433732313a206d696e7420746f20746865207a65726f20616464726573736000830152602082019050919050565b6000614458602c83614e5b565b91507f4552433732313a20617070726f76656420717565727920666f72206e6f6e657860008301527f697374656e7420746f6b656e00000000000000000000000000000000000000006020830152604082019050919050565b60006144be602983614e5b565b91507f4552433732313a207472616e73666572206f6620746f6b656e2074686174206960008301527f73206e6f74206f776e00000000000000000000000000000000000000000000006020830152604082019050919050565b6000614524602f83614e5b565b91507f4552433732314d657461646174613a2055524920717565727920666f72206e6f60008301527f6e6578697374656e7420746f6b656e00000000000000000000000000000000006020830152604082019050919050565b600061458a602083614e5b565b91507f594f5520415245204e4f542043524541544f52204f46205448495320434c55426000830152602082019050919050565b60006145ca602183614e5b565b91507f4552433732313a20617070726f76616c20746f2063757272656e74206f776e6560008301527f72000000000000000000000000000000000000000000000000000000000000006020830152604082019050919050565b6000614630603183614e5b565b91507f4552433732313a207472616e736665722063616c6c6572206973206e6f74206f60008301527f776e6572206e6f7220617070726f7665640000000000000000000000000000006020830152604082019050919050565b6000614696601183614e5b565b91507f594f5520415245204e4f542041444d494e0000000000000000000000000000006000830152602082019050919050565b60006146d6602c83614e5b565b91507f455243373231456e756d657261626c653a20676c6f62616c20696e646578206f60008301527f7574206f6620626f756e647300000000000000000000000000000000000000006020830152604082019050919050565b600061473c602a83614e5b565b91507f594f5520415245204e4f542043524541544f52204f46205448495320434c554260008301527f204e4f522041444d494e000000000000000000000000000000000000000000006020830152604082019050919050565b60006147a2603083614e5b565b91507f4e4f542054484520524947485420414d4f554e54204f46204554482c204d415960008301527f204245204d4f5245204f52204c455353000000000000000000000000000000006020830152604082019050919050565b61480481614ff6565b82525050565b60006148168284613f6a565b915081905092915050565b600061482d8285613f6a565b91506148398284613f6a565b91508190509392505050565b600060208201905061485a6000830184613eda565b92915050565b60006080820190506148756000830187613eda565b6148826020830186613eda565b61488f60408301856147fb565b81810360608301526148a18184613ef8565b905095945050505050565b60006020820190506148c16000830184613ee9565b92915050565b600060208201905081810360008301526148e18184613f31565b905092915050565b6000610140820190508181036000830152614904818d613f31565b9050614913602083018c6147fb565b614920604083018b613eda565b61492d606083018a6147fb565b818103608083015261493f8189613f31565b905081810360a08301526149538188613f31565b905081810360c08301526149678187613f31565b905061497660e08301866147fb565b614984610100830185613eda565b6149926101208301846147fb565b9b9a5050505050505050505050565b60006101208201905081810360008301526149bc818c613f31565b90506149cb602083018b6147fb565b6149d8604083018a613eda565b6149e560608301896147fb565b81810360808301526149f78188613f31565b905081810360a0830152614a0b8187613f31565b9050614a1a60c08301866147fb565b614a2760e08301856147fb565b614a35610100830184613eda565b9a9950505050505050505050565b60006020820190508181036000830152614a5c81613f9b565b9050919050565b60006020820190508181036000830152614a7c81614001565b9050919050565b60006020820190508181036000830152614a9c81614067565b9050919050565b60006020820190508181036000830152614abc816140a7565b9050919050565b60006020820190508181036000830152614adc816140e7565b9050919050565b60006020820190508181036000830152614afc8161414d565b9050919050565b60006020820190508181036000830152614b1c8161418d565b9050919050565b60006020820190508181036000830152614b3c816141f3565b9050919050565b60006020820190508181036000830152614b5c81614233565b9050919050565b60006020820190508181036000830152614b7c81614299565b9050919050565b60006020820190508181036000830152614b9c816142ff565b9050919050565b60006020820190508181036000830152614bbc81614365565b9050919050565b60006020820190508181036000830152614bdc816143a5565b9050919050565b60006020820190508181036000830152614bfc8161440b565b9050919050565b60006020820190508181036000830152614c1c8161444b565b9050919050565b60006020820190508181036000830152614c3c816144b1565b9050919050565b60006020820190508181036000830152614c5c81614517565b9050919050565b60006020820190508181036000830152614c7c8161457d565b9050919050565b60006020820190508181036000830152614c9c816145bd565b9050919050565b60006020820190508181036000830152614cbc81614623565b9050919050565b60006020820190508181036000830152614cdc81614689565b9050919050565b60006020820190508181036000830152614cfc816146c9565b9050919050565b60006020820190508181036000830152614d1c8161472f565b9050919050565b60006020820190508181036000830152614d3c81614795565b9050919050565b6000602082019050614d5860008301846147fb565b92915050565b6000608082019050614d7360008301876147fb565b614d806020830186613eda565b614d8d6040830185613eda565b614d9a60608301846147fb565b95945050505050565b6000604051905081810181811067ffffffffffffffff82111715614dca57614dc961517b565b5b8060405250919050565b600067ffffffffffffffff821115614def57614dee61517b565b5b601f19601f8301169050602081019050919050565b600067ffffffffffffffff821115614e1f57614e1e61517b565b5b601f19601f8301169050602081019050919050565b600081519050919050565b600081519050919050565b600082825260208201905092915050565b600082825260208201905092915050565b600081905092915050565b6000614e8282614ff6565b9150614e8d83614ff6565b9250827fffffffffffffffffffffffffffffffffffffffffffffffffffffffffffffffff03821115614ec257614ec16150ee565b5b828201905092915050565b6000614ed882614ff6565b9150614ee383614ff6565b925082614ef357614ef261511d565b5b828204905092915050565b6000614f0982614ff6565b9150614f1483614ff6565b9250817fffffffffffffffffffffffffffffffffffffffffffffffffffffffffffffffff0483118215151615614f4d57614f4c6150ee565b5b828202905092915050565b6000614f6382614ff6565b9150614f6e83614ff6565b925082821015614f8157614f806150ee565b5b828203905092915050565b6000614f9782614fd6565b9050919050565b60008115159050919050565b60007fffffffff0000000000000000000000000000000000000000000000000000000082169050919050565b600073ffffffffffffffffffffffffffffffffffffffff82169050919050565b6000819050919050565b82818337600083830152505050565b60005b8381101561502d578082015181840152602081019050615012565b8381111561503c576000848401525b50505050565b6000600282049050600182168061505a57607f821691505b6020821081141561506e5761506d61514c565b5b50919050565b600061507f82614ff6565b91507fffffffffffffffffffffffffffffffffffffffffffffffffffffffffffffffff8214156150b2576150b16150ee565b5b600182019050919050565b60006150c882614ff6565b91506150d383614ff6565b9250826150e3576150e261511d565b5b828206905092915050565b7f4e487b7100000000000000000000000000000000000000000000000000000000600052601160045260246000fd5b7f4e487b7100000000000000000000000000000000000000000000000000000000600052601260045260246000fd5b7f4e487b7100000000000000000000000000000000000000000000000000000000600052602260045260246000fd5b7f4e487b7100000000000000000000000000000000000000000000000000000000600052604160045260246000fd5b6000601f19601f8301169050919050565b6151c481614f8c565b81146151cf57600080fd5b50565b6151db81614f9e565b81146151e657600080fd5b50565b6151f281614faa565b81146151fd57600080fd5b50565b61520981614ff6565b811461521457600080fd5b5056fea264697066735822122050431a346527048d3f86aa0a80cdac7074eefbfa5ab0dfebe5e04bf9adb64cea64736f6c63430008000033",
  "immutableReferences": {
    "1911": [
      {
        "length": 32,
        "start": 3943
      },
      {
        "length": 32,
        "start": 4558
      },
      {
        "length": 32,
        "start": 4700
      },
      {
        "length": 32,
        "start": 6680
      },
      {
        "length": 32,
        "start": 7629
      },
      {
        "length": 32,
        "start": 8507
      },
      {
        "length": 32,
        "start": 8924
      },
      {
        "length": 32,
        "start": 10153
      }
    ]
  },
  "source": "// SPDX-License-Identifier: MIT\npragma solidity >=0.4.22 <0.9.0;\n\nimport \"@openzeppelin/contracts/token/ERC721/ERC721.sol\";\nimport \"@openzeppelin/contracts/token/ERC721/extensions/ERC721Enumerable.sol\";\n\ncontract Cards is ERC721Enumerable {\n    address public immutable admin;\n    uint256 public nextItemId;\n    uint256 public CONTRACT_FEE = 9500; //5% fee, the rest goes to the creator, 95% == 9500\n    // uint256 public CREATORS_FEE = 2000; // 20% fee\n    //185 basis points = 1.85 pct\n\n    mapping(address => mapping(uint256 => Card)) public marketCards;\n    mapping(address => mapping(uint256 => Card)) public myCards;\n    /*for now just add one creator per club, but when I want to increase more creators\n    for each club I just need to add mapping(string=>mapping(uint=>address)) \n    */\n\n    //MIGRATE CONTRACT FIRST BEFORE ANYTHING, OF COURSE\n    // first get the clubToCreator address of what team i want, then loop through marketCards\n    // filtering just the cards `createdBy` that address and return it to the user\n\n    mapping(string => string) private urlClubBadge;\n    mapping(string => address) public clubToCreator;\n    mapping(address => bool) public creators;\n\n    //waiting for admin approval\n    // uint256 numPendingCreators = 0;\n    mapping(address => string) public pendingCreator;\n\n    // adding card creators, just admin allowed to add\n    function addCreator(address _addr, string memory _club) external {\n        require(admin == msg.sender, \"YOU ARE NOT ADMIN\");\n        creators[_addr] = true;\n        clubToCreator[_club] = _addr;\n    }\n\n    constructor() ERC721(\"Cards Futebol\", \"FUT\") {\n        admin = msg.sender;\n        creators[msg.sender] = true;\n    }\n\n    //type the club's the same you are authorized to post for\n    function setClubBadge(string memory _club, string memory _newClubBadge)\n        external\n    {\n        require(\n            clubToCreator[_club] == msg.sender || admin == msg.sender,\n            \"YOUR ARE NOT A CREATOR OF THIS CLUB\"\n        );\n        urlClubBadge[_club] = _newClubBadge;\n    }\n\n    function mintCards(\n        string memory _title,\n        uint256 _price,\n        string memory _description,\n        string memory _club,\n        string memory _urlPicture,\n        uint256 _totalAmount\n    ) external {\n        require(creators[msg.sender], \"YOU ARE NOT A CREATOR\");\n        require(\n            clubToCreator[_club] == msg.sender || admin == msg.sender,\n            \"YOU ARE NOT CREATOR OF THIS CLUB\"\n        );\n\n        for (uint256 i = 0; i < _totalAmount; i++) {\n            Card memory card = Card({\n                title: _title,\n                id: nextItemId,\n                owner: address(this),\n                price: _price,\n                description: _description,\n                urlPicture: _urlPicture,\n                club: _club,\n                timestamp: block.timestamp,\n                createdBy: msg.sender,\n                totalAmount: _totalAmount\n            });\n\n            _mint(address(this), nextItemId);\n            marketCards[address(this)][nextItemId] = card;\n            nextItemId++;\n\n            emit cardMinted(\n                card.title,\n                card.id,\n                card.owner,\n                card.price,\n                card.description,\n                card.urlPicture,\n                card.timestamp,\n                card.totalAmount,\n                card.createdBy\n            );\n        }\n\n        // tokenOfOwnerByIndex(owner, index);\n        // tokenByIndex(index);\n    }\n\n    //owner of the contract retrieving all of its fee's\n    function retrieveFunds() external {\n        require(msg.sender == admin, \"YOU ARE NOT ALLOWED\");\n        payable(admin).transfer(address(this).balance);\n    }\n\n    // removing card creators, just admin allowed to remove\n    function removeCreator(address _addr, string memory _club) external {\n        require(admin == msg.sender, \"YOU ARE NOT ADMIN\");\n        creators[_addr] = false;\n        delete clubToCreator[_club];\n    }\n\n    function totalFundsCollected() external view returns (uint256) {\n        return address(this).balance;\n    }\n\n    event cardMinted(\n        string title,\n        uint256 id,\n        address owner,\n        uint256 price,\n        string description,\n        string urlPicture,\n        uint256 timestamp,\n        uint256 totalAmount,\n        address createdBy\n    );\n\n    event cardTransfered(\n        uint256 id,\n        address from,\n        address to,\n        uint256 timestamp\n    );\n\n    struct Card {\n        string title;\n        uint256 id;\n        address owner;\n        uint256 price;\n        string description;\n        string urlPicture;\n        string club;\n        uint256 timestamp;\n        address createdBy;\n        uint256 totalAmount;\n    }\n\n    function isCreator(address _addr) external view returns (bool) {\n        return creators[_addr];\n    }\n\n    function isClubCreator(string memory _club) external view returns (bool) {\n        require(\n            clubToCreator[_club] == msg.sender || admin == msg.sender,\n            \"YOU ARE NOT CREATOR OF THIS CLUB NOR ADMIN\"\n        );\n\n        return true;\n    }\n\n    function buyCardFromMarket(uint256 tokenId) external payable {\n        require(\n            msg.value == marketCards[address(this)][tokenId].price,\n            \"NOT THE RIGHT AMOUNT OF ETH, MAY BE MORE OR LESS\"\n        );\n\n        uint256 _fee_contract = calculateFeeAdmin(msg.value); //msg.value - FEE\n        payable(marketCards[address(this)][tokenId].createdBy).transfer(\n            msg.value - _fee_contract\n        );\n\n        _transfer(address(this), msg.sender, tokenId);\n        myCards[msg.sender][tokenId] = marketCards[address(this)][tokenId];\n        delete marketCards[address(this)][tokenId];\n\n        emit cardTransfered(\n            tokenId,\n            address(this),\n            msg.sender,\n            block.timestamp\n        );\n    }\n\n    //PUT MINT FN HERE\n    //100 basis points = 1.00 pct\n    function calculateFeeAdmin(uint256 amount) private view returns (uint256) {\n        require((amount / 10000) * 10000 == amount, \"too small\");\n        return (amount * CONTRACT_FEE) / 10000;\n    }\n\n    // function calculateFeeCreator(uint256 amount)\n    //     private\n    //     view\n    //     returns (uint256)\n    // {\n    //     require((amount / 10000) * 10000 == amount, \"too small\");\n    //     return (amount * CREATORS_FEE) / 10000;\n    // }\n\n    // function _baseURI() internal view virtual override returns (string memory) {\n    //     return \"\";\n    // }\n}\n",
  "sourcePath": "/Volumes/APPLE HDD/reactprojects/cards-nft/contracts/Cards.sol",
  "compiler": {
    "name": "solc",
    "version": "0.8.0+commit.c7dfd78e.Emscripten.clang"
  },
  "schemaVersion": "3.4.3",
  "updatedAt": "2021-12-03T21:56:35.650Z",
  "networkType": "ethereum",
  "devdoc": {
    "kind": "dev",
    "methods": {
      "approve(address,uint256)": {
        "details": "See {IERC721-approve}."
      },
      "balanceOf(address)": {
        "details": "See {IERC721-balanceOf}."
      },
      "getApproved(uint256)": {
        "details": "See {IERC721-getApproved}."
      },
      "isApprovedForAll(address,address)": {
        "details": "See {IERC721-isApprovedForAll}."
      },
      "name()": {
        "details": "See {IERC721Metadata-name}."
      },
      "ownerOf(uint256)": {
        "details": "See {IERC721-ownerOf}."
      },
      "safeTransferFrom(address,address,uint256)": {
        "details": "See {IERC721-safeTransferFrom}."
      },
      "safeTransferFrom(address,address,uint256,bytes)": {
        "details": "See {IERC721-safeTransferFrom}."
      },
      "setApprovalForAll(address,bool)": {
        "details": "See {IERC721-setApprovalForAll}."
      },
      "supportsInterface(bytes4)": {
        "details": "See {IERC165-supportsInterface}."
      },
      "symbol()": {
        "details": "See {IERC721Metadata-symbol}."
      },
      "tokenByIndex(uint256)": {
        "details": "See {IERC721Enumerable-tokenByIndex}."
      },
      "tokenOfOwnerByIndex(address,uint256)": {
        "details": "See {IERC721Enumerable-tokenOfOwnerByIndex}."
      },
      "tokenURI(uint256)": {
        "details": "See {IERC721Metadata-tokenURI}."
      },
      "totalSupply()": {
        "details": "See {IERC721Enumerable-totalSupply}."
      },
      "transferFrom(address,address,uint256)": {
        "details": "See {IERC721-transferFrom}."
      }
    },
    "version": 1
  },
  "userdoc": {
    "kind": "user",
    "methods": {},
    "version": 1
  }
}