{
  "contractName": "Cards",
  "abi": [
    {
      "inputs": [],
      "stateMutability": "nonpayable",
      "type": "constructor"
    },
    {
      "anonymous": false,
      "inputs": [
        {
          "indexed": true,
          "internalType": "address",
          "name": "owner",
          "type": "address"
        },
        {
          "indexed": true,
          "internalType": "address",
          "name": "approved",
          "type": "address"
        },
        {
          "indexed": true,
          "internalType": "uint256",
          "name": "tokenId",
          "type": "uint256"
        }
      ],
      "name": "Approval",
      "type": "event"
    },
    {
      "anonymous": false,
      "inputs": [
        {
          "indexed": true,
          "internalType": "address",
          "name": "owner",
          "type": "address"
        },
        {
          "indexed": true,
          "internalType": "address",
          "name": "operator",
          "type": "address"
        },
        {
          "indexed": false,
          "internalType": "bool",
          "name": "approved",
          "type": "bool"
        }
      ],
      "name": "ApprovalForAll",
      "type": "event"
    },
    {
      "anonymous": false,
      "inputs": [
        {
          "indexed": true,
          "internalType": "address",
          "name": "from",
          "type": "address"
        },
        {
          "indexed": true,
          "internalType": "address",
          "name": "to",
          "type": "address"
        },
        {
          "indexed": true,
          "internalType": "uint256",
          "name": "tokenId",
          "type": "uint256"
        }
      ],
      "name": "Transfer",
      "type": "event"
    },
    {
      "anonymous": false,
      "inputs": [
        {
          "indexed": false,
          "internalType": "string",
          "name": "title",
          "type": "string"
        },
        {
          "indexed": false,
          "internalType": "uint256",
          "name": "id",
          "type": "uint256"
        },
        {
          "indexed": false,
          "internalType": "address",
          "name": "owner",
          "type": "address"
        },
        {
          "indexed": false,
          "internalType": "uint256",
          "name": "price",
          "type": "uint256"
        },
        {
          "indexed": false,
          "internalType": "string",
          "name": "description",
          "type": "string"
        },
        {
          "indexed": false,
          "internalType": "string",
          "name": "urlPicture",
          "type": "string"
        },
        {
          "indexed": false,
          "internalType": "uint256",
          "name": "timestamp",
          "type": "uint256"
        },
        {
          "indexed": false,
          "internalType": "uint256",
          "name": "totalAmount",
          "type": "uint256"
        },
        {
          "indexed": false,
          "internalType": "address",
          "name": "createdBy",
          "type": "address"
        }
      ],
      "name": "cardMinted",
      "type": "event"
    },
    {
      "anonymous": false,
      "inputs": [
        {
          "indexed": false,
          "internalType": "uint256",
          "name": "id",
          "type": "uint256"
        },
        {
          "indexed": false,
          "internalType": "address",
          "name": "from",
          "type": "address"
        },
        {
          "indexed": false,
          "internalType": "address",
          "name": "to",
          "type": "address"
        },
        {
          "indexed": false,
          "internalType": "uint256",
          "name": "timestamp",
          "type": "uint256"
        }
      ],
      "name": "cardTransfered",
      "type": "event"
    },
    {
      "inputs": [],
      "name": "CONTRACT_FEE",
      "outputs": [
        {
          "internalType": "uint256",
          "name": "",
          "type": "uint256"
        }
      ],
      "stateMutability": "view",
      "type": "function",
      "constant": true
    },
    {
      "inputs": [],
      "name": "CREATORS_FEE",
      "outputs": [
        {
          "internalType": "uint256",
          "name": "",
          "type": "uint256"
        }
      ],
      "stateMutability": "view",
      "type": "function",
      "constant": true
    },
    {
      "inputs": [],
      "name": "admin",
      "outputs": [
        {
          "internalType": "address",
          "name": "",
          "type": "address"
        }
      ],
      "stateMutability": "view",
      "type": "function",
      "constant": true
    },
    {
      "inputs": [
        {
          "internalType": "address",
          "name": "to",
          "type": "address"
        },
        {
          "internalType": "uint256",
          "name": "tokenId",
          "type": "uint256"
        }
      ],
      "name": "approve",
      "outputs": [],
      "stateMutability": "nonpayable",
      "type": "function"
    },
    {
      "inputs": [
        {
          "internalType": "address",
          "name": "owner",
          "type": "address"
        }
      ],
      "name": "balanceOf",
      "outputs": [
        {
          "internalType": "uint256",
          "name": "",
          "type": "uint256"
        }
      ],
      "stateMutability": "view",
      "type": "function",
      "constant": true
    },
    {
      "inputs": [
        {
          "internalType": "string",
          "name": "",
          "type": "string"
        }
      ],
      "name": "clubToCreator",
      "outputs": [
        {
          "internalType": "address",
          "name": "",
          "type": "address"
        }
      ],
      "stateMutability": "view",
      "type": "function",
      "constant": true
    },
    {
      "inputs": [
        {
          "internalType": "address",
          "name": "",
          "type": "address"
        }
      ],
      "name": "creators",
      "outputs": [
        {
          "internalType": "bool",
          "name": "",
          "type": "bool"
        }
      ],
      "stateMutability": "view",
      "type": "function",
      "constant": true
    },
    {
      "inputs": [
        {
          "internalType": "uint256",
          "name": "tokenId",
          "type": "uint256"
        }
      ],
      "name": "getApproved",
      "outputs": [
        {
          "internalType": "address",
          "name": "",
          "type": "address"
        }
      ],
      "stateMutability": "view",
      "type": "function",
      "constant": true
    },
    {
      "inputs": [
        {
          "internalType": "address",
          "name": "owner",
          "type": "address"
        },
        {
          "internalType": "address",
          "name": "operator",
          "type": "address"
        }
      ],
      "name": "isApprovedForAll",
      "outputs": [
        {
          "internalType": "bool",
          "name": "",
          "type": "bool"
        }
      ],
      "stateMutability": "view",
      "type": "function",
      "constant": true
    },
    {
      "inputs": [
        {
          "internalType": "address",
          "name": "",
          "type": "address"
        },
        {
          "internalType": "uint256",
          "name": "",
          "type": "uint256"
        }
      ],
      "name": "marketCards",
      "outputs": [
        {
          "internalType": "string",
          "name": "title",
          "type": "string"
        },
        {
          "internalType": "uint256",
          "name": "id",
          "type": "uint256"
        },
        {
          "internalType": "address",
          "name": "owner",
          "type": "address"
        },
        {
          "internalType": "uint256",
          "name": "price",
          "type": "uint256"
        },
        {
          "internalType": "string",
          "name": "description",
          "type": "string"
        },
        {
          "internalType": "string",
          "name": "urlPicture",
          "type": "string"
        },
        {
          "internalType": "string",
          "name": "club",
          "type": "string"
        },
        {
          "internalType": "uint256",
          "name": "timestamp",
          "type": "uint256"
        },
        {
          "internalType": "address",
          "name": "createdBy",
          "type": "address"
        },
        {
          "internalType": "uint256",
          "name": "totalAmount",
          "type": "uint256"
        }
      ],
      "stateMutability": "view",
      "type": "function",
      "constant": true
    },
    {
      "inputs": [
        {
          "internalType": "address",
          "name": "",
          "type": "address"
        },
        {
          "internalType": "uint256",
          "name": "",
          "type": "uint256"
        }
      ],
      "name": "myCards",
      "outputs": [
        {
          "internalType": "string",
          "name": "title",
          "type": "string"
        },
        {
          "internalType": "uint256",
          "name": "id",
          "type": "uint256"
        },
        {
          "internalType": "address",
          "name": "owner",
          "type": "address"
        },
        {
          "internalType": "uint256",
          "name": "price",
          "type": "uint256"
        },
        {
          "internalType": "string",
          "name": "description",
          "type": "string"
        },
        {
          "internalType": "string",
          "name": "urlPicture",
          "type": "string"
        },
        {
          "internalType": "string",
          "name": "club",
          "type": "string"
        },
        {
          "internalType": "uint256",
          "name": "timestamp",
          "type": "uint256"
        },
        {
          "internalType": "address",
          "name": "createdBy",
          "type": "address"
        },
        {
          "internalType": "uint256",
          "name": "totalAmount",
          "type": "uint256"
        }
      ],
      "stateMutability": "view",
      "type": "function",
      "constant": true
    },
    {
      "inputs": [],
      "name": "name",
      "outputs": [
        {
          "internalType": "string",
          "name": "",
          "type": "string"
        }
      ],
      "stateMutability": "view",
      "type": "function",
      "constant": true
    },
    {
      "inputs": [],
      "name": "nextItemId",
      "outputs": [
        {
          "internalType": "uint256",
          "name": "",
          "type": "uint256"
        }
      ],
      "stateMutability": "view",
      "type": "function",
      "constant": true
    },
    {
      "inputs": [
        {
          "internalType": "uint256",
          "name": "tokenId",
          "type": "uint256"
        }
      ],
      "name": "ownerOf",
      "outputs": [
        {
          "internalType": "address",
          "name": "",
          "type": "address"
        }
      ],
      "stateMutability": "view",
      "type": "function",
      "constant": true
    },
    {
      "inputs": [
        {
          "internalType": "address",
          "name": "from",
          "type": "address"
        },
        {
          "internalType": "address",
          "name": "to",
          "type": "address"
        },
        {
          "internalType": "uint256",
          "name": "tokenId",
          "type": "uint256"
        }
      ],
      "name": "safeTransferFrom",
      "outputs": [],
      "stateMutability": "nonpayable",
      "type": "function"
    },
    {
      "inputs": [
        {
          "internalType": "address",
          "name": "from",
          "type": "address"
        },
        {
          "internalType": "address",
          "name": "to",
          "type": "address"
        },
        {
          "internalType": "uint256",
          "name": "tokenId",
          "type": "uint256"
        },
        {
          "internalType": "bytes",
          "name": "_data",
          "type": "bytes"
        }
      ],
      "name": "safeTransferFrom",
      "outputs": [],
      "stateMutability": "nonpayable",
      "type": "function"
    },
    {
      "inputs": [
        {
          "internalType": "address",
          "name": "operator",
          "type": "address"
        },
        {
          "internalType": "bool",
          "name": "approved",
          "type": "bool"
        }
      ],
      "name": "setApprovalForAll",
      "outputs": [],
      "stateMutability": "nonpayable",
      "type": "function"
    },
    {
      "inputs": [
        {
          "internalType": "bytes4",
          "name": "interfaceId",
          "type": "bytes4"
        }
      ],
      "name": "supportsInterface",
      "outputs": [
        {
          "internalType": "bool",
          "name": "",
          "type": "bool"
        }
      ],
      "stateMutability": "view",
      "type": "function",
      "constant": true
    },
    {
      "inputs": [],
      "name": "symbol",
      "outputs": [
        {
          "internalType": "string",
          "name": "",
          "type": "string"
        }
      ],
      "stateMutability": "view",
      "type": "function",
      "constant": true
    },
    {
      "inputs": [
        {
          "internalType": "uint256",
          "name": "index",
          "type": "uint256"
        }
      ],
      "name": "tokenByIndex",
      "outputs": [
        {
          "internalType": "uint256",
          "name": "",
          "type": "uint256"
        }
      ],
      "stateMutability": "view",
      "type": "function",
      "constant": true
    },
    {
      "inputs": [
        {
          "internalType": "address",
          "name": "owner",
          "type": "address"
        },
        {
          "internalType": "uint256",
          "name": "index",
          "type": "uint256"
        }
      ],
      "name": "tokenOfOwnerByIndex",
      "outputs": [
        {
          "internalType": "uint256",
          "name": "",
          "type": "uint256"
        }
      ],
      "stateMutability": "view",
      "type": "function",
      "constant": true
    },
    {
      "inputs": [
        {
          "internalType": "uint256",
          "name": "tokenId",
          "type": "uint256"
        }
      ],
      "name": "tokenURI",
      "outputs": [
        {
          "internalType": "string",
          "name": "",
          "type": "string"
        }
      ],
      "stateMutability": "view",
      "type": "function",
      "constant": true
    },
    {
      "inputs": [],
      "name": "totalSupply",
      "outputs": [
        {
          "internalType": "uint256",
          "name": "",
          "type": "uint256"
        }
      ],
      "stateMutability": "view",
      "type": "function",
      "constant": true
    },
    {
      "inputs": [
        {
          "internalType": "address",
          "name": "from",
          "type": "address"
        },
        {
          "internalType": "address",
          "name": "to",
          "type": "address"
        },
        {
          "internalType": "uint256",
          "name": "tokenId",
          "type": "uint256"
        }
      ],
      "name": "transferFrom",
      "outputs": [],
      "stateMutability": "nonpayable",
      "type": "function"
    },
    {
      "inputs": [],
      "name": "retrieveFunds",
      "outputs": [],
      "stateMutability": "nonpayable",
      "type": "function"
    },
    {
      "inputs": [
        {
          "internalType": "address",
          "name": "_addr",
          "type": "address"
        },
        {
          "internalType": "string",
          "name": "_club",
          "type": "string"
        }
      ],
      "name": "addCreator",
      "outputs": [],
      "stateMutability": "nonpayable",
      "type": "function"
    },
    {
      "inputs": [
        {
          "internalType": "address",
          "name": "_addr",
          "type": "address"
        },
        {
          "internalType": "string",
          "name": "_club",
          "type": "string"
        }
      ],
      "name": "removeCreator",
      "outputs": [],
      "stateMutability": "nonpayable",
      "type": "function"
    },
    {
      "inputs": [],
      "name": "totalFundsCollected",
      "outputs": [
        {
          "internalType": "uint256",
          "name": "",
          "type": "uint256"
        }
      ],
      "stateMutability": "view",
      "type": "function",
      "constant": true
    },
    {
      "inputs": [
        {
          "internalType": "uint256",
          "name": "tokenId",
          "type": "uint256"
        }
      ],
      "name": "buyCardFromMarket",
      "outputs": [],
      "stateMutability": "payable",
      "type": "function",
      "payable": true
    },
    {
      "inputs": [
        {
          "internalType": "string",
          "name": "_title",
          "type": "string"
        },
        {
          "internalType": "uint256",
          "name": "_price",
          "type": "uint256"
        },
        {
          "internalType": "string",
          "name": "_description",
          "type": "string"
        },
        {
          "internalType": "string",
          "name": "_club",
          "type": "string"
        },
        {
          "internalType": "string",
          "name": "_urlPicture",
          "type": "string"
        },
        {
          "internalType": "uint256",
          "name": "_totalAmount",
          "type": "uint256"
        }
      ],
      "name": "mintCards",
      "outputs": [],
      "stateMutability": "nonpayable",
      "type": "function"
    }
  ],
  "bytecode": "0x60806040526103e8600c556107d0600d553480156200001d57600080fd5b506040518060400160405280600d81526020017f43617264732046757465626f6c000000000000000000000000000000000000008152506040518060400160405280600381526020017f46555400000000000000000000000000000000000000000000000000000000008152508160009080519060200190620000a292919062000105565b508060019080519060200190620000bb92919062000105565b50505033600a60006101000a81548173ffffffffffffffffffffffffffffffffffffffff021916908373ffffffffffffffffffffffffffffffffffffffff1602179055506200021a565b8280546200011390620001b5565b90600052602060002090601f01602090048101928262000137576000855562000183565b82601f106200015257805160ff191683800117855562000183565b8280016001018555821562000183579182015b828111156200018257825182559160200191906001019062000165565b5b50905062000192919062000196565b5090565b5b80821115620001b157600081600090555060010162000197565b5090565b60006002820490506001821680620001ce57607f821691505b60208210811415620001e557620001e4620001eb565b5b50919050565b7f4e487b7100000000000000000000000000000000000000000000000000000000600052602260045260246000fd5b614a03806200022a6000396000f3fe6080604052600436106101cd5760003560e01c80636ac408e5116100f7578063b88d4fde11610095578063e9cb5dd611610064578063e9cb5dd6146106cc578063f58a6d6014610712578063f70d37461461073d578063f851a44014610768576101cd565b8063b88d4fde14610600578063c87b56dd14610629578063e24577b814610666578063e985e9c51461068f576101cd565b8063895f9f9d116100d1578063895f9f9d14610546578063933166e11461056f57806395d89b41146105ac578063a22cb465146105d7576101cd565b80636ac408e5146104c257806370a08231146104de57806375fbbc871461051b576101cd565b80632518d7e01161016f5780634f6ccce71161013e5780634f6ccce71461040657806361b20d8c146104435780636352211e1461045a5780636a86897414610497576101cd565b80632518d7e0146103315780632f745c591461037757806342842e0e146103b4578063453bc2a7146103dd576101cd565b8063095ea7b3116101ab578063095ea7b31461027757806318160ddd146102a057806323b872dd146102cb57806324466df9146102f4576101cd565b806301ffc9a7146101d257806306fdde031461020f578063081812fc1461023a575b600080fd5b3480156101de57600080fd5b506101f960048036038101906101f491906136fc565b610793565b6040516102069190614127565b60405180910390f35b34801561021b57600080fd5b5061022461080d565b6040516102319190614142565b60405180910390f35b34801561024657600080fd5b50610261600480360381019061025c9190613878565b61089f565b60405161026e91906140c0565b60405180910390f35b34801561028357600080fd5b5061029e600480360381019061029991906136c0565b610924565b005b3480156102ac57600080fd5b506102b5610a3c565b6040516102c2919061453e565b60405180910390f35b3480156102d757600080fd5b506102f260048036038101906102ed9190613566565b610a49565b005b34801561030057600080fd5b5061031b6004803603810190610316919061374e565b610aa9565b60405161032891906140c0565b60405180910390f35b34801561033d57600080fd5b50610358600480360381019061035391906136c0565b610af2565b60405161036e9a99989796959493929190614164565b60405180910390f35b34801561038357600080fd5b5061039e600480360381019061039991906136c0565b610db3565b6040516103ab919061453e565b60405180910390f35b3480156103c057600080fd5b506103db60048036038101906103d69190613566565b610e58565b005b3480156103e957600080fd5b5061040460048036038101906103ff919061366c565b610e78565b005b34801561041257600080fd5b5061042d60048036038101906104289190613878565b610fc1565b60405161043a919061453e565b60405180910390f35b34801561044f57600080fd5b50610458611058565b005b34801561046657600080fd5b50610481600480360381019061047c9190613878565b611153565b60405161048e91906140c0565b60405180910390f35b3480156104a357600080fd5b506104ac611205565b6040516104b9919061453e565b60405180910390f35b6104dc60048036038101906104d79190613878565b61120b565b005b3480156104ea57600080fd5b5061050560048036038101906105009190613501565b61169b565b604051610512919061453e565b60405180910390f35b34801561052757600080fd5b50610530611753565b60405161053d919061453e565b60405180910390f35b34801561055257600080fd5b5061056d6004803603810190610568919061378f565b611759565b005b34801561057b57600080fd5b5061059660048036038101906105919190613501565b611a0c565b6040516105a39190614127565b60405180910390f35b3480156105b857600080fd5b506105c1611a2c565b6040516105ce9190614142565b60405180910390f35b3480156105e357600080fd5b506105fe60048036038101906105f99190613630565b611abe565b005b34801561060c57600080fd5b50610627600480360381019061062291906135b5565b611c3f565b005b34801561063557600080fd5b50610650600480360381019061064b9190613878565b611ca1565b60405161065d9190614142565b60405180910390f35b34801561067257600080fd5b5061068d6004803603810190610688919061366c565b611d48565b005b34801561069b57600080fd5b506106b660048036038101906106b1919061352a565b611e75565b6040516106c39190614127565b60405180910390f35b3480156106d857600080fd5b506106f360048036038101906106ee91906136c0565b611f09565b6040516107099a99989796959493929190614164565b60405180910390f35b34801561071e57600080fd5b506107276121ca565b604051610734919061453e565b60405180910390f35b34801561074957600080fd5b506107526121d2565b60405161075f919061453e565b60405180910390f35b34801561077457600080fd5b5061077d6121d8565b60405161078a91906140c0565b60405180910390f35b60007f780e9d63000000000000000000000000000000000000000000000000000000007bffffffffffffffffffffffffffffffffffffffffffffffffffffffff1916827bffffffffffffffffffffffffffffffffffffffffffffffffffffffff191614806108065750610805826121fe565b5b9050919050565b60606000805461081c906147f8565b80601f0160208091040260200160405190810160405280929190818152602001828054610848906147f8565b80156108955780601f1061086a57610100808354040283529160200191610895565b820191906000526020600020905b81548152906001019060200180831161087857829003601f168201915b5050505050905090565b60006108aa826122e0565b6108e9576040517f08c379a00000000000000000000000000000000000000000000000000000000081526004016108e09061443e565b60405180910390fd5b6004600083815260200190815260200160002060009054906101000a900473ffffffffffffffffffffffffffffffffffffffff169050919050565b600061092f82611153565b90508073ffffffffffffffffffffffffffffffffffffffff168373ffffffffffffffffffffffffffffffffffffffff1614156109a0576040517f08c379a00000000000000000000000000000000000000000000000000000000081526004016109979061449e565b60405180910390fd5b8073ffffffffffffffffffffffffffffffffffffffff166109bf61234c565b73ffffffffffffffffffffffffffffffffffffffff1614806109ee57506109ed816109e861234c565b611e75565b5b610a2d576040517f08c379a0000000000000000000000000000000000000000000000000000000008152600401610a249061439e565b60405180910390fd5b610a378383612354565b505050565b6000600880549050905090565b610a5a610a5461234c565b8261240d565b610a99576040517f08c379a0000000000000000000000000000000000000000000000000000000008152600401610a90906144be565b60405180910390fd5b610aa48383836124eb565b505050565b6010818051602081018201805184825260208301602085012081835280955050505050506000915054906101000a900473ffffffffffffffffffffffffffffffffffffffff1681565b600e60205281600052604060002060205280600052604060002060009150915050806000018054610b22906147f8565b80601f0160208091040260200160405190810160405280929190818152602001828054610b4e906147f8565b8015610b9b5780601f10610b7057610100808354040283529160200191610b9b565b820191906000526020600020905b815481529060010190602001808311610b7e57829003601f168201915b5050505050908060010154908060020160009054906101000a900473ffffffffffffffffffffffffffffffffffffffff1690806003015490806004018054610be2906147f8565b80601f0160208091040260200160405190810160405280929190818152602001828054610c0e906147f8565b8015610c5b5780601f10610c3057610100808354040283529160200191610c5b565b820191906000526020600020905b815481529060010190602001808311610c3e57829003601f168201915b505050505090806005018054610c70906147f8565b80601f0160208091040260200160405190810160405280929190818152602001828054610c9c906147f8565b8015610ce95780601f10610cbe57610100808354040283529160200191610ce9565b820191906000526020600020905b815481529060010190602001808311610ccc57829003601f168201915b505050505090806006018054610cfe906147f8565b80601f0160208091040260200160405190810160405280929190818152602001828054610d2a906147f8565b8015610d775780601f10610d4c57610100808354040283529160200191610d77565b820191906000526020600020905b815481529060010190602001808311610d5a57829003601f168201915b5050505050908060070154908060080160009054906101000a900473ffffffffffffffffffffffffffffffffffffffff1690806009015490508a565b6000610dbe8361169b565b8210610dff576040517f08c379a0000000000000000000000000000000000000000000000000000000008152600401610df6906142be565b60405180910390fd5b600660008473ffffffffffffffffffffffffffffffffffffffff1673ffffffffffffffffffffffffffffffffffffffff168152602001908152602001600020600083815260200190815260200160002054905092915050565b610e7383838360405180602001604052806000815250611c3f565b505050565b3373ffffffffffffffffffffffffffffffffffffffff16600a60009054906101000a900473ffffffffffffffffffffffffffffffffffffffff1673ffffffffffffffffffffffffffffffffffffffff1614610f08576040517f08c379a0000000000000000000000000000000000000000000000000000000008152600401610eff906144de565b60405180910390fd5b6001601160008473ffffffffffffffffffffffffffffffffffffffff1673ffffffffffffffffffffffffffffffffffffffff16815260200190815260200160002060006101000a81548160ff02191690831515021790555081601082604051610f719190614085565b908152602001604051809103902060006101000a81548173ffffffffffffffffffffffffffffffffffffffff021916908373ffffffffffffffffffffffffffffffffffffffff1602179055505050565b6000610fcb610a3c565b821061100c576040517f08c379a0000000000000000000000000000000000000000000000000000000008152600401611003906144fe565b60405180910390fd5b60088281548110611046577f4e487b7100000000000000000000000000000000000000000000000000000000600052603260045260246000fd5b90600052602060002001549050919050565b600a60009054906101000a900473ffffffffffffffffffffffffffffffffffffffff1673ffffffffffffffffffffffffffffffffffffffff163373ffffffffffffffffffffffffffffffffffffffff16146110e8576040517f08c379a00000000000000000000000000000000000000000000000000000000081526004016110df906143fe565b60405180910390fd5b600a60009054906101000a900473ffffffffffffffffffffffffffffffffffffffff1673ffffffffffffffffffffffffffffffffffffffff166108fc479081150290604051600060405180830381858888f19350505050158015611150573d6000803e3d6000fd5b50565b6000806002600084815260200190815260200160002060009054906101000a900473ffffffffffffffffffffffffffffffffffffffff169050600073ffffffffffffffffffffffffffffffffffffffff168173ffffffffffffffffffffffffffffffffffffffff1614156111fc576040517f08c379a00000000000000000000000000000000000000000000000000000000081526004016111f3906143de565b60405180910390fd5b80915050919050565b600b5481565b600e60003073ffffffffffffffffffffffffffffffffffffffff1673ffffffffffffffffffffffffffffffffffffffff16815260200190815260200160002060008281526020019081526020016000206003015434146112a0576040517f08c379a00000000000000000000000000000000000000000000000000000000081526004016112979061451e565b60405180910390fd5b60006112ab34612747565b9050600e60003073ffffffffffffffffffffffffffffffffffffffff1673ffffffffffffffffffffffffffffffffffffffff168152602001908152602001600020600083815260200190815260200160002060080160009054906101000a900473ffffffffffffffffffffffffffffffffffffffff1673ffffffffffffffffffffffffffffffffffffffff166108fc8234611346919061470e565b9081150290604051600060405180830381858888f19350505050158015611371573d6000803e3d6000fd5b5061137d3033846124eb565b600e60003073ffffffffffffffffffffffffffffffffffffffff1673ffffffffffffffffffffffffffffffffffffffff1681526020019081526020016000206000838152602001908152602001600020600f60003373ffffffffffffffffffffffffffffffffffffffff1673ffffffffffffffffffffffffffffffffffffffff16815260200190815260200160002060008481526020019081526020016000206000820181600001908054611431906147f8565b61143c929190613258565b50600182015481600101556002820160009054906101000a900473ffffffffffffffffffffffffffffffffffffffff168160020160006101000a81548173ffffffffffffffffffffffffffffffffffffffff021916908373ffffffffffffffffffffffffffffffffffffffff1602179055506003820154816003015560048201816004019080546114cc906147f8565b6114d7929190613258565b5060058201816005019080546114ec906147f8565b6114f7929190613258565b50600682018160060190805461150c906147f8565b611517929190613258565b50600782015481600701556008820160009054906101000a900473ffffffffffffffffffffffffffffffffffffffff168160080160006101000a81548173ffffffffffffffffffffffffffffffffffffffff021916908373ffffffffffffffffffffffffffffffffffffffff16021790555060098201548160090155905050600e60003073ffffffffffffffffffffffffffffffffffffffff1673ffffffffffffffffffffffffffffffffffffffff1681526020019081526020016000206000838152602001908152602001600020600080820160006115f791906132e5565b60018201600090556002820160006101000a81549073ffffffffffffffffffffffffffffffffffffffff0219169055600382016000905560048201600061163e91906132e5565b60058201600061164e91906132e5565b60068201600061165e91906132e5565b60078201600090556008820160006101000a81549073ffffffffffffffffffffffffffffffffffffffff0219169055600982016000905550505050565b60008073ffffffffffffffffffffffffffffffffffffffff168273ffffffffffffffffffffffffffffffffffffffff16141561170c576040517f08c379a0000000000000000000000000000000000000000000000000000000008152600401611703906143be565b60405180910390fd5b600360008373ffffffffffffffffffffffffffffffffffffffff1673ffffffffffffffffffffffffffffffffffffffff168152602001908152602001600020549050919050565b600d5481565b60005b81811015611a03576000604051806101400160405280898152602001600b5481526020013073ffffffffffffffffffffffffffffffffffffffff1681526020018881526020018781526020018581526020018681526020014281526020013373ffffffffffffffffffffffffffffffffffffffff1681526020018481525090506117e830600b546127c5565b80600e60003073ffffffffffffffffffffffffffffffffffffffff1673ffffffffffffffffffffffffffffffffffffffff1681526020019081526020016000206000600b5481526020019081526020016000206000820151816000019080519060200190611857929190613325565b506020820151816001015560408201518160020160006101000a81548173ffffffffffffffffffffffffffffffffffffffff021916908373ffffffffffffffffffffffffffffffffffffffff1602179055506060820151816003015560808201518160040190805190602001906118cf929190613325565b5060a08201518160050190805190602001906118ec929190613325565b5060c0820151816006019080519060200190611909929190613325565b5060e082015181600701556101008201518160080160006101000a81548173ffffffffffffffffffffffffffffffffffffffff021916908373ffffffffffffffffffffffffffffffffffffffff1602179055506101208201518160090155905050600b600081548092919061197d9061482a565b91905055507f76d7fc2acd49c7f7e283c64228d295e5b6020449a55771e32a9ce55ffdeb8707816000015182602001518360400151846060015185608001518660a001518760e001518861012001518961010001516040516119e79998979695949392919061421c565b60405180910390a15080806119fb9061482a565b91505061175c565b50505050505050565b60116020528060005260406000206000915054906101000a900460ff1681565b606060018054611a3b906147f8565b80601f0160208091040260200160405190810160405280929190818152602001828054611a67906147f8565b8015611ab45780601f10611a8957610100808354040283529160200191611ab4565b820191906000526020600020905b815481529060010190602001808311611a9757829003601f168201915b5050505050905090565b611ac661234c565b73ffffffffffffffffffffffffffffffffffffffff168273ffffffffffffffffffffffffffffffffffffffff161415611b34576040517f08c379a0000000000000000000000000000000000000000000000000000000008152600401611b2b9061435e565b60405180910390fd5b8060056000611b4161234c565b73ffffffffffffffffffffffffffffffffffffffff1673ffffffffffffffffffffffffffffffffffffffff16815260200190815260200160002060008473ffffffffffffffffffffffffffffffffffffffff1673ffffffffffffffffffffffffffffffffffffffff16815260200190815260200160002060006101000a81548160ff0219169083151502179055508173ffffffffffffffffffffffffffffffffffffffff16611bee61234c565b73ffffffffffffffffffffffffffffffffffffffff167f17307eab39ab6107e8899845ad3d59bd9653f200f220920489ca2b5937696c3183604051611c339190614127565b60405180910390a35050565b611c50611c4a61234c565b8361240d565b611c8f576040517f08c379a0000000000000000000000000000000000000000000000000000000008152600401611c86906144be565b60405180910390fd5b611c9b84848484612993565b50505050565b6060611cac826122e0565b611ceb576040517f08c379a0000000000000000000000000000000000000000000000000000000008152600401611ce29061447e565b60405180910390fd5b6000611cf56129ef565b90506000815111611d155760405180602001604052806000815250611d40565b80611d1f84612a06565b604051602001611d3092919061409c565b6040516020818303038152906040525b915050919050565b3373ffffffffffffffffffffffffffffffffffffffff16600a60009054906101000a900473ffffffffffffffffffffffffffffffffffffffff1673ffffffffffffffffffffffffffffffffffffffff1614611dd8576040517f08c379a0000000000000000000000000000000000000000000000000000000008152600401611dcf906144de565b60405180910390fd5b6000601160008473ffffffffffffffffffffffffffffffffffffffff1673ffffffffffffffffffffffffffffffffffffffff16815260200190815260200160002060006101000a81548160ff021916908315150217905550601081604051611e409190614085565b908152602001604051809103902060006101000a81549073ffffffffffffffffffffffffffffffffffffffff02191690555050565b6000600560008473ffffffffffffffffffffffffffffffffffffffff1673ffffffffffffffffffffffffffffffffffffffff16815260200190815260200160002060008373ffffffffffffffffffffffffffffffffffffffff1673ffffffffffffffffffffffffffffffffffffffff16815260200190815260200160002060009054906101000a900460ff16905092915050565b600f60205281600052604060002060205280600052604060002060009150915050806000018054611f39906147f8565b80601f0160208091040260200160405190810160405280929190818152602001828054611f65906147f8565b8015611fb25780601f10611f8757610100808354040283529160200191611fb2565b820191906000526020600020905b815481529060010190602001808311611f9557829003601f168201915b5050505050908060010154908060020160009054906101000a900473ffffffffffffffffffffffffffffffffffffffff1690806003015490806004018054611ff9906147f8565b80601f0160208091040260200160405190810160405280929190818152602001828054612025906147f8565b80156120725780601f1061204757610100808354040283529160200191612072565b820191906000526020600020905b81548152906001019060200180831161205557829003601f168201915b505050505090806005018054612087906147f8565b80601f01602080910402602001604051908101604052809291908181526020018280546120b3906147f8565b80156121005780601f106120d557610100808354040283529160200191612100565b820191906000526020600020905b8154815290600101906020018083116120e357829003601f168201915b505050505090806006018054612115906147f8565b80601f0160208091040260200160405190810160405280929190818152602001828054612141906147f8565b801561218e5780601f106121635761010080835404028352916020019161218e565b820191906000526020600020905b81548152906001019060200180831161217157829003601f168201915b5050505050908060070154908060080160009054906101000a900473ffffffffffffffffffffffffffffffffffffffff1690806009015490508a565b600047905090565b600c5481565b600a60009054906101000a900473ffffffffffffffffffffffffffffffffffffffff1681565b60007f80ac58cd000000000000000000000000000000000000000000000000000000007bffffffffffffffffffffffffffffffffffffffffffffffffffffffff1916827bffffffffffffffffffffffffffffffffffffffffffffffffffffffff191614806122c957507f5b5e139f000000000000000000000000000000000000000000000000000000007bffffffffffffffffffffffffffffffffffffffffffffffffffffffff1916827bffffffffffffffffffffffffffffffffffffffffffffffffffffffff1916145b806122d957506122d882612bb3565b5b9050919050565b60008073ffffffffffffffffffffffffffffffffffffffff166002600084815260200190815260200160002060009054906101000a900473ffffffffffffffffffffffffffffffffffffffff1673ffffffffffffffffffffffffffffffffffffffff1614159050919050565b600033905090565b816004600083815260200190815260200160002060006101000a81548173ffffffffffffffffffffffffffffffffffffffff021916908373ffffffffffffffffffffffffffffffffffffffff160217905550808273ffffffffffffffffffffffffffffffffffffffff166123c783611153565b73ffffffffffffffffffffffffffffffffffffffff167f8c5be1e5ebec7d5bd14f71427d1e84f3dd0314c0f7b2291e5b200ac8c7c3b92560405160405180910390a45050565b6000612418826122e0565b612457576040517f08c379a000000000000000000000000000000000000000000000000000000000815260040161244e9061437e565b60405180910390fd5b600061246283611153565b90508073ffffffffffffffffffffffffffffffffffffffff168473ffffffffffffffffffffffffffffffffffffffff1614806124d157508373ffffffffffffffffffffffffffffffffffffffff166124b98461089f565b73ffffffffffffffffffffffffffffffffffffffff16145b806124e257506124e18185611e75565b5b91505092915050565b8273ffffffffffffffffffffffffffffffffffffffff1661250b82611153565b73ffffffffffffffffffffffffffffffffffffffff1614612561576040517f08c379a00000000000000000000000000000000000000000000000000000000081526004016125589061445e565b60405180910390fd5b600073ffffffffffffffffffffffffffffffffffffffff168273ffffffffffffffffffffffffffffffffffffffff1614156125d1576040517f08c379a00000000000000000000000000000000000000000000000000000000081526004016125c89061433e565b60405180910390fd5b6125dc838383612c1d565b6125e7600082612354565b6001600360008573ffffffffffffffffffffffffffffffffffffffff1673ffffffffffffffffffffffffffffffffffffffff1681526020019081526020016000206000828254612637919061470e565b925050819055506001600360008473ffffffffffffffffffffffffffffffffffffffff1673ffffffffffffffffffffffffffffffffffffffff168152602001908152602001600020600082825461268e919061462d565b92505081905550816002600083815260200190815260200160002060006101000a81548173ffffffffffffffffffffffffffffffffffffffff021916908373ffffffffffffffffffffffffffffffffffffffff160217905550808273ffffffffffffffffffffffffffffffffffffffff168473ffffffffffffffffffffffffffffffffffffffff167fddf252ad1be2c89b69c2b068fc378daa952ba7f163c4a11628f55a4df523b3ef60405160405180910390a4505050565b60008161271080846127599190614683565b61276391906146b4565b146127a3576040517f08c379a000000000000000000000000000000000000000000000000000000000815260040161279a9061431e565b60405180910390fd5b612710600c54836127b491906146b4565b6127be9190614683565b9050919050565b600073ffffffffffffffffffffffffffffffffffffffff168273ffffffffffffffffffffffffffffffffffffffff161415612835576040517f08c379a000000000000000000000000000000000000000000000000000000000815260040161282c9061441e565b60405180910390fd5b61283e816122e0565b1561287e576040517f08c379a0000000000000000000000000000000000000000000000000000000008152600401612875906142fe565b60405180910390fd5b61288a60008383612c1d565b6001600360008473ffffffffffffffffffffffffffffffffffffffff1673ffffffffffffffffffffffffffffffffffffffff16815260200190815260200160002060008282546128da919061462d565b92505081905550816002600083815260200190815260200160002060006101000a81548173ffffffffffffffffffffffffffffffffffffffff021916908373ffffffffffffffffffffffffffffffffffffffff160217905550808273ffffffffffffffffffffffffffffffffffffffff16600073ffffffffffffffffffffffffffffffffffffffff167fddf252ad1be2c89b69c2b068fc378daa952ba7f163c4a11628f55a4df523b3ef60405160405180910390a45050565b61299e8484846124eb565b6129aa84848484612d31565b6129e9576040517f08c379a00000000000000000000000000000000000000000000000000000000081526004016129e0906142de565b60405180910390fd5b50505050565b606060405180602001604052806000815250905090565b60606000821415612a4e576040518060400160405280600181526020017f30000000000000000000000000000000000000000000000000000000000000008152509050612bae565b600082905060005b60008214612a80578080612a699061482a565b915050600a82612a799190614683565b9150612a56565b60008167ffffffffffffffff811115612ac2577f4e487b7100000000000000000000000000000000000000000000000000000000600052604160045260246000fd5b6040519080825280601f01601f191660200182016040528015612af45781602001600182028036833780820191505090505b5090505b60008514612ba757600182612b0d919061470e565b9150600a85612b1c9190614873565b6030612b28919061462d565b60f81b818381518110612b64577f4e487b7100000000000000000000000000000000000000000000000000000000600052603260045260246000fd5b60200101907effffffffffffffffffffffffffffffffffffffffffffffffffffffffffffff1916908160001a905350600a85612ba09190614683565b9450612af8565b8093505050505b919050565b60007f01ffc9a7000000000000000000000000000000000000000000000000000000007bffffffffffffffffffffffffffffffffffffffffffffffffffffffff1916827bffffffffffffffffffffffffffffffffffffffffffffffffffffffff1916149050919050565b612c28838383612ec8565b600073ffffffffffffffffffffffffffffffffffffffff168373ffffffffffffffffffffffffffffffffffffffff161415612c6b57612c6681612ecd565b612caa565b8173ffffffffffffffffffffffffffffffffffffffff168373ffffffffffffffffffffffffffffffffffffffff1614612ca957612ca88382612f16565b5b5b600073ffffffffffffffffffffffffffffffffffffffff168273ffffffffffffffffffffffffffffffffffffffff161415612ced57612ce881613083565b612d2c565b8273ffffffffffffffffffffffffffffffffffffffff168273ffffffffffffffffffffffffffffffffffffffff1614612d2b57612d2a82826131c6565b5b5b505050565b6000612d528473ffffffffffffffffffffffffffffffffffffffff16613245565b15612ebb578373ffffffffffffffffffffffffffffffffffffffff1663150b7a02612d7b61234c565b8786866040518563ffffffff1660e01b8152600401612d9d94939291906140db565b602060405180830381600087803b158015612db757600080fd5b505af1925050508015612de857506040513d601f19601f82011682018060405250810190612de59190613725565b60015b612e6b573d8060008114612e18576040519150601f19603f3d011682016040523d82523d6000602084013e612e1d565b606091505b50600081511415612e63576040517f08c379a0000000000000000000000000000000000000000000000000000000008152600401612e5a906142de565b60405180910390fd5b805181602001fd5b63150b7a0260e01b7bffffffffffffffffffffffffffffffffffffffffffffffffffffffff1916817bffffffffffffffffffffffffffffffffffffffffffffffffffffffff191614915050612ec0565b600190505b949350505050565b505050565b6008805490506009600083815260200190815260200160002081905550600881908060018154018082558091505060019003906000526020600020016000909190919091505550565b60006001612f238461169b565b612f2d919061470e565b9050600060076000848152602001908152602001600020549050818114613012576000600660008673ffffffffffffffffffffffffffffffffffffffff1673ffffffffffffffffffffffffffffffffffffffff168152602001908152602001600020600084815260200190815260200160002054905080600660008773ffffffffffffffffffffffffffffffffffffffff1673ffffffffffffffffffffffffffffffffffffffff168152602001908152602001600020600084815260200190815260200160002081905550816007600083815260200190815260200160002081905550505b6007600084815260200190815260200160002060009055600660008573ffffffffffffffffffffffffffffffffffffffff1673ffffffffffffffffffffffffffffffffffffffff16815260200190815260200160002060008381526020019081526020016000206000905550505050565b60006001600880549050613097919061470e565b90506000600960008481526020019081526020016000205490506000600883815481106130ed577f4e487b7100000000000000000000000000000000000000000000000000000000600052603260045260246000fd5b906000526020600020015490508060088381548110613135577f4e487b7100000000000000000000000000000000000000000000000000000000600052603260045260246000fd5b9060005260206000200181905550816009600083815260200190815260200160002081905550600960008581526020019081526020016000206000905560088054806131aa577f4e487b7100000000000000000000000000000000000000000000000000000000600052603160045260246000fd5b6001900381819060005260206000200160009055905550505050565b60006131d18361169b565b905081600660008573ffffffffffffffffffffffffffffffffffffffff1673ffffffffffffffffffffffffffffffffffffffff168152602001908152602001600020600083815260200190815260200160002081905550806007600084815260200190815260200160002081905550505050565b600080823b905060008111915050919050565b828054613264906147f8565b90600052602060002090601f01602090048101928261328657600085556132d4565b82601f1061329757805485556132d4565b828001600101855582156132d457600052602060002091601f016020900482015b828111156132d35782548255916001019190600101906132b8565b5b5090506132e191906133ab565b5090565b5080546132f1906147f8565b6000825580601f106133035750613322565b601f01602090049060005260206000209081019061332191906133ab565b5b50565b828054613331906147f8565b90600052602060002090601f016020900481019282613353576000855561339a565b82601f1061336c57805160ff191683800117855561339a565b8280016001018555821561339a579182015b8281111561339957825182559160200191906001019061337e565b5b5090506133a791906133ab565b5090565b5b808211156133c45760008160009055506001016133ac565b5090565b60006133db6133d68461458a565b614559565b9050828152602081018484840111156133f357600080fd5b6133fe8482856147b6565b509392505050565b6000613419613414846145ba565b614559565b90508281526020810184848401111561343157600080fd5b61343c8482856147b6565b509392505050565b60008135905061345381614971565b92915050565b60008135905061346881614988565b92915050565b60008135905061347d8161499f565b92915050565b6000815190506134928161499f565b92915050565b600082601f8301126134a957600080fd5b81356134b98482602086016133c8565b91505092915050565b600082601f8301126134d357600080fd5b81356134e3848260208601613406565b91505092915050565b6000813590506134fb816149b6565b92915050565b60006020828403121561351357600080fd5b600061352184828501613444565b91505092915050565b6000806040838503121561353d57600080fd5b600061354b85828601613444565b925050602061355c85828601613444565b9150509250929050565b60008060006060848603121561357b57600080fd5b600061358986828701613444565b935050602061359a86828701613444565b92505060406135ab868287016134ec565b9150509250925092565b600080600080608085870312156135cb57600080fd5b60006135d987828801613444565b94505060206135ea87828801613444565b93505060406135fb878288016134ec565b925050606085013567ffffffffffffffff81111561361857600080fd5b61362487828801613498565b91505092959194509250565b6000806040838503121561364357600080fd5b600061365185828601613444565b925050602061366285828601613459565b9150509250929050565b6000806040838503121561367f57600080fd5b600061368d85828601613444565b925050602083013567ffffffffffffffff8111156136aa57600080fd5b6136b6858286016134c2565b9150509250929050565b600080604083850312156136d357600080fd5b60006136e185828601613444565b92505060206136f2858286016134ec565b9150509250929050565b60006020828403121561370e57600080fd5b600061371c8482850161346e565b91505092915050565b60006020828403121561373757600080fd5b600061374584828501613483565b91505092915050565b60006020828403121561376057600080fd5b600082013567ffffffffffffffff81111561377a57600080fd5b613786848285016134c2565b91505092915050565b60008060008060008060c087890312156137a857600080fd5b600087013567ffffffffffffffff8111156137c257600080fd5b6137ce89828a016134c2565b96505060206137df89828a016134ec565b955050604087013567ffffffffffffffff8111156137fc57600080fd5b61380889828a016134c2565b945050606087013567ffffffffffffffff81111561382557600080fd5b61383189828a016134c2565b935050608087013567ffffffffffffffff81111561384e57600080fd5b61385a89828a016134c2565b92505060a061386b89828a016134ec565b9150509295509295509295565b60006020828403121561388a57600080fd5b6000613898848285016134ec565b91505092915050565b6138aa81614742565b82525050565b6138b981614754565b82525050565b60006138ca826145ea565b6138d48185614600565b93506138e48185602086016147c5565b6138ed81614960565b840191505092915050565b6000613903826145f5565b61390d8185614611565b935061391d8185602086016147c5565b61392681614960565b840191505092915050565b600061393c826145f5565b6139468185614622565b93506139568185602086016147c5565b80840191505092915050565b600061396f602b83614611565b91507f455243373231456e756d657261626c653a206f776e657220696e646578206f7560008301527f74206f6620626f756e64730000000000000000000000000000000000000000006020830152604082019050919050565b60006139d5603283614611565b91507f4552433732313a207472616e7366657220746f206e6f6e20455243373231526560008301527f63656976657220696d706c656d656e74657200000000000000000000000000006020830152604082019050919050565b6000613a3b601c83614611565b91507f4552433732313a20746f6b656e20616c7265616479206d696e746564000000006000830152602082019050919050565b6000613a7b600983614611565b91507f746f6f20736d616c6c00000000000000000000000000000000000000000000006000830152602082019050919050565b6000613abb602483614611565b91507f4552433732313a207472616e7366657220746f20746865207a65726f2061646460008301527f72657373000000000000000000000000000000000000000000000000000000006020830152604082019050919050565b6000613b21601983614611565b91507f4552433732313a20617070726f766520746f2063616c6c6572000000000000006000830152602082019050919050565b6000613b61602c83614611565b91507f4552433732313a206f70657261746f7220717565727920666f72206e6f6e657860008301527f697374656e7420746f6b656e00000000000000000000000000000000000000006020830152604082019050919050565b6000613bc7603883614611565b91507f4552433732313a20617070726f76652063616c6c6572206973206e6f74206f7760008301527f6e6572206e6f7220617070726f76656420666f7220616c6c00000000000000006020830152604082019050919050565b6000613c2d602a83614611565b91507f4552433732313a2062616c616e636520717565727920666f7220746865207a6560008301527f726f2061646472657373000000000000000000000000000000000000000000006020830152604082019050919050565b6000613c93602983614611565b91507f4552433732313a206f776e657220717565727920666f72206e6f6e657869737460008301527f656e7420746f6b656e00000000000000000000000000000000000000000000006020830152604082019050919050565b6000613cf9601383614611565b91507f594f5520415245204e4f5420414c4c4f574544000000000000000000000000006000830152602082019050919050565b6000613d39602083614611565b91507f4552433732313a206d696e7420746f20746865207a65726f20616464726573736000830152602082019050919050565b6000613d79602c83614611565b91507f4552433732313a20617070726f76656420717565727920666f72206e6f6e657860008301527f697374656e7420746f6b656e00000000000000000000000000000000000000006020830152604082019050919050565b6000613ddf602983614611565b91507f4552433732313a207472616e73666572206f6620746f6b656e2074686174206960008301527f73206e6f74206f776e00000000000000000000000000000000000000000000006020830152604082019050919050565b6000613e45602f83614611565b91507f4552433732314d657461646174613a2055524920717565727920666f72206e6f60008301527f6e6578697374656e7420746f6b656e00000000000000000000000000000000006020830152604082019050919050565b6000613eab602183614611565b91507f4552433732313a20617070726f76616c20746f2063757272656e74206f776e6560008301527f72000000000000000000000000000000000000000000000000000000000000006020830152604082019050919050565b6000613f11603183614611565b91507f4552433732313a207472616e736665722063616c6c6572206973206e6f74206f60008301527f776e6572206e6f7220617070726f7665640000000000000000000000000000006020830152604082019050919050565b6000613f77601183614611565b91507f594f5520415245204e4f542041444d494e0000000000000000000000000000006000830152602082019050919050565b6000613fb7602c83614611565b91507f455243373231456e756d657261626c653a20676c6f62616c20696e646578206f60008301527f7574206f6620626f756e647300000000000000000000000000000000000000006020830152604082019050919050565b600061401d603083614611565b91507f4e4f542054484520524947485420414d4f554e54204f46204554482c204d415960008301527f204245204d4f5245204f52204c455353000000000000000000000000000000006020830152604082019050919050565b61407f816147ac565b82525050565b60006140918284613931565b915081905092915050565b60006140a88285613931565b91506140b48284613931565b91508190509392505050565b60006020820190506140d560008301846138a1565b92915050565b60006080820190506140f060008301876138a1565b6140fd60208301866138a1565b61410a6040830185614076565b818103606083015261411c81846138bf565b905095945050505050565b600060208201905061413c60008301846138b0565b92915050565b6000602082019050818103600083015261415c81846138f8565b905092915050565b600061014082019050818103600083015261417f818d6138f8565b905061418e602083018c614076565b61419b604083018b6138a1565b6141a8606083018a614076565b81810360808301526141ba81896138f8565b905081810360a08301526141ce81886138f8565b905081810360c08301526141e281876138f8565b90506141f160e0830186614076565b6141ff6101008301856138a1565b61420d610120830184614076565b9b9a5050505050505050505050565b6000610120820190508181036000830152614237818c6138f8565b9050614246602083018b614076565b614253604083018a6138a1565b6142606060830189614076565b818103608083015261427281886138f8565b905081810360a083015261428681876138f8565b905061429560c0830186614076565b6142a260e0830185614076565b6142b06101008301846138a1565b9a9950505050505050505050565b600060208201905081810360008301526142d781613962565b9050919050565b600060208201905081810360008301526142f7816139c8565b9050919050565b6000602082019050818103600083015261431781613a2e565b9050919050565b6000602082019050818103600083015261433781613a6e565b9050919050565b6000602082019050818103600083015261435781613aae565b9050919050565b6000602082019050818103600083015261437781613b14565b9050919050565b6000602082019050818103600083015261439781613b54565b9050919050565b600060208201905081810360008301526143b781613bba565b9050919050565b600060208201905081810360008301526143d781613c20565b9050919050565b600060208201905081810360008301526143f781613c86565b9050919050565b6000602082019050818103600083015261441781613cec565b9050919050565b6000602082019050818103600083015261443781613d2c565b9050919050565b6000602082019050818103600083015261445781613d6c565b9050919050565b6000602082019050818103600083015261447781613dd2565b9050919050565b6000602082019050818103600083015261449781613e38565b9050919050565b600060208201905081810360008301526144b781613e9e565b9050919050565b600060208201905081810360008301526144d781613f04565b9050919050565b600060208201905081810360008301526144f781613f6a565b9050919050565b6000602082019050818103600083015261451781613faa565b9050919050565b6000602082019050818103600083015261453781614010565b9050919050565b60006020820190506145536000830184614076565b92915050565b6000604051905081810181811067ffffffffffffffff821117156145805761457f614931565b5b8060405250919050565b600067ffffffffffffffff8211156145a5576145a4614931565b5b601f19601f8301169050602081019050919050565b600067ffffffffffffffff8211156145d5576145d4614931565b5b601f19601f8301169050602081019050919050565b600081519050919050565b600081519050919050565b600082825260208201905092915050565b600082825260208201905092915050565b600081905092915050565b6000614638826147ac565b9150614643836147ac565b9250827fffffffffffffffffffffffffffffffffffffffffffffffffffffffffffffffff03821115614678576146776148a4565b5b828201905092915050565b600061468e826147ac565b9150614699836147ac565b9250826146a9576146a86148d3565b5b828204905092915050565b60006146bf826147ac565b91506146ca836147ac565b9250817fffffffffffffffffffffffffffffffffffffffffffffffffffffffffffffffff0483118215151615614703576147026148a4565b5b828202905092915050565b6000614719826147ac565b9150614724836147ac565b925082821015614737576147366148a4565b5b828203905092915050565b600061474d8261478c565b9050919050565b60008115159050919050565b60007fffffffff0000000000000000000000000000000000000000000000000000000082169050919050565b600073ffffffffffffffffffffffffffffffffffffffff82169050919050565b6000819050919050565b82818337600083830152505050565b60005b838110156147e35780820151818401526020810190506147c8565b838111156147f2576000848401525b50505050565b6000600282049050600182168061481057607f821691505b6020821081141561482457614823614902565b5b50919050565b6000614835826147ac565b91507fffffffffffffffffffffffffffffffffffffffffffffffffffffffffffffffff821415614868576148676148a4565b5b600182019050919050565b600061487e826147ac565b9150614889836147ac565b925082614899576148986148d3565b5b828206905092915050565b7f4e487b7100000000000000000000000000000000000000000000000000000000600052601160045260246000fd5b7f4e487b7100000000000000000000000000000000000000000000000000000000600052601260045260246000fd5b7f4e487b7100000000000000000000000000000000000000000000000000000000600052602260045260246000fd5b7f4e487b7100000000000000000000000000000000000000000000000000000000600052604160045260246000fd5b6000601f19601f8301169050919050565b61497a81614742565b811461498557600080fd5b50565b61499181614754565b811461499c57600080fd5b50565b6149a881614760565b81146149b357600080fd5b50565b6149bf816147ac565b81146149ca57600080fd5b5056fea264697066735822122047f74e235798075c29634aafbbb49457060a5a60cc9463f902d82e89b1dff3f464736f6c63430008000033",
  "immutableReferences": {},
  "source": "// SPDX-License-Identifier: MIT\npragma solidity >=0.4.22 <0.9.0;\n\nimport \"@openzeppelin/contracts/token/ERC721/ERC721.sol\";\nimport \"@openzeppelin/contracts/token/ERC721/extensions/ERC721Enumerable.sol\";\n\ncontract Cards is ERC721Enumerable {\n    address public admin;\n    uint256 public nextItemId;\n    uint256 public CONTRACT_FEE = 1000; //10% fee\n    uint256 public CREATORS_FEE = 2000; // 20% fee\n    //185 basis points = 1.85 pct\n\n    mapping(address => mapping(uint256 => Card)) public marketCards;\n    mapping(address => mapping(uint256 => Card)) public myCards;\n    /*for now just add one creator per club, but when I want to increase more creators\n    for each club I just need to add mapping(string=>mapping(uint=>address)) \n    */\n\n    // first get the clubToCreator address of what team i want, then loop through marketCards\n    // filtering just the cards `createdBy` that address and return it to the user\n\n    mapping(string => address) public clubToCreator;\n    mapping(address => bool) public creators;\n\n    //owner of the contract retrieving all of its fee's\n    function retrieveFunds() external {\n        require(msg.sender == admin, \"YOU ARE NOT ALLOWED\");\n        payable(admin).transfer(address(this).balance);\n    }\n\n    // adding card creators, just admin allowed to add\n    function addCreator(address _addr, string memory _club) external {\n        require(admin == msg.sender, \"YOU ARE NOT ADMIN\");\n        creators[_addr] = true;\n        clubToCreator[_club] = _addr;\n    }\n\n    // removing card creators, just admin allowed to remove\n    function removeCreator(address _addr, string memory _club) external {\n        require(admin == msg.sender, \"YOU ARE NOT ADMIN\");\n        creators[_addr] = false;\n        delete clubToCreator[_club];\n    }\n\n    function totalFundsCollected() external view returns (uint256) {\n        return address(this).balance;\n    }\n\n    event cardMinted(\n        string title,\n        uint256 id,\n        address owner,\n        uint256 price,\n        string description,\n        string urlPicture,\n        uint256 timestamp,\n        uint256 totalAmount,\n        address createdBy\n    );\n\n    event cardTransfered(\n        uint256 id,\n        address from,\n        address to,\n        uint256 timestamp\n    );\n\n    struct Card {\n        string title;\n        uint256 id;\n        address owner;\n        uint256 price;\n        string description;\n        string urlPicture;\n        string club;\n        uint256 timestamp;\n        address createdBy;\n        uint256 totalAmount;\n    }\n\n    constructor() ERC721(\"Cards Futebol\", \"FUT\") {\n        admin = msg.sender;\n    }\n\n    function buyCardFromMarket(uint256 tokenId) external payable {\n        require(\n            msg.value == marketCards[address(this)][tokenId].price,\n            \"NOT THE RIGHT AMOUNT OF ETH, MAY BE MORE OR LESS\"\n        );\n\n        uint256 _fee_contract = calculateFeeAdmin(msg.value); //msg.value - FEE\n        payable(marketCards[address(this)][tokenId].createdBy).transfer(\n            msg.value - _fee_contract\n        );\n\n        _transfer(address(this), msg.sender, tokenId);\n        myCards[msg.sender][tokenId] = marketCards[address(this)][tokenId];\n        delete marketCards[address(this)][tokenId];\n    }\n\n    function mintCards(\n        string memory _title,\n        uint256 _price,\n        string memory _description,\n        string memory _club,\n        string memory _urlPicture,\n        uint256 _totalAmount\n    ) external {\n        for (uint256 i = 0; i < _totalAmount; i++) {\n            Card memory card = Card({\n                title: _title,\n                id: nextItemId,\n                owner: address(this),\n                price: _price,\n                description: _description,\n                urlPicture: _urlPicture,\n                club: _club,\n                timestamp: block.timestamp,\n                createdBy: msg.sender,\n                totalAmount: _totalAmount\n            });\n            _mint(address(this), nextItemId);\n            marketCards[address(this)][nextItemId] = card;\n            nextItemId++;\n\n            emit cardMinted(\n                card.title,\n                card.id,\n                card.owner,\n                card.price,\n                card.description,\n                card.urlPicture,\n                card.timestamp,\n                card.totalAmount,\n                card.createdBy\n            );\n        }\n\n        // tokenOfOwnerByIndex(owner, index);\n        // tokenByIndex(index);\n    }\n\n    //100 basis points = 1.00 pct\n    function calculateFeeAdmin(uint256 amount) private view returns (uint256) {\n        require((amount / 10000) * 10000 == amount, \"too small\");\n        return (amount * CONTRACT_FEE) / 10000;\n    }\n\n    function calculateFeeCreator(uint256 amount)\n        private\n        view\n        returns (uint256)\n    {\n        require((amount / 10000) * 10000 == amount, \"too small\");\n        return (amount * CREATORS_FEE) / 10000;\n    }\n\n    function _baseURI() internal view virtual override returns (string memory) {\n        return \"\";\n    }\n}\n",
  "sourcePath": "/Volumes/APPLE HDD/reactprojects/cards-nft/contracts/Cards.sol",
  "compiler": {
    "name": "solc",
    "version": "0.8.0+commit.c7dfd78e.Emscripten.clang"
  },
  "schemaVersion": "3.4.3",
  "updatedAt": "2021-10-15T23:40:35.125Z",
  "networkType": "ethereum",
  "devdoc": {
    "kind": "dev",
    "methods": {
      "approve(address,uint256)": {
        "details": "See {IERC721-approve}."
      },
      "balanceOf(address)": {
        "details": "See {IERC721-balanceOf}."
      },
      "getApproved(uint256)": {
        "details": "See {IERC721-getApproved}."
      },
      "isApprovedForAll(address,address)": {
        "details": "See {IERC721-isApprovedForAll}."
      },
      "name()": {
        "details": "See {IERC721Metadata-name}."
      },
      "ownerOf(uint256)": {
        "details": "See {IERC721-ownerOf}."
      },
      "safeTransferFrom(address,address,uint256)": {
        "details": "See {IERC721-safeTransferFrom}."
      },
      "safeTransferFrom(address,address,uint256,bytes)": {
        "details": "See {IERC721-safeTransferFrom}."
      },
      "setApprovalForAll(address,bool)": {
        "details": "See {IERC721-setApprovalForAll}."
      },
      "supportsInterface(bytes4)": {
        "details": "See {IERC165-supportsInterface}."
      },
      "symbol()": {
        "details": "See {IERC721Metadata-symbol}."
      },
      "tokenByIndex(uint256)": {
        "details": "See {IERC721Enumerable-tokenByIndex}."
      },
      "tokenOfOwnerByIndex(address,uint256)": {
        "details": "See {IERC721Enumerable-tokenOfOwnerByIndex}."
      },
      "tokenURI(uint256)": {
        "details": "See {IERC721Metadata-tokenURI}."
      },
      "totalSupply()": {
        "details": "See {IERC721Enumerable-totalSupply}."
      },
      "transferFrom(address,address,uint256)": {
        "details": "See {IERC721-transferFrom}."
      }
    },
    "version": 1
  },
  "userdoc": {
    "kind": "user",
    "methods": {},
    "version": 1
  }
}