{
  "contractName": "Cards",
  "abi": [
    {
      "inputs": [],
      "stateMutability": "nonpayable",
      "type": "constructor"
    },
    {
      "anonymous": false,
      "inputs": [
        {
          "indexed": true,
          "internalType": "address",
          "name": "owner",
          "type": "address"
        },
        {
          "indexed": true,
          "internalType": "address",
          "name": "approved",
          "type": "address"
        },
        {
          "indexed": true,
          "internalType": "uint256",
          "name": "tokenId",
          "type": "uint256"
        }
      ],
      "name": "Approval",
      "type": "event"
    },
    {
      "anonymous": false,
      "inputs": [
        {
          "indexed": true,
          "internalType": "address",
          "name": "owner",
          "type": "address"
        },
        {
          "indexed": true,
          "internalType": "address",
          "name": "operator",
          "type": "address"
        },
        {
          "indexed": false,
          "internalType": "bool",
          "name": "approved",
          "type": "bool"
        }
      ],
      "name": "ApprovalForAll",
      "type": "event"
    },
    {
      "anonymous": false,
      "inputs": [
        {
          "indexed": true,
          "internalType": "address",
          "name": "previousOwner",
          "type": "address"
        },
        {
          "indexed": true,
          "internalType": "address",
          "name": "newOwner",
          "type": "address"
        }
      ],
      "name": "OwnershipTransferred",
      "type": "event"
    },
    {
      "anonymous": false,
      "inputs": [
        {
          "indexed": true,
          "internalType": "address",
          "name": "from",
          "type": "address"
        },
        {
          "indexed": true,
          "internalType": "address",
          "name": "to",
          "type": "address"
        },
        {
          "indexed": true,
          "internalType": "uint256",
          "name": "tokenId",
          "type": "uint256"
        }
      ],
      "name": "Transfer",
      "type": "event"
    },
    {
      "anonymous": false,
      "inputs": [
        {
          "components": [
            {
              "internalType": "uint256",
              "name": "_value",
              "type": "uint256"
            }
          ],
          "indexed": true,
          "internalType": "struct Counters.Counter",
          "name": "id",
          "type": "tuple"
        },
        {
          "indexed": true,
          "internalType": "address",
          "name": "owner",
          "type": "address"
        },
        {
          "indexed": true,
          "internalType": "uint256",
          "name": "timestamp",
          "type": "uint256"
        },
        {
          "indexed": false,
          "internalType": "string",
          "name": "title",
          "type": "string"
        },
        {
          "indexed": false,
          "internalType": "uint256",
          "name": "price",
          "type": "uint256"
        },
        {
          "indexed": false,
          "internalType": "string",
          "name": "description",
          "type": "string"
        },
        {
          "indexed": false,
          "internalType": "string",
          "name": "urlPicture",
          "type": "string"
        },
        {
          "indexed": false,
          "internalType": "uint256",
          "name": "totalAmount",
          "type": "uint256"
        },
        {
          "indexed": false,
          "internalType": "address",
          "name": "createdBy",
          "type": "address"
        }
      ],
      "name": "cardMinted",
      "type": "event"
    },
    {
      "anonymous": false,
      "inputs": [
        {
          "components": [
            {
              "internalType": "uint256",
              "name": "_value",
              "type": "uint256"
            }
          ],
          "indexed": true,
          "internalType": "struct Counters.Counter",
          "name": "id",
          "type": "tuple"
        },
        {
          "indexed": true,
          "internalType": "address",
          "name": "from",
          "type": "address"
        },
        {
          "indexed": false,
          "internalType": "address",
          "name": "to",
          "type": "address"
        },
        {
          "indexed": true,
          "internalType": "uint256",
          "name": "timestamp",
          "type": "uint256"
        }
      ],
      "name": "cardTransfered",
      "type": "event"
    },
    {
      "inputs": [],
      "name": "CONTRACT_FEE",
      "outputs": [
        {
          "internalType": "uint256",
          "name": "",
          "type": "uint256"
        }
      ],
      "stateMutability": "view",
      "type": "function",
      "constant": true
    },
    {
      "inputs": [],
      "name": "admin",
      "outputs": [
        {
          "internalType": "address",
          "name": "",
          "type": "address"
        }
      ],
      "stateMutability": "view",
      "type": "function",
      "constant": true
    },
    {
      "inputs": [
        {
          "internalType": "address",
          "name": "to",
          "type": "address"
        },
        {
          "internalType": "uint256",
          "name": "tokenId",
          "type": "uint256"
        }
      ],
      "name": "approve",
      "outputs": [],
      "stateMutability": "nonpayable",
      "type": "function"
    },
    {
      "inputs": [
        {
          "internalType": "address",
          "name": "owner",
          "type": "address"
        }
      ],
      "name": "balanceOf",
      "outputs": [
        {
          "internalType": "uint256",
          "name": "",
          "type": "uint256"
        }
      ],
      "stateMutability": "view",
      "type": "function",
      "constant": true
    },
    {
      "inputs": [
        {
          "internalType": "string",
          "name": "",
          "type": "string"
        }
      ],
      "name": "clubToCreator",
      "outputs": [
        {
          "internalType": "address",
          "name": "",
          "type": "address"
        }
      ],
      "stateMutability": "view",
      "type": "function",
      "constant": true
    },
    {
      "inputs": [
        {
          "internalType": "address",
          "name": "",
          "type": "address"
        }
      ],
      "name": "creators",
      "outputs": [
        {
          "internalType": "bool",
          "name": "",
          "type": "bool"
        }
      ],
      "stateMutability": "view",
      "type": "function",
      "constant": true
    },
    {
      "inputs": [
        {
          "internalType": "uint256",
          "name": "tokenId",
          "type": "uint256"
        }
      ],
      "name": "getApproved",
      "outputs": [
        {
          "internalType": "address",
          "name": "",
          "type": "address"
        }
      ],
      "stateMutability": "view",
      "type": "function",
      "constant": true
    },
    {
      "inputs": [
        {
          "internalType": "address",
          "name": "owner",
          "type": "address"
        },
        {
          "internalType": "address",
          "name": "operator",
          "type": "address"
        }
      ],
      "name": "isApprovedForAll",
      "outputs": [
        {
          "internalType": "bool",
          "name": "",
          "type": "bool"
        }
      ],
      "stateMutability": "view",
      "type": "function",
      "constant": true
    },
    {
      "inputs": [
        {
          "internalType": "address",
          "name": "",
          "type": "address"
        },
        {
          "internalType": "uint256",
          "name": "",
          "type": "uint256"
        }
      ],
      "name": "marketCards",
      "outputs": [
        {
          "internalType": "string",
          "name": "title",
          "type": "string"
        },
        {
          "components": [
            {
              "internalType": "uint256",
              "name": "_value",
              "type": "uint256"
            }
          ],
          "internalType": "struct Counters.Counter",
          "name": "id",
          "type": "tuple"
        },
        {
          "internalType": "address",
          "name": "owner",
          "type": "address"
        },
        {
          "internalType": "uint256",
          "name": "price",
          "type": "uint256"
        },
        {
          "internalType": "string",
          "name": "description",
          "type": "string"
        },
        {
          "internalType": "string",
          "name": "urlPicture",
          "type": "string"
        },
        {
          "internalType": "string",
          "name": "club",
          "type": "string"
        },
        {
          "internalType": "uint256",
          "name": "timestamp",
          "type": "uint256"
        },
        {
          "internalType": "address",
          "name": "createdBy",
          "type": "address"
        },
        {
          "internalType": "uint256",
          "name": "totalAmount",
          "type": "uint256"
        }
      ],
      "stateMutability": "view",
      "type": "function",
      "constant": true
    },
    {
      "inputs": [
        {
          "internalType": "address",
          "name": "",
          "type": "address"
        },
        {
          "internalType": "uint256",
          "name": "",
          "type": "uint256"
        }
      ],
      "name": "myCards",
      "outputs": [
        {
          "internalType": "string",
          "name": "title",
          "type": "string"
        },
        {
          "components": [
            {
              "internalType": "uint256",
              "name": "_value",
              "type": "uint256"
            }
          ],
          "internalType": "struct Counters.Counter",
          "name": "id",
          "type": "tuple"
        },
        {
          "internalType": "address",
          "name": "owner",
          "type": "address"
        },
        {
          "internalType": "uint256",
          "name": "price",
          "type": "uint256"
        },
        {
          "internalType": "string",
          "name": "description",
          "type": "string"
        },
        {
          "internalType": "string",
          "name": "urlPicture",
          "type": "string"
        },
        {
          "internalType": "string",
          "name": "club",
          "type": "string"
        },
        {
          "internalType": "uint256",
          "name": "timestamp",
          "type": "uint256"
        },
        {
          "internalType": "address",
          "name": "createdBy",
          "type": "address"
        },
        {
          "internalType": "uint256",
          "name": "totalAmount",
          "type": "uint256"
        }
      ],
      "stateMutability": "view",
      "type": "function",
      "constant": true
    },
    {
      "inputs": [],
      "name": "name",
      "outputs": [
        {
          "internalType": "string",
          "name": "",
          "type": "string"
        }
      ],
      "stateMutability": "view",
      "type": "function",
      "constant": true
    },
    {
      "inputs": [],
      "name": "owner",
      "outputs": [
        {
          "internalType": "address",
          "name": "",
          "type": "address"
        }
      ],
      "stateMutability": "view",
      "type": "function",
      "constant": true
    },
    {
      "inputs": [
        {
          "internalType": "uint256",
          "name": "tokenId",
          "type": "uint256"
        }
      ],
      "name": "ownerOf",
      "outputs": [
        {
          "internalType": "address",
          "name": "",
          "type": "address"
        }
      ],
      "stateMutability": "view",
      "type": "function",
      "constant": true
    },
    {
      "inputs": [
        {
          "internalType": "address",
          "name": "",
          "type": "address"
        }
      ],
      "name": "pendingCreator",
      "outputs": [
        {
          "internalType": "string",
          "name": "",
          "type": "string"
        }
      ],
      "stateMutability": "view",
      "type": "function",
      "constant": true
    },
    {
      "inputs": [],
      "name": "renounceOwnership",
      "outputs": [],
      "stateMutability": "nonpayable",
      "type": "function"
    },
    {
      "inputs": [
        {
          "internalType": "address",
          "name": "from",
          "type": "address"
        },
        {
          "internalType": "address",
          "name": "to",
          "type": "address"
        },
        {
          "internalType": "uint256",
          "name": "tokenId",
          "type": "uint256"
        }
      ],
      "name": "safeTransferFrom",
      "outputs": [],
      "stateMutability": "nonpayable",
      "type": "function"
    },
    {
      "inputs": [
        {
          "internalType": "address",
          "name": "from",
          "type": "address"
        },
        {
          "internalType": "address",
          "name": "to",
          "type": "address"
        },
        {
          "internalType": "uint256",
          "name": "tokenId",
          "type": "uint256"
        },
        {
          "internalType": "bytes",
          "name": "_data",
          "type": "bytes"
        }
      ],
      "name": "safeTransferFrom",
      "outputs": [],
      "stateMutability": "nonpayable",
      "type": "function"
    },
    {
      "inputs": [
        {
          "internalType": "address",
          "name": "operator",
          "type": "address"
        },
        {
          "internalType": "bool",
          "name": "approved",
          "type": "bool"
        }
      ],
      "name": "setApprovalForAll",
      "outputs": [],
      "stateMutability": "nonpayable",
      "type": "function"
    },
    {
      "inputs": [],
      "name": "symbol",
      "outputs": [
        {
          "internalType": "string",
          "name": "",
          "type": "string"
        }
      ],
      "stateMutability": "view",
      "type": "function",
      "constant": true
    },
    {
      "inputs": [
        {
          "internalType": "uint256",
          "name": "index",
          "type": "uint256"
        }
      ],
      "name": "tokenByIndex",
      "outputs": [
        {
          "internalType": "uint256",
          "name": "",
          "type": "uint256"
        }
      ],
      "stateMutability": "view",
      "type": "function",
      "constant": true
    },
    {
      "inputs": [
        {
          "internalType": "address",
          "name": "owner",
          "type": "address"
        },
        {
          "internalType": "uint256",
          "name": "index",
          "type": "uint256"
        }
      ],
      "name": "tokenOfOwnerByIndex",
      "outputs": [
        {
          "internalType": "uint256",
          "name": "",
          "type": "uint256"
        }
      ],
      "stateMutability": "view",
      "type": "function",
      "constant": true
    },
    {
      "inputs": [],
      "name": "totalSupply",
      "outputs": [
        {
          "internalType": "uint256",
          "name": "",
          "type": "uint256"
        }
      ],
      "stateMutability": "view",
      "type": "function",
      "constant": true
    },
    {
      "inputs": [
        {
          "internalType": "address",
          "name": "from",
          "type": "address"
        },
        {
          "internalType": "address",
          "name": "to",
          "type": "address"
        },
        {
          "internalType": "uint256",
          "name": "tokenId",
          "type": "uint256"
        }
      ],
      "name": "transferFrom",
      "outputs": [],
      "stateMutability": "nonpayable",
      "type": "function"
    },
    {
      "inputs": [
        {
          "internalType": "address",
          "name": "newOwner",
          "type": "address"
        }
      ],
      "name": "transferOwnership",
      "outputs": [],
      "stateMutability": "nonpayable",
      "type": "function"
    },
    {
      "inputs": [
        {
          "internalType": "address",
          "name": "_addr",
          "type": "address"
        },
        {
          "internalType": "string",
          "name": "_club",
          "type": "string"
        }
      ],
      "name": "addCreator",
      "outputs": [],
      "stateMutability": "nonpayable",
      "type": "function"
    },
    {
      "inputs": [
        {
          "internalType": "string",
          "name": "_club",
          "type": "string"
        },
        {
          "internalType": "string",
          "name": "_newClubBadge",
          "type": "string"
        }
      ],
      "name": "setClubBadge",
      "outputs": [],
      "stateMutability": "nonpayable",
      "type": "function"
    },
    {
      "inputs": [
        {
          "internalType": "string",
          "name": "_title",
          "type": "string"
        },
        {
          "internalType": "uint256",
          "name": "_price",
          "type": "uint256"
        },
        {
          "internalType": "string",
          "name": "_description",
          "type": "string"
        },
        {
          "internalType": "string",
          "name": "_club",
          "type": "string"
        },
        {
          "internalType": "string",
          "name": "_urlPicture",
          "type": "string"
        },
        {
          "internalType": "uint256",
          "name": "_totalAmount",
          "type": "uint256"
        }
      ],
      "name": "mintCards",
      "outputs": [],
      "stateMutability": "nonpayable",
      "type": "function"
    },
    {
      "inputs": [],
      "name": "retrieveFunds",
      "outputs": [],
      "stateMutability": "nonpayable",
      "type": "function"
    },
    {
      "inputs": [
        {
          "internalType": "address",
          "name": "_addr",
          "type": "address"
        },
        {
          "internalType": "string",
          "name": "_club",
          "type": "string"
        }
      ],
      "name": "removeCreator",
      "outputs": [],
      "stateMutability": "nonpayable",
      "type": "function"
    },
    {
      "inputs": [],
      "name": "totalFundsCollected",
      "outputs": [
        {
          "internalType": "uint256",
          "name": "",
          "type": "uint256"
        }
      ],
      "stateMutability": "view",
      "type": "function",
      "constant": true
    },
    {
      "inputs": [
        {
          "internalType": "address",
          "name": "_addr",
          "type": "address"
        }
      ],
      "name": "isCreator",
      "outputs": [
        {
          "internalType": "bool",
          "name": "",
          "type": "bool"
        }
      ],
      "stateMutability": "view",
      "type": "function",
      "constant": true
    },
    {
      "inputs": [
        {
          "internalType": "string",
          "name": "_club",
          "type": "string"
        }
      ],
      "name": "isClubCreator",
      "outputs": [
        {
          "internalType": "bool",
          "name": "",
          "type": "bool"
        }
      ],
      "stateMutability": "view",
      "type": "function",
      "constant": true
    },
    {
      "inputs": [
        {
          "internalType": "uint256",
          "name": "tokenId",
          "type": "uint256"
        }
      ],
      "name": "buyCardFromMarket",
      "outputs": [],
      "stateMutability": "payable",
      "type": "function",
      "payable": true
    },
    {
      "inputs": [
        {
          "internalType": "uint256",
          "name": "tokenId",
          "type": "uint256"
        }
      ],
      "name": "tokenURI",
      "outputs": [
        {
          "internalType": "string",
          "name": "",
          "type": "string"
        }
      ],
      "stateMutability": "view",
      "type": "function",
      "constant": true
    },
    {
      "inputs": [
        {
          "internalType": "bytes4",
          "name": "interfaceId",
          "type": "bytes4"
        }
      ],
      "name": "supportsInterface",
      "outputs": [
        {
          "internalType": "bool",
          "name": "",
          "type": "bool"
        }
      ],
      "stateMutability": "view",
      "type": "function",
      "constant": true
    }
  ],
  "bytecode": "0x60a060405261251c600d553480156200001757600080fd5b506040518060400160405280600d81526020017f43617264732046757465626f6c000000000000000000000000000000000000008152506040518060400160405280600381526020017f465554000000000000000000000000000000000000000000000000000000000081525081600090805190602001906200009c9291906200023b565b508060019080519060200190620000b59291906200023b565b505050620000d8620000cc6200016d60201b60201c565b6200017560201b60201c565b3373ffffffffffffffffffffffffffffffffffffffff1660808173ffffffffffffffffffffffffffffffffffffffff1660601b815250506001601260003373ffffffffffffffffffffffffffffffffffffffff1673ffffffffffffffffffffffffffffffffffffffff16815260200190815260200160002060006101000a81548160ff02191690831515021790555062000350565b600033905090565b6000600b60009054906101000a900473ffffffffffffffffffffffffffffffffffffffff16905081600b60006101000a81548173ffffffffffffffffffffffffffffffffffffffff021916908373ffffffffffffffffffffffffffffffffffffffff1602179055508173ffffffffffffffffffffffffffffffffffffffff168173ffffffffffffffffffffffffffffffffffffffff167f8be0079c531659141344cd1fd0a4f28419497f9722a3daafe3b4186f6b6457e060405160405180910390a35050565b8280546200024990620002eb565b90600052602060002090601f0160209004810192826200026d5760008555620002b9565b82601f106200028857805160ff1916838001178555620002b9565b82800160010185558215620002b9579182015b82811115620002b85782518255916020019190600101906200029b565b5b509050620002c89190620002cc565b5090565b5b80821115620002e7576000816000905550600101620002cd565b5090565b600060028204905060018216806200030457607f821691505b602082108114156200031b576200031a62000321565b5b50919050565b7f4e487b7100000000000000000000000000000000000000000000000000000000600052602260045260246000fd5b60805160601c615b90620003a060003960008181610f69015281816111aa0152818161123801528181611abd01528181611ecc015281816122640152818161237001526129490152615b906000f3fe6080604052600436106102045760003560e01c8063715018a611610118578063c87b56dd116100a0578063efd460651161006f578063efd46065146107d8578063f2fde38b14610815578063f58a6d601461083e578063f70d374614610869578063f851a4401461089457610204565b8063c87b56dd146106ef578063e24577b81461072c578063e985e9c514610755578063e9cb5dd61461079257610204565b8063933166e1116100e7578063933166e1146105f857806395d89b4114610635578063a22cb46514610660578063a8b329df14610689578063b88d4fde146106c657610204565b8063715018a614610564578063895f9f9d1461057b5780638bfef98a146105a45780638da5cb5b146105cd57610204565b80632f745c591161019b5780634f6ccce71161016a5780634f6ccce71461047a57806361b20d8c146104b75780636352211e146104ce5780636ac408e51461050b57806370a082311461052757610204565b80632f745c59146103ae57806342842e0e146103eb578063453bc2a7146104145780634dd946951461043d57610204565b806318160ddd116101d757806318160ddd146102d757806323b872dd1461030257806324466df91461032b5780632518d7e01461036857610204565b806301ffc9a71461020957806306fdde0314610246578063081812fc14610271578063095ea7b3146102ae575b600080fd5b34801561021557600080fd5b50610230600480360381019061022b91906141e6565b6108bf565b60405161023d91906149f9565b60405180910390f35b34801561025257600080fd5b5061025b6108d1565b6040516102689190614a14565b60405180910390f35b34801561027d57600080fd5b50610298600480360381019061029391906143fe565b610963565b6040516102a59190614992565b60405180910390f35b3480156102ba57600080fd5b506102d560048036038101906102d091906141a6565b6109e8565b005b3480156102e357600080fd5b506102ec610b00565b6040516102f99190614ee4565b60405180910390f35b34801561030e57600080fd5b5061032960048036038101906103249190614034565b610b0d565b005b34801561033757600080fd5b50610352600480360381019061034d9190614240565b610b6d565b60405161035f9190614992565b60405180910390f35b34801561037457600080fd5b5061038f600480360381019061038a91906141a6565b610bb6565b6040516103a59a99989796959493929190614a36565b60405180910390f35b3480156103ba57600080fd5b506103d560048036038101906103d091906141a6565b610e8b565b6040516103e29190614ee4565b60405180910390f35b3480156103f757600080fd5b50610412600480360381019061040d9190614034565b610f30565b005b34801561042057600080fd5b5061043b6004803603810190610436919061414a565b610f50565b005b34801561044957600080fd5b50610464600480360381019061045f9190613fc7565b611097565b6040516104719190614a14565b60405180910390f35b34801561048657600080fd5b506104a1600480360381019061049c91906143fe565b611137565b6040516104ae9190614ee4565b60405180910390f35b3480156104c357600080fd5b506104cc6111a8565b005b3480156104da57600080fd5b506104f560048036038101906104f091906143fe565b61129f565b6040516105029190614992565b60405180910390f35b610525600480360381019061052091906143fe565b611351565b005b34801561053357600080fd5b5061054e60048036038101906105499190613fc7565b611865565b60405161055b9190614ee4565b60405180910390f35b34801561057057600080fd5b5061057961191d565b005b34801561058757600080fd5b506105a2600480360381019061059d9190614301565b6119a5565b005b3480156105b057600080fd5b506105cb60048036038101906105c69190614289565b611e40565b005b3480156105d957600080fd5b506105e2611f79565b6040516105ef9190614992565b60405180910390f35b34801561060457600080fd5b5061061f600480360381019061061a9190613fc7565b611fa3565b60405161062c91906149f9565b60405180910390f35b34801561064157600080fd5b5061064a611fc3565b6040516106579190614a14565b60405180910390f35b34801561066c57600080fd5b506106876004803603810190610682919061410a565b612055565b005b34801561069557600080fd5b506106b060048036038101906106ab9190614240565b6121d6565b6040516106bd91906149f9565b60405180910390f35b3480156106d257600080fd5b506106ed60048036038101906106e89190614087565b6122e3565b005b3480156106fb57600080fd5b50610716600480360381019061071191906143fe565b612345565b6040516107239190614a14565b60405180910390f35b34801561073857600080fd5b50610753600480360381019061074e919061414a565b612357565b005b34801561076157600080fd5b5061077c60048036038101906107779190613ff4565b612482565b60405161078991906149f9565b60405180910390f35b34801561079e57600080fd5b506107b960048036038101906107b491906141a6565b612516565b6040516107cf9a99989796959493929190614a36565b60405180910390f35b3480156107e457600080fd5b506107ff60048036038101906107fa9190613fc7565b6127eb565b60405161080c91906149f9565b60405180910390f35b34801561082157600080fd5b5061083c60048036038101906108379190613fc7565b612841565b005b34801561084a57600080fd5b50610853612939565b6040516108609190614ee4565b60405180910390f35b34801561087557600080fd5b5061087e612941565b60405161088b9190614ee4565b60405180910390f35b3480156108a057600080fd5b506108a9612947565b6040516108b69190614992565b60405180910390f35b60006108ca8261296b565b9050919050565b6060600080546108e090615194565b80601f016020809104026020016040519081016040528092919081815260200182805461090c90615194565b80156109595780601f1061092e57610100808354040283529160200191610959565b820191906000526020600020905b81548152906001019060200180831161093c57829003601f168201915b5050505050905090565b600061096e826129e5565b6109ad576040517f08c379a00000000000000000000000000000000000000000000000000000000081526004016109a490614d84565b60405180910390fd5b6004600083815260200190815260200160002060009054906101000a900473ffffffffffffffffffffffffffffffffffffffff169050919050565b60006109f38261129f565b90508073ffffffffffffffffffffffffffffffffffffffff168373ffffffffffffffffffffffffffffffffffffffff161415610a64576040517f08c379a0000000000000000000000000000000000000000000000000000000008152600401610a5b90614e24565b60405180910390fd5b8073ffffffffffffffffffffffffffffffffffffffff16610a83612a51565b73ffffffffffffffffffffffffffffffffffffffff161480610ab25750610ab181610aac612a51565b612482565b5b610af1576040517f08c379a0000000000000000000000000000000000000000000000000000000008152600401610ae890614c84565b60405180910390fd5b610afb8383612a59565b505050565b6000600980549050905090565b610b1e610b18612a51565b82612b12565b610b5d576040517f08c379a0000000000000000000000000000000000000000000000000000000008152600401610b5490614e44565b60405180910390fd5b610b68838383612bf0565b505050565b6011818051602081018201805184825260208301602085012081835280955050505050506000915054906101000a900473ffffffffffffffffffffffffffffffffffffffff1681565b600e60205281600052604060002060205280600052604060002060009150915050806000018054610be690615194565b80601f0160208091040260200160405190810160405280929190818152602001828054610c1290615194565b8015610c5f5780601f10610c3457610100808354040283529160200191610c5f565b820191906000526020600020905b815481529060010190602001808311610c4257829003601f168201915b50505050509080600101604051806020016040529081600082015481525050908060020160009054906101000a900473ffffffffffffffffffffffffffffffffffffffff1690806003015490806004018054610cba90615194565b80601f0160208091040260200160405190810160405280929190818152602001828054610ce690615194565b8015610d335780601f10610d0857610100808354040283529160200191610d33565b820191906000526020600020905b815481529060010190602001808311610d1657829003601f168201915b505050505090806005018054610d4890615194565b80601f0160208091040260200160405190810160405280929190818152602001828054610d7490615194565b8015610dc15780601f10610d9657610100808354040283529160200191610dc1565b820191906000526020600020905b815481529060010190602001808311610da457829003601f168201915b505050505090806006018054610dd690615194565b80601f0160208091040260200160405190810160405280929190818152602001828054610e0290615194565b8015610e4f5780601f10610e2457610100808354040283529160200191610e4f565b820191906000526020600020905b815481529060010190602001808311610e3257829003601f168201915b5050505050908060070154908060080160009054906101000a900473ffffffffffffffffffffffffffffffffffffffff1690806009015490508a565b6000610e9683611865565b8210610ed7576040517f08c379a0000000000000000000000000000000000000000000000000000000008152600401610ece90614b64565b60405180910390fd5b600760008473ffffffffffffffffffffffffffffffffffffffff1673ffffffffffffffffffffffffffffffffffffffff168152602001908152602001600020600083815260200190815260200160002054905092915050565b610f4b838383604051806020016040528060008152506122e3565b505050565b3373ffffffffffffffffffffffffffffffffffffffff167f000000000000000000000000000000000000000000000000000000000000000073ffffffffffffffffffffffffffffffffffffffff1614610fde576040517f08c379a0000000000000000000000000000000000000000000000000000000008152600401610fd590614e64565b60405180910390fd5b6001601260008473ffffffffffffffffffffffffffffffffffffffff1673ffffffffffffffffffffffffffffffffffffffff16815260200190815260200160002060006101000a81548160ff02191690831515021790555081601182604051611047919061493c565b908152602001604051809103902060006101000a81548173ffffffffffffffffffffffffffffffffffffffff021916908373ffffffffffffffffffffffffffffffffffffffff1602179055505050565b601360205280600052604060002060009150905080546110b690615194565b80601f01602080910402602001604051908101604052809291908181526020018280546110e290615194565b801561112f5780601f106111045761010080835404028352916020019161112f565b820191906000526020600020905b81548152906001019060200180831161111257829003601f168201915b505050505081565b6000611141610b00565b8210611182576040517f08c379a000000000000000000000000000000000000000000000000000000000815260040161117990614e84565b60405180910390fd5b600982815481106111965761119561532d565b5b90600052602060002001549050919050565b7f000000000000000000000000000000000000000000000000000000000000000073ffffffffffffffffffffffffffffffffffffffff163373ffffffffffffffffffffffffffffffffffffffff1614611236576040517f08c379a000000000000000000000000000000000000000000000000000000000815260040161122d90614d04565b60405180910390fd5b7f000000000000000000000000000000000000000000000000000000000000000073ffffffffffffffffffffffffffffffffffffffff166108fc479081150290604051600060405180830381858888f1935050505015801561129c573d6000803e3d6000fd5b50565b6000806002600084815260200190815260200160002060009054906101000a900473ffffffffffffffffffffffffffffffffffffffff169050600073ffffffffffffffffffffffffffffffffffffffff168173ffffffffffffffffffffffffffffffffffffffff161415611348576040517f08c379a000000000000000000000000000000000000000000000000000000000815260040161133f90614cc4565b60405180910390fd5b80915050919050565b600e60003073ffffffffffffffffffffffffffffffffffffffff1673ffffffffffffffffffffffffffffffffffffffff16815260200190815260200160002060008281526020019081526020016000206003015434146113e6576040517f08c379a00000000000000000000000000000000000000000000000000000000081526004016113dd90614ec4565b60405180910390fd5b60006113f134612e4c565b9050600e60003073ffffffffffffffffffffffffffffffffffffffff1673ffffffffffffffffffffffffffffffffffffffff168152602001908152602001600020600083815260200190815260200160002060080160009054906101000a900473ffffffffffffffffffffffffffffffffffffffff1673ffffffffffffffffffffffffffffffffffffffff166108fc823461148c91906150aa565b9081150290604051600060405180830381858888f193505050501580156114b7573d6000803e3d6000fd5b506114c3303384612bf0565b600e60003073ffffffffffffffffffffffffffffffffffffffff1673ffffffffffffffffffffffffffffffffffffffff1681526020019081526020016000206000838152602001908152602001600020600f60003373ffffffffffffffffffffffffffffffffffffffff1673ffffffffffffffffffffffffffffffffffffffff1681526020019081526020016000206000848152602001908152602001600020600082018160000190805461157790615194565b611582929190613d0e565b5060018201816001016000820154816000015550506002820160009054906101000a900473ffffffffffffffffffffffffffffffffffffffff168160020160006101000a81548173ffffffffffffffffffffffffffffffffffffffff021916908373ffffffffffffffffffffffffffffffffffffffff16021790555060038201548160030155600482018160040190805461161c90615194565b611627929190613d0e565b50600582018160050190805461163c90615194565b611647929190613d0e565b50600682018160060190805461165c90615194565b611667929190613d0e565b50600782015481600701556008820160009054906101000a900473ffffffffffffffffffffffffffffffffffffffff168160080160006101000a81548173ffffffffffffffffffffffffffffffffffffffff021916908373ffffffffffffffffffffffffffffffffffffffff16021790555060098201548160090155905050600e60003073ffffffffffffffffffffffffffffffffffffffff1673ffffffffffffffffffffffffffffffffffffffff1681526020019081526020016000206000838152602001908152602001600020600080820160006117479190613d9b565b6001820160008082016000905550506002820160006101000a81549073ffffffffffffffffffffffffffffffffffffffff021916905560038201600090556004820160006117959190613d9b565b6005820160006117a59190613d9b565b6006820160006117b59190613d9b565b60078201600090556008820160006101000a81549073ffffffffffffffffffffffffffffffffffffffff021916905560098201600090555050423073ffffffffffffffffffffffffffffffffffffffff166040518060200160405280858152506040516118229190614977565b60405180910390207f776c59c957da2aa48cdfd87638e72f44c4fcf031e5675cbe3d8d9bc311b46070336040516118599190614992565b60405180910390a45050565b60008073ffffffffffffffffffffffffffffffffffffffff168273ffffffffffffffffffffffffffffffffffffffff1614156118d6576040517f08c379a00000000000000000000000000000000000000000000000000000000081526004016118cd90614ca4565b60405180910390fd5b600360008373ffffffffffffffffffffffffffffffffffffffff1673ffffffffffffffffffffffffffffffffffffffff168152602001908152602001600020549050919050565b611925612a51565b73ffffffffffffffffffffffffffffffffffffffff16611943611f79565b73ffffffffffffffffffffffffffffffffffffffff1614611999576040517f08c379a000000000000000000000000000000000000000000000000000000000815260040161199090614da4565b60405180910390fd5b6119a36000612eca565b565b601260003373ffffffffffffffffffffffffffffffffffffffff1673ffffffffffffffffffffffffffffffffffffffff16815260200190815260200160002060009054906101000a900460ff16611a31576040517f08c379a0000000000000000000000000000000000000000000000000000000008152600401611a2890614c64565b60405180910390fd5b3373ffffffffffffffffffffffffffffffffffffffff16601184604051611a58919061493c565b908152602001604051809103902060009054906101000a900473ffffffffffffffffffffffffffffffffffffffff1673ffffffffffffffffffffffffffffffffffffffff161480611af457503373ffffffffffffffffffffffffffffffffffffffff167f000000000000000000000000000000000000000000000000000000000000000073ffffffffffffffffffffffffffffffffffffffff16145b611b33576040517f08c379a0000000000000000000000000000000000000000000000000000000008152600401611b2a90614e04565b60405180910390fd5b60005b81811015611e37576000604051806101400160405280898152602001600c60405180602001604052908160008201548152505081526020013073ffffffffffffffffffffffffffffffffffffffff1681526020018881526020018781526020018581526020018681526020014281526020013373ffffffffffffffffffffffffffffffffffffffff168152602001848152509050611bdd30611bd8600c612f90565b612f9e565b80600e60003073ffffffffffffffffffffffffffffffffffffffff1673ffffffffffffffffffffffffffffffffffffffff1681526020019081526020016000206000611c29600c612f90565b81526020019081526020016000206000820151816000019080519060200190611c53929190613ddb565b5060208201518160010160008201518160000155505060408201518160020160006101000a81548173ffffffffffffffffffffffffffffffffffffffff021916908373ffffffffffffffffffffffffffffffffffffffff160217905550606082015181600301556080820151816004019080519060200190611cd6929190613ddb565b5060a0820151816005019080519060200190611cf3929190613ddb565b5060c0820151816006019080519060200190611d10929190613ddb565b5060e082015181600701556101008201518160080160006101000a81548173ffffffffffffffffffffffffffffffffffffffff021916908373ffffffffffffffffffffffffffffffffffffffff1602179055506101208201518160090155905050611d7b600c61316c565b611d8e611d88600c612f90565b85613182565b8060e00151816040015173ffffffffffffffffffffffffffffffffffffffff168260200151604051611dc09190614977565b60405180910390207f98dfe3b6dda058061eacd759e7507b691e22b96e4b69b3d762743c63a89b23198460000151856060015186608001518760a00151886101200151896101000151604051611e1b96959493929190614aee565b60405180910390a4508080611e2f906151f7565b915050611b36565b50505050505050565b3373ffffffffffffffffffffffffffffffffffffffff16601183604051611e67919061493c565b908152602001604051809103902060009054906101000a900473ffffffffffffffffffffffffffffffffffffffff1673ffffffffffffffffffffffffffffffffffffffff161480611f0357503373ffffffffffffffffffffffffffffffffffffffff167f000000000000000000000000000000000000000000000000000000000000000073ffffffffffffffffffffffffffffffffffffffff16145b611f42576040517f08c379a0000000000000000000000000000000000000000000000000000000008152600401611f3990614d24565b60405180910390fd5b80601083604051611f53919061493c565b90815260200160405180910390209080519060200190611f74929190613ddb565b505050565b6000600b60009054906101000a900473ffffffffffffffffffffffffffffffffffffffff16905090565b60126020528060005260406000206000915054906101000a900460ff1681565b606060018054611fd290615194565b80601f0160208091040260200160405190810160405280929190818152602001828054611ffe90615194565b801561204b5780601f106120205761010080835404028352916020019161204b565b820191906000526020600020905b81548152906001019060200180831161202e57829003601f168201915b5050505050905090565b61205d612a51565b73ffffffffffffffffffffffffffffffffffffffff168273ffffffffffffffffffffffffffffffffffffffff1614156120cb576040517f08c379a00000000000000000000000000000000000000000000000000000000081526004016120c290614c24565b60405180910390fd5b80600560006120d8612a51565b73ffffffffffffffffffffffffffffffffffffffff1673ffffffffffffffffffffffffffffffffffffffff16815260200190815260200160002060008473ffffffffffffffffffffffffffffffffffffffff1673ffffffffffffffffffffffffffffffffffffffff16815260200190815260200160002060006101000a81548160ff0219169083151502179055508173ffffffffffffffffffffffffffffffffffffffff16612185612a51565b73ffffffffffffffffffffffffffffffffffffffff167f17307eab39ab6107e8899845ad3d59bd9653f200f220920489ca2b5937696c31836040516121ca91906149f9565b60405180910390a35050565b60003373ffffffffffffffffffffffffffffffffffffffff166011836040516121ff919061493c565b908152602001604051809103902060009054906101000a900473ffffffffffffffffffffffffffffffffffffffff1673ffffffffffffffffffffffffffffffffffffffff16148061229b57503373ffffffffffffffffffffffffffffffffffffffff167f000000000000000000000000000000000000000000000000000000000000000073ffffffffffffffffffffffffffffffffffffffff16145b6122da576040517f08c379a00000000000000000000000000000000000000000000000000000000081526004016122d190614ea4565b60405180910390fd5b60019050919050565b6122f46122ee612a51565b83612b12565b612333576040517f08c379a000000000000000000000000000000000000000000000000000000000815260040161232a90614e44565b60405180910390fd5b61233f848484846131f6565b50505050565b606061235082613252565b9050919050565b3373ffffffffffffffffffffffffffffffffffffffff167f000000000000000000000000000000000000000000000000000000000000000073ffffffffffffffffffffffffffffffffffffffff16146123e5576040517f08c379a00000000000000000000000000000000000000000000000000000000081526004016123dc90614e64565b60405180910390fd5b6000601260008473ffffffffffffffffffffffffffffffffffffffff1673ffffffffffffffffffffffffffffffffffffffff16815260200190815260200160002060006101000a81548160ff02191690831515021790555060118160405161244d919061493c565b908152602001604051809103902060006101000a81549073ffffffffffffffffffffffffffffffffffffffff02191690555050565b6000600560008473ffffffffffffffffffffffffffffffffffffffff1673ffffffffffffffffffffffffffffffffffffffff16815260200190815260200160002060008373ffffffffffffffffffffffffffffffffffffffff1673ffffffffffffffffffffffffffffffffffffffff16815260200190815260200160002060009054906101000a900460ff16905092915050565b600f6020528160005260406000206020528060005260406000206000915091505080600001805461254690615194565b80601f016020809104026020016040519081016040528092919081815260200182805461257290615194565b80156125bf5780601f10612594576101008083540402835291602001916125bf565b820191906000526020600020905b8154815290600101906020018083116125a257829003601f168201915b50505050509080600101604051806020016040529081600082015481525050908060020160009054906101000a900473ffffffffffffffffffffffffffffffffffffffff169080600301549080600401805461261a90615194565b80601f016020809104026020016040519081016040528092919081815260200182805461264690615194565b80156126935780601f1061266857610100808354040283529160200191612693565b820191906000526020600020905b81548152906001019060200180831161267657829003601f168201915b5050505050908060050180546126a890615194565b80601f01602080910402602001604051908101604052809291908181526020018280546126d490615194565b80156127215780601f106126f657610100808354040283529160200191612721565b820191906000526020600020905b81548152906001019060200180831161270457829003601f168201915b50505050509080600601805461273690615194565b80601f016020809104026020016040519081016040528092919081815260200182805461276290615194565b80156127af5780601f10612784576101008083540402835291602001916127af565b820191906000526020600020905b81548152906001019060200180831161279257829003601f168201915b5050505050908060070154908060080160009054906101000a900473ffffffffffffffffffffffffffffffffffffffff1690806009015490508a565b6000601260008373ffffffffffffffffffffffffffffffffffffffff1673ffffffffffffffffffffffffffffffffffffffff16815260200190815260200160002060009054906101000a900460ff169050919050565b612849612a51565b73ffffffffffffffffffffffffffffffffffffffff16612867611f79565b73ffffffffffffffffffffffffffffffffffffffff16146128bd576040517f08c379a00000000000000000000000000000000000000000000000000000000081526004016128b490614da4565b60405180910390fd5b600073ffffffffffffffffffffffffffffffffffffffff168173ffffffffffffffffffffffffffffffffffffffff16141561292d576040517f08c379a000000000000000000000000000000000000000000000000000000000815260040161292490614ba4565b60405180910390fd5b61293681612eca565b50565b600047905090565b600d5481565b7f000000000000000000000000000000000000000000000000000000000000000081565b60007f780e9d63000000000000000000000000000000000000000000000000000000007bffffffffffffffffffffffffffffffffffffffffffffffffffffffff1916827bffffffffffffffffffffffffffffffffffffffffffffffffffffffff191614806129de57506129dd826133a4565b5b9050919050565b60008073ffffffffffffffffffffffffffffffffffffffff166002600084815260200190815260200160002060009054906101000a900473ffffffffffffffffffffffffffffffffffffffff1673ffffffffffffffffffffffffffffffffffffffff1614159050919050565b600033905090565b816004600083815260200190815260200160002060006101000a81548173ffffffffffffffffffffffffffffffffffffffff021916908373ffffffffffffffffffffffffffffffffffffffff160217905550808273ffffffffffffffffffffffffffffffffffffffff16612acc8361129f565b73ffffffffffffffffffffffffffffffffffffffff167f8c5be1e5ebec7d5bd14f71427d1e84f3dd0314c0f7b2291e5b200ac8c7c3b92560405160405180910390a45050565b6000612b1d826129e5565b612b5c576040517f08c379a0000000000000000000000000000000000000000000000000000000008152600401612b5390614c44565b60405180910390fd5b6000612b678361129f565b90508073ffffffffffffffffffffffffffffffffffffffff168473ffffffffffffffffffffffffffffffffffffffff161480612bd657508373ffffffffffffffffffffffffffffffffffffffff16612bbe84610963565b73ffffffffffffffffffffffffffffffffffffffff16145b80612be75750612be68185612482565b5b91505092915050565b8273ffffffffffffffffffffffffffffffffffffffff16612c108261129f565b73ffffffffffffffffffffffffffffffffffffffff1614612c66576040517f08c379a0000000000000000000000000000000000000000000000000000000008152600401612c5d90614dc4565b60405180910390fd5b600073ffffffffffffffffffffffffffffffffffffffff168273ffffffffffffffffffffffffffffffffffffffff161415612cd6576040517f08c379a0000000000000000000000000000000000000000000000000000000008152600401612ccd90614c04565b60405180910390fd5b612ce1838383613486565b612cec600082612a59565b6001600360008573ffffffffffffffffffffffffffffffffffffffff1673ffffffffffffffffffffffffffffffffffffffff1681526020019081526020016000206000828254612d3c91906150aa565b925050819055506001600360008473ffffffffffffffffffffffffffffffffffffffff1673ffffffffffffffffffffffffffffffffffffffff1681526020019081526020016000206000828254612d939190614fc9565b92505081905550816002600083815260200190815260200160002060006101000a81548173ffffffffffffffffffffffffffffffffffffffff021916908373ffffffffffffffffffffffffffffffffffffffff160217905550808273ffffffffffffffffffffffffffffffffffffffff168473ffffffffffffffffffffffffffffffffffffffff167fddf252ad1be2c89b69c2b068fc378daa952ba7f163c4a11628f55a4df523b3ef60405160405180910390a4505050565b6000816127108084612e5e919061501f565b612e689190615050565b14612ea8576040517f08c379a0000000000000000000000000000000000000000000000000000000008152600401612e9f90614be4565b60405180910390fd5b612710600d5483612eb99190615050565b612ec3919061501f565b9050919050565b6000600b60009054906101000a900473ffffffffffffffffffffffffffffffffffffffff16905081600b60006101000a81548173ffffffffffffffffffffffffffffffffffffffff021916908373ffffffffffffffffffffffffffffffffffffffff1602179055508173ffffffffffffffffffffffffffffffffffffffff168173ffffffffffffffffffffffffffffffffffffffff167f8be0079c531659141344cd1fd0a4f28419497f9722a3daafe3b4186f6b6457e060405160405180910390a35050565b600081600001549050919050565b600073ffffffffffffffffffffffffffffffffffffffff168273ffffffffffffffffffffffffffffffffffffffff16141561300e576040517f08c379a000000000000000000000000000000000000000000000000000000000815260040161300590614d44565b60405180910390fd5b613017816129e5565b15613057576040517f08c379a000000000000000000000000000000000000000000000000000000000815260040161304e90614bc4565b60405180910390fd5b61306360008383613486565b6001600360008473ffffffffffffffffffffffffffffffffffffffff1673ffffffffffffffffffffffffffffffffffffffff16815260200190815260200160002060008282546130b39190614fc9565b92505081905550816002600083815260200190815260200160002060006101000a81548173ffffffffffffffffffffffffffffffffffffffff021916908373ffffffffffffffffffffffffffffffffffffffff160217905550808273ffffffffffffffffffffffffffffffffffffffff16600073ffffffffffffffffffffffffffffffffffffffff167fddf252ad1be2c89b69c2b068fc378daa952ba7f163c4a11628f55a4df523b3ef60405160405180910390a45050565b6001816000016000828254019250508190555050565b61318b826129e5565b6131ca576040517f08c379a00000000000000000000000000000000000000000000000000000000081526004016131c190614ce4565b60405180910390fd5b806006600084815260200190815260200160002090805190602001906131f1929190613ddb565b505050565b613201848484612bf0565b61320d84848484613496565b61324c576040517f08c379a000000000000000000000000000000000000000000000000000000000815260040161324390614b84565b60405180910390fd5b50505050565b606061325d826129e5565b61329c576040517f08c379a000000000000000000000000000000000000000000000000000000000815260040161329390614d64565b60405180910390fd5b60006006600084815260200190815260200160002080546132bc90615194565b80601f01602080910402602001604051908101604052809291908181526020018280546132e890615194565b80156133355780601f1061330a57610100808354040283529160200191613335565b820191906000526020600020905b81548152906001019060200180831161331857829003601f168201915b50505050509050600061334661362d565b905060008151141561335c57819250505061339f565b600082511115613391578082604051602001613379929190614953565b6040516020818303038152906040529250505061339f565b61339a8461366a565b925050505b919050565b60007f80ac58cd000000000000000000000000000000000000000000000000000000007bffffffffffffffffffffffffffffffffffffffffffffffffffffffff1916827bffffffffffffffffffffffffffffffffffffffffffffffffffffffff1916148061346f57507f5b5e139f000000000000000000000000000000000000000000000000000000007bffffffffffffffffffffffffffffffffffffffffffffffffffffffff1916827bffffffffffffffffffffffffffffffffffffffffffffffffffffffff1916145b8061347f575061347e82613711565b5b9050919050565b61349183838361377b565b505050565b60006134b78473ffffffffffffffffffffffffffffffffffffffff1661388f565b15613620578373ffffffffffffffffffffffffffffffffffffffff1663150b7a026134e0612a51565b8786866040518563ffffffff1660e01b815260040161350294939291906149ad565b602060405180830381600087803b15801561351c57600080fd5b505af192505050801561354d57506040513d601f19601f8201168201806040525081019061354a9190614213565b60015b6135d0573d806000811461357d576040519150601f19603f3d011682016040523d82523d6000602084013e613582565b606091505b506000815114156135c8576040517f08c379a00000000000000000000000000000000000000000000000000000000081526004016135bf90614b84565b60405180910390fd5b805181602001fd5b63150b7a0260e01b7bffffffffffffffffffffffffffffffffffffffffffffffffffffffff1916817bffffffffffffffffffffffffffffffffffffffffffffffffffffffff191614915050613625565b600190505b949350505050565b60606040518060400160405280601581526020017f68747470733a2f2f697066732e696f2f697066732f0000000000000000000000815250905090565b6060613675826129e5565b6136b4576040517f08c379a00000000000000000000000000000000000000000000000000000000081526004016136ab90614de4565b60405180910390fd5b60006136be61362d565b905060008151116136de5760405180602001604052806000815250613709565b806136e8846138a2565b6040516020016136f9929190614953565b6040516020818303038152906040525b915050919050565b60007f01ffc9a7000000000000000000000000000000000000000000000000000000007bffffffffffffffffffffffffffffffffffffffffffffffffffffffff1916827bffffffffffffffffffffffffffffffffffffffffffffffffffffffff1916149050919050565b613786838383613a03565b600073ffffffffffffffffffffffffffffffffffffffff168373ffffffffffffffffffffffffffffffffffffffff1614156137c9576137c481613a08565b613808565b8173ffffffffffffffffffffffffffffffffffffffff168373ffffffffffffffffffffffffffffffffffffffff1614613807576138068382613a51565b5b5b600073ffffffffffffffffffffffffffffffffffffffff168273ffffffffffffffffffffffffffffffffffffffff16141561384b5761384681613bbe565b61388a565b8273ffffffffffffffffffffffffffffffffffffffff168273ffffffffffffffffffffffffffffffffffffffff1614613889576138888282613c8f565b5b5b505050565b600080823b905060008111915050919050565b606060008214156138ea576040518060400160405280600181526020017f300000000000000000000000000000000000000000000000000000000000000081525090506139fe565b600082905060005b6000821461391c578080613905906151f7565b915050600a82613915919061501f565b91506138f2565b60008167ffffffffffffffff8111156139385761393761535c565b5b6040519080825280601f01601f19166020018201604052801561396a5781602001600182028036833780820191505090505b5090505b600085146139f75760018261398391906150aa565b9150600a856139929190615240565b603061399e9190614fc9565b60f81b8183815181106139b4576139b361532d565b5b60200101907effffffffffffffffffffffffffffffffffffffffffffffffffffffffffffff1916908160001a905350600a856139f0919061501f565b945061396e565b8093505050505b919050565b505050565b600980549050600a600083815260200190815260200160002081905550600981908060018154018082558091505060019003906000526020600020016000909190919091505550565b60006001613a5e84611865565b613a6891906150aa565b9050600060086000848152602001908152602001600020549050818114613b4d576000600760008673ffffffffffffffffffffffffffffffffffffffff1673ffffffffffffffffffffffffffffffffffffffff168152602001908152602001600020600084815260200190815260200160002054905080600760008773ffffffffffffffffffffffffffffffffffffffff1673ffffffffffffffffffffffffffffffffffffffff168152602001908152602001600020600084815260200190815260200160002081905550816008600083815260200190815260200160002081905550505b6008600084815260200190815260200160002060009055600760008573ffffffffffffffffffffffffffffffffffffffff1673ffffffffffffffffffffffffffffffffffffffff16815260200190815260200160002060008381526020019081526020016000206000905550505050565b60006001600980549050613bd291906150aa565b90506000600a6000848152602001908152602001600020549050600060098381548110613c0257613c0161532d565b5b906000526020600020015490508060098381548110613c2457613c2361532d565b5b906000526020600020018190555081600a600083815260200190815260200160002081905550600a6000858152602001908152602001600020600090556009805480613c7357613c726152fe565b5b6001900381819060005260206000200160009055905550505050565b6000613c9a83611865565b905081600760008573ffffffffffffffffffffffffffffffffffffffff1673ffffffffffffffffffffffffffffffffffffffff168152602001908152602001600020600083815260200190815260200160002081905550806008600084815260200190815260200160002081905550505050565b828054613d1a90615194565b90600052602060002090601f016020900481019282613d3c5760008555613d8a565b82601f10613d4d5780548555613d8a565b82800160010185558215613d8a57600052602060002091601f016020900482015b82811115613d89578254825591600101919060010190613d6e565b5b509050613d979190613e61565b5090565b508054613da790615194565b6000825580601f10613db95750613dd8565b601f016020900490600052602060002090810190613dd79190613e61565b5b50565b828054613de790615194565b90600052602060002090601f016020900481019282613e095760008555613e50565b82601f10613e2257805160ff1916838001178555613e50565b82800160010185558215613e50579182015b82811115613e4f578251825591602001919060010190613e34565b5b509050613e5d9190613e61565b5090565b5b80821115613e7a576000816000905550600101613e62565b5090565b6000613e91613e8c84614f24565b614eff565b905082815260208101848484011115613ead57613eac615390565b5b613eb8848285615152565b509392505050565b6000613ed3613ece84614f55565b614eff565b905082815260208101848484011115613eef57613eee615390565b5b613efa848285615152565b509392505050565b600081359050613f1181615afe565b92915050565b600081359050613f2681615b15565b92915050565b600081359050613f3b81615b2c565b92915050565b600081519050613f5081615b2c565b92915050565b600082601f830112613f6b57613f6a61538b565b5b8135613f7b848260208601613e7e565b91505092915050565b600082601f830112613f9957613f9861538b565b5b8135613fa9848260208601613ec0565b91505092915050565b600081359050613fc181615b43565b92915050565b600060208284031215613fdd57613fdc61539a565b5b6000613feb84828501613f02565b91505092915050565b6000806040838503121561400b5761400a61539a565b5b600061401985828601613f02565b925050602061402a85828601613f02565b9150509250929050565b60008060006060848603121561404d5761404c61539a565b5b600061405b86828701613f02565b935050602061406c86828701613f02565b925050604061407d86828701613fb2565b9150509250925092565b600080600080608085870312156140a1576140a061539a565b5b60006140af87828801613f02565b94505060206140c087828801613f02565b93505060406140d187828801613fb2565b925050606085013567ffffffffffffffff8111156140f2576140f1615395565b5b6140fe87828801613f56565b91505092959194509250565b600080604083850312156141215761412061539a565b5b600061412f85828601613f02565b925050602061414085828601613f17565b9150509250929050565b600080604083850312156141615761416061539a565b5b600061416f85828601613f02565b925050602083013567ffffffffffffffff8111156141905761418f615395565b5b61419c85828601613f84565b9150509250929050565b600080604083850312156141bd576141bc61539a565b5b60006141cb85828601613f02565b92505060206141dc85828601613fb2565b9150509250929050565b6000602082840312156141fc576141fb61539a565b5b600061420a84828501613f2c565b91505092915050565b6000602082840312156142295761422861539a565b5b600061423784828501613f41565b91505092915050565b6000602082840312156142565761425561539a565b5b600082013567ffffffffffffffff81111561427457614273615395565b5b61428084828501613f84565b91505092915050565b600080604083850312156142a05761429f61539a565b5b600083013567ffffffffffffffff8111156142be576142bd615395565b5b6142ca85828601613f84565b925050602083013567ffffffffffffffff8111156142eb576142ea615395565b5b6142f785828601613f84565b9150509250929050565b60008060008060008060c0878903121561431e5761431d61539a565b5b600087013567ffffffffffffffff81111561433c5761433b615395565b5b61434889828a01613f84565b965050602061435989828a01613fb2565b955050604087013567ffffffffffffffff81111561437a57614379615395565b5b61438689828a01613f84565b945050606087013567ffffffffffffffff8111156143a7576143a6615395565b5b6143b389828a01613f84565b935050608087013567ffffffffffffffff8111156143d4576143d3615395565b5b6143e089828a01613f84565b92505060a06143f189828a01613fb2565b9150509295509295509295565b6000602082840312156144145761441361539a565b5b600061442284828501613fb2565b91505092915050565b6000614437838361492d565b60208301905092915050565b61444c816150de565b82525050565b61445b816150f0565b82525050565b600061446c82614f86565b6144768185614f9c565b9350614486818560208601615161565b61448f8161539f565b840191505092915050565b60006144a582614f91565b6144af8185614fad565b93506144bf818560208601615161565b6144c88161539f565b840191505092915050565b60006144de82614f91565b6144e88185614fbe565b93506144f8818560208601615161565b80840191505092915050565b6000614511602b83614fad565b915061451c826153b0565b604082019050919050565b6000614534603283614fad565b915061453f826153ff565b604082019050919050565b6000614557602683614fad565b91506145628261544e565b604082019050919050565b600061457a601c83614fad565b91506145858261549d565b602082019050919050565b600061459d600983614fad565b91506145a8826154c6565b602082019050919050565b60006145c0602483614fad565b91506145cb826154ef565b604082019050919050565b60006145e3601983614fad565b91506145ee8261553e565b602082019050919050565b6000614606602c83614fad565b915061461182615567565b604082019050919050565b6000614629601583614fad565b9150614634826155b6565b602082019050919050565b600061464c603883614fad565b9150614657826155df565b604082019050919050565b600061466f602a83614fad565b915061467a8261562e565b604082019050919050565b6000614692602983614fad565b915061469d8261567d565b604082019050919050565b60006146b5602e83614fad565b91506146c0826156cc565b604082019050919050565b60006146d8601383614fad565b91506146e38261571b565b602082019050919050565b60006146fb602383614fad565b915061470682615744565b604082019050919050565b600061471e602083614fad565b915061472982615793565b602082019050919050565b6000614741603183614fad565b915061474c826157bc565b604082019050919050565b6000614764602c83614fad565b915061476f8261580b565b604082019050919050565b6000614787602083614fad565b91506147928261585a565b602082019050919050565b60006147aa602983614fad565b91506147b582615883565b604082019050919050565b60006147cd602f83614fad565b91506147d8826158d2565b604082019050919050565b60006147f0602083614fad565b91506147fb82615921565b602082019050919050565b6000614813602183614fad565b915061481e8261594a565b604082019050919050565b6000614836603183614fad565b915061484182615999565b604082019050919050565b6000614859601183614fad565b9150614864826159e8565b602082019050919050565b600061487c602c83614fad565b915061488782615a11565b604082019050919050565b600061489f602a83614fad565b91506148aa82615a60565b604082019050919050565b60006148c2603783614fad565b91506148cd82615aaf565b604082019050919050565b6020820160008201516148ee600085018261490f565b50505050565b600082016000820151614907848261442b565b935050505050565b61491881615148565b82525050565b61492781615148565b82525050565b61493681615148565b82525050565b600061494882846144d3565b915081905092915050565b600061495f82856144d3565b915061496b82846144d3565b91508190509392505050565b600061498382846148f4565b60208201915081905092915050565b60006020820190506149a76000830184614443565b92915050565b60006080820190506149c26000830187614443565b6149cf6020830186614443565b6149dc604083018561491e565b81810360608301526149ee8184614461565b905095945050505050565b6000602082019050614a0e6000830184614452565b92915050565b60006020820190508181036000830152614a2e818461449a565b905092915050565b6000610140820190508181036000830152614a51818d61449a565b9050614a60602083018c6148d8565b614a6d604083018b614443565b614a7a606083018a61491e565b8181036080830152614a8c818961449a565b905081810360a0830152614aa0818861449a565b905081810360c0830152614ab4818761449a565b9050614ac360e083018661491e565b614ad1610100830185614443565b614adf61012083018461491e565b9b9a5050505050505050505050565b600060c0820190508181036000830152614b08818961449a565b9050614b17602083018861491e565b8181036040830152614b29818761449a565b90508181036060830152614b3d818661449a565b9050614b4c608083018561491e565b614b5960a0830184614443565b979650505050505050565b60006020820190508181036000830152614b7d81614504565b9050919050565b60006020820190508181036000830152614b9d81614527565b9050919050565b60006020820190508181036000830152614bbd8161454a565b9050919050565b60006020820190508181036000830152614bdd8161456d565b9050919050565b60006020820190508181036000830152614bfd81614590565b9050919050565b60006020820190508181036000830152614c1d816145b3565b9050919050565b60006020820190508181036000830152614c3d816145d6565b9050919050565b60006020820190508181036000830152614c5d816145f9565b9050919050565b60006020820190508181036000830152614c7d8161461c565b9050919050565b60006020820190508181036000830152614c9d8161463f565b9050919050565b60006020820190508181036000830152614cbd81614662565b9050919050565b60006020820190508181036000830152614cdd81614685565b9050919050565b60006020820190508181036000830152614cfd816146a8565b9050919050565b60006020820190508181036000830152614d1d816146cb565b9050919050565b60006020820190508181036000830152614d3d816146ee565b9050919050565b60006020820190508181036000830152614d5d81614711565b9050919050565b60006020820190508181036000830152614d7d81614734565b9050919050565b60006020820190508181036000830152614d9d81614757565b9050919050565b60006020820190508181036000830152614dbd8161477a565b9050919050565b60006020820190508181036000830152614ddd8161479d565b9050919050565b60006020820190508181036000830152614dfd816147c0565b9050919050565b60006020820190508181036000830152614e1d816147e3565b9050919050565b60006020820190508181036000830152614e3d81614806565b9050919050565b60006020820190508181036000830152614e5d81614829565b9050919050565b60006020820190508181036000830152614e7d8161484c565b9050919050565b60006020820190508181036000830152614e9d8161486f565b9050919050565b60006020820190508181036000830152614ebd81614892565b9050919050565b60006020820190508181036000830152614edd816148b5565b9050919050565b6000602082019050614ef9600083018461491e565b92915050565b6000614f09614f1a565b9050614f1582826151c6565b919050565b6000604051905090565b600067ffffffffffffffff821115614f3f57614f3e61535c565b5b614f488261539f565b9050602081019050919050565b600067ffffffffffffffff821115614f7057614f6f61535c565b5b614f798261539f565b9050602081019050919050565b600081519050919050565b600081519050919050565b600082825260208201905092915050565b600082825260208201905092915050565b600081905092915050565b6000614fd482615148565b9150614fdf83615148565b9250827fffffffffffffffffffffffffffffffffffffffffffffffffffffffffffffffff0382111561501457615013615271565b5b828201905092915050565b600061502a82615148565b915061503583615148565b925082615045576150446152a0565b5b828204905092915050565b600061505b82615148565b915061506683615148565b9250817fffffffffffffffffffffffffffffffffffffffffffffffffffffffffffffffff048311821515161561509f5761509e615271565b5b828202905092915050565b60006150b582615148565b91506150c083615148565b9250828210156150d3576150d2615271565b5b828203905092915050565b60006150e982615128565b9050919050565b60008115159050919050565b60007fffffffff0000000000000000000000000000000000000000000000000000000082169050919050565b600073ffffffffffffffffffffffffffffffffffffffff82169050919050565b6000819050919050565b82818337600083830152505050565b60005b8381101561517f578082015181840152602081019050615164565b8381111561518e576000848401525b50505050565b600060028204905060018216806151ac57607f821691505b602082108114156151c0576151bf6152cf565b5b50919050565b6151cf8261539f565b810181811067ffffffffffffffff821117156151ee576151ed61535c565b5b80604052505050565b600061520282615148565b91507fffffffffffffffffffffffffffffffffffffffffffffffffffffffffffffffff82141561523557615234615271565b5b600182019050919050565b600061524b82615148565b915061525683615148565b925082615266576152656152a0565b5b828206905092915050565b7f4e487b7100000000000000000000000000000000000000000000000000000000600052601160045260246000fd5b7f4e487b7100000000000000000000000000000000000000000000000000000000600052601260045260246000fd5b7f4e487b7100000000000000000000000000000000000000000000000000000000600052602260045260246000fd5b7f4e487b7100000000000000000000000000000000000000000000000000000000600052603160045260246000fd5b7f4e487b7100000000000000000000000000000000000000000000000000000000600052603260045260246000fd5b7f4e487b7100000000000000000000000000000000000000000000000000000000600052604160045260246000fd5b600080fd5b600080fd5b600080fd5b600080fd5b6000601f19601f8301169050919050565b7f455243373231456e756d657261626c653a206f776e657220696e646578206f7560008201527f74206f6620626f756e6473000000000000000000000000000000000000000000602082015250565b7f4552433732313a207472616e7366657220746f206e6f6e20455243373231526560008201527f63656976657220696d706c656d656e7465720000000000000000000000000000602082015250565b7f4f776e61626c653a206e6577206f776e657220697320746865207a65726f206160008201527f6464726573730000000000000000000000000000000000000000000000000000602082015250565b7f4552433732313a20746f6b656e20616c7265616479206d696e74656400000000600082015250565b7f746f6f20736d616c6c0000000000000000000000000000000000000000000000600082015250565b7f4552433732313a207472616e7366657220746f20746865207a65726f2061646460008201527f7265737300000000000000000000000000000000000000000000000000000000602082015250565b7f4552433732313a20617070726f766520746f2063616c6c657200000000000000600082015250565b7f4552433732313a206f70657261746f7220717565727920666f72206e6f6e657860008201527f697374656e7420746f6b656e0000000000000000000000000000000000000000602082015250565b7f594f5520415245204e4f5420412043524541544f520000000000000000000000600082015250565b7f4552433732313a20617070726f76652063616c6c6572206973206e6f74206f7760008201527f6e6572206e6f7220617070726f76656420666f7220616c6c0000000000000000602082015250565b7f4552433732313a2062616c616e636520717565727920666f7220746865207a6560008201527f726f206164647265737300000000000000000000000000000000000000000000602082015250565b7f4552433732313a206f776e657220717565727920666f72206e6f6e657869737460008201527f656e7420746f6b656e0000000000000000000000000000000000000000000000602082015250565b7f45524337323155524953746f726167653a2055524920736574206f66206e6f6e60008201527f6578697374656e7420746f6b656e000000000000000000000000000000000000602082015250565b7f594f5520415245204e4f5420414c4c4f57454400000000000000000000000000600082015250565b7f594f555220415245204e4f5420412043524541544f52204f462054484953204360008201527f4c55420000000000000000000000000000000000000000000000000000000000602082015250565b7f4552433732313a206d696e7420746f20746865207a65726f2061646472657373600082015250565b7f45524337323155524953746f726167653a2055524920717565727920666f722060008201527f6e6f6e6578697374656e7420746f6b656e000000000000000000000000000000602082015250565b7f4552433732313a20617070726f76656420717565727920666f72206e6f6e657860008201527f697374656e7420746f6b656e0000000000000000000000000000000000000000602082015250565b7f4f776e61626c653a2063616c6c6572206973206e6f7420746865206f776e6572600082015250565b7f4552433732313a207472616e73666572206f6620746f6b656e2074686174206960008201527f73206e6f74206f776e0000000000000000000000000000000000000000000000602082015250565b7f4552433732314d657461646174613a2055524920717565727920666f72206e6f60008201527f6e6578697374656e7420746f6b656e0000000000000000000000000000000000602082015250565b7f594f5520415245204e4f542043524541544f52204f46205448495320434c5542600082015250565b7f4552433732313a20617070726f76616c20746f2063757272656e74206f776e6560008201527f7200000000000000000000000000000000000000000000000000000000000000602082015250565b7f4552433732313a207472616e736665722063616c6c6572206973206e6f74206f60008201527f776e6572206e6f7220617070726f766564000000000000000000000000000000602082015250565b7f594f5520415245204e4f542041444d494e000000000000000000000000000000600082015250565b7f455243373231456e756d657261626c653a20676c6f62616c20696e646578206f60008201527f7574206f6620626f756e64730000000000000000000000000000000000000000602082015250565b7f594f5520415245204e4f542043524541544f52204f46205448495320434c554260008201527f204e4f522041444d494e00000000000000000000000000000000000000000000602082015250565b7f4e4f542054484520524947485420414d4f554e54204f46204554482c2049542060008201527f43414e204e4f54204245204d4f5245204f52204c455353000000000000000000602082015250565b615b07816150de565b8114615b1257600080fd5b50565b615b1e816150f0565b8114615b2957600080fd5b50565b615b35816150fc565b8114615b4057600080fd5b50565b615b4c81615148565b8114615b5757600080fd5b5056fea2646970667358221220bd7f366efe5ad9b1b563bacf51369c2c93011e1f6f744a314a7d41c6064c0c4864736f6c63430008070033",
  "immutableReferences": {
    "2230": [
      {
        "length": 32,
        "start": 3945
      },
      {
        "length": 32,
        "start": 4522
      },
      {
        "length": 32,
        "start": 4664
      },
      {
        "length": 32,
        "start": 6845
      },
      {
        "length": 32,
        "start": 7884
      },
      {
        "length": 32,
        "start": 8804
      },
      {
        "length": 32,
        "start": 9072
      },
      {
        "length": 32,
        "start": 10569
      }
    ]
  },
  "source": "// SPDX-License-Identifier: MIT\npragma solidity ^0.8.7;\n\nimport \"@openzeppelin/contracts/token/ERC721/extensions/ERC721URIStorage.sol\";\nimport \"@openzeppelin/contracts/token/ERC721/extensions/ERC721Enumerable.sol\";\nimport \"@openzeppelin/contracts/utils/Counters.sol\";\nimport \"@openzeppelin/contracts/access/Ownable.sol\";\n\ncontract Cards is ERC721URIStorage, ERC721Enumerable, Ownable {\n    using Counters for Counters.Counter;\n    Counters.Counter private nextItemId;\n\n    address public immutable admin;\n    // uint256 public nextItemId;\n    uint256 public CONTRACT_FEE = 9500; //5% fee, the rest goes to the creator, 95% == 9500\n    // uint256 public CREATORS_FEE = 2000; // 20% fee\n    //185 basis points = 1.85 pct\n\n    mapping(address => mapping(uint256 => Card)) public marketCards;\n    mapping(address => mapping(uint256 => Card)) public myCards;\n    /*for now just add one creator per club, but when I want to increase more creators\n    for each club I just need to add mapping(string=>mapping(uint=>address)) \n    */\n\n    //MIGRATE CONTRACT FIRST BEFORE ANYTHING, OF COURSE\n    // first get the clubToCreator address of what team i want, then loop through marketCards\n    // filtering just the cards `createdBy` that address and return it to the user\n\n    mapping(string => string) private urlClubBadge;\n    mapping(string => address) public clubToCreator;\n    mapping(address => bool) public creators;\n\n    //waiting for admin approval\n    // uint256 numPendingCreators = 0;\n    mapping(address => string) public pendingCreator;\n\n    // adding card creators, just admin allowed to add\n    function addCreator(address _addr, string memory _club) external {\n        require(admin == msg.sender, \"YOU ARE NOT ADMIN\");\n        creators[_addr] = true;\n        clubToCreator[_club] = _addr;\n    }\n\n    constructor() ERC721(\"Cards Futebol\", \"FUT\") {\n        admin = msg.sender;\n        creators[msg.sender] = true;\n    }\n\n    //type the club's the same you are authorized to post for\n    function setClubBadge(string memory _club, string memory _newClubBadge)\n        external\n    {\n        require(\n            clubToCreator[_club] == msg.sender || admin == msg.sender,\n            \"YOUR ARE NOT A CREATOR OF THIS CLUB\"\n        );\n        urlClubBadge[_club] = _newClubBadge;\n    }\n\n    function mintCards(\n        string memory _title,\n        uint256 _price,\n        string memory _description,\n        string memory _club,\n        string memory _urlPicture,\n        uint256 _totalAmount\n    ) external {\n        require(creators[msg.sender], \"YOU ARE NOT A CREATOR\");\n        require(\n            clubToCreator[_club] == msg.sender || admin == msg.sender,\n            \"YOU ARE NOT CREATOR OF THIS CLUB\"\n        );\n\n        for (uint256 i = 0; i < _totalAmount; i++) {\n            Card memory card = Card({\n                title: _title,\n                id: nextItemId,\n                owner: address(this),\n                price: _price,\n                description: _description,\n                urlPicture: _urlPicture,\n                club: _club,\n                timestamp: block.timestamp,\n                createdBy: msg.sender,\n                totalAmount: _totalAmount\n            });\n\n            _mint(address(this), nextItemId.current());\n            marketCards[address(this)][nextItemId.current()] = card;\n            nextItemId.increment();\n\n            // _setTokenURI(nextItemId, _tokenURI);\n            _setTokenURI(nextItemId.current(), _urlPicture); //ipfs or pinata address\n\n            emit cardMinted(\n                card.id,\n                card.owner,\n                card.timestamp,\n                card.title,\n                card.price,\n                card.description,\n                card.urlPicture,\n                card.totalAmount,\n                card.createdBy\n            );\n        }\n\n        // tokenOfOwnerByIndex(owner, index);\n        // tokenByIndex(index);\n    }\n\n    // function mint(string memory tokenURI) public onlyOwner returns (uint256) {\n    // _tokenIds.increment();\n\n    // uint256 newItemId = _tokenIds.current();\n    // _mint(owner(), newItemId);\n    // _setTokenURI(newItemId, tokenURI);\n\n    //     return newItemId;\n    // }\n\n    //owner of the contract retrieving all of its fee's\n    function retrieveFunds() external {\n        require(msg.sender == admin, \"YOU ARE NOT ALLOWED\");\n        payable(admin).transfer(address(this).balance);\n    }\n\n    // removing card creators, just admin allowed to remove\n    function removeCreator(address _addr, string memory _club) external {\n        require(admin == msg.sender, \"YOU ARE NOT ADMIN\");\n        creators[_addr] = false;\n        delete clubToCreator[_club];\n    }\n\n    function totalFundsCollected() external view returns (uint256) {\n        return address(this).balance;\n    }\n\n    event cardMinted(\n        Counters.Counter indexed id,\n        address indexed owner,\n        uint256 indexed timestamp,\n        string title,\n        uint256 price,\n        string description,\n        string urlPicture,\n        uint256 totalAmount,\n        address createdBy\n    );\n\n    event cardTransfered(\n        Counters.Counter indexed id,\n        address indexed from,\n        address to,\n        uint256 indexed timestamp\n    );\n\n    struct Card {\n        string title;\n        Counters.Counter id;\n        address owner;\n        uint256 price;\n        string description;\n        string urlPicture;\n        string club;\n        uint256 timestamp;\n        address createdBy;\n        uint256 totalAmount;\n    }\n\n    function isCreator(address _addr) external view returns (bool) {\n        return creators[_addr];\n    }\n\n    function isClubCreator(string memory _club) external view returns (bool) {\n        require(\n            clubToCreator[_club] == msg.sender || admin == msg.sender,\n            \"YOU ARE NOT CREATOR OF THIS CLUB NOR ADMIN\"\n        );\n\n        return true;\n    }\n\n    function buyCardFromMarket(uint256 tokenId) external payable {\n        require(\n            msg.value == marketCards[address(this)][tokenId].price,\n            \"NOT THE RIGHT AMOUNT OF ETH, IT CAN NOT BE MORE OR LESS\"\n        );\n\n        uint256 _fee_contract = calculateFeeAdmin(msg.value); //msg.value - FEE\n        payable(marketCards[address(this)][tokenId].createdBy).transfer(\n            msg.value - _fee_contract\n        );\n\n        _transfer(address(this), msg.sender, tokenId);\n        myCards[msg.sender][tokenId] = marketCards[address(this)][tokenId];\n        delete marketCards[address(this)][tokenId];\n\n        emit cardTransfered(\n            Counters.Counter(tokenId),\n            address(this),\n            msg.sender,\n            block.timestamp\n        );\n    }\n\n    //PUT MINT FN HERE\n    //100 basis points = 1.00 pct\n    function calculateFeeAdmin(uint256 amount) private view returns (uint256) {\n        require((amount / 10000) * 10000 == amount, \"too small\");\n        return (amount * CONTRACT_FEE) / 10000;\n    }\n\n    //overriding files\n    function _beforeTokenTransfer(\n        address from,\n        address to,\n        uint256 tokenId\n    ) internal override(ERC721, ERC721Enumerable) {\n        super._beforeTokenTransfer(from, to, tokenId);\n    }\n\n    function _burn(uint256 tokenId)\n        internal\n        override(ERC721, ERC721URIStorage)\n    {\n        super._burn(tokenId);\n    }\n\n    function tokenURI(uint256 tokenId)\n        public\n        view\n        override(ERC721, ERC721URIStorage)\n        returns (string memory)\n    {\n        return super.tokenURI(tokenId);\n    }\n\n    function supportsInterface(bytes4 interfaceId)\n        public\n        view\n        override(ERC721, ERC721Enumerable)\n        returns (bool)\n    {\n        return super.supportsInterface(interfaceId);\n    }\n\n    function _baseURI() internal pure override returns (string memory) {\n        // return \"https://foo.com/token/\";\n        return \"https://ipfs.io/ipfs/\";\n    }\n\n    // function calculateFeeCreator(uint256 amount)\n    //     private\n    //     view\n    //     returns (uint256)\n    // {\n    //     require((amount / 10000) * 10000 == amount, \"too small\");\n    //     return (amount * CREATORS_FEE) / 10000;\n    // }\n\n    // function _baseURI() internal view virtual override returns (string memory) {\n    //     return \"\";\n    // }\n}\n",
  "sourcePath": "/Volumes/APPLE HDD/reactprojects/cards-nft/contracts/Cards.sol",
  "compiler": {
    "name": "solc",
    "version": "0.8.7+commit.e28d00a7.Emscripten.clang"
  },
  "schemaVersion": "3.4.3",
  "updatedAt": "2021-12-12T21:49:16.268Z",
  "networkType": "ethereum",
  "devdoc": {
    "kind": "dev",
    "methods": {
      "approve(address,uint256)": {
        "details": "See {IERC721-approve}."
      },
      "balanceOf(address)": {
        "details": "See {IERC721-balanceOf}."
      },
      "getApproved(uint256)": {
        "details": "See {IERC721-getApproved}."
      },
      "isApprovedForAll(address,address)": {
        "details": "See {IERC721-isApprovedForAll}."
      },
      "name()": {
        "details": "See {IERC721Metadata-name}."
      },
      "owner()": {
        "details": "Returns the address of the current owner."
      },
      "ownerOf(uint256)": {
        "details": "See {IERC721-ownerOf}."
      },
      "renounceOwnership()": {
        "details": "Leaves the contract without owner. It will not be possible to call `onlyOwner` functions anymore. Can only be called by the current owner. NOTE: Renouncing ownership will leave the contract without an owner, thereby removing any functionality that is only available to the owner."
      },
      "safeTransferFrom(address,address,uint256)": {
        "details": "See {IERC721-safeTransferFrom}."
      },
      "safeTransferFrom(address,address,uint256,bytes)": {
        "details": "See {IERC721-safeTransferFrom}."
      },
      "setApprovalForAll(address,bool)": {
        "details": "See {IERC721-setApprovalForAll}."
      },
      "symbol()": {
        "details": "See {IERC721Metadata-symbol}."
      },
      "tokenByIndex(uint256)": {
        "details": "See {IERC721Enumerable-tokenByIndex}."
      },
      "tokenOfOwnerByIndex(address,uint256)": {
        "details": "See {IERC721Enumerable-tokenOfOwnerByIndex}."
      },
      "totalSupply()": {
        "details": "See {IERC721Enumerable-totalSupply}."
      },
      "transferFrom(address,address,uint256)": {
        "details": "See {IERC721-transferFrom}."
      },
      "transferOwnership(address)": {
        "details": "Transfers ownership of the contract to a new account (`newOwner`). Can only be called by the current owner."
      }
    },
    "version": 1
  },
  "userdoc": {
    "kind": "user",
    "methods": {},
    "version": 1
  }
}