{
  "contractName": "Cards",
  "abi": [
    {
      "inputs": [],
      "stateMutability": "nonpayable",
      "type": "constructor"
    },
    {
      "anonymous": false,
      "inputs": [
        {
          "indexed": true,
          "internalType": "address",
          "name": "owner",
          "type": "address"
        },
        {
          "indexed": true,
          "internalType": "address",
          "name": "approved",
          "type": "address"
        },
        {
          "indexed": true,
          "internalType": "uint256",
          "name": "tokenId",
          "type": "uint256"
        }
      ],
      "name": "Approval",
      "type": "event"
    },
    {
      "anonymous": false,
      "inputs": [
        {
          "indexed": true,
          "internalType": "address",
          "name": "owner",
          "type": "address"
        },
        {
          "indexed": true,
          "internalType": "address",
          "name": "operator",
          "type": "address"
        },
        {
          "indexed": false,
          "internalType": "bool",
          "name": "approved",
          "type": "bool"
        }
      ],
      "name": "ApprovalForAll",
      "type": "event"
    },
    {
      "anonymous": false,
      "inputs": [
        {
          "indexed": true,
          "internalType": "address",
          "name": "previousOwner",
          "type": "address"
        },
        {
          "indexed": true,
          "internalType": "address",
          "name": "newOwner",
          "type": "address"
        }
      ],
      "name": "OwnershipTransferred",
      "type": "event"
    },
    {
      "anonymous": false,
      "inputs": [
        {
          "indexed": true,
          "internalType": "address",
          "name": "from",
          "type": "address"
        },
        {
          "indexed": true,
          "internalType": "address",
          "name": "to",
          "type": "address"
        },
        {
          "indexed": true,
          "internalType": "uint256",
          "name": "tokenId",
          "type": "uint256"
        }
      ],
      "name": "Transfer",
      "type": "event"
    },
    {
      "anonymous": false,
      "inputs": [
        {
          "components": [
            {
              "internalType": "uint256",
              "name": "_value",
              "type": "uint256"
            }
          ],
          "indexed": true,
          "internalType": "struct Counters.Counter",
          "name": "id",
          "type": "tuple"
        },
        {
          "indexed": true,
          "internalType": "address",
          "name": "owner",
          "type": "address"
        },
        {
          "indexed": true,
          "internalType": "uint256",
          "name": "timestamp",
          "type": "uint256"
        },
        {
          "indexed": false,
          "internalType": "string",
          "name": "title",
          "type": "string"
        },
        {
          "indexed": false,
          "internalType": "uint256",
          "name": "price",
          "type": "uint256"
        },
        {
          "indexed": false,
          "internalType": "string",
          "name": "description",
          "type": "string"
        },
        {
          "indexed": false,
          "internalType": "string",
          "name": "urlPicture",
          "type": "string"
        },
        {
          "indexed": false,
          "internalType": "uint256",
          "name": "totalAmount",
          "type": "uint256"
        },
        {
          "indexed": false,
          "internalType": "address",
          "name": "createdBy",
          "type": "address"
        }
      ],
      "name": "cardMinted",
      "type": "event"
    },
    {
      "anonymous": false,
      "inputs": [
        {
          "components": [
            {
              "internalType": "uint256",
              "name": "_value",
              "type": "uint256"
            }
          ],
          "indexed": true,
          "internalType": "struct Counters.Counter",
          "name": "id",
          "type": "tuple"
        },
        {
          "indexed": true,
          "internalType": "address",
          "name": "from",
          "type": "address"
        },
        {
          "indexed": false,
          "internalType": "address",
          "name": "to",
          "type": "address"
        },
        {
          "indexed": true,
          "internalType": "uint256",
          "name": "timestamp",
          "type": "uint256"
        }
      ],
      "name": "cardTransfered",
      "type": "event"
    },
    {
      "inputs": [],
      "name": "CONTRACT_FEE",
      "outputs": [
        {
          "internalType": "uint256",
          "name": "",
          "type": "uint256"
        }
      ],
      "stateMutability": "view",
      "type": "function",
      "constant": true
    },
    {
      "inputs": [],
      "name": "admin",
      "outputs": [
        {
          "internalType": "address",
          "name": "",
          "type": "address"
        }
      ],
      "stateMutability": "view",
      "type": "function",
      "constant": true
    },
    {
      "inputs": [
        {
          "internalType": "address",
          "name": "to",
          "type": "address"
        },
        {
          "internalType": "uint256",
          "name": "tokenId",
          "type": "uint256"
        }
      ],
      "name": "approve",
      "outputs": [],
      "stateMutability": "nonpayable",
      "type": "function"
    },
    {
      "inputs": [
        {
          "internalType": "address",
          "name": "owner",
          "type": "address"
        }
      ],
      "name": "balanceOf",
      "outputs": [
        {
          "internalType": "uint256",
          "name": "",
          "type": "uint256"
        }
      ],
      "stateMutability": "view",
      "type": "function",
      "constant": true
    },
    {
      "inputs": [
        {
          "internalType": "string",
          "name": "",
          "type": "string"
        }
      ],
      "name": "clubToCreator",
      "outputs": [
        {
          "internalType": "address",
          "name": "",
          "type": "address"
        }
      ],
      "stateMutability": "view",
      "type": "function",
      "constant": true
    },
    {
      "inputs": [
        {
          "internalType": "address",
          "name": "",
          "type": "address"
        }
      ],
      "name": "creators",
      "outputs": [
        {
          "internalType": "bool",
          "name": "",
          "type": "bool"
        }
      ],
      "stateMutability": "view",
      "type": "function",
      "constant": true
    },
    {
      "inputs": [
        {
          "internalType": "uint256",
          "name": "tokenId",
          "type": "uint256"
        }
      ],
      "name": "getApproved",
      "outputs": [
        {
          "internalType": "address",
          "name": "",
          "type": "address"
        }
      ],
      "stateMutability": "view",
      "type": "function",
      "constant": true
    },
    {
      "inputs": [
        {
          "internalType": "address",
          "name": "owner",
          "type": "address"
        },
        {
          "internalType": "address",
          "name": "operator",
          "type": "address"
        }
      ],
      "name": "isApprovedForAll",
      "outputs": [
        {
          "internalType": "bool",
          "name": "",
          "type": "bool"
        }
      ],
      "stateMutability": "view",
      "type": "function",
      "constant": true
    },
    {
      "inputs": [
        {
          "internalType": "address",
          "name": "",
          "type": "address"
        },
        {
          "internalType": "uint256",
          "name": "",
          "type": "uint256"
        }
      ],
      "name": "marketCards",
      "outputs": [
        {
          "internalType": "string",
          "name": "title",
          "type": "string"
        },
        {
          "components": [
            {
              "internalType": "uint256",
              "name": "_value",
              "type": "uint256"
            }
          ],
          "internalType": "struct Counters.Counter",
          "name": "id",
          "type": "tuple"
        },
        {
          "internalType": "address",
          "name": "owner",
          "type": "address"
        },
        {
          "internalType": "uint256",
          "name": "price",
          "type": "uint256"
        },
        {
          "internalType": "string",
          "name": "description",
          "type": "string"
        },
        {
          "internalType": "string",
          "name": "urlPicture",
          "type": "string"
        },
        {
          "internalType": "string",
          "name": "club",
          "type": "string"
        },
        {
          "internalType": "uint256",
          "name": "timestamp",
          "type": "uint256"
        },
        {
          "internalType": "address",
          "name": "createdBy",
          "type": "address"
        },
        {
          "internalType": "uint256",
          "name": "totalAmount",
          "type": "uint256"
        }
      ],
      "stateMutability": "view",
      "type": "function",
      "constant": true
    },
    {
      "inputs": [
        {
          "internalType": "address",
          "name": "",
          "type": "address"
        },
        {
          "internalType": "uint256",
          "name": "",
          "type": "uint256"
        }
      ],
      "name": "myCards",
      "outputs": [
        {
          "internalType": "string",
          "name": "title",
          "type": "string"
        },
        {
          "components": [
            {
              "internalType": "uint256",
              "name": "_value",
              "type": "uint256"
            }
          ],
          "internalType": "struct Counters.Counter",
          "name": "id",
          "type": "tuple"
        },
        {
          "internalType": "address",
          "name": "owner",
          "type": "address"
        },
        {
          "internalType": "uint256",
          "name": "price",
          "type": "uint256"
        },
        {
          "internalType": "string",
          "name": "description",
          "type": "string"
        },
        {
          "internalType": "string",
          "name": "urlPicture",
          "type": "string"
        },
        {
          "internalType": "string",
          "name": "club",
          "type": "string"
        },
        {
          "internalType": "uint256",
          "name": "timestamp",
          "type": "uint256"
        },
        {
          "internalType": "address",
          "name": "createdBy",
          "type": "address"
        },
        {
          "internalType": "uint256",
          "name": "totalAmount",
          "type": "uint256"
        }
      ],
      "stateMutability": "view",
      "type": "function",
      "constant": true
    },
    {
      "inputs": [],
      "name": "name",
      "outputs": [
        {
          "internalType": "string",
          "name": "",
          "type": "string"
        }
      ],
      "stateMutability": "view",
      "type": "function",
      "constant": true
    },
    {
      "inputs": [],
      "name": "owner",
      "outputs": [
        {
          "internalType": "address",
          "name": "",
          "type": "address"
        }
      ],
      "stateMutability": "view",
      "type": "function",
      "constant": true
    },
    {
      "inputs": [
        {
          "internalType": "uint256",
          "name": "tokenId",
          "type": "uint256"
        }
      ],
      "name": "ownerOf",
      "outputs": [
        {
          "internalType": "address",
          "name": "",
          "type": "address"
        }
      ],
      "stateMutability": "view",
      "type": "function",
      "constant": true
    },
    {
      "inputs": [
        {
          "internalType": "address",
          "name": "",
          "type": "address"
        }
      ],
      "name": "pendingCreator",
      "outputs": [
        {
          "internalType": "string",
          "name": "",
          "type": "string"
        }
      ],
      "stateMutability": "view",
      "type": "function",
      "constant": true
    },
    {
      "inputs": [],
      "name": "renounceOwnership",
      "outputs": [],
      "stateMutability": "nonpayable",
      "type": "function"
    },
    {
      "inputs": [
        {
          "internalType": "address",
          "name": "from",
          "type": "address"
        },
        {
          "internalType": "address",
          "name": "to",
          "type": "address"
        },
        {
          "internalType": "uint256",
          "name": "tokenId",
          "type": "uint256"
        }
      ],
      "name": "safeTransferFrom",
      "outputs": [],
      "stateMutability": "nonpayable",
      "type": "function"
    },
    {
      "inputs": [
        {
          "internalType": "address",
          "name": "from",
          "type": "address"
        },
        {
          "internalType": "address",
          "name": "to",
          "type": "address"
        },
        {
          "internalType": "uint256",
          "name": "tokenId",
          "type": "uint256"
        },
        {
          "internalType": "bytes",
          "name": "_data",
          "type": "bytes"
        }
      ],
      "name": "safeTransferFrom",
      "outputs": [],
      "stateMutability": "nonpayable",
      "type": "function"
    },
    {
      "inputs": [
        {
          "internalType": "address",
          "name": "operator",
          "type": "address"
        },
        {
          "internalType": "bool",
          "name": "approved",
          "type": "bool"
        }
      ],
      "name": "setApprovalForAll",
      "outputs": [],
      "stateMutability": "nonpayable",
      "type": "function"
    },
    {
      "inputs": [],
      "name": "symbol",
      "outputs": [
        {
          "internalType": "string",
          "name": "",
          "type": "string"
        }
      ],
      "stateMutability": "view",
      "type": "function",
      "constant": true
    },
    {
      "inputs": [
        {
          "internalType": "uint256",
          "name": "index",
          "type": "uint256"
        }
      ],
      "name": "tokenByIndex",
      "outputs": [
        {
          "internalType": "uint256",
          "name": "",
          "type": "uint256"
        }
      ],
      "stateMutability": "view",
      "type": "function",
      "constant": true
    },
    {
      "inputs": [
        {
          "internalType": "address",
          "name": "owner",
          "type": "address"
        },
        {
          "internalType": "uint256",
          "name": "index",
          "type": "uint256"
        }
      ],
      "name": "tokenOfOwnerByIndex",
      "outputs": [
        {
          "internalType": "uint256",
          "name": "",
          "type": "uint256"
        }
      ],
      "stateMutability": "view",
      "type": "function",
      "constant": true
    },
    {
      "inputs": [],
      "name": "totalSupply",
      "outputs": [
        {
          "internalType": "uint256",
          "name": "",
          "type": "uint256"
        }
      ],
      "stateMutability": "view",
      "type": "function",
      "constant": true
    },
    {
      "inputs": [
        {
          "internalType": "address",
          "name": "from",
          "type": "address"
        },
        {
          "internalType": "address",
          "name": "to",
          "type": "address"
        },
        {
          "internalType": "uint256",
          "name": "tokenId",
          "type": "uint256"
        }
      ],
      "name": "transferFrom",
      "outputs": [],
      "stateMutability": "nonpayable",
      "type": "function"
    },
    {
      "inputs": [
        {
          "internalType": "address",
          "name": "newOwner",
          "type": "address"
        }
      ],
      "name": "transferOwnership",
      "outputs": [],
      "stateMutability": "nonpayable",
      "type": "function"
    },
    {
      "inputs": [
        {
          "internalType": "address",
          "name": "_addr",
          "type": "address"
        },
        {
          "internalType": "string",
          "name": "_club",
          "type": "string"
        }
      ],
      "name": "addCreator",
      "outputs": [],
      "stateMutability": "nonpayable",
      "type": "function"
    },
    {
      "inputs": [
        {
          "internalType": "string",
          "name": "_club",
          "type": "string"
        },
        {
          "internalType": "string",
          "name": "_newClubBadge",
          "type": "string"
        }
      ],
      "name": "setClubBadge",
      "outputs": [],
      "stateMutability": "nonpayable",
      "type": "function"
    },
    {
      "inputs": [
        {
          "internalType": "string",
          "name": "_title",
          "type": "string"
        },
        {
          "internalType": "uint256",
          "name": "_price",
          "type": "uint256"
        },
        {
          "internalType": "string",
          "name": "_description",
          "type": "string"
        },
        {
          "internalType": "string",
          "name": "_club",
          "type": "string"
        },
        {
          "internalType": "string",
          "name": "_urlPicture",
          "type": "string"
        },
        {
          "internalType": "uint256",
          "name": "_totalAmount",
          "type": "uint256"
        }
      ],
      "name": "mintCards",
      "outputs": [],
      "stateMutability": "nonpayable",
      "type": "function"
    },
    {
      "inputs": [],
      "name": "retrieveFunds",
      "outputs": [],
      "stateMutability": "nonpayable",
      "type": "function"
    },
    {
      "inputs": [
        {
          "internalType": "address",
          "name": "_addr",
          "type": "address"
        },
        {
          "internalType": "string",
          "name": "_club",
          "type": "string"
        }
      ],
      "name": "removeCreator",
      "outputs": [],
      "stateMutability": "nonpayable",
      "type": "function"
    },
    {
      "inputs": [],
      "name": "totalFundsCollected",
      "outputs": [
        {
          "internalType": "uint256",
          "name": "",
          "type": "uint256"
        }
      ],
      "stateMutability": "view",
      "type": "function",
      "constant": true
    },
    {
      "inputs": [
        {
          "internalType": "address",
          "name": "_addr",
          "type": "address"
        }
      ],
      "name": "isCreator",
      "outputs": [
        {
          "internalType": "bool",
          "name": "",
          "type": "bool"
        }
      ],
      "stateMutability": "view",
      "type": "function",
      "constant": true
    },
    {
      "inputs": [
        {
          "internalType": "string",
          "name": "_club",
          "type": "string"
        }
      ],
      "name": "isClubCreator",
      "outputs": [
        {
          "internalType": "bool",
          "name": "",
          "type": "bool"
        }
      ],
      "stateMutability": "view",
      "type": "function",
      "constant": true
    },
    {
      "inputs": [
        {
          "internalType": "uint256",
          "name": "tokenId",
          "type": "uint256"
        }
      ],
      "name": "buyCardFromMarket",
      "outputs": [],
      "stateMutability": "payable",
      "type": "function",
      "payable": true
    },
    {
      "inputs": [
        {
          "internalType": "uint256",
          "name": "tokenId",
          "type": "uint256"
        }
      ],
      "name": "tokenURI",
      "outputs": [
        {
          "internalType": "string",
          "name": "",
          "type": "string"
        }
      ],
      "stateMutability": "view",
      "type": "function",
      "constant": true
    },
    {
      "inputs": [
        {
          "internalType": "bytes4",
          "name": "interfaceId",
          "type": "bytes4"
        }
      ],
      "name": "supportsInterface",
      "outputs": [
        {
          "internalType": "bool",
          "name": "",
          "type": "bool"
        }
      ],
      "stateMutability": "view",
      "type": "function",
      "constant": true
    }
  ],
  "bytecode": "0x60a060405261251c600d553480156200001757600080fd5b506040518060400160405280600d81526020017f43617264732046757465626f6c000000000000000000000000000000000000008152506040518060400160405280600381526020017f465554000000000000000000000000000000000000000000000000000000000081525081600090805190602001906200009c9291906200023b565b508060019080519060200190620000b59291906200023b565b505050620000d8620000cc6200016d60201b60201c565b6200017560201b60201c565b3373ffffffffffffffffffffffffffffffffffffffff1660808173ffffffffffffffffffffffffffffffffffffffff1660601b815250506001601260003373ffffffffffffffffffffffffffffffffffffffff1673ffffffffffffffffffffffffffffffffffffffff16815260200190815260200160002060006101000a81548160ff02191690831515021790555062000350565b600033905090565b6000600b60009054906101000a900473ffffffffffffffffffffffffffffffffffffffff16905081600b60006101000a81548173ffffffffffffffffffffffffffffffffffffffff021916908373ffffffffffffffffffffffffffffffffffffffff1602179055508173ffffffffffffffffffffffffffffffffffffffff168173ffffffffffffffffffffffffffffffffffffffff167f8be0079c531659141344cd1fd0a4f28419497f9722a3daafe3b4186f6b6457e060405160405180910390a35050565b8280546200024990620002eb565b90600052602060002090601f0160209004810192826200026d5760008555620002b9565b82601f106200028857805160ff1916838001178555620002b9565b82800160010185558215620002b9579182015b82811115620002b85782518255916020019190600101906200029b565b5b509050620002c89190620002cc565b5090565b5b80821115620002e7576000816000905550600101620002cd565b5090565b600060028204905060018216806200030457607f821691505b602082108114156200031b576200031a62000321565b5b50919050565b7f4e487b7100000000000000000000000000000000000000000000000000000000600052602260045260246000fd5b60805160601c615a51620003a060003960008181610f69015281816111aa0152818161123801528181611abd01528181611eb9015281816122510152818161235d01526129360152615a516000f3fe6080604052600436106102045760003560e01c8063715018a611610118578063c87b56dd116100a0578063efd460651161006f578063efd46065146107d8578063f2fde38b14610815578063f58a6d601461083e578063f70d374614610869578063f851a4401461089457610204565b8063c87b56dd146106ef578063e24577b81461072c578063e985e9c514610755578063e9cb5dd61461079257610204565b8063933166e1116100e7578063933166e1146105f857806395d89b4114610635578063a22cb46514610660578063a8b329df14610689578063b88d4fde146106c657610204565b8063715018a614610564578063895f9f9d1461057b5780638bfef98a146105a45780638da5cb5b146105cd57610204565b80632f745c591161019b5780634f6ccce71161016a5780634f6ccce71461047a57806361b20d8c146104b75780636352211e146104ce5780636ac408e51461050b57806370a082311461052757610204565b80632f745c59146103ae57806342842e0e146103eb578063453bc2a7146104145780634dd946951461043d57610204565b806318160ddd116101d757806318160ddd146102d757806323b872dd1461030257806324466df91461032b5780632518d7e01461036857610204565b806301ffc9a71461020957806306fdde0314610246578063081812fc14610271578063095ea7b3146102ae575b600080fd5b34801561021557600080fd5b50610230600480360381019061022b9190614139565b6108bf565b60405161023d9190614929565b60405180910390f35b34801561025257600080fd5b5061025b6108d1565b6040516102689190614944565b60405180910390f35b34801561027d57600080fd5b5061029860048036038101906102939190614351565b610963565b6040516102a591906148c2565b60405180910390f35b3480156102ba57600080fd5b506102d560048036038101906102d091906140f9565b6109e8565b005b3480156102e357600080fd5b506102ec610b00565b6040516102f99190614df4565b60405180910390f35b34801561030e57600080fd5b5061032960048036038101906103249190613f87565b610b0d565b005b34801561033757600080fd5b50610352600480360381019061034d9190614193565b610b6d565b60405161035f91906148c2565b60405180910390f35b34801561037457600080fd5b5061038f600480360381019061038a91906140f9565b610bb6565b6040516103a59a99989796959493929190614966565b60405180910390f35b3480156103ba57600080fd5b506103d560048036038101906103d091906140f9565b610e8b565b6040516103e29190614df4565b60405180910390f35b3480156103f757600080fd5b50610412600480360381019061040d9190613f87565b610f30565b005b34801561042057600080fd5b5061043b6004803603810190610436919061409d565b610f50565b005b34801561044957600080fd5b50610464600480360381019061045f9190613f1a565b611097565b6040516104719190614944565b60405180910390f35b34801561048657600080fd5b506104a1600480360381019061049c9190614351565b611137565b6040516104ae9190614df4565b60405180910390f35b3480156104c357600080fd5b506104cc6111a8565b005b3480156104da57600080fd5b506104f560048036038101906104f09190614351565b61129f565b60405161050291906148c2565b60405180910390f35b61052560048036038101906105209190614351565b611351565b005b34801561053357600080fd5b5061054e60048036038101906105499190613f1a565b611865565b60405161055b9190614df4565b60405180910390f35b34801561057057600080fd5b5061057961191d565b005b34801561058757600080fd5b506105a2600480360381019061059d9190614254565b6119a5565b005b3480156105b057600080fd5b506105cb60048036038101906105c691906141dc565b611e2d565b005b3480156105d957600080fd5b506105e2611f66565b6040516105ef91906148c2565b60405180910390f35b34801561060457600080fd5b5061061f600480360381019061061a9190613f1a565b611f90565b60405161062c9190614929565b60405180910390f35b34801561064157600080fd5b5061064a611fb0565b6040516106579190614944565b60405180910390f35b34801561066c57600080fd5b506106876004803603810190610682919061405d565b612042565b005b34801561069557600080fd5b506106b060048036038101906106ab9190614193565b6121c3565b6040516106bd9190614929565b60405180910390f35b3480156106d257600080fd5b506106ed60048036038101906106e89190613fda565b6122d0565b005b3480156106fb57600080fd5b5061071660048036038101906107119190614351565b612332565b6040516107239190614944565b60405180910390f35b34801561073857600080fd5b50610753600480360381019061074e919061409d565b612344565b005b34801561076157600080fd5b5061077c60048036038101906107779190613f47565b61246f565b6040516107899190614929565b60405180910390f35b34801561079e57600080fd5b506107b960048036038101906107b491906140f9565b612503565b6040516107cf9a99989796959493929190614966565b60405180910390f35b3480156107e457600080fd5b506107ff60048036038101906107fa9190613f1a565b6127d8565b60405161080c9190614929565b60405180910390f35b34801561082157600080fd5b5061083c60048036038101906108379190613f1a565b61282e565b005b34801561084a57600080fd5b50610853612926565b6040516108609190614df4565b60405180910390f35b34801561087557600080fd5b5061087e61292e565b60405161088b9190614df4565b60405180910390f35b3480156108a057600080fd5b506108a9612934565b6040516108b691906148c2565b60405180910390f35b60006108ca82612958565b9050919050565b6060600080546108e0906150a4565b80601f016020809104026020016040519081016040528092919081815260200182805461090c906150a4565b80156109595780601f1061092e57610100808354040283529160200191610959565b820191906000526020600020905b81548152906001019060200180831161093c57829003601f168201915b5050505050905090565b600061096e826129d2565b6109ad576040517f08c379a00000000000000000000000000000000000000000000000000000000081526004016109a490614c94565b60405180910390fd5b6004600083815260200190815260200160002060009054906101000a900473ffffffffffffffffffffffffffffffffffffffff169050919050565b60006109f38261129f565b90508073ffffffffffffffffffffffffffffffffffffffff168373ffffffffffffffffffffffffffffffffffffffff161415610a64576040517f08c379a0000000000000000000000000000000000000000000000000000000008152600401610a5b90614d34565b60405180910390fd5b8073ffffffffffffffffffffffffffffffffffffffff16610a83612a3e565b73ffffffffffffffffffffffffffffffffffffffff161480610ab25750610ab181610aac612a3e565b61246f565b5b610af1576040517f08c379a0000000000000000000000000000000000000000000000000000000008152600401610ae890614bb4565b60405180910390fd5b610afb8383612a46565b505050565b6000600980549050905090565b610b1e610b18612a3e565b82612aff565b610b5d576040517f08c379a0000000000000000000000000000000000000000000000000000000008152600401610b5490614d54565b60405180910390fd5b610b68838383612bdd565b505050565b6011818051602081018201805184825260208301602085012081835280955050505050506000915054906101000a900473ffffffffffffffffffffffffffffffffffffffff1681565b600e60205281600052604060002060205280600052604060002060009150915050806000018054610be6906150a4565b80601f0160208091040260200160405190810160405280929190818152602001828054610c12906150a4565b8015610c5f5780601f10610c3457610100808354040283529160200191610c5f565b820191906000526020600020905b815481529060010190602001808311610c4257829003601f168201915b50505050509080600101604051806020016040529081600082015481525050908060020160009054906101000a900473ffffffffffffffffffffffffffffffffffffffff1690806003015490806004018054610cba906150a4565b80601f0160208091040260200160405190810160405280929190818152602001828054610ce6906150a4565b8015610d335780601f10610d0857610100808354040283529160200191610d33565b820191906000526020600020905b815481529060010190602001808311610d1657829003601f168201915b505050505090806005018054610d48906150a4565b80601f0160208091040260200160405190810160405280929190818152602001828054610d74906150a4565b8015610dc15780601f10610d9657610100808354040283529160200191610dc1565b820191906000526020600020905b815481529060010190602001808311610da457829003601f168201915b505050505090806006018054610dd6906150a4565b80601f0160208091040260200160405190810160405280929190818152602001828054610e02906150a4565b8015610e4f5780601f10610e2457610100808354040283529160200191610e4f565b820191906000526020600020905b815481529060010190602001808311610e3257829003601f168201915b5050505050908060070154908060080160009054906101000a900473ffffffffffffffffffffffffffffffffffffffff1690806009015490508a565b6000610e9683611865565b8210610ed7576040517f08c379a0000000000000000000000000000000000000000000000000000000008152600401610ece90614a94565b60405180910390fd5b600760008473ffffffffffffffffffffffffffffffffffffffff1673ffffffffffffffffffffffffffffffffffffffff168152602001908152602001600020600083815260200190815260200160002054905092915050565b610f4b838383604051806020016040528060008152506122d0565b505050565b3373ffffffffffffffffffffffffffffffffffffffff167f000000000000000000000000000000000000000000000000000000000000000073ffffffffffffffffffffffffffffffffffffffff1614610fde576040517f08c379a0000000000000000000000000000000000000000000000000000000008152600401610fd590614d74565b60405180910390fd5b6001601260008473ffffffffffffffffffffffffffffffffffffffff1673ffffffffffffffffffffffffffffffffffffffff16815260200190815260200160002060006101000a81548160ff02191690831515021790555081601182604051611047919061486c565b908152602001604051809103902060006101000a81548173ffffffffffffffffffffffffffffffffffffffff021916908373ffffffffffffffffffffffffffffffffffffffff1602179055505050565b601360205280600052604060002060009150905080546110b6906150a4565b80601f01602080910402602001604051908101604052809291908181526020018280546110e2906150a4565b801561112f5780601f106111045761010080835404028352916020019161112f565b820191906000526020600020905b81548152906001019060200180831161111257829003601f168201915b505050505081565b6000611141610b00565b8210611182576040517f08c379a000000000000000000000000000000000000000000000000000000000815260040161117990614d94565b60405180910390fd5b600982815481106111965761119561523d565b5b90600052602060002001549050919050565b7f000000000000000000000000000000000000000000000000000000000000000073ffffffffffffffffffffffffffffffffffffffff163373ffffffffffffffffffffffffffffffffffffffff1614611236576040517f08c379a000000000000000000000000000000000000000000000000000000000815260040161122d90614c14565b60405180910390fd5b7f000000000000000000000000000000000000000000000000000000000000000073ffffffffffffffffffffffffffffffffffffffff166108fc479081150290604051600060405180830381858888f1935050505015801561129c573d6000803e3d6000fd5b50565b6000806002600084815260200190815260200160002060009054906101000a900473ffffffffffffffffffffffffffffffffffffffff169050600073ffffffffffffffffffffffffffffffffffffffff168173ffffffffffffffffffffffffffffffffffffffff161415611348576040517f08c379a000000000000000000000000000000000000000000000000000000000815260040161133f90614bf4565b60405180910390fd5b80915050919050565b600e60003073ffffffffffffffffffffffffffffffffffffffff1673ffffffffffffffffffffffffffffffffffffffff16815260200190815260200160002060008281526020019081526020016000206003015434146113e6576040517f08c379a00000000000000000000000000000000000000000000000000000000081526004016113dd90614dd4565b60405180910390fd5b60006113f134612e39565b9050600e60003073ffffffffffffffffffffffffffffffffffffffff1673ffffffffffffffffffffffffffffffffffffffff168152602001908152602001600020600083815260200190815260200160002060080160009054906101000a900473ffffffffffffffffffffffffffffffffffffffff1673ffffffffffffffffffffffffffffffffffffffff166108fc823461148c9190614fba565b9081150290604051600060405180830381858888f193505050501580156114b7573d6000803e3d6000fd5b506114c3303384612bdd565b600e60003073ffffffffffffffffffffffffffffffffffffffff1673ffffffffffffffffffffffffffffffffffffffff1681526020019081526020016000206000838152602001908152602001600020600f60003373ffffffffffffffffffffffffffffffffffffffff1673ffffffffffffffffffffffffffffffffffffffff16815260200190815260200160002060008481526020019081526020016000206000820181600001908054611577906150a4565b611582929190613c61565b5060018201816001016000820154816000015550506002820160009054906101000a900473ffffffffffffffffffffffffffffffffffffffff168160020160006101000a81548173ffffffffffffffffffffffffffffffffffffffff021916908373ffffffffffffffffffffffffffffffffffffffff16021790555060038201548160030155600482018160040190805461161c906150a4565b611627929190613c61565b50600582018160050190805461163c906150a4565b611647929190613c61565b50600682018160060190805461165c906150a4565b611667929190613c61565b50600782015481600701556008820160009054906101000a900473ffffffffffffffffffffffffffffffffffffffff168160080160006101000a81548173ffffffffffffffffffffffffffffffffffffffff021916908373ffffffffffffffffffffffffffffffffffffffff16021790555060098201548160090155905050600e60003073ffffffffffffffffffffffffffffffffffffffff1673ffffffffffffffffffffffffffffffffffffffff1681526020019081526020016000206000838152602001908152602001600020600080820160006117479190613cee565b6001820160008082016000905550506002820160006101000a81549073ffffffffffffffffffffffffffffffffffffffff021916905560038201600090556004820160006117959190613cee565b6005820160006117a59190613cee565b6006820160006117b59190613cee565b60078201600090556008820160006101000a81549073ffffffffffffffffffffffffffffffffffffffff021916905560098201600090555050423073ffffffffffffffffffffffffffffffffffffffff1660405180602001604052808581525060405161182291906148a7565b60405180910390207f776c59c957da2aa48cdfd87638e72f44c4fcf031e5675cbe3d8d9bc311b460703360405161185991906148c2565b60405180910390a45050565b60008073ffffffffffffffffffffffffffffffffffffffff168273ffffffffffffffffffffffffffffffffffffffff1614156118d6576040517f08c379a00000000000000000000000000000000000000000000000000000000081526004016118cd90614bd4565b60405180910390fd5b600360008373ffffffffffffffffffffffffffffffffffffffff1673ffffffffffffffffffffffffffffffffffffffff168152602001908152602001600020549050919050565b611925612a3e565b73ffffffffffffffffffffffffffffffffffffffff16611943611f66565b73ffffffffffffffffffffffffffffffffffffffff1614611999576040517f08c379a000000000000000000000000000000000000000000000000000000000815260040161199090614cb4565b60405180910390fd5b6119a36000612eb7565b565b601260003373ffffffffffffffffffffffffffffffffffffffff1673ffffffffffffffffffffffffffffffffffffffff16815260200190815260200160002060009054906101000a900460ff16611a31576040517f08c379a0000000000000000000000000000000000000000000000000000000008152600401611a2890614b94565b60405180910390fd5b3373ffffffffffffffffffffffffffffffffffffffff16601184604051611a58919061486c565b908152602001604051809103902060009054906101000a900473ffffffffffffffffffffffffffffffffffffffff1673ffffffffffffffffffffffffffffffffffffffff161480611af457503373ffffffffffffffffffffffffffffffffffffffff167f000000000000000000000000000000000000000000000000000000000000000073ffffffffffffffffffffffffffffffffffffffff16145b611b33576040517f08c379a0000000000000000000000000000000000000000000000000000000008152600401611b2a90614d14565b60405180910390fd5b60005b81811015611e24576000604051806101400160405280898152602001600c60405180602001604052908160008201548152505081526020013073ffffffffffffffffffffffffffffffffffffffff1681526020018881526020018781526020018581526020018681526020014281526020013373ffffffffffffffffffffffffffffffffffffffff168152602001848152509050611bdd30611bd8600c612f7d565b612f8b565b80600e60003073ffffffffffffffffffffffffffffffffffffffff1673ffffffffffffffffffffffffffffffffffffffff1681526020019081526020016000206000611c29600c612f7d565b81526020019081526020016000206000820151816000019080519060200190611c53929190613d2e565b5060208201518160010160008201518160000155505060408201518160020160006101000a81548173ffffffffffffffffffffffffffffffffffffffff021916908373ffffffffffffffffffffffffffffffffffffffff160217905550606082015181600301556080820151816004019080519060200190611cd6929190613d2e565b5060a0820151816005019080519060200190611cf3929190613d2e565b5060c0820151816006019080519060200190611d10929190613d2e565b5060e082015181600701556101008201518160080160006101000a81548173ffffffffffffffffffffffffffffffffffffffff021916908373ffffffffffffffffffffffffffffffffffffffff1602179055506101208201518160090155905050611d7b600c613159565b8060e00151816040015173ffffffffffffffffffffffffffffffffffffffff168260200151604051611dad91906148a7565b60405180910390207f98dfe3b6dda058061eacd759e7507b691e22b96e4b69b3d762743c63a89b23198460000151856060015186608001518760a00151886101200151896101000151604051611e0896959493929190614a1e565b60405180910390a4508080611e1c90615107565b915050611b36565b50505050505050565b3373ffffffffffffffffffffffffffffffffffffffff16601183604051611e54919061486c565b908152602001604051809103902060009054906101000a900473ffffffffffffffffffffffffffffffffffffffff1673ffffffffffffffffffffffffffffffffffffffff161480611ef057503373ffffffffffffffffffffffffffffffffffffffff167f000000000000000000000000000000000000000000000000000000000000000073ffffffffffffffffffffffffffffffffffffffff16145b611f2f576040517f08c379a0000000000000000000000000000000000000000000000000000000008152600401611f2690614c34565b60405180910390fd5b80601083604051611f40919061486c565b90815260200160405180910390209080519060200190611f61929190613d2e565b505050565b6000600b60009054906101000a900473ffffffffffffffffffffffffffffffffffffffff16905090565b60126020528060005260406000206000915054906101000a900460ff1681565b606060018054611fbf906150a4565b80601f0160208091040260200160405190810160405280929190818152602001828054611feb906150a4565b80156120385780601f1061200d57610100808354040283529160200191612038565b820191906000526020600020905b81548152906001019060200180831161201b57829003601f168201915b5050505050905090565b61204a612a3e565b73ffffffffffffffffffffffffffffffffffffffff168273ffffffffffffffffffffffffffffffffffffffff1614156120b8576040517f08c379a00000000000000000000000000000000000000000000000000000000081526004016120af90614b54565b60405180910390fd5b80600560006120c5612a3e565b73ffffffffffffffffffffffffffffffffffffffff1673ffffffffffffffffffffffffffffffffffffffff16815260200190815260200160002060008473ffffffffffffffffffffffffffffffffffffffff1673ffffffffffffffffffffffffffffffffffffffff16815260200190815260200160002060006101000a81548160ff0219169083151502179055508173ffffffffffffffffffffffffffffffffffffffff16612172612a3e565b73ffffffffffffffffffffffffffffffffffffffff167f17307eab39ab6107e8899845ad3d59bd9653f200f220920489ca2b5937696c31836040516121b79190614929565b60405180910390a35050565b60003373ffffffffffffffffffffffffffffffffffffffff166011836040516121ec919061486c565b908152602001604051809103902060009054906101000a900473ffffffffffffffffffffffffffffffffffffffff1673ffffffffffffffffffffffffffffffffffffffff16148061228857503373ffffffffffffffffffffffffffffffffffffffff167f000000000000000000000000000000000000000000000000000000000000000073ffffffffffffffffffffffffffffffffffffffff16145b6122c7576040517f08c379a00000000000000000000000000000000000000000000000000000000081526004016122be90614db4565b60405180910390fd5b60019050919050565b6122e16122db612a3e565b83612aff565b612320576040517f08c379a000000000000000000000000000000000000000000000000000000000815260040161231790614d54565b60405180910390fd5b61232c8484848461316f565b50505050565b606061233d826131cb565b9050919050565b3373ffffffffffffffffffffffffffffffffffffffff167f000000000000000000000000000000000000000000000000000000000000000073ffffffffffffffffffffffffffffffffffffffff16146123d2576040517f08c379a00000000000000000000000000000000000000000000000000000000081526004016123c990614d74565b60405180910390fd5b6000601260008473ffffffffffffffffffffffffffffffffffffffff1673ffffffffffffffffffffffffffffffffffffffff16815260200190815260200160002060006101000a81548160ff02191690831515021790555060118160405161243a919061486c565b908152602001604051809103902060006101000a81549073ffffffffffffffffffffffffffffffffffffffff02191690555050565b6000600560008473ffffffffffffffffffffffffffffffffffffffff1673ffffffffffffffffffffffffffffffffffffffff16815260200190815260200160002060008373ffffffffffffffffffffffffffffffffffffffff1673ffffffffffffffffffffffffffffffffffffffff16815260200190815260200160002060009054906101000a900460ff16905092915050565b600f60205281600052604060002060205280600052604060002060009150915050806000018054612533906150a4565b80601f016020809104026020016040519081016040528092919081815260200182805461255f906150a4565b80156125ac5780601f10612581576101008083540402835291602001916125ac565b820191906000526020600020905b81548152906001019060200180831161258f57829003601f168201915b50505050509080600101604051806020016040529081600082015481525050908060020160009054906101000a900473ffffffffffffffffffffffffffffffffffffffff1690806003015490806004018054612607906150a4565b80601f0160208091040260200160405190810160405280929190818152602001828054612633906150a4565b80156126805780601f1061265557610100808354040283529160200191612680565b820191906000526020600020905b81548152906001019060200180831161266357829003601f168201915b505050505090806005018054612695906150a4565b80601f01602080910402602001604051908101604052809291908181526020018280546126c1906150a4565b801561270e5780601f106126e35761010080835404028352916020019161270e565b820191906000526020600020905b8154815290600101906020018083116126f157829003601f168201915b505050505090806006018054612723906150a4565b80601f016020809104026020016040519081016040528092919081815260200182805461274f906150a4565b801561279c5780601f106127715761010080835404028352916020019161279c565b820191906000526020600020905b81548152906001019060200180831161277f57829003601f168201915b5050505050908060070154908060080160009054906101000a900473ffffffffffffffffffffffffffffffffffffffff1690806009015490508a565b6000601260008373ffffffffffffffffffffffffffffffffffffffff1673ffffffffffffffffffffffffffffffffffffffff16815260200190815260200160002060009054906101000a900460ff169050919050565b612836612a3e565b73ffffffffffffffffffffffffffffffffffffffff16612854611f66565b73ffffffffffffffffffffffffffffffffffffffff16146128aa576040517f08c379a00000000000000000000000000000000000000000000000000000000081526004016128a190614cb4565b60405180910390fd5b600073ffffffffffffffffffffffffffffffffffffffff168173ffffffffffffffffffffffffffffffffffffffff16141561291a576040517f08c379a000000000000000000000000000000000000000000000000000000000815260040161291190614ad4565b60405180910390fd5b61292381612eb7565b50565b600047905090565b600d5481565b7f000000000000000000000000000000000000000000000000000000000000000081565b60007f780e9d63000000000000000000000000000000000000000000000000000000007bffffffffffffffffffffffffffffffffffffffffffffffffffffffff1916827bffffffffffffffffffffffffffffffffffffffffffffffffffffffff191614806129cb57506129ca8261331d565b5b9050919050565b60008073ffffffffffffffffffffffffffffffffffffffff166002600084815260200190815260200160002060009054906101000a900473ffffffffffffffffffffffffffffffffffffffff1673ffffffffffffffffffffffffffffffffffffffff1614159050919050565b600033905090565b816004600083815260200190815260200160002060006101000a81548173ffffffffffffffffffffffffffffffffffffffff021916908373ffffffffffffffffffffffffffffffffffffffff160217905550808273ffffffffffffffffffffffffffffffffffffffff16612ab98361129f565b73ffffffffffffffffffffffffffffffffffffffff167f8c5be1e5ebec7d5bd14f71427d1e84f3dd0314c0f7b2291e5b200ac8c7c3b92560405160405180910390a45050565b6000612b0a826129d2565b612b49576040517f08c379a0000000000000000000000000000000000000000000000000000000008152600401612b4090614b74565b60405180910390fd5b6000612b548361129f565b90508073ffffffffffffffffffffffffffffffffffffffff168473ffffffffffffffffffffffffffffffffffffffff161480612bc357508373ffffffffffffffffffffffffffffffffffffffff16612bab84610963565b73ffffffffffffffffffffffffffffffffffffffff16145b80612bd45750612bd3818561246f565b5b91505092915050565b8273ffffffffffffffffffffffffffffffffffffffff16612bfd8261129f565b73ffffffffffffffffffffffffffffffffffffffff1614612c53576040517f08c379a0000000000000000000000000000000000000000000000000000000008152600401612c4a90614cd4565b60405180910390fd5b600073ffffffffffffffffffffffffffffffffffffffff168273ffffffffffffffffffffffffffffffffffffffff161415612cc3576040517f08c379a0000000000000000000000000000000000000000000000000000000008152600401612cba90614b34565b60405180910390fd5b612cce8383836133ff565b612cd9600082612a46565b6001600360008573ffffffffffffffffffffffffffffffffffffffff1673ffffffffffffffffffffffffffffffffffffffff1681526020019081526020016000206000828254612d299190614fba565b925050819055506001600360008473ffffffffffffffffffffffffffffffffffffffff1673ffffffffffffffffffffffffffffffffffffffff1681526020019081526020016000206000828254612d809190614ed9565b92505081905550816002600083815260200190815260200160002060006101000a81548173ffffffffffffffffffffffffffffffffffffffff021916908373ffffffffffffffffffffffffffffffffffffffff160217905550808273ffffffffffffffffffffffffffffffffffffffff168473ffffffffffffffffffffffffffffffffffffffff167fddf252ad1be2c89b69c2b068fc378daa952ba7f163c4a11628f55a4df523b3ef60405160405180910390a4505050565b6000816127108084612e4b9190614f2f565b612e559190614f60565b14612e95576040517f08c379a0000000000000000000000000000000000000000000000000000000008152600401612e8c90614b14565b60405180910390fd5b612710600d5483612ea69190614f60565b612eb09190614f2f565b9050919050565b6000600b60009054906101000a900473ffffffffffffffffffffffffffffffffffffffff16905081600b60006101000a81548173ffffffffffffffffffffffffffffffffffffffff021916908373ffffffffffffffffffffffffffffffffffffffff1602179055508173ffffffffffffffffffffffffffffffffffffffff168173ffffffffffffffffffffffffffffffffffffffff167f8be0079c531659141344cd1fd0a4f28419497f9722a3daafe3b4186f6b6457e060405160405180910390a35050565b600081600001549050919050565b600073ffffffffffffffffffffffffffffffffffffffff168273ffffffffffffffffffffffffffffffffffffffff161415612ffb576040517f08c379a0000000000000000000000000000000000000000000000000000000008152600401612ff290614c54565b60405180910390fd5b613004816129d2565b15613044576040517f08c379a000000000000000000000000000000000000000000000000000000000815260040161303b90614af4565b60405180910390fd5b613050600083836133ff565b6001600360008473ffffffffffffffffffffffffffffffffffffffff1673ffffffffffffffffffffffffffffffffffffffff16815260200190815260200160002060008282546130a09190614ed9565b92505081905550816002600083815260200190815260200160002060006101000a81548173ffffffffffffffffffffffffffffffffffffffff021916908373ffffffffffffffffffffffffffffffffffffffff160217905550808273ffffffffffffffffffffffffffffffffffffffff16600073ffffffffffffffffffffffffffffffffffffffff167fddf252ad1be2c89b69c2b068fc378daa952ba7f163c4a11628f55a4df523b3ef60405160405180910390a45050565b6001816000016000828254019250508190555050565b61317a848484612bdd565b6131868484848461340f565b6131c5576040517f08c379a00000000000000000000000000000000000000000000000000000000081526004016131bc90614ab4565b60405180910390fd5b50505050565b60606131d6826129d2565b613215576040517f08c379a000000000000000000000000000000000000000000000000000000000815260040161320c90614c74565b60405180910390fd5b6000600660008481526020019081526020016000208054613235906150a4565b80601f0160208091040260200160405190810160405280929190818152602001828054613261906150a4565b80156132ae5780601f10613283576101008083540402835291602001916132ae565b820191906000526020600020905b81548152906001019060200180831161329157829003601f168201915b5050505050905060006132bf6135a6565b90506000815114156132d5578192505050613318565b60008251111561330a5780826040516020016132f2929190614883565b60405160208183030381529060405292505050613318565b613313846135bd565b925050505b919050565b60007f80ac58cd000000000000000000000000000000000000000000000000000000007bffffffffffffffffffffffffffffffffffffffffffffffffffffffff1916827bffffffffffffffffffffffffffffffffffffffffffffffffffffffff191614806133e857507f5b5e139f000000000000000000000000000000000000000000000000000000007bffffffffffffffffffffffffffffffffffffffffffffffffffffffff1916827bffffffffffffffffffffffffffffffffffffffffffffffffffffffff1916145b806133f857506133f782613664565b5b9050919050565b61340a8383836136ce565b505050565b60006134308473ffffffffffffffffffffffffffffffffffffffff166137e2565b15613599578373ffffffffffffffffffffffffffffffffffffffff1663150b7a02613459612a3e565b8786866040518563ffffffff1660e01b815260040161347b94939291906148dd565b602060405180830381600087803b15801561349557600080fd5b505af19250505080156134c657506040513d601f19601f820116820180604052508101906134c39190614166565b60015b613549573d80600081146134f6576040519150601f19603f3d011682016040523d82523d6000602084013e6134fb565b606091505b50600081511415613541576040517f08c379a000000000000000000000000000000000000000000000000000000000815260040161353890614ab4565b60405180910390fd5b805181602001fd5b63150b7a0260e01b7bffffffffffffffffffffffffffffffffffffffffffffffffffffffff1916817bffffffffffffffffffffffffffffffffffffffffffffffffffffffff19161491505061359e565b600190505b949350505050565b606060405180602001604052806000815250905090565b60606135c8826129d2565b613607576040517f08c379a00000000000000000000000000000000000000000000000000000000081526004016135fe90614cf4565b60405180910390fd5b60006136116135a6565b90506000815111613631576040518060200160405280600081525061365c565b8061363b846137f5565b60405160200161364c929190614883565b6040516020818303038152906040525b915050919050565b60007f01ffc9a7000000000000000000000000000000000000000000000000000000007bffffffffffffffffffffffffffffffffffffffffffffffffffffffff1916827bffffffffffffffffffffffffffffffffffffffffffffffffffffffff1916149050919050565b6136d9838383613956565b600073ffffffffffffffffffffffffffffffffffffffff168373ffffffffffffffffffffffffffffffffffffffff16141561371c576137178161395b565b61375b565b8173ffffffffffffffffffffffffffffffffffffffff168373ffffffffffffffffffffffffffffffffffffffff161461375a5761375983826139a4565b5b5b600073ffffffffffffffffffffffffffffffffffffffff168273ffffffffffffffffffffffffffffffffffffffff16141561379e5761379981613b11565b6137dd565b8273ffffffffffffffffffffffffffffffffffffffff168273ffffffffffffffffffffffffffffffffffffffff16146137dc576137db8282613be2565b5b5b505050565b600080823b905060008111915050919050565b6060600082141561383d576040518060400160405280600181526020017f30000000000000000000000000000000000000000000000000000000000000008152509050613951565b600082905060005b6000821461386f57808061385890615107565b915050600a826138689190614f2f565b9150613845565b60008167ffffffffffffffff81111561388b5761388a61526c565b5b6040519080825280601f01601f1916602001820160405280156138bd5781602001600182028036833780820191505090505b5090505b6000851461394a576001826138d69190614fba565b9150600a856138e59190615150565b60306138f19190614ed9565b60f81b8183815181106139075761390661523d565b5b60200101907effffffffffffffffffffffffffffffffffffffffffffffffffffffffffffff1916908160001a905350600a856139439190614f2f565b94506138c1565b8093505050505b919050565b505050565b600980549050600a600083815260200190815260200160002081905550600981908060018154018082558091505060019003906000526020600020016000909190919091505550565b600060016139b184611865565b6139bb9190614fba565b9050600060086000848152602001908152602001600020549050818114613aa0576000600760008673ffffffffffffffffffffffffffffffffffffffff1673ffffffffffffffffffffffffffffffffffffffff168152602001908152602001600020600084815260200190815260200160002054905080600760008773ffffffffffffffffffffffffffffffffffffffff1673ffffffffffffffffffffffffffffffffffffffff168152602001908152602001600020600084815260200190815260200160002081905550816008600083815260200190815260200160002081905550505b6008600084815260200190815260200160002060009055600760008573ffffffffffffffffffffffffffffffffffffffff1673ffffffffffffffffffffffffffffffffffffffff16815260200190815260200160002060008381526020019081526020016000206000905550505050565b60006001600980549050613b259190614fba565b90506000600a6000848152602001908152602001600020549050600060098381548110613b5557613b5461523d565b5b906000526020600020015490508060098381548110613b7757613b7661523d565b5b906000526020600020018190555081600a600083815260200190815260200160002081905550600a6000858152602001908152602001600020600090556009805480613bc657613bc561520e565b5b6001900381819060005260206000200160009055905550505050565b6000613bed83611865565b905081600760008573ffffffffffffffffffffffffffffffffffffffff1673ffffffffffffffffffffffffffffffffffffffff168152602001908152602001600020600083815260200190815260200160002081905550806008600084815260200190815260200160002081905550505050565b828054613c6d906150a4565b90600052602060002090601f016020900481019282613c8f5760008555613cdd565b82601f10613ca05780548555613cdd565b82800160010185558215613cdd57600052602060002091601f016020900482015b82811115613cdc578254825591600101919060010190613cc1565b5b509050613cea9190613db4565b5090565b508054613cfa906150a4565b6000825580601f10613d0c5750613d2b565b601f016020900490600052602060002090810190613d2a9190613db4565b5b50565b828054613d3a906150a4565b90600052602060002090601f016020900481019282613d5c5760008555613da3565b82601f10613d7557805160ff1916838001178555613da3565b82800160010185558215613da3579182015b82811115613da2578251825591602001919060010190613d87565b5b509050613db09190613db4565b5090565b5b80821115613dcd576000816000905550600101613db5565b5090565b6000613de4613ddf84614e34565b614e0f565b905082815260208101848484011115613e0057613dff6152a0565b5b613e0b848285615062565b509392505050565b6000613e26613e2184614e65565b614e0f565b905082815260208101848484011115613e4257613e416152a0565b5b613e4d848285615062565b509392505050565b600081359050613e64816159bf565b92915050565b600081359050613e79816159d6565b92915050565b600081359050613e8e816159ed565b92915050565b600081519050613ea3816159ed565b92915050565b600082601f830112613ebe57613ebd61529b565b5b8135613ece848260208601613dd1565b91505092915050565b600082601f830112613eec57613eeb61529b565b5b8135613efc848260208601613e13565b91505092915050565b600081359050613f1481615a04565b92915050565b600060208284031215613f3057613f2f6152aa565b5b6000613f3e84828501613e55565b91505092915050565b60008060408385031215613f5e57613f5d6152aa565b5b6000613f6c85828601613e55565b9250506020613f7d85828601613e55565b9150509250929050565b600080600060608486031215613fa057613f9f6152aa565b5b6000613fae86828701613e55565b9350506020613fbf86828701613e55565b9250506040613fd086828701613f05565b9150509250925092565b60008060008060808587031215613ff457613ff36152aa565b5b600061400287828801613e55565b945050602061401387828801613e55565b935050604061402487828801613f05565b925050606085013567ffffffffffffffff811115614045576140446152a5565b5b61405187828801613ea9565b91505092959194509250565b60008060408385031215614074576140736152aa565b5b600061408285828601613e55565b925050602061409385828601613e6a565b9150509250929050565b600080604083850312156140b4576140b36152aa565b5b60006140c285828601613e55565b925050602083013567ffffffffffffffff8111156140e3576140e26152a5565b5b6140ef85828601613ed7565b9150509250929050565b600080604083850312156141105761410f6152aa565b5b600061411e85828601613e55565b925050602061412f85828601613f05565b9150509250929050565b60006020828403121561414f5761414e6152aa565b5b600061415d84828501613e7f565b91505092915050565b60006020828403121561417c5761417b6152aa565b5b600061418a84828501613e94565b91505092915050565b6000602082840312156141a9576141a86152aa565b5b600082013567ffffffffffffffff8111156141c7576141c66152a5565b5b6141d384828501613ed7565b91505092915050565b600080604083850312156141f3576141f26152aa565b5b600083013567ffffffffffffffff811115614211576142106152a5565b5b61421d85828601613ed7565b925050602083013567ffffffffffffffff81111561423e5761423d6152a5565b5b61424a85828601613ed7565b9150509250929050565b60008060008060008060c08789031215614271576142706152aa565b5b600087013567ffffffffffffffff81111561428f5761428e6152a5565b5b61429b89828a01613ed7565b96505060206142ac89828a01613f05565b955050604087013567ffffffffffffffff8111156142cd576142cc6152a5565b5b6142d989828a01613ed7565b945050606087013567ffffffffffffffff8111156142fa576142f96152a5565b5b61430689828a01613ed7565b935050608087013567ffffffffffffffff811115614327576143266152a5565b5b61433389828a01613ed7565b92505060a061434489828a01613f05565b9150509295509295509295565b600060208284031215614367576143666152aa565b5b600061437584828501613f05565b91505092915050565b600061438a838361485d565b60208301905092915050565b61439f81614fee565b82525050565b6143ae81615000565b82525050565b60006143bf82614e96565b6143c98185614eac565b93506143d9818560208601615071565b6143e2816152af565b840191505092915050565b60006143f882614ea1565b6144028185614ebd565b9350614412818560208601615071565b61441b816152af565b840191505092915050565b600061443182614ea1565b61443b8185614ece565b935061444b818560208601615071565b80840191505092915050565b6000614464602b83614ebd565b915061446f826152c0565b604082019050919050565b6000614487603283614ebd565b91506144928261530f565b604082019050919050565b60006144aa602683614ebd565b91506144b58261535e565b604082019050919050565b60006144cd601c83614ebd565b91506144d8826153ad565b602082019050919050565b60006144f0600983614ebd565b91506144fb826153d6565b602082019050919050565b6000614513602483614ebd565b915061451e826153ff565b604082019050919050565b6000614536601983614ebd565b91506145418261544e565b602082019050919050565b6000614559602c83614ebd565b915061456482615477565b604082019050919050565b600061457c601583614ebd565b9150614587826154c6565b602082019050919050565b600061459f603883614ebd565b91506145aa826154ef565b604082019050919050565b60006145c2602a83614ebd565b91506145cd8261553e565b604082019050919050565b60006145e5602983614ebd565b91506145f08261558d565b604082019050919050565b6000614608601383614ebd565b9150614613826155dc565b602082019050919050565b600061462b602383614ebd565b915061463682615605565b604082019050919050565b600061464e602083614ebd565b915061465982615654565b602082019050919050565b6000614671603183614ebd565b915061467c8261567d565b604082019050919050565b6000614694602c83614ebd565b915061469f826156cc565b604082019050919050565b60006146b7602083614ebd565b91506146c28261571b565b602082019050919050565b60006146da602983614ebd565b91506146e582615744565b604082019050919050565b60006146fd602f83614ebd565b915061470882615793565b604082019050919050565b6000614720602083614ebd565b915061472b826157e2565b602082019050919050565b6000614743602183614ebd565b915061474e8261580b565b604082019050919050565b6000614766603183614ebd565b91506147718261585a565b604082019050919050565b6000614789601183614ebd565b9150614794826158a9565b602082019050919050565b60006147ac602c83614ebd565b91506147b7826158d2565b604082019050919050565b60006147cf602a83614ebd565b91506147da82615921565b604082019050919050565b60006147f2603783614ebd565b91506147fd82615970565b604082019050919050565b60208201600082015161481e600085018261483f565b50505050565b600082016000820151614837848261437e565b935050505050565b61484881615058565b82525050565b61485781615058565b82525050565b61486681615058565b82525050565b60006148788284614426565b915081905092915050565b600061488f8285614426565b915061489b8284614426565b91508190509392505050565b60006148b38284614824565b60208201915081905092915050565b60006020820190506148d76000830184614396565b92915050565b60006080820190506148f26000830187614396565b6148ff6020830186614396565b61490c604083018561484e565b818103606083015261491e81846143b4565b905095945050505050565b600060208201905061493e60008301846143a5565b92915050565b6000602082019050818103600083015261495e81846143ed565b905092915050565b6000610140820190508181036000830152614981818d6143ed565b9050614990602083018c614808565b61499d604083018b614396565b6149aa606083018a61484e565b81810360808301526149bc81896143ed565b905081810360a08301526149d081886143ed565b905081810360c08301526149e481876143ed565b90506149f360e083018661484e565b614a01610100830185614396565b614a0f61012083018461484e565b9b9a5050505050505050505050565b600060c0820190508181036000830152614a3881896143ed565b9050614a47602083018861484e565b8181036040830152614a5981876143ed565b90508181036060830152614a6d81866143ed565b9050614a7c608083018561484e565b614a8960a0830184614396565b979650505050505050565b60006020820190508181036000830152614aad81614457565b9050919050565b60006020820190508181036000830152614acd8161447a565b9050919050565b60006020820190508181036000830152614aed8161449d565b9050919050565b60006020820190508181036000830152614b0d816144c0565b9050919050565b60006020820190508181036000830152614b2d816144e3565b9050919050565b60006020820190508181036000830152614b4d81614506565b9050919050565b60006020820190508181036000830152614b6d81614529565b9050919050565b60006020820190508181036000830152614b8d8161454c565b9050919050565b60006020820190508181036000830152614bad8161456f565b9050919050565b60006020820190508181036000830152614bcd81614592565b9050919050565b60006020820190508181036000830152614bed816145b5565b9050919050565b60006020820190508181036000830152614c0d816145d8565b9050919050565b60006020820190508181036000830152614c2d816145fb565b9050919050565b60006020820190508181036000830152614c4d8161461e565b9050919050565b60006020820190508181036000830152614c6d81614641565b9050919050565b60006020820190508181036000830152614c8d81614664565b9050919050565b60006020820190508181036000830152614cad81614687565b9050919050565b60006020820190508181036000830152614ccd816146aa565b9050919050565b60006020820190508181036000830152614ced816146cd565b9050919050565b60006020820190508181036000830152614d0d816146f0565b9050919050565b60006020820190508181036000830152614d2d81614713565b9050919050565b60006020820190508181036000830152614d4d81614736565b9050919050565b60006020820190508181036000830152614d6d81614759565b9050919050565b60006020820190508181036000830152614d8d8161477c565b9050919050565b60006020820190508181036000830152614dad8161479f565b9050919050565b60006020820190508181036000830152614dcd816147c2565b9050919050565b60006020820190508181036000830152614ded816147e5565b9050919050565b6000602082019050614e09600083018461484e565b92915050565b6000614e19614e2a565b9050614e2582826150d6565b919050565b6000604051905090565b600067ffffffffffffffff821115614e4f57614e4e61526c565b5b614e58826152af565b9050602081019050919050565b600067ffffffffffffffff821115614e8057614e7f61526c565b5b614e89826152af565b9050602081019050919050565b600081519050919050565b600081519050919050565b600082825260208201905092915050565b600082825260208201905092915050565b600081905092915050565b6000614ee482615058565b9150614eef83615058565b9250827fffffffffffffffffffffffffffffffffffffffffffffffffffffffffffffffff03821115614f2457614f23615181565b5b828201905092915050565b6000614f3a82615058565b9150614f4583615058565b925082614f5557614f546151b0565b5b828204905092915050565b6000614f6b82615058565b9150614f7683615058565b9250817fffffffffffffffffffffffffffffffffffffffffffffffffffffffffffffffff0483118215151615614faf57614fae615181565b5b828202905092915050565b6000614fc582615058565b9150614fd083615058565b925082821015614fe357614fe2615181565b5b828203905092915050565b6000614ff982615038565b9050919050565b60008115159050919050565b60007fffffffff0000000000000000000000000000000000000000000000000000000082169050919050565b600073ffffffffffffffffffffffffffffffffffffffff82169050919050565b6000819050919050565b82818337600083830152505050565b60005b8381101561508f578082015181840152602081019050615074565b8381111561509e576000848401525b50505050565b600060028204905060018216806150bc57607f821691505b602082108114156150d0576150cf6151df565b5b50919050565b6150df826152af565b810181811067ffffffffffffffff821117156150fe576150fd61526c565b5b80604052505050565b600061511282615058565b91507fffffffffffffffffffffffffffffffffffffffffffffffffffffffffffffffff82141561514557615144615181565b5b600182019050919050565b600061515b82615058565b915061516683615058565b925082615176576151756151b0565b5b828206905092915050565b7f4e487b7100000000000000000000000000000000000000000000000000000000600052601160045260246000fd5b7f4e487b7100000000000000000000000000000000000000000000000000000000600052601260045260246000fd5b7f4e487b7100000000000000000000000000000000000000000000000000000000600052602260045260246000fd5b7f4e487b7100000000000000000000000000000000000000000000000000000000600052603160045260246000fd5b7f4e487b7100000000000000000000000000000000000000000000000000000000600052603260045260246000fd5b7f4e487b7100000000000000000000000000000000000000000000000000000000600052604160045260246000fd5b600080fd5b600080fd5b600080fd5b600080fd5b6000601f19601f8301169050919050565b7f455243373231456e756d657261626c653a206f776e657220696e646578206f7560008201527f74206f6620626f756e6473000000000000000000000000000000000000000000602082015250565b7f4552433732313a207472616e7366657220746f206e6f6e20455243373231526560008201527f63656976657220696d706c656d656e7465720000000000000000000000000000602082015250565b7f4f776e61626c653a206e6577206f776e657220697320746865207a65726f206160008201527f6464726573730000000000000000000000000000000000000000000000000000602082015250565b7f4552433732313a20746f6b656e20616c7265616479206d696e74656400000000600082015250565b7f746f6f20736d616c6c0000000000000000000000000000000000000000000000600082015250565b7f4552433732313a207472616e7366657220746f20746865207a65726f2061646460008201527f7265737300000000000000000000000000000000000000000000000000000000602082015250565b7f4552433732313a20617070726f766520746f2063616c6c657200000000000000600082015250565b7f4552433732313a206f70657261746f7220717565727920666f72206e6f6e657860008201527f697374656e7420746f6b656e0000000000000000000000000000000000000000602082015250565b7f594f5520415245204e4f5420412043524541544f520000000000000000000000600082015250565b7f4552433732313a20617070726f76652063616c6c6572206973206e6f74206f7760008201527f6e6572206e6f7220617070726f76656420666f7220616c6c0000000000000000602082015250565b7f4552433732313a2062616c616e636520717565727920666f7220746865207a6560008201527f726f206164647265737300000000000000000000000000000000000000000000602082015250565b7f4552433732313a206f776e657220717565727920666f72206e6f6e657869737460008201527f656e7420746f6b656e0000000000000000000000000000000000000000000000602082015250565b7f594f5520415245204e4f5420414c4c4f57454400000000000000000000000000600082015250565b7f594f555220415245204e4f5420412043524541544f52204f462054484953204360008201527f4c55420000000000000000000000000000000000000000000000000000000000602082015250565b7f4552433732313a206d696e7420746f20746865207a65726f2061646472657373600082015250565b7f45524337323155524953746f726167653a2055524920717565727920666f722060008201527f6e6f6e6578697374656e7420746f6b656e000000000000000000000000000000602082015250565b7f4552433732313a20617070726f76656420717565727920666f72206e6f6e657860008201527f697374656e7420746f6b656e0000000000000000000000000000000000000000602082015250565b7f4f776e61626c653a2063616c6c6572206973206e6f7420746865206f776e6572600082015250565b7f4552433732313a207472616e73666572206f6620746f6b656e2074686174206960008201527f73206e6f74206f776e0000000000000000000000000000000000000000000000602082015250565b7f4552433732314d657461646174613a2055524920717565727920666f72206e6f60008201527f6e6578697374656e7420746f6b656e0000000000000000000000000000000000602082015250565b7f594f5520415245204e4f542043524541544f52204f46205448495320434c5542600082015250565b7f4552433732313a20617070726f76616c20746f2063757272656e74206f776e6560008201527f7200000000000000000000000000000000000000000000000000000000000000602082015250565b7f4552433732313a207472616e736665722063616c6c6572206973206e6f74206f60008201527f776e6572206e6f7220617070726f766564000000000000000000000000000000602082015250565b7f594f5520415245204e4f542041444d494e000000000000000000000000000000600082015250565b7f455243373231456e756d657261626c653a20676c6f62616c20696e646578206f60008201527f7574206f6620626f756e64730000000000000000000000000000000000000000602082015250565b7f594f5520415245204e4f542043524541544f52204f46205448495320434c554260008201527f204e4f522041444d494e00000000000000000000000000000000000000000000602082015250565b7f4e4f542054484520524947485420414d4f554e54204f46204554482c2049542060008201527f43414e204e4f54204245204d4f5245204f52204c455353000000000000000000602082015250565b6159c881614fee565b81146159d357600080fd5b50565b6159df81615000565b81146159ea57600080fd5b50565b6159f68161500c565b8114615a0157600080fd5b50565b615a0d81615058565b8114615a1857600080fd5b5056fea2646970667358221220225f4e6acf960a0935132060087aa4ac1571d1d042d7f5fcac371cc2fc00b5b964736f6c63430008070033",
  "immutableReferences": {
    "2230": [
      {
        "length": 32,
        "start": 3945
      },
      {
        "length": 32,
        "start": 4522
      },
      {
        "length": 32,
        "start": 4664
      },
      {
        "length": 32,
        "start": 6845
      },
      {
        "length": 32,
        "start": 7865
      },
      {
        "length": 32,
        "start": 8785
      },
      {
        "length": 32,
        "start": 9053
      },
      {
        "length": 32,
        "start": 10550
      }
    ]
  },
  "source": "// SPDX-License-Identifier: MIT\npragma solidity ^0.8.7;\n\nimport \"@openzeppelin/contracts/token/ERC721/extensions/ERC721URIStorage.sol\";\nimport \"@openzeppelin/contracts/token/ERC721/extensions/ERC721Enumerable.sol\";\nimport \"@openzeppelin/contracts/utils/Counters.sol\";\nimport \"@openzeppelin/contracts/access/Ownable.sol\";\n\ncontract Cards is ERC721URIStorage, ERC721Enumerable, Ownable {\n    using Counters for Counters.Counter;\n    Counters.Counter private nextItemId;\n\n    address public immutable admin;\n    // uint256 public nextItemId;\n    uint256 public CONTRACT_FEE = 9500; //5% fee, the rest goes to the creator, 95% == 9500\n    // uint256 public CREATORS_FEE = 2000; // 20% fee\n    //185 basis points = 1.85 pct\n\n    mapping(address => mapping(uint256 => Card)) public marketCards;\n    mapping(address => mapping(uint256 => Card)) public myCards;\n    /*for now just add one creator per club, but when I want to increase more creators\n    for each club I just need to add mapping(string=>mapping(uint=>address)) \n    */\n\n    //MIGRATE CONTRACT FIRST BEFORE ANYTHING, OF COURSE\n    // first get the clubToCreator address of what team i want, then loop through marketCards\n    // filtering just the cards `createdBy` that address and return it to the user\n    mapping(string => string) private urlClubBadge;\n    mapping(string => address) public clubToCreator;\n    mapping(address => bool) public creators;\n\n    //waiting for admin approval\n    // uint256 numPendingCreators = 0;\n    mapping(address => string) public pendingCreator;\n\n    // adding card creators, just admin allowed to add\n    function addCreator(address _addr, string memory _club) external {\n        require(admin == msg.sender, \"YOU ARE NOT ADMIN\");\n        creators[_addr] = true;\n        clubToCreator[_club] = _addr;\n    }\n\n    constructor() ERC721(\"Cards Futebol\", \"FUT\") {\n        admin = msg.sender;\n        creators[msg.sender] = true;\n    }\n\n    //type the club's the same you are authorized to post for\n    function setClubBadge(string memory _club, string memory _newClubBadge)\n        external\n    {\n        require(\n            clubToCreator[_club] == msg.sender || admin == msg.sender,\n            \"YOUR ARE NOT A CREATOR OF THIS CLUB\"\n        );\n        urlClubBadge[_club] = _newClubBadge;\n    }\n\n    function mintCards(\n        string memory _title,\n        uint256 _price,\n        string memory _description,\n        string memory _club,\n        string memory _urlPicture,\n        uint256 _totalAmount\n    ) external {\n        require(creators[msg.sender], \"YOU ARE NOT A CREATOR\");\n        require(\n            clubToCreator[_club] == msg.sender || admin == msg.sender,\n            \"YOU ARE NOT CREATOR OF THIS CLUB\"\n        );\n\n        for (uint256 i = 0; i < _totalAmount; i++) {\n            Card memory card = Card({\n                title: _title,\n                id: nextItemId,\n                owner: address(this),\n                price: _price,\n                description: _description,\n                urlPicture: _urlPicture,\n                club: _club,\n                timestamp: block.timestamp,\n                createdBy: msg.sender,\n                totalAmount: _totalAmount\n            });\n\n            _mint(address(this), nextItemId.current());\n            marketCards[address(this)][nextItemId.current()] = card;\n            nextItemId.increment();\n\n            // _setTokenURI(nextItemId, _tokenURI);\n            // _setTokenURI(nextItemId.current(), _urlPicture); //ipfs or pinata address\n\n            emit cardMinted(\n                card.id,\n                card.owner,\n                card.timestamp,\n                card.title,\n                card.price,\n                card.description,\n                card.urlPicture,\n                card.totalAmount,\n                card.createdBy\n            );\n        }\n\n        // tokenOfOwnerByIndex(owner, index);\n        // tokenByIndex(index);\n    }\n\n    // function mint(string memory tokenURI) public onlyOwner returns (uint256) {\n    // _tokenIds.increment();\n\n    // uint256 newItemId = _tokenIds.current();\n    // _mint(owner(), newItemId);\n    // _setTokenURI(newItemId, tokenURI);\n\n    //     return newItemId;\n    // }\n\n    //owner of the contract retrieving all of its fee's\n    function retrieveFunds() external {\n        require(msg.sender == admin, \"YOU ARE NOT ALLOWED\");\n        payable(admin).transfer(address(this).balance);\n    }\n\n    // removing card creators, just admin allowed to remove\n    function removeCreator(address _addr, string memory _club) external {\n        require(admin == msg.sender, \"YOU ARE NOT ADMIN\");\n        creators[_addr] = false;\n        delete clubToCreator[_club];\n    }\n\n    function totalFundsCollected() external view returns (uint256) {\n        return address(this).balance;\n    }\n\n    event cardMinted(\n        Counters.Counter indexed id,\n        address indexed owner,\n        uint256 indexed timestamp,\n        string title,\n        uint256 price,\n        string description,\n        string urlPicture,\n        uint256 totalAmount,\n        address createdBy\n    );\n\n    event cardTransfered(\n        Counters.Counter indexed id,\n        address indexed from,\n        address to,\n        uint256 indexed timestamp\n    );\n\n    struct Card {\n        string title;\n        Counters.Counter id;\n        address owner;\n        uint256 price;\n        string description;\n        string urlPicture;\n        string club;\n        uint256 timestamp;\n        address createdBy;\n        uint256 totalAmount;\n    }\n\n    function isCreator(address _addr) external view returns (bool) {\n        return creators[_addr];\n    }\n\n    function isClubCreator(string memory _club) external view returns (bool) {\n        require(\n            clubToCreator[_club] == msg.sender || admin == msg.sender,\n            \"YOU ARE NOT CREATOR OF THIS CLUB NOR ADMIN\"\n        );\n\n        return true;\n    }\n\n    function buyCardFromMarket(uint256 tokenId) external payable {\n        require(\n            msg.value == marketCards[address(this)][tokenId].price,\n            \"NOT THE RIGHT AMOUNT OF ETH, IT CAN NOT BE MORE OR LESS\"\n        );\n\n        uint256 _fee_contract = calculateFeeAdmin(msg.value); //msg.value - FEE\n        payable(marketCards[address(this)][tokenId].createdBy).transfer(\n            msg.value - _fee_contract\n        );\n\n        _transfer(address(this), msg.sender, tokenId);\n        myCards[msg.sender][tokenId] = marketCards[address(this)][tokenId];\n        delete marketCards[address(this)][tokenId];\n\n        emit cardTransfered(\n            Counters.Counter(tokenId),\n            address(this),\n            msg.sender,\n            block.timestamp\n        );\n    }\n\n    //PUT MINT FN HERE\n    //100 basis points = 1.00 pct\n    function calculateFeeAdmin(uint256 amount) private view returns (uint256) {\n        require((amount / 10000) * 10000 == amount, \"too small\");\n        return (amount * CONTRACT_FEE) / 10000;\n    }\n\n    //overriding files\n    function _beforeTokenTransfer(\n        address from,\n        address to,\n        uint256 tokenId\n    ) internal override(ERC721, ERC721Enumerable) {\n        super._beforeTokenTransfer(from, to, tokenId);\n    }\n\n    function _burn(uint256 tokenId)\n        internal\n        override(ERC721, ERC721URIStorage)\n    {\n        super._burn(tokenId);\n    }\n\n    function tokenURI(uint256 tokenId)\n        public\n        view\n        override(ERC721, ERC721URIStorage)\n        returns (string memory)\n    {\n        return super.tokenURI(tokenId);\n    }\n\n    function supportsInterface(bytes4 interfaceId)\n        public\n        view\n        override(ERC721, ERC721Enumerable)\n        returns (bool)\n    {\n        return super.supportsInterface(interfaceId);\n    }\n\n    function _baseURI() internal pure override returns (string memory) {\n        // return \"https://foo.com/token/\";\n        return \"\";\n    }\n\n    // function calculateFeeCreator(uint256 amount)\n    //     private\n    //     view\n    //     returns (uint256)\n    // {\n    //     require((amount / 10000) * 10000 == amount, \"too small\");\n    //     return (amount * CREATORS_FEE) / 10000;\n    // }\n\n    // function _baseURI() internal view virtual override returns (string memory) {\n    //     return \"\";\n    // }\n}\n",
  "sourcePath": "/Volumes/APPLE HDD/reactprojects/cards-nft/contracts/Cards.sol",
  "compiler": {
    "name": "solc",
    "version": "0.8.7+commit.e28d00a7.Emscripten.clang"
  },
  "schemaVersion": "3.4.3",
  "updatedAt": "2021-12-13T01:51:37.847Z",
  "networkType": "ethereum",
  "devdoc": {
    "kind": "dev",
    "methods": {
      "approve(address,uint256)": {
        "details": "See {IERC721-approve}."
      },
      "balanceOf(address)": {
        "details": "See {IERC721-balanceOf}."
      },
      "getApproved(uint256)": {
        "details": "See {IERC721-getApproved}."
      },
      "isApprovedForAll(address,address)": {
        "details": "See {IERC721-isApprovedForAll}."
      },
      "name()": {
        "details": "See {IERC721Metadata-name}."
      },
      "owner()": {
        "details": "Returns the address of the current owner."
      },
      "ownerOf(uint256)": {
        "details": "See {IERC721-ownerOf}."
      },
      "renounceOwnership()": {
        "details": "Leaves the contract without owner. It will not be possible to call `onlyOwner` functions anymore. Can only be called by the current owner. NOTE: Renouncing ownership will leave the contract without an owner, thereby removing any functionality that is only available to the owner."
      },
      "safeTransferFrom(address,address,uint256)": {
        "details": "See {IERC721-safeTransferFrom}."
      },
      "safeTransferFrom(address,address,uint256,bytes)": {
        "details": "See {IERC721-safeTransferFrom}."
      },
      "setApprovalForAll(address,bool)": {
        "details": "See {IERC721-setApprovalForAll}."
      },
      "symbol()": {
        "details": "See {IERC721Metadata-symbol}."
      },
      "tokenByIndex(uint256)": {
        "details": "See {IERC721Enumerable-tokenByIndex}."
      },
      "tokenOfOwnerByIndex(address,uint256)": {
        "details": "See {IERC721Enumerable-tokenOfOwnerByIndex}."
      },
      "totalSupply()": {
        "details": "See {IERC721Enumerable-totalSupply}."
      },
      "transferFrom(address,address,uint256)": {
        "details": "See {IERC721-transferFrom}."
      },
      "transferOwnership(address)": {
        "details": "Transfers ownership of the contract to a new account (`newOwner`). Can only be called by the current owner."
      }
    },
    "version": 1
  },
  "userdoc": {
    "kind": "user",
    "methods": {},
    "version": 1
  }
}