{
  "contractName": "Cards",
  "abi": [
    {
      "inputs": [],
      "stateMutability": "nonpayable",
      "type": "constructor"
    },
    {
      "anonymous": false,
      "inputs": [
        {
          "indexed": true,
          "internalType": "address",
          "name": "owner",
          "type": "address"
        },
        {
          "indexed": true,
          "internalType": "address",
          "name": "approved",
          "type": "address"
        },
        {
          "indexed": true,
          "internalType": "uint256",
          "name": "tokenId",
          "type": "uint256"
        }
      ],
      "name": "Approval",
      "type": "event"
    },
    {
      "anonymous": false,
      "inputs": [
        {
          "indexed": true,
          "internalType": "address",
          "name": "owner",
          "type": "address"
        },
        {
          "indexed": true,
          "internalType": "address",
          "name": "operator",
          "type": "address"
        },
        {
          "indexed": false,
          "internalType": "bool",
          "name": "approved",
          "type": "bool"
        }
      ],
      "name": "ApprovalForAll",
      "type": "event"
    },
    {
      "anonymous": false,
      "inputs": [
        {
          "indexed": true,
          "internalType": "address",
          "name": "from",
          "type": "address"
        },
        {
          "indexed": true,
          "internalType": "address",
          "name": "to",
          "type": "address"
        },
        {
          "indexed": true,
          "internalType": "uint256",
          "name": "tokenId",
          "type": "uint256"
        }
      ],
      "name": "Transfer",
      "type": "event"
    },
    {
      "inputs": [],
      "name": "admin",
      "outputs": [
        {
          "internalType": "address",
          "name": "",
          "type": "address"
        }
      ],
      "stateMutability": "view",
      "type": "function",
      "constant": true
    },
    {
      "inputs": [
        {
          "internalType": "address",
          "name": "to",
          "type": "address"
        },
        {
          "internalType": "uint256",
          "name": "tokenId",
          "type": "uint256"
        }
      ],
      "name": "approve",
      "outputs": [],
      "stateMutability": "nonpayable",
      "type": "function"
    },
    {
      "inputs": [
        {
          "internalType": "address",
          "name": "owner",
          "type": "address"
        }
      ],
      "name": "balanceOf",
      "outputs": [
        {
          "internalType": "uint256",
          "name": "",
          "type": "uint256"
        }
      ],
      "stateMutability": "view",
      "type": "function",
      "constant": true
    },
    {
      "inputs": [
        {
          "internalType": "uint256",
          "name": "tokenId",
          "type": "uint256"
        }
      ],
      "name": "getApproved",
      "outputs": [
        {
          "internalType": "address",
          "name": "",
          "type": "address"
        }
      ],
      "stateMutability": "view",
      "type": "function",
      "constant": true
    },
    {
      "inputs": [
        {
          "internalType": "address",
          "name": "owner",
          "type": "address"
        },
        {
          "internalType": "address",
          "name": "operator",
          "type": "address"
        }
      ],
      "name": "isApprovedForAll",
      "outputs": [
        {
          "internalType": "bool",
          "name": "",
          "type": "bool"
        }
      ],
      "stateMutability": "view",
      "type": "function",
      "constant": true
    },
    {
      "inputs": [
        {
          "internalType": "address",
          "name": "",
          "type": "address"
        },
        {
          "internalType": "uint256",
          "name": "",
          "type": "uint256"
        }
      ],
      "name": "marketCards",
      "outputs": [
        {
          "internalType": "uint256",
          "name": "id",
          "type": "uint256"
        },
        {
          "internalType": "address",
          "name": "owner",
          "type": "address"
        },
        {
          "internalType": "uint256",
          "name": "price",
          "type": "uint256"
        },
        {
          "internalType": "string",
          "name": "description",
          "type": "string"
        },
        {
          "internalType": "string",
          "name": "urlPicture",
          "type": "string"
        },
        {
          "internalType": "uint256",
          "name": "timestamp",
          "type": "uint256"
        }
      ],
      "stateMutability": "view",
      "type": "function",
      "constant": true
    },
    {
      "inputs": [
        {
          "internalType": "address",
          "name": "",
          "type": "address"
        },
        {
          "internalType": "uint256",
          "name": "",
          "type": "uint256"
        }
      ],
      "name": "myCards",
      "outputs": [
        {
          "internalType": "uint256",
          "name": "id",
          "type": "uint256"
        },
        {
          "internalType": "address",
          "name": "owner",
          "type": "address"
        },
        {
          "internalType": "uint256",
          "name": "price",
          "type": "uint256"
        },
        {
          "internalType": "string",
          "name": "description",
          "type": "string"
        },
        {
          "internalType": "string",
          "name": "urlPicture",
          "type": "string"
        },
        {
          "internalType": "uint256",
          "name": "timestamp",
          "type": "uint256"
        }
      ],
      "stateMutability": "view",
      "type": "function",
      "constant": true
    },
    {
      "inputs": [],
      "name": "name",
      "outputs": [
        {
          "internalType": "string",
          "name": "",
          "type": "string"
        }
      ],
      "stateMutability": "view",
      "type": "function",
      "constant": true
    },
    {
      "inputs": [],
      "name": "nextItemId",
      "outputs": [
        {
          "internalType": "uint256",
          "name": "",
          "type": "uint256"
        }
      ],
      "stateMutability": "view",
      "type": "function",
      "constant": true
    },
    {
      "inputs": [
        {
          "internalType": "uint256",
          "name": "tokenId",
          "type": "uint256"
        }
      ],
      "name": "ownerOf",
      "outputs": [
        {
          "internalType": "address",
          "name": "",
          "type": "address"
        }
      ],
      "stateMutability": "view",
      "type": "function",
      "constant": true
    },
    {
      "inputs": [
        {
          "internalType": "address",
          "name": "from",
          "type": "address"
        },
        {
          "internalType": "address",
          "name": "to",
          "type": "address"
        },
        {
          "internalType": "uint256",
          "name": "tokenId",
          "type": "uint256"
        }
      ],
      "name": "safeTransferFrom",
      "outputs": [],
      "stateMutability": "nonpayable",
      "type": "function"
    },
    {
      "inputs": [
        {
          "internalType": "address",
          "name": "from",
          "type": "address"
        },
        {
          "internalType": "address",
          "name": "to",
          "type": "address"
        },
        {
          "internalType": "uint256",
          "name": "tokenId",
          "type": "uint256"
        },
        {
          "internalType": "bytes",
          "name": "_data",
          "type": "bytes"
        }
      ],
      "name": "safeTransferFrom",
      "outputs": [],
      "stateMutability": "nonpayable",
      "type": "function"
    },
    {
      "inputs": [
        {
          "internalType": "address",
          "name": "operator",
          "type": "address"
        },
        {
          "internalType": "bool",
          "name": "approved",
          "type": "bool"
        }
      ],
      "name": "setApprovalForAll",
      "outputs": [],
      "stateMutability": "nonpayable",
      "type": "function"
    },
    {
      "inputs": [
        {
          "internalType": "bytes4",
          "name": "interfaceId",
          "type": "bytes4"
        }
      ],
      "name": "supportsInterface",
      "outputs": [
        {
          "internalType": "bool",
          "name": "",
          "type": "bool"
        }
      ],
      "stateMutability": "view",
      "type": "function",
      "constant": true
    },
    {
      "inputs": [],
      "name": "symbol",
      "outputs": [
        {
          "internalType": "string",
          "name": "",
          "type": "string"
        }
      ],
      "stateMutability": "view",
      "type": "function",
      "constant": true
    },
    {
      "inputs": [
        {
          "internalType": "uint256",
          "name": "index",
          "type": "uint256"
        }
      ],
      "name": "tokenByIndex",
      "outputs": [
        {
          "internalType": "uint256",
          "name": "",
          "type": "uint256"
        }
      ],
      "stateMutability": "view",
      "type": "function",
      "constant": true
    },
    {
      "inputs": [
        {
          "internalType": "address",
          "name": "owner",
          "type": "address"
        },
        {
          "internalType": "uint256",
          "name": "index",
          "type": "uint256"
        }
      ],
      "name": "tokenOfOwnerByIndex",
      "outputs": [
        {
          "internalType": "uint256",
          "name": "",
          "type": "uint256"
        }
      ],
      "stateMutability": "view",
      "type": "function",
      "constant": true
    },
    {
      "inputs": [
        {
          "internalType": "uint256",
          "name": "tokenId",
          "type": "uint256"
        }
      ],
      "name": "tokenURI",
      "outputs": [
        {
          "internalType": "string",
          "name": "",
          "type": "string"
        }
      ],
      "stateMutability": "view",
      "type": "function",
      "constant": true
    },
    {
      "inputs": [],
      "name": "totalSupply",
      "outputs": [
        {
          "internalType": "uint256",
          "name": "",
          "type": "uint256"
        }
      ],
      "stateMutability": "view",
      "type": "function",
      "constant": true
    },
    {
      "inputs": [
        {
          "internalType": "address",
          "name": "from",
          "type": "address"
        },
        {
          "internalType": "address",
          "name": "to",
          "type": "address"
        },
        {
          "internalType": "uint256",
          "name": "tokenId",
          "type": "uint256"
        }
      ],
      "name": "transferFrom",
      "outputs": [],
      "stateMutability": "nonpayable",
      "type": "function"
    },
    {
      "inputs": [
        {
          "internalType": "uint256",
          "name": "_price",
          "type": "uint256"
        },
        {
          "internalType": "string",
          "name": "_description",
          "type": "string"
        },
        {
          "internalType": "string",
          "name": "_urlPicture",
          "type": "string"
        }
      ],
      "name": "mintCards",
      "outputs": [],
      "stateMutability": "nonpayable",
      "type": "function"
    }
  ],
  "bytecode": "0x60806040523480156200001157600080fd5b506040518060400160405280600d81526020017f43617264732046757465626f6c000000000000000000000000000000000000008152506040518060400160405280600381526020017f4655540000000000000000000000000000000000000000000000000000000000815250816000908051906020019062000096929190620000f9565b508060019080519060200190620000af929190620000f9565b50505033600a60006101000a81548173ffffffffffffffffffffffffffffffffffffffff021916908373ffffffffffffffffffffffffffffffffffffffff1602179055506200020e565b8280546200010790620001a9565b90600052602060002090601f0160209004810192826200012b576000855562000177565b82601f106200014657805160ff191683800117855562000177565b8280016001018555821562000177579182015b828111156200017657825182559160200191906001019062000159565b5b5090506200018691906200018a565b5090565b5b80821115620001a55760008160009055506001016200018b565b5090565b60006002820490506001821680620001c257607f821691505b60208210811415620001d957620001d8620001df565b5b50919050565b7f4e487b7100000000000000000000000000000000000000000000000000000000600052602260045260246000fd5b61352f806200021e6000396000f3fe608060405234801561001057600080fd5b50600436106101375760003560e01c80634f6ccce7116100b8578063a22cb4651161007c578063a22cb46514610379578063b88d4fde14610395578063c87b56dd146103b1578063e985e9c5146103e1578063e9cb5dd614610411578063f851a4401461044657610137565b80634f6ccce7146102ad5780636352211e146102dd5780636a8689741461030d57806370a082311461032b57806395d89b411461035b57610137565b806318160ddd116100ff57806318160ddd146101f257806323b872dd146102105780632518d7e01461022c5780632f745c591461026157806342842e0e1461029157610137565b806301ffc9a71461013c57806302d6db3a1461016c57806306fdde0314610188578063081812fc146101a6578063095ea7b3146101d6575b600080fd5b610156600480360381019061015191906125d5565b610464565b6040516101639190612e18565b60405180910390f35b61018660048036038101906101819190612650565b6104de565b005b610190610646565b60405161019d9190612e33565b60405180910390f35b6101c060048036038101906101bb9190612627565b6106d8565b6040516101cd9190612db1565b60405180910390f35b6101f060048036038101906101eb9190612599565b61075d565b005b6101fa610875565b6040516102079190613055565b60405180910390f35b61022a60048036038101906102259190612493565b610882565b005b61024660048036038101906102419190612599565b6108e2565b60405161025896959493929190613070565b60405180910390f35b61027b60048036038101906102769190612599565b610a5b565b6040516102889190613055565b60405180910390f35b6102ab60048036038101906102a69190612493565b610b00565b005b6102c760048036038101906102c29190612627565b610b20565b6040516102d49190613055565b60405180910390f35b6102f760048036038101906102f29190612627565b610bb7565b6040516103049190612db1565b60405180910390f35b610315610c69565b6040516103229190613055565b60405180910390f35b6103456004803603810190610340919061242e565b610c6f565b6040516103529190613055565b60405180910390f35b610363610d27565b6040516103709190612e33565b60405180910390f35b610393600480360381019061038e919061255d565b610db9565b005b6103af60048036038101906103aa91906124e2565b610f3a565b005b6103cb60048036038101906103c69190612627565b610f9c565b6040516103d89190612e33565b60405180910390f35b6103fb60048036038101906103f69190612457565b611043565b6040516104089190612e18565b60405180910390f35b61042b60048036038101906104269190612599565b6110d7565b60405161043d96959493929190613070565b60405180910390f35b61044e611250565b60405161045b9190612db1565b60405180910390f35b60007f780e9d63000000000000000000000000000000000000000000000000000000007bffffffffffffffffffffffffffffffffffffffffffffffffffffffff1916827bffffffffffffffffffffffffffffffffffffffffffffffffffffffff191614806104d757506104d682611276565b5b9050919050565b60006040518060c00160405280600b5481526020013073ffffffffffffffffffffffffffffffffffffffff16815260200185815260200184815260200183815260200142815250905061053330600b54611358565b80600c60003073ffffffffffffffffffffffffffffffffffffffff1673ffffffffffffffffffffffffffffffffffffffff1681526020019081526020016000206000600b5481526020019081526020016000206000820151816000015560208201518160010160006101000a81548173ffffffffffffffffffffffffffffffffffffffff021916908373ffffffffffffffffffffffffffffffffffffffff1602179055506040820151816002015560608201518160030190805190602001906105fd929190612252565b50608082015181600401908051906020019061061a929190612252565b5060a08201518160050155905050600b600081548092919061063b90613356565b919050555050505050565b60606000805461065590613324565b80601f016020809104026020016040519081016040528092919081815260200182805461068190613324565b80156106ce5780601f106106a3576101008083540402835291602001916106ce565b820191906000526020600020905b8154815290600101906020018083116106b157829003601f168201915b5050505050905090565b60006106e382611526565b610722576040517f08c379a000000000000000000000000000000000000000000000000000000000815260040161071990612f95565b60405180910390fd5b6004600083815260200190815260200160002060009054906101000a900473ffffffffffffffffffffffffffffffffffffffff169050919050565b600061076882610bb7565b90508073ffffffffffffffffffffffffffffffffffffffff168373ffffffffffffffffffffffffffffffffffffffff1614156107d9576040517f08c379a00000000000000000000000000000000000000000000000000000000081526004016107d090612ff5565b60405180910390fd5b8073ffffffffffffffffffffffffffffffffffffffff166107f8611592565b73ffffffffffffffffffffffffffffffffffffffff161480610827575061082681610821611592565b611043565b5b610866576040517f08c379a000000000000000000000000000000000000000000000000000000000815260040161085d90612f15565b60405180910390fd5b610870838361159a565b505050565b6000600880549050905090565b61089361088d611592565b82611653565b6108d2576040517f08c379a00000000000000000000000000000000000000000000000000000000081526004016108c990613015565b60405180910390fd5b6108dd838383611731565b505050565b600c602052816000526040600020602052806000526040600020600091509150508060000154908060010160009054906101000a900473ffffffffffffffffffffffffffffffffffffffff169080600201549080600301805461094490613324565b80601f016020809104026020016040519081016040528092919081815260200182805461097090613324565b80156109bd5780601f10610992576101008083540402835291602001916109bd565b820191906000526020600020905b8154815290600101906020018083116109a057829003601f168201915b5050505050908060040180546109d290613324565b80601f01602080910402602001604051908101604052809291908181526020018280546109fe90613324565b8015610a4b5780601f10610a2057610100808354040283529160200191610a4b565b820191906000526020600020905b815481529060010190602001808311610a2e57829003601f168201915b5050505050908060050154905086565b6000610a6683610c6f565b8210610aa7576040517f08c379a0000000000000000000000000000000000000000000000000000000008152600401610a9e90612e55565b60405180910390fd5b600660008473ffffffffffffffffffffffffffffffffffffffff1673ffffffffffffffffffffffffffffffffffffffff168152602001908152602001600020600083815260200190815260200160002054905092915050565b610b1b83838360405180602001604052806000815250610f3a565b505050565b6000610b2a610875565b8210610b6b576040517f08c379a0000000000000000000000000000000000000000000000000000000008152600401610b6290613035565b60405180910390fd5b60088281548110610ba5577f4e487b7100000000000000000000000000000000000000000000000000000000600052603260045260246000fd5b90600052602060002001549050919050565b6000806002600084815260200190815260200160002060009054906101000a900473ffffffffffffffffffffffffffffffffffffffff169050600073ffffffffffffffffffffffffffffffffffffffff168173ffffffffffffffffffffffffffffffffffffffff161415610c60576040517f08c379a0000000000000000000000000000000000000000000000000000000008152600401610c5790612f55565b60405180910390fd5b80915050919050565b600b5481565b60008073ffffffffffffffffffffffffffffffffffffffff168273ffffffffffffffffffffffffffffffffffffffff161415610ce0576040517f08c379a0000000000000000000000000000000000000000000000000000000008152600401610cd790612f35565b60405180910390fd5b600360008373ffffffffffffffffffffffffffffffffffffffff1673ffffffffffffffffffffffffffffffffffffffff168152602001908152602001600020549050919050565b606060018054610d3690613324565b80601f0160208091040260200160405190810160405280929190818152602001828054610d6290613324565b8015610daf5780601f10610d8457610100808354040283529160200191610daf565b820191906000526020600020905b815481529060010190602001808311610d9257829003601f168201915b5050505050905090565b610dc1611592565b73ffffffffffffffffffffffffffffffffffffffff168273ffffffffffffffffffffffffffffffffffffffff161415610e2f576040517f08c379a0000000000000000000000000000000000000000000000000000000008152600401610e2690612ed5565b60405180910390fd5b8060056000610e3c611592565b73ffffffffffffffffffffffffffffffffffffffff1673ffffffffffffffffffffffffffffffffffffffff16815260200190815260200160002060008473ffffffffffffffffffffffffffffffffffffffff1673ffffffffffffffffffffffffffffffffffffffff16815260200190815260200160002060006101000a81548160ff0219169083151502179055508173ffffffffffffffffffffffffffffffffffffffff16610ee9611592565b73ffffffffffffffffffffffffffffffffffffffff167f17307eab39ab6107e8899845ad3d59bd9653f200f220920489ca2b5937696c3183604051610f2e9190612e18565b60405180910390a35050565b610f4b610f45611592565b83611653565b610f8a576040517f08c379a0000000000000000000000000000000000000000000000000000000008152600401610f8190613015565b60405180910390fd5b610f968484848461198d565b50505050565b6060610fa782611526565b610fe6576040517f08c379a0000000000000000000000000000000000000000000000000000000008152600401610fdd90612fd5565b60405180910390fd5b6000610ff06119e9565b90506000815111611010576040518060200160405280600081525061103b565b8061101a84611a00565b60405160200161102b929190612d8d565b6040516020818303038152906040525b915050919050565b6000600560008473ffffffffffffffffffffffffffffffffffffffff1673ffffffffffffffffffffffffffffffffffffffff16815260200190815260200160002060008373ffffffffffffffffffffffffffffffffffffffff1673ffffffffffffffffffffffffffffffffffffffff16815260200190815260200160002060009054906101000a900460ff16905092915050565b600d602052816000526040600020602052806000526040600020600091509150508060000154908060010160009054906101000a900473ffffffffffffffffffffffffffffffffffffffff169080600201549080600301805461113990613324565b80601f016020809104026020016040519081016040528092919081815260200182805461116590613324565b80156111b25780601f10611187576101008083540402835291602001916111b2565b820191906000526020600020905b81548152906001019060200180831161119557829003601f168201915b5050505050908060040180546111c790613324565b80601f01602080910402602001604051908101604052809291908181526020018280546111f390613324565b80156112405780601f1061121557610100808354040283529160200191611240565b820191906000526020600020905b81548152906001019060200180831161122357829003601f168201915b5050505050908060050154905086565b600a60009054906101000a900473ffffffffffffffffffffffffffffffffffffffff1681565b60007f80ac58cd000000000000000000000000000000000000000000000000000000007bffffffffffffffffffffffffffffffffffffffffffffffffffffffff1916827bffffffffffffffffffffffffffffffffffffffffffffffffffffffff1916148061134157507f5b5e139f000000000000000000000000000000000000000000000000000000007bffffffffffffffffffffffffffffffffffffffffffffffffffffffff1916827bffffffffffffffffffffffffffffffffffffffffffffffffffffffff1916145b80611351575061135082611bad565b5b9050919050565b600073ffffffffffffffffffffffffffffffffffffffff168273ffffffffffffffffffffffffffffffffffffffff1614156113c8576040517f08c379a00000000000000000000000000000000000000000000000000000000081526004016113bf90612f75565b60405180910390fd5b6113d181611526565b15611411576040517f08c379a000000000000000000000000000000000000000000000000000000000815260040161140890612e95565b60405180910390fd5b61141d60008383611c17565b6001600360008473ffffffffffffffffffffffffffffffffffffffff1673ffffffffffffffffffffffffffffffffffffffff168152602001908152602001600020600082825461146d91906131b3565b92505081905550816002600083815260200190815260200160002060006101000a81548173ffffffffffffffffffffffffffffffffffffffff021916908373ffffffffffffffffffffffffffffffffffffffff160217905550808273ffffffffffffffffffffffffffffffffffffffff16600073ffffffffffffffffffffffffffffffffffffffff167fddf252ad1be2c89b69c2b068fc378daa952ba7f163c4a11628f55a4df523b3ef60405160405180910390a45050565b60008073ffffffffffffffffffffffffffffffffffffffff166002600084815260200190815260200160002060009054906101000a900473ffffffffffffffffffffffffffffffffffffffff1673ffffffffffffffffffffffffffffffffffffffff1614159050919050565b600033905090565b816004600083815260200190815260200160002060006101000a81548173ffffffffffffffffffffffffffffffffffffffff021916908373ffffffffffffffffffffffffffffffffffffffff160217905550808273ffffffffffffffffffffffffffffffffffffffff1661160d83610bb7565b73ffffffffffffffffffffffffffffffffffffffff167f8c5be1e5ebec7d5bd14f71427d1e84f3dd0314c0f7b2291e5b200ac8c7c3b92560405160405180910390a45050565b600061165e82611526565b61169d576040517f08c379a000000000000000000000000000000000000000000000000000000000815260040161169490612ef5565b60405180910390fd5b60006116a883610bb7565b90508073ffffffffffffffffffffffffffffffffffffffff168473ffffffffffffffffffffffffffffffffffffffff16148061171757508373ffffffffffffffffffffffffffffffffffffffff166116ff846106d8565b73ffffffffffffffffffffffffffffffffffffffff16145b8061172857506117278185611043565b5b91505092915050565b8273ffffffffffffffffffffffffffffffffffffffff1661175182610bb7565b73ffffffffffffffffffffffffffffffffffffffff16146117a7576040517f08c379a000000000000000000000000000000000000000000000000000000000815260040161179e90612fb5565b60405180910390fd5b600073ffffffffffffffffffffffffffffffffffffffff168273ffffffffffffffffffffffffffffffffffffffff161415611817576040517f08c379a000000000000000000000000000000000000000000000000000000000815260040161180e90612eb5565b60405180910390fd5b611822838383611c17565b61182d60008261159a565b6001600360008573ffffffffffffffffffffffffffffffffffffffff1673ffffffffffffffffffffffffffffffffffffffff168152602001908152602001600020600082825461187d919061323a565b925050819055506001600360008473ffffffffffffffffffffffffffffffffffffffff1673ffffffffffffffffffffffffffffffffffffffff16815260200190815260200160002060008282546118d491906131b3565b92505081905550816002600083815260200190815260200160002060006101000a81548173ffffffffffffffffffffffffffffffffffffffff021916908373ffffffffffffffffffffffffffffffffffffffff160217905550808273ffffffffffffffffffffffffffffffffffffffff168473ffffffffffffffffffffffffffffffffffffffff167fddf252ad1be2c89b69c2b068fc378daa952ba7f163c4a11628f55a4df523b3ef60405160405180910390a4505050565b611998848484611731565b6119a484848484611d2b565b6119e3576040517f08c379a00000000000000000000000000000000000000000000000000000000081526004016119da90612e75565b60405180910390fd5b50505050565b606060405180602001604052806000815250905090565b60606000821415611a48576040518060400160405280600181526020017f30000000000000000000000000000000000000000000000000000000000000008152509050611ba8565b600082905060005b60008214611a7a578080611a6390613356565b915050600a82611a739190613209565b9150611a50565b60008167ffffffffffffffff811115611abc577f4e487b7100000000000000000000000000000000000000000000000000000000600052604160045260246000fd5b6040519080825280601f01601f191660200182016040528015611aee5781602001600182028036833780820191505090505b5090505b60008514611ba157600182611b07919061323a565b9150600a85611b16919061339f565b6030611b2291906131b3565b60f81b818381518110611b5e577f4e487b7100000000000000000000000000000000000000000000000000000000600052603260045260246000fd5b60200101907effffffffffffffffffffffffffffffffffffffffffffffffffffffffffffff1916908160001a905350600a85611b9a9190613209565b9450611af2565b8093505050505b919050565b60007f01ffc9a7000000000000000000000000000000000000000000000000000000007bffffffffffffffffffffffffffffffffffffffffffffffffffffffff1916827bffffffffffffffffffffffffffffffffffffffffffffffffffffffff1916149050919050565b611c22838383611ec2565b600073ffffffffffffffffffffffffffffffffffffffff168373ffffffffffffffffffffffffffffffffffffffff161415611c6557611c6081611ec7565b611ca4565b8173ffffffffffffffffffffffffffffffffffffffff168373ffffffffffffffffffffffffffffffffffffffff1614611ca357611ca28382611f10565b5b5b600073ffffffffffffffffffffffffffffffffffffffff168273ffffffffffffffffffffffffffffffffffffffff161415611ce757611ce28161207d565b611d26565b8273ffffffffffffffffffffffffffffffffffffffff168273ffffffffffffffffffffffffffffffffffffffff1614611d2557611d2482826121c0565b5b5b505050565b6000611d4c8473ffffffffffffffffffffffffffffffffffffffff1661223f565b15611eb5578373ffffffffffffffffffffffffffffffffffffffff1663150b7a02611d75611592565b8786866040518563ffffffff1660e01b8152600401611d979493929190612dcc565b602060405180830381600087803b158015611db157600080fd5b505af1925050508015611de257506040513d601f19601f82011682018060405250810190611ddf91906125fe565b60015b611e65573d8060008114611e12576040519150601f19603f3d011682016040523d82523d6000602084013e611e17565b606091505b50600081511415611e5d576040517f08c379a0000000000000000000000000000000000000000000000000000000008152600401611e5490612e75565b60405180910390fd5b805181602001fd5b63150b7a0260e01b7bffffffffffffffffffffffffffffffffffffffffffffffffffffffff1916817bffffffffffffffffffffffffffffffffffffffffffffffffffffffff191614915050611eba565b600190505b949350505050565b505050565b6008805490506009600083815260200190815260200160002081905550600881908060018154018082558091505060019003906000526020600020016000909190919091505550565b60006001611f1d84610c6f565b611f27919061323a565b905060006007600084815260200190815260200160002054905081811461200c576000600660008673ffffffffffffffffffffffffffffffffffffffff1673ffffffffffffffffffffffffffffffffffffffff168152602001908152602001600020600084815260200190815260200160002054905080600660008773ffffffffffffffffffffffffffffffffffffffff1673ffffffffffffffffffffffffffffffffffffffff168152602001908152602001600020600084815260200190815260200160002081905550816007600083815260200190815260200160002081905550505b6007600084815260200190815260200160002060009055600660008573ffffffffffffffffffffffffffffffffffffffff1673ffffffffffffffffffffffffffffffffffffffff16815260200190815260200160002060008381526020019081526020016000206000905550505050565b60006001600880549050612091919061323a565b90506000600960008481526020019081526020016000205490506000600883815481106120e7577f4e487b7100000000000000000000000000000000000000000000000000000000600052603260045260246000fd5b90600052602060002001549050806008838154811061212f577f4e487b7100000000000000000000000000000000000000000000000000000000600052603260045260246000fd5b9060005260206000200181905550816009600083815260200190815260200160002081905550600960008581526020019081526020016000206000905560088054806121a4577f4e487b7100000000000000000000000000000000000000000000000000000000600052603160045260246000fd5b6001900381819060005260206000200160009055905550505050565b60006121cb83610c6f565b905081600660008573ffffffffffffffffffffffffffffffffffffffff1673ffffffffffffffffffffffffffffffffffffffff168152602001908152602001600020600083815260200190815260200160002081905550806007600084815260200190815260200160002081905550505050565b600080823b905060008111915050919050565b82805461225e90613324565b90600052602060002090601f01602090048101928261228057600085556122c7565b82601f1061229957805160ff19168380011785556122c7565b828001600101855582156122c7579182015b828111156122c65782518255916020019190600101906122ab565b5b5090506122d491906122d8565b5090565b5b808211156122f15760008160009055506001016122d9565b5090565b600061230861230384613110565b6130df565b90508281526020810184848401111561232057600080fd5b61232b8482856132e2565b509392505050565b600061234661234184613140565b6130df565b90508281526020810184848401111561235e57600080fd5b6123698482856132e2565b509392505050565b6000813590506123808161349d565b92915050565b600081359050612395816134b4565b92915050565b6000813590506123aa816134cb565b92915050565b6000815190506123bf816134cb565b92915050565b600082601f8301126123d657600080fd5b81356123e68482602086016122f5565b91505092915050565b600082601f83011261240057600080fd5b8135612410848260208601612333565b91505092915050565b600081359050612428816134e2565b92915050565b60006020828403121561244057600080fd5b600061244e84828501612371565b91505092915050565b6000806040838503121561246a57600080fd5b600061247885828601612371565b925050602061248985828601612371565b9150509250929050565b6000806000606084860312156124a857600080fd5b60006124b686828701612371565b93505060206124c786828701612371565b92505060406124d886828701612419565b9150509250925092565b600080600080608085870312156124f857600080fd5b600061250687828801612371565b945050602061251787828801612371565b935050604061252887828801612419565b925050606085013567ffffffffffffffff81111561254557600080fd5b612551878288016123c5565b91505092959194509250565b6000806040838503121561257057600080fd5b600061257e85828601612371565b925050602061258f85828601612386565b9150509250929050565b600080604083850312156125ac57600080fd5b60006125ba85828601612371565b92505060206125cb85828601612419565b9150509250929050565b6000602082840312156125e757600080fd5b60006125f58482850161239b565b91505092915050565b60006020828403121561261057600080fd5b600061261e848285016123b0565b91505092915050565b60006020828403121561263957600080fd5b600061264784828501612419565b91505092915050565b60008060006060848603121561266557600080fd5b600061267386828701612419565b935050602084013567ffffffffffffffff81111561269057600080fd5b61269c868287016123ef565b925050604084013567ffffffffffffffff8111156126b957600080fd5b6126c5868287016123ef565b9150509250925092565b6126d88161326e565b82525050565b6126e781613280565b82525050565b60006126f882613170565b6127028185613186565b93506127128185602086016132f1565b61271b8161348c565b840191505092915050565b60006127318261317b565b61273b8185613197565b935061274b8185602086016132f1565b6127548161348c565b840191505092915050565b600061276a8261317b565b61277481856131a8565b93506127848185602086016132f1565b80840191505092915050565b600061279d602b83613197565b91507f455243373231456e756d657261626c653a206f776e657220696e646578206f7560008301527f74206f6620626f756e64730000000000000000000000000000000000000000006020830152604082019050919050565b6000612803603283613197565b91507f4552433732313a207472616e7366657220746f206e6f6e20455243373231526560008301527f63656976657220696d706c656d656e74657200000000000000000000000000006020830152604082019050919050565b6000612869601c83613197565b91507f4552433732313a20746f6b656e20616c7265616479206d696e746564000000006000830152602082019050919050565b60006128a9602483613197565b91507f4552433732313a207472616e7366657220746f20746865207a65726f2061646460008301527f72657373000000000000000000000000000000000000000000000000000000006020830152604082019050919050565b600061290f601983613197565b91507f4552433732313a20617070726f766520746f2063616c6c6572000000000000006000830152602082019050919050565b600061294f602c83613197565b91507f4552433732313a206f70657261746f7220717565727920666f72206e6f6e657860008301527f697374656e7420746f6b656e00000000000000000000000000000000000000006020830152604082019050919050565b60006129b5603883613197565b91507f4552433732313a20617070726f76652063616c6c6572206973206e6f74206f7760008301527f6e6572206e6f7220617070726f76656420666f7220616c6c00000000000000006020830152604082019050919050565b6000612a1b602a83613197565b91507f4552433732313a2062616c616e636520717565727920666f7220746865207a6560008301527f726f2061646472657373000000000000000000000000000000000000000000006020830152604082019050919050565b6000612a81602983613197565b91507f4552433732313a206f776e657220717565727920666f72206e6f6e657869737460008301527f656e7420746f6b656e00000000000000000000000000000000000000000000006020830152604082019050919050565b6000612ae7602083613197565b91507f4552433732313a206d696e7420746f20746865207a65726f20616464726573736000830152602082019050919050565b6000612b27602c83613197565b91507f4552433732313a20617070726f76656420717565727920666f72206e6f6e657860008301527f697374656e7420746f6b656e00000000000000000000000000000000000000006020830152604082019050919050565b6000612b8d602983613197565b91507f4552433732313a207472616e73666572206f6620746f6b656e2074686174206960008301527f73206e6f74206f776e00000000000000000000000000000000000000000000006020830152604082019050919050565b6000612bf3602f83613197565b91507f4552433732314d657461646174613a2055524920717565727920666f72206e6f60008301527f6e6578697374656e7420746f6b656e00000000000000000000000000000000006020830152604082019050919050565b6000612c59602183613197565b91507f4552433732313a20617070726f76616c20746f2063757272656e74206f776e6560008301527f72000000000000000000000000000000000000000000000000000000000000006020830152604082019050919050565b6000612cbf603183613197565b91507f4552433732313a207472616e736665722063616c6c6572206973206e6f74206f60008301527f776e6572206e6f7220617070726f7665640000000000000000000000000000006020830152604082019050919050565b6000612d25602c83613197565b91507f455243373231456e756d657261626c653a20676c6f62616c20696e646578206f60008301527f7574206f6620626f756e647300000000000000000000000000000000000000006020830152604082019050919050565b612d87816132d8565b82525050565b6000612d99828561275f565b9150612da5828461275f565b91508190509392505050565b6000602082019050612dc660008301846126cf565b92915050565b6000608082019050612de160008301876126cf565b612dee60208301866126cf565b612dfb6040830185612d7e565b8181036060830152612e0d81846126ed565b905095945050505050565b6000602082019050612e2d60008301846126de565b92915050565b60006020820190508181036000830152612e4d8184612726565b905092915050565b60006020820190508181036000830152612e6e81612790565b9050919050565b60006020820190508181036000830152612e8e816127f6565b9050919050565b60006020820190508181036000830152612eae8161285c565b9050919050565b60006020820190508181036000830152612ece8161289c565b9050919050565b60006020820190508181036000830152612eee81612902565b9050919050565b60006020820190508181036000830152612f0e81612942565b9050919050565b60006020820190508181036000830152612f2e816129a8565b9050919050565b60006020820190508181036000830152612f4e81612a0e565b9050919050565b60006020820190508181036000830152612f6e81612a74565b9050919050565b60006020820190508181036000830152612f8e81612ada565b9050919050565b60006020820190508181036000830152612fae81612b1a565b9050919050565b60006020820190508181036000830152612fce81612b80565b9050919050565b60006020820190508181036000830152612fee81612be6565b9050919050565b6000602082019050818103600083015261300e81612c4c565b9050919050565b6000602082019050818103600083015261302e81612cb2565b9050919050565b6000602082019050818103600083015261304e81612d18565b9050919050565b600060208201905061306a6000830184612d7e565b92915050565b600060c0820190506130856000830189612d7e565b61309260208301886126cf565b61309f6040830187612d7e565b81810360608301526130b18186612726565b905081810360808301526130c58185612726565b90506130d460a0830184612d7e565b979650505050505050565b6000604051905081810181811067ffffffffffffffff821117156131065761310561345d565b5b8060405250919050565b600067ffffffffffffffff82111561312b5761312a61345d565b5b601f19601f8301169050602081019050919050565b600067ffffffffffffffff82111561315b5761315a61345d565b5b601f19601f8301169050602081019050919050565b600081519050919050565b600081519050919050565b600082825260208201905092915050565b600082825260208201905092915050565b600081905092915050565b60006131be826132d8565b91506131c9836132d8565b9250827fffffffffffffffffffffffffffffffffffffffffffffffffffffffffffffffff038211156131fe576131fd6133d0565b5b828201905092915050565b6000613214826132d8565b915061321f836132d8565b92508261322f5761322e6133ff565b5b828204905092915050565b6000613245826132d8565b9150613250836132d8565b925082821015613263576132626133d0565b5b828203905092915050565b6000613279826132b8565b9050919050565b60008115159050919050565b60007fffffffff0000000000000000000000000000000000000000000000000000000082169050919050565b600073ffffffffffffffffffffffffffffffffffffffff82169050919050565b6000819050919050565b82818337600083830152505050565b60005b8381101561330f5780820151818401526020810190506132f4565b8381111561331e576000848401525b50505050565b6000600282049050600182168061333c57607f821691505b602082108114156133505761334f61342e565b5b50919050565b6000613361826132d8565b91507fffffffffffffffffffffffffffffffffffffffffffffffffffffffffffffffff821415613394576133936133d0565b5b600182019050919050565b60006133aa826132d8565b91506133b5836132d8565b9250826133c5576133c46133ff565b5b828206905092915050565b7f4e487b7100000000000000000000000000000000000000000000000000000000600052601160045260246000fd5b7f4e487b7100000000000000000000000000000000000000000000000000000000600052601260045260246000fd5b7f4e487b7100000000000000000000000000000000000000000000000000000000600052602260045260246000fd5b7f4e487b7100000000000000000000000000000000000000000000000000000000600052604160045260246000fd5b6000601f19601f8301169050919050565b6134a68161326e565b81146134b157600080fd5b50565b6134bd81613280565b81146134c857600080fd5b50565b6134d48161328c565b81146134df57600080fd5b50565b6134eb816132d8565b81146134f657600080fd5b5056fea2646970667358221220792c54a44630a355813a758d228f69f9541feb64166ebdc4e7905f7d098cedcc64736f6c63430008000033",
  "immutableReferences": {},
  "source": "// SPDX-License-Identifier: MIT\npragma solidity >=0.4.22 <0.9.0;\n\nimport \"@openzeppelin/contracts/token/ERC721/ERC721.sol\";\nimport \"@openzeppelin/contracts/token/ERC721/extensions/ERC721Enumerable.sol\";\n\ncontract Cards is ERC721Enumerable {\n    address public admin;\n    uint256 public nextItemId;\n\n    struct Card {\n        uint256 id;\n        address owner;\n        uint256 price;\n        string description;\n        string urlPicture;\n        uint256 timestamp;\n    }\n\n    // mapping(address => Card) public marketCards;\n    mapping(address => mapping(uint256 => Card)) public marketCards;\n    mapping(address => mapping(uint256 => Card)) public myCards;\n\n    constructor() ERC721(\"Cards Futebol\", \"FUT\") {\n        admin = msg.sender;\n    }\n\n    function mintCards(\n        uint256 _price,\n        string memory _description,\n        string memory _urlPicture\n    ) external {\n\n        Card memory card = Card({\n            id: nextItemId,\n            owner: address(this),\n            price: _price,\n            description: _description,\n            urlPicture: _urlPicture,\n            timestamp: block.timestamp\n        });\n\n        _mint(address(this), nextItemId);\n        marketCards[address(this)][nextItemId] = card;\n\n        // tokenOfOwnerByIndex(owner, index);\n        // tokenByIndex(index);\n\n        nextItemId++;\n    }\n\n    function _baseURI() internal view virtual override returns (string memory) {\n        return \"\";\n    }\n}\n",
  "sourcePath": "/Volumes/APPLE HDD/reactprojects/cards-nft/contracts/Cards.sol",
  "compiler": {
    "name": "solc",
    "version": "0.8.0+commit.c7dfd78e.Emscripten.clang"
  },
  "schemaVersion": "3.4.3",
  "updatedAt": "2021-10-12T01:29:35.237Z",
  "networkType": "ethereum",
  "devdoc": {
    "kind": "dev",
    "methods": {
      "approve(address,uint256)": {
        "details": "See {IERC721-approve}."
      },
      "balanceOf(address)": {
        "details": "See {IERC721-balanceOf}."
      },
      "getApproved(uint256)": {
        "details": "See {IERC721-getApproved}."
      },
      "isApprovedForAll(address,address)": {
        "details": "See {IERC721-isApprovedForAll}."
      },
      "name()": {
        "details": "See {IERC721Metadata-name}."
      },
      "ownerOf(uint256)": {
        "details": "See {IERC721-ownerOf}."
      },
      "safeTransferFrom(address,address,uint256)": {
        "details": "See {IERC721-safeTransferFrom}."
      },
      "safeTransferFrom(address,address,uint256,bytes)": {
        "details": "See {IERC721-safeTransferFrom}."
      },
      "setApprovalForAll(address,bool)": {
        "details": "See {IERC721-setApprovalForAll}."
      },
      "supportsInterface(bytes4)": {
        "details": "See {IERC165-supportsInterface}."
      },
      "symbol()": {
        "details": "See {IERC721Metadata-symbol}."
      },
      "tokenByIndex(uint256)": {
        "details": "See {IERC721Enumerable-tokenByIndex}."
      },
      "tokenOfOwnerByIndex(address,uint256)": {
        "details": "See {IERC721Enumerable-tokenOfOwnerByIndex}."
      },
      "tokenURI(uint256)": {
        "details": "See {IERC721Metadata-tokenURI}."
      },
      "totalSupply()": {
        "details": "See {IERC721Enumerable-totalSupply}."
      },
      "transferFrom(address,address,uint256)": {
        "details": "See {IERC721-transferFrom}."
      }
    },
    "version": 1
  },
  "userdoc": {
    "kind": "user",
    "methods": {},
    "version": 1
  }
}