{
  "contractName": "Cards",
  "abi": [
    {
      "inputs": [],
      "stateMutability": "nonpayable",
      "type": "constructor"
    },
    {
      "anonymous": false,
      "inputs": [
        {
          "indexed": true,
          "internalType": "address",
          "name": "owner",
          "type": "address"
        },
        {
          "indexed": true,
          "internalType": "address",
          "name": "approved",
          "type": "address"
        },
        {
          "indexed": true,
          "internalType": "uint256",
          "name": "tokenId",
          "type": "uint256"
        }
      ],
      "name": "Approval",
      "type": "event"
    },
    {
      "anonymous": false,
      "inputs": [
        {
          "indexed": true,
          "internalType": "address",
          "name": "owner",
          "type": "address"
        },
        {
          "indexed": true,
          "internalType": "address",
          "name": "operator",
          "type": "address"
        },
        {
          "indexed": false,
          "internalType": "bool",
          "name": "approved",
          "type": "bool"
        }
      ],
      "name": "ApprovalForAll",
      "type": "event"
    },
    {
      "anonymous": false,
      "inputs": [
        {
          "indexed": true,
          "internalType": "address",
          "name": "from",
          "type": "address"
        },
        {
          "indexed": true,
          "internalType": "address",
          "name": "to",
          "type": "address"
        },
        {
          "indexed": true,
          "internalType": "uint256",
          "name": "tokenId",
          "type": "uint256"
        }
      ],
      "name": "Transfer",
      "type": "event"
    },
    {
      "anonymous": false,
      "inputs": [
        {
          "indexed": false,
          "internalType": "string",
          "name": "title",
          "type": "string"
        },
        {
          "indexed": false,
          "internalType": "uint256",
          "name": "id",
          "type": "uint256"
        },
        {
          "indexed": false,
          "internalType": "address",
          "name": "owner",
          "type": "address"
        },
        {
          "indexed": false,
          "internalType": "uint256",
          "name": "price",
          "type": "uint256"
        },
        {
          "indexed": false,
          "internalType": "string",
          "name": "description",
          "type": "string"
        },
        {
          "indexed": false,
          "internalType": "string",
          "name": "urlPicture",
          "type": "string"
        },
        {
          "indexed": false,
          "internalType": "uint256",
          "name": "timestamp",
          "type": "uint256"
        },
        {
          "indexed": false,
          "internalType": "string",
          "name": "club",
          "type": "string"
        },
        {
          "indexed": false,
          "internalType": "uint256",
          "name": "totalAmount",
          "type": "uint256"
        },
        {
          "indexed": false,
          "internalType": "address",
          "name": "createdBy",
          "type": "address"
        }
      ],
      "name": "cardMinted",
      "type": "event"
    },
    {
      "anonymous": false,
      "inputs": [
        {
          "indexed": false,
          "internalType": "uint256",
          "name": "id",
          "type": "uint256"
        },
        {
          "indexed": false,
          "internalType": "address",
          "name": "from",
          "type": "address"
        },
        {
          "indexed": false,
          "internalType": "address",
          "name": "to",
          "type": "address"
        },
        {
          "indexed": false,
          "internalType": "uint256",
          "name": "timestamp",
          "type": "uint256"
        }
      ],
      "name": "cardTransfered",
      "type": "event"
    },
    {
      "inputs": [],
      "name": "admin",
      "outputs": [
        {
          "internalType": "address",
          "name": "",
          "type": "address"
        }
      ],
      "stateMutability": "view",
      "type": "function",
      "constant": true
    },
    {
      "inputs": [
        {
          "internalType": "address",
          "name": "to",
          "type": "address"
        },
        {
          "internalType": "uint256",
          "name": "tokenId",
          "type": "uint256"
        }
      ],
      "name": "approve",
      "outputs": [],
      "stateMutability": "nonpayable",
      "type": "function"
    },
    {
      "inputs": [
        {
          "internalType": "address",
          "name": "owner",
          "type": "address"
        }
      ],
      "name": "balanceOf",
      "outputs": [
        {
          "internalType": "uint256",
          "name": "",
          "type": "uint256"
        }
      ],
      "stateMutability": "view",
      "type": "function",
      "constant": true
    },
    {
      "inputs": [
        {
          "internalType": "uint256",
          "name": "tokenId",
          "type": "uint256"
        }
      ],
      "name": "getApproved",
      "outputs": [
        {
          "internalType": "address",
          "name": "",
          "type": "address"
        }
      ],
      "stateMutability": "view",
      "type": "function",
      "constant": true
    },
    {
      "inputs": [
        {
          "internalType": "address",
          "name": "owner",
          "type": "address"
        },
        {
          "internalType": "address",
          "name": "operator",
          "type": "address"
        }
      ],
      "name": "isApprovedForAll",
      "outputs": [
        {
          "internalType": "bool",
          "name": "",
          "type": "bool"
        }
      ],
      "stateMutability": "view",
      "type": "function",
      "constant": true
    },
    {
      "inputs": [
        {
          "internalType": "address",
          "name": "",
          "type": "address"
        },
        {
          "internalType": "uint256",
          "name": "",
          "type": "uint256"
        }
      ],
      "name": "marketCards",
      "outputs": [
        {
          "internalType": "string",
          "name": "title",
          "type": "string"
        },
        {
          "internalType": "uint256",
          "name": "id",
          "type": "uint256"
        },
        {
          "internalType": "address",
          "name": "owner",
          "type": "address"
        },
        {
          "internalType": "uint256",
          "name": "price",
          "type": "uint256"
        },
        {
          "internalType": "string",
          "name": "description",
          "type": "string"
        },
        {
          "internalType": "string",
          "name": "urlPicture",
          "type": "string"
        },
        {
          "internalType": "uint256",
          "name": "timestamp",
          "type": "uint256"
        }
      ],
      "stateMutability": "view",
      "type": "function",
      "constant": true
    },
    {
      "inputs": [
        {
          "internalType": "address",
          "name": "",
          "type": "address"
        },
        {
          "internalType": "uint256",
          "name": "",
          "type": "uint256"
        }
      ],
      "name": "myCards",
      "outputs": [
        {
          "internalType": "string",
          "name": "title",
          "type": "string"
        },
        {
          "internalType": "uint256",
          "name": "id",
          "type": "uint256"
        },
        {
          "internalType": "address",
          "name": "owner",
          "type": "address"
        },
        {
          "internalType": "uint256",
          "name": "price",
          "type": "uint256"
        },
        {
          "internalType": "string",
          "name": "description",
          "type": "string"
        },
        {
          "internalType": "string",
          "name": "urlPicture",
          "type": "string"
        },
        {
          "internalType": "uint256",
          "name": "timestamp",
          "type": "uint256"
        }
      ],
      "stateMutability": "view",
      "type": "function",
      "constant": true
    },
    {
      "inputs": [],
      "name": "name",
      "outputs": [
        {
          "internalType": "string",
          "name": "",
          "type": "string"
        }
      ],
      "stateMutability": "view",
      "type": "function",
      "constant": true
    },
    {
      "inputs": [],
      "name": "nextItemId",
      "outputs": [
        {
          "internalType": "uint256",
          "name": "",
          "type": "uint256"
        }
      ],
      "stateMutability": "view",
      "type": "function",
      "constant": true
    },
    {
      "inputs": [
        {
          "internalType": "uint256",
          "name": "tokenId",
          "type": "uint256"
        }
      ],
      "name": "ownerOf",
      "outputs": [
        {
          "internalType": "address",
          "name": "",
          "type": "address"
        }
      ],
      "stateMutability": "view",
      "type": "function",
      "constant": true
    },
    {
      "inputs": [
        {
          "internalType": "address",
          "name": "from",
          "type": "address"
        },
        {
          "internalType": "address",
          "name": "to",
          "type": "address"
        },
        {
          "internalType": "uint256",
          "name": "tokenId",
          "type": "uint256"
        }
      ],
      "name": "safeTransferFrom",
      "outputs": [],
      "stateMutability": "nonpayable",
      "type": "function"
    },
    {
      "inputs": [
        {
          "internalType": "address",
          "name": "from",
          "type": "address"
        },
        {
          "internalType": "address",
          "name": "to",
          "type": "address"
        },
        {
          "internalType": "uint256",
          "name": "tokenId",
          "type": "uint256"
        },
        {
          "internalType": "bytes",
          "name": "_data",
          "type": "bytes"
        }
      ],
      "name": "safeTransferFrom",
      "outputs": [],
      "stateMutability": "nonpayable",
      "type": "function"
    },
    {
      "inputs": [
        {
          "internalType": "address",
          "name": "operator",
          "type": "address"
        },
        {
          "internalType": "bool",
          "name": "approved",
          "type": "bool"
        }
      ],
      "name": "setApprovalForAll",
      "outputs": [],
      "stateMutability": "nonpayable",
      "type": "function"
    },
    {
      "inputs": [
        {
          "internalType": "bytes4",
          "name": "interfaceId",
          "type": "bytes4"
        }
      ],
      "name": "supportsInterface",
      "outputs": [
        {
          "internalType": "bool",
          "name": "",
          "type": "bool"
        }
      ],
      "stateMutability": "view",
      "type": "function",
      "constant": true
    },
    {
      "inputs": [],
      "name": "symbol",
      "outputs": [
        {
          "internalType": "string",
          "name": "",
          "type": "string"
        }
      ],
      "stateMutability": "view",
      "type": "function",
      "constant": true
    },
    {
      "inputs": [
        {
          "internalType": "uint256",
          "name": "index",
          "type": "uint256"
        }
      ],
      "name": "tokenByIndex",
      "outputs": [
        {
          "internalType": "uint256",
          "name": "",
          "type": "uint256"
        }
      ],
      "stateMutability": "view",
      "type": "function",
      "constant": true
    },
    {
      "inputs": [
        {
          "internalType": "address",
          "name": "owner",
          "type": "address"
        },
        {
          "internalType": "uint256",
          "name": "index",
          "type": "uint256"
        }
      ],
      "name": "tokenOfOwnerByIndex",
      "outputs": [
        {
          "internalType": "uint256",
          "name": "",
          "type": "uint256"
        }
      ],
      "stateMutability": "view",
      "type": "function",
      "constant": true
    },
    {
      "inputs": [
        {
          "internalType": "uint256",
          "name": "tokenId",
          "type": "uint256"
        }
      ],
      "name": "tokenURI",
      "outputs": [
        {
          "internalType": "string",
          "name": "",
          "type": "string"
        }
      ],
      "stateMutability": "view",
      "type": "function",
      "constant": true
    },
    {
      "inputs": [],
      "name": "totalSupply",
      "outputs": [
        {
          "internalType": "uint256",
          "name": "",
          "type": "uint256"
        }
      ],
      "stateMutability": "view",
      "type": "function",
      "constant": true
    },
    {
      "inputs": [
        {
          "internalType": "address",
          "name": "from",
          "type": "address"
        },
        {
          "internalType": "address",
          "name": "to",
          "type": "address"
        },
        {
          "internalType": "uint256",
          "name": "tokenId",
          "type": "uint256"
        }
      ],
      "name": "transferFrom",
      "outputs": [],
      "stateMutability": "nonpayable",
      "type": "function"
    },
    {
      "inputs": [
        {
          "internalType": "uint256",
          "name": "tokenId",
          "type": "uint256"
        }
      ],
      "name": "buyCardFromMarket",
      "outputs": [],
      "stateMutability": "payable",
      "type": "function",
      "payable": true
    },
    {
      "inputs": [
        {
          "internalType": "string",
          "name": "_title",
          "type": "string"
        },
        {
          "internalType": "uint256",
          "name": "_price",
          "type": "uint256"
        },
        {
          "internalType": "string",
          "name": "_description",
          "type": "string"
        },
        {
          "internalType": "string",
          "name": "_urlPicture",
          "type": "string"
        },
        {
          "internalType": "uint256",
          "name": "_totalAmount",
          "type": "uint256"
        }
      ],
      "name": "mintCards",
      "outputs": [],
      "stateMutability": "nonpayable",
      "type": "function"
    }
  ],
  "bytecode": "0x60806040523480156200001157600080fd5b506040518060400160405280600d81526020017f43617264732046757465626f6c000000000000000000000000000000000000008152506040518060400160405280600381526020017f4655540000000000000000000000000000000000000000000000000000000000815250816000908051906020019062000096929190620000f9565b508060019080519060200190620000af929190620000f9565b50505033600a60006101000a81548173ffffffffffffffffffffffffffffffffffffffff021916908373ffffffffffffffffffffffffffffffffffffffff1602179055506200020e565b8280546200010790620001a9565b90600052602060002090601f0160209004810192826200012b576000855562000177565b82601f106200014657805160ff191683800117855562000177565b8280016001018555821562000177579182015b828111156200017657825182559160200191906001019062000159565b5b5090506200018691906200018a565b5090565b5b80821115620001a55760008160009055506001016200018b565b5090565b60006002820490506001821680620001c257607f821691505b60208210811415620001d957620001d8620001df565b5b50919050565b7f4e487b7100000000000000000000000000000000000000000000000000000000600052602260045260246000fd5b613c2c806200021e6000396000f3fe6080604052600436106101355760003560e01c80636a868974116100ab578063b88d4fde1161006f578063b88d4fde14610457578063c87b56dd14610480578063e985e9c5146104bd578063e9cb5dd6146104fa578063f851a4401461053d578063fc45b9e11461056857610135565b80636a8689741461037f5780636ac408e5146103aa57806370a08231146103c657806395d89b4114610403578063a22cb4651461042e57610135565b806323b872dd116100fd57806323b872dd146102335780632518d7e01461025c5780632f745c591461029f57806342842e0e146102dc5780634f6ccce7146103055780636352211e1461034257610135565b806301ffc9a71461013a57806306fdde0314610177578063081812fc146101a2578063095ea7b3146101df57806318160ddd14610208575b600080fd5b34801561014657600080fd5b50610161600480360381019061015c9190612c1d565b610591565b60405161016e91906134e0565b60405180910390f35b34801561018357600080fd5b5061018c61060b565b60405161019991906134fb565b60405180910390f35b3480156101ae57600080fd5b506101c960048036038101906101c49190612d2e565b61069d565b6040516101d69190613479565b60405180910390f35b3480156101eb57600080fd5b5061020660048036038101906102019190612be1565b610722565b005b34801561021457600080fd5b5061021d61083a565b60405161022a91906137c1565b60405180910390f35b34801561023f57600080fd5b5061025a60048036038101906102559190612adb565b610847565b005b34801561026857600080fd5b50610283600480360381019061027e9190612be1565b6108a7565b604051610296979695949392919061351d565b60405180910390f35b3480156102ab57600080fd5b506102c660048036038101906102c19190612be1565b610aae565b6040516102d391906137c1565b60405180910390f35b3480156102e857600080fd5b5061030360048036038101906102fe9190612adb565b610b53565b005b34801561031157600080fd5b5061032c60048036038101906103279190612d2e565b610b73565b60405161033991906137c1565b60405180910390f35b34801561034e57600080fd5b5061036960048036038101906103649190612d2e565b610c0a565b6040516103769190613479565b60405180910390f35b34801561038b57600080fd5b50610394610cbc565b6040516103a191906137c1565b60405180910390f35b6103c460048036038101906103bf9190612d2e565b610cc2565b005b3480156103d257600080fd5b506103ed60048036038101906103e89190612a76565b610fb0565b6040516103fa91906137c1565b60405180910390f35b34801561040f57600080fd5b50610418611068565b60405161042591906134fb565b60405180910390f35b34801561043a57600080fd5b5061045560048036038101906104509190612ba5565b6110fa565b005b34801561046357600080fd5b5061047e60048036038101906104799190612b2a565b61127b565b005b34801561048c57600080fd5b506104a760048036038101906104a29190612d2e565b6112dd565b6040516104b491906134fb565b60405180910390f35b3480156104c957600080fd5b506104e460048036038101906104df9190612a9f565b611384565b6040516104f191906134e0565b60405180910390f35b34801561050657600080fd5b50610521600480360381019061051c9190612be1565b611418565b604051610534979695949392919061351d565b60405180910390f35b34801561054957600080fd5b5061055261161f565b60405161055f9190613479565b60405180910390f35b34801561057457600080fd5b5061058f600480360381019061058a9190612c6f565b611645565b005b60007f780e9d63000000000000000000000000000000000000000000000000000000007bffffffffffffffffffffffffffffffffffffffffffffffffffffffff1916827bffffffffffffffffffffffffffffffffffffffffffffffffffffffff191614806106045750610603826117f1565b5b9050919050565b60606000805461061a90613a21565b80601f016020809104026020016040519081016040528092919081815260200182805461064690613a21565b80156106935780601f1061066857610100808354040283529160200191610693565b820191906000526020600020905b81548152906001019060200180831161067657829003601f168201915b5050505050905090565b60006106a8826118d3565b6106e7576040517f08c379a00000000000000000000000000000000000000000000000000000000081526004016106de906136e1565b60405180910390fd5b6004600083815260200190815260200160002060009054906101000a900473ffffffffffffffffffffffffffffffffffffffff169050919050565b600061072d82610c0a565b90508073ffffffffffffffffffffffffffffffffffffffff168373ffffffffffffffffffffffffffffffffffffffff16141561079e576040517f08c379a000000000000000000000000000000000000000000000000000000000815260040161079590613741565b60405180910390fd5b8073ffffffffffffffffffffffffffffffffffffffff166107bd61193f565b73ffffffffffffffffffffffffffffffffffffffff1614806107ec57506107eb816107e661193f565b611384565b5b61082b576040517f08c379a000000000000000000000000000000000000000000000000000000000815260040161082290613661565b60405180910390fd5b6108358383611947565b505050565b6000600880549050905090565b61085861085261193f565b82611a00565b610897576040517f08c379a000000000000000000000000000000000000000000000000000000000815260040161088e90613761565b60405180910390fd5b6108a2838383611ade565b505050565b600c602052816000526040600020602052806000526040600020600091509150508060000180546108d790613a21565b80601f016020809104026020016040519081016040528092919081815260200182805461090390613a21565b80156109505780601f1061092557610100808354040283529160200191610950565b820191906000526020600020905b81548152906001019060200180831161093357829003601f168201915b5050505050908060010154908060020160009054906101000a900473ffffffffffffffffffffffffffffffffffffffff169080600301549080600401805461099790613a21565b80601f01602080910402602001604051908101604052809291908181526020018280546109c390613a21565b8015610a105780601f106109e557610100808354040283529160200191610a10565b820191906000526020600020905b8154815290600101906020018083116109f357829003601f168201915b505050505090806005018054610a2590613a21565b80601f0160208091040260200160405190810160405280929190818152602001828054610a5190613a21565b8015610a9e5780601f10610a7357610100808354040283529160200191610a9e565b820191906000526020600020905b815481529060010190602001808311610a8157829003601f168201915b5050505050908060060154905087565b6000610ab983610fb0565b8210610afa576040517f08c379a0000000000000000000000000000000000000000000000000000000008152600401610af1906135a1565b60405180910390fd5b600660008473ffffffffffffffffffffffffffffffffffffffff1673ffffffffffffffffffffffffffffffffffffffff168152602001908152602001600020600083815260200190815260200160002054905092915050565b610b6e8383836040518060200160405280600081525061127b565b505050565b6000610b7d61083a565b8210610bbe576040517f08c379a0000000000000000000000000000000000000000000000000000000008152600401610bb590613781565b60405180910390fd5b60088281548110610bf8577f4e487b7100000000000000000000000000000000000000000000000000000000600052603260045260246000fd5b90600052602060002001549050919050565b6000806002600084815260200190815260200160002060009054906101000a900473ffffffffffffffffffffffffffffffffffffffff169050600073ffffffffffffffffffffffffffffffffffffffff168173ffffffffffffffffffffffffffffffffffffffff161415610cb3576040517f08c379a0000000000000000000000000000000000000000000000000000000008152600401610caa906136a1565b60405180910390fd5b80915050919050565b600b5481565b600c60003073ffffffffffffffffffffffffffffffffffffffff1673ffffffffffffffffffffffffffffffffffffffff168152602001908152602001600020600082815260200190815260200160002060030154341015610d58576040517f08c379a0000000000000000000000000000000000000000000000000000000008152600401610d4f906137a1565b60405180910390fd5b610d63303383611ade565b600c60003073ffffffffffffffffffffffffffffffffffffffff1673ffffffffffffffffffffffffffffffffffffffff1681526020019081526020016000206000828152602001908152602001600020600d60003373ffffffffffffffffffffffffffffffffffffffff1673ffffffffffffffffffffffffffffffffffffffff16815260200190815260200160002060008381526020019081526020016000206000820181600001908054610e1790613a21565b610e229291906127cd565b50600182015481600101556002820160009054906101000a900473ffffffffffffffffffffffffffffffffffffffff168160020160006101000a81548173ffffffffffffffffffffffffffffffffffffffff021916908373ffffffffffffffffffffffffffffffffffffffff160217905550600382015481600301556004820181600401908054610eb290613a21565b610ebd9291906127cd565b506005820181600501908054610ed290613a21565b610edd9291906127cd565b5060068201548160060155905050600c60003073ffffffffffffffffffffffffffffffffffffffff1673ffffffffffffffffffffffffffffffffffffffff168152602001908152602001600020600082815260200190815260200160002060008082016000610f4c919061285a565b60018201600090556002820160006101000a81549073ffffffffffffffffffffffffffffffffffffffff02191690556003820160009055600482016000610f93919061285a565b600582016000610fa3919061285a565b6006820160009055505050565b60008073ffffffffffffffffffffffffffffffffffffffff168273ffffffffffffffffffffffffffffffffffffffff161415611021576040517f08c379a000000000000000000000000000000000000000000000000000000000815260040161101890613681565b60405180910390fd5b600360008373ffffffffffffffffffffffffffffffffffffffff1673ffffffffffffffffffffffffffffffffffffffff168152602001908152602001600020549050919050565b60606001805461107790613a21565b80601f01602080910402602001604051908101604052809291908181526020018280546110a390613a21565b80156110f05780601f106110c5576101008083540402835291602001916110f0565b820191906000526020600020905b8154815290600101906020018083116110d357829003601f168201915b5050505050905090565b61110261193f565b73ffffffffffffffffffffffffffffffffffffffff168273ffffffffffffffffffffffffffffffffffffffff161415611170576040517f08c379a000000000000000000000000000000000000000000000000000000000815260040161116790613621565b60405180910390fd5b806005600061117d61193f565b73ffffffffffffffffffffffffffffffffffffffff1673ffffffffffffffffffffffffffffffffffffffff16815260200190815260200160002060008473ffffffffffffffffffffffffffffffffffffffff1673ffffffffffffffffffffffffffffffffffffffff16815260200190815260200160002060006101000a81548160ff0219169083151502179055508173ffffffffffffffffffffffffffffffffffffffff1661122a61193f565b73ffffffffffffffffffffffffffffffffffffffff167f17307eab39ab6107e8899845ad3d59bd9653f200f220920489ca2b5937696c318360405161126f91906134e0565b60405180910390a35050565b61128c61128661193f565b83611a00565b6112cb576040517f08c379a00000000000000000000000000000000000000000000000000000000081526004016112c290613761565b60405180910390fd5b6112d784848484611d3a565b50505050565b60606112e8826118d3565b611327576040517f08c379a000000000000000000000000000000000000000000000000000000000815260040161131e90613721565b60405180910390fd5b6000611331611d96565b90506000815111611351576040518060200160405280600081525061137c565b8061135b84611dad565b60405160200161136c929190613455565b6040516020818303038152906040525b915050919050565b6000600560008473ffffffffffffffffffffffffffffffffffffffff1673ffffffffffffffffffffffffffffffffffffffff16815260200190815260200160002060008373ffffffffffffffffffffffffffffffffffffffff1673ffffffffffffffffffffffffffffffffffffffff16815260200190815260200160002060009054906101000a900460ff16905092915050565b600d6020528160005260406000206020528060005260406000206000915091505080600001805461144890613a21565b80601f016020809104026020016040519081016040528092919081815260200182805461147490613a21565b80156114c15780601f10611496576101008083540402835291602001916114c1565b820191906000526020600020905b8154815290600101906020018083116114a457829003601f168201915b5050505050908060010154908060020160009054906101000a900473ffffffffffffffffffffffffffffffffffffffff169080600301549080600401805461150890613a21565b80601f016020809104026020016040519081016040528092919081815260200182805461153490613a21565b80156115815780601f1061155657610100808354040283529160200191611581565b820191906000526020600020905b81548152906001019060200180831161156457829003601f168201915b50505050509080600501805461159690613a21565b80601f01602080910402602001604051908101604052809291908181526020018280546115c290613a21565b801561160f5780601f106115e45761010080835404028352916020019161160f565b820191906000526020600020905b8154815290600101906020018083116115f257829003601f168201915b5050505050908060060154905087565b600a60009054906101000a900473ffffffffffffffffffffffffffffffffffffffff1681565b60005b818110156117e95760006040518060e00160405280888152602001600b5481526020013073ffffffffffffffffffffffffffffffffffffffff1681526020018781526020018681526020018581526020014281525090506116ab30600b54611f5a565b80600c60003073ffffffffffffffffffffffffffffffffffffffff1673ffffffffffffffffffffffffffffffffffffffff1681526020019081526020016000206000600b548152602001908152602001600020600082015181600001908051906020019061171a92919061289a565b506020820151816001015560408201518160020160006101000a81548173ffffffffffffffffffffffffffffffffffffffff021916908373ffffffffffffffffffffffffffffffffffffffff16021790555060608201518160030155608082015181600401908051906020019061179292919061289a565b5060a08201518160050190805190602001906117af92919061289a565b5060c08201518160060155905050600b60008154809291906117d090613a53565b91905055505080806117e190613a53565b915050611648565b505050505050565b60007f80ac58cd000000000000000000000000000000000000000000000000000000007bffffffffffffffffffffffffffffffffffffffffffffffffffffffff1916827bffffffffffffffffffffffffffffffffffffffffffffffffffffffff191614806118bc57507f5b5e139f000000000000000000000000000000000000000000000000000000007bffffffffffffffffffffffffffffffffffffffffffffffffffffffff1916827bffffffffffffffffffffffffffffffffffffffffffffffffffffffff1916145b806118cc57506118cb82612128565b5b9050919050565b60008073ffffffffffffffffffffffffffffffffffffffff166002600084815260200190815260200160002060009054906101000a900473ffffffffffffffffffffffffffffffffffffffff1673ffffffffffffffffffffffffffffffffffffffff1614159050919050565b600033905090565b816004600083815260200190815260200160002060006101000a81548173ffffffffffffffffffffffffffffffffffffffff021916908373ffffffffffffffffffffffffffffffffffffffff160217905550808273ffffffffffffffffffffffffffffffffffffffff166119ba83610c0a565b73ffffffffffffffffffffffffffffffffffffffff167f8c5be1e5ebec7d5bd14f71427d1e84f3dd0314c0f7b2291e5b200ac8c7c3b92560405160405180910390a45050565b6000611a0b826118d3565b611a4a576040517f08c379a0000000000000000000000000000000000000000000000000000000008152600401611a4190613641565b60405180910390fd5b6000611a5583610c0a565b90508073ffffffffffffffffffffffffffffffffffffffff168473ffffffffffffffffffffffffffffffffffffffff161480611ac457508373ffffffffffffffffffffffffffffffffffffffff16611aac8461069d565b73ffffffffffffffffffffffffffffffffffffffff16145b80611ad55750611ad48185611384565b5b91505092915050565b8273ffffffffffffffffffffffffffffffffffffffff16611afe82610c0a565b73ffffffffffffffffffffffffffffffffffffffff1614611b54576040517f08c379a0000000000000000000000000000000000000000000000000000000008152600401611b4b90613701565b60405180910390fd5b600073ffffffffffffffffffffffffffffffffffffffff168273ffffffffffffffffffffffffffffffffffffffff161415611bc4576040517f08c379a0000000000000000000000000000000000000000000000000000000008152600401611bbb90613601565b60405180910390fd5b611bcf838383612192565b611bda600082611947565b6001600360008573ffffffffffffffffffffffffffffffffffffffff1673ffffffffffffffffffffffffffffffffffffffff1681526020019081526020016000206000828254611c2a9190613937565b925050819055506001600360008473ffffffffffffffffffffffffffffffffffffffff1673ffffffffffffffffffffffffffffffffffffffff1681526020019081526020016000206000828254611c8191906138b0565b92505081905550816002600083815260200190815260200160002060006101000a81548173ffffffffffffffffffffffffffffffffffffffff021916908373ffffffffffffffffffffffffffffffffffffffff160217905550808273ffffffffffffffffffffffffffffffffffffffff168473ffffffffffffffffffffffffffffffffffffffff167fddf252ad1be2c89b69c2b068fc378daa952ba7f163c4a11628f55a4df523b3ef60405160405180910390a4505050565b611d45848484611ade565b611d51848484846122a6565b611d90576040517f08c379a0000000000000000000000000000000000000000000000000000000008152600401611d87906135c1565b60405180910390fd5b50505050565b606060405180602001604052806000815250905090565b60606000821415611df5576040518060400160405280600181526020017f30000000000000000000000000000000000000000000000000000000000000008152509050611f55565b600082905060005b60008214611e27578080611e1090613a53565b915050600a82611e209190613906565b9150611dfd565b60008167ffffffffffffffff811115611e69577f4e487b7100000000000000000000000000000000000000000000000000000000600052604160045260246000fd5b6040519080825280601f01601f191660200182016040528015611e9b5781602001600182028036833780820191505090505b5090505b60008514611f4e57600182611eb49190613937565b9150600a85611ec39190613a9c565b6030611ecf91906138b0565b60f81b818381518110611f0b577f4e487b7100000000000000000000000000000000000000000000000000000000600052603260045260246000fd5b60200101907effffffffffffffffffffffffffffffffffffffffffffffffffffffffffffff1916908160001a905350600a85611f479190613906565b9450611e9f565b8093505050505b919050565b600073ffffffffffffffffffffffffffffffffffffffff168273ffffffffffffffffffffffffffffffffffffffff161415611fca576040517f08c379a0000000000000000000000000000000000000000000000000000000008152600401611fc1906136c1565b60405180910390fd5b611fd3816118d3565b15612013576040517f08c379a000000000000000000000000000000000000000000000000000000000815260040161200a906135e1565b60405180910390fd5b61201f60008383612192565b6001600360008473ffffffffffffffffffffffffffffffffffffffff1673ffffffffffffffffffffffffffffffffffffffff168152602001908152602001600020600082825461206f91906138b0565b92505081905550816002600083815260200190815260200160002060006101000a81548173ffffffffffffffffffffffffffffffffffffffff021916908373ffffffffffffffffffffffffffffffffffffffff160217905550808273ffffffffffffffffffffffffffffffffffffffff16600073ffffffffffffffffffffffffffffffffffffffff167fddf252ad1be2c89b69c2b068fc378daa952ba7f163c4a11628f55a4df523b3ef60405160405180910390a45050565b60007f01ffc9a7000000000000000000000000000000000000000000000000000000007bffffffffffffffffffffffffffffffffffffffffffffffffffffffff1916827bffffffffffffffffffffffffffffffffffffffffffffffffffffffff1916149050919050565b61219d83838361243d565b600073ffffffffffffffffffffffffffffffffffffffff168373ffffffffffffffffffffffffffffffffffffffff1614156121e0576121db81612442565b61221f565b8173ffffffffffffffffffffffffffffffffffffffff168373ffffffffffffffffffffffffffffffffffffffff161461221e5761221d838261248b565b5b5b600073ffffffffffffffffffffffffffffffffffffffff168273ffffffffffffffffffffffffffffffffffffffff1614156122625761225d816125f8565b6122a1565b8273ffffffffffffffffffffffffffffffffffffffff168273ffffffffffffffffffffffffffffffffffffffff16146122a05761229f828261273b565b5b5b505050565b60006122c78473ffffffffffffffffffffffffffffffffffffffff166127ba565b15612430578373ffffffffffffffffffffffffffffffffffffffff1663150b7a026122f061193f565b8786866040518563ffffffff1660e01b81526004016123129493929190613494565b602060405180830381600087803b15801561232c57600080fd5b505af192505050801561235d57506040513d601f19601f8201168201806040525081019061235a9190612c46565b60015b6123e0573d806000811461238d576040519150601f19603f3d011682016040523d82523d6000602084013e612392565b606091505b506000815114156123d8576040517f08c379a00000000000000000000000000000000000000000000000000000000081526004016123cf906135c1565b60405180910390fd5b805181602001fd5b63150b7a0260e01b7bffffffffffffffffffffffffffffffffffffffffffffffffffffffff1916817bffffffffffffffffffffffffffffffffffffffffffffffffffffffff191614915050612435565b600190505b949350505050565b505050565b6008805490506009600083815260200190815260200160002081905550600881908060018154018082558091505060019003906000526020600020016000909190919091505550565b6000600161249884610fb0565b6124a29190613937565b9050600060076000848152602001908152602001600020549050818114612587576000600660008673ffffffffffffffffffffffffffffffffffffffff1673ffffffffffffffffffffffffffffffffffffffff168152602001908152602001600020600084815260200190815260200160002054905080600660008773ffffffffffffffffffffffffffffffffffffffff1673ffffffffffffffffffffffffffffffffffffffff168152602001908152602001600020600084815260200190815260200160002081905550816007600083815260200190815260200160002081905550505b6007600084815260200190815260200160002060009055600660008573ffffffffffffffffffffffffffffffffffffffff1673ffffffffffffffffffffffffffffffffffffffff16815260200190815260200160002060008381526020019081526020016000206000905550505050565b6000600160088054905061260c9190613937565b9050600060096000848152602001908152602001600020549050600060088381548110612662577f4e487b7100000000000000000000000000000000000000000000000000000000600052603260045260246000fd5b9060005260206000200154905080600883815481106126aa577f4e487b7100000000000000000000000000000000000000000000000000000000600052603260045260246000fd5b90600052602060002001819055508160096000838152602001908152602001600020819055506009600085815260200190815260200160002060009055600880548061271f577f4e487b7100000000000000000000000000000000000000000000000000000000600052603160045260246000fd5b6001900381819060005260206000200160009055905550505050565b600061274683610fb0565b905081600660008573ffffffffffffffffffffffffffffffffffffffff1673ffffffffffffffffffffffffffffffffffffffff168152602001908152602001600020600083815260200190815260200160002081905550806007600084815260200190815260200160002081905550505050565b600080823b905060008111915050919050565b8280546127d990613a21565b90600052602060002090601f0160209004810192826127fb5760008555612849565b82601f1061280c5780548555612849565b8280016001018555821561284957600052602060002091601f016020900482015b8281111561284857825482559160010191906001019061282d565b5b5090506128569190612920565b5090565b50805461286690613a21565b6000825580601f106128785750612897565b601f0160209004906000526020600020908101906128969190612920565b5b50565b8280546128a690613a21565b90600052602060002090601f0160209004810192826128c8576000855561290f565b82601f106128e157805160ff191683800117855561290f565b8280016001018555821561290f579182015b8281111561290e5782518255916020019190600101906128f3565b5b50905061291c9190612920565b5090565b5b80821115612939576000816000905550600101612921565b5090565b600061295061294b8461380d565b6137dc565b90508281526020810184848401111561296857600080fd5b6129738482856139df565b509392505050565b600061298e6129898461383d565b6137dc565b9050828152602081018484840111156129a657600080fd5b6129b18482856139df565b509392505050565b6000813590506129c881613b9a565b92915050565b6000813590506129dd81613bb1565b92915050565b6000813590506129f281613bc8565b92915050565b600081519050612a0781613bc8565b92915050565b600082601f830112612a1e57600080fd5b8135612a2e84826020860161293d565b91505092915050565b600082601f830112612a4857600080fd5b8135612a5884826020860161297b565b91505092915050565b600081359050612a7081613bdf565b92915050565b600060208284031215612a8857600080fd5b6000612a96848285016129b9565b91505092915050565b60008060408385031215612ab257600080fd5b6000612ac0858286016129b9565b9250506020612ad1858286016129b9565b9150509250929050565b600080600060608486031215612af057600080fd5b6000612afe868287016129b9565b9350506020612b0f868287016129b9565b9250506040612b2086828701612a61565b9150509250925092565b60008060008060808587031215612b4057600080fd5b6000612b4e878288016129b9565b9450506020612b5f878288016129b9565b9350506040612b7087828801612a61565b925050606085013567ffffffffffffffff811115612b8d57600080fd5b612b9987828801612a0d565b91505092959194509250565b60008060408385031215612bb857600080fd5b6000612bc6858286016129b9565b9250506020612bd7858286016129ce565b9150509250929050565b60008060408385031215612bf457600080fd5b6000612c02858286016129b9565b9250506020612c1385828601612a61565b9150509250929050565b600060208284031215612c2f57600080fd5b6000612c3d848285016129e3565b91505092915050565b600060208284031215612c5857600080fd5b6000612c66848285016129f8565b91505092915050565b600080600080600060a08688031215612c8757600080fd5b600086013567ffffffffffffffff811115612ca157600080fd5b612cad88828901612a37565b9550506020612cbe88828901612a61565b945050604086013567ffffffffffffffff811115612cdb57600080fd5b612ce788828901612a37565b935050606086013567ffffffffffffffff811115612d0457600080fd5b612d1088828901612a37565b9250506080612d2188828901612a61565b9150509295509295909350565b600060208284031215612d4057600080fd5b6000612d4e84828501612a61565b91505092915050565b612d608161396b565b82525050565b612d6f8161397d565b82525050565b6000612d808261386d565b612d8a8185613883565b9350612d9a8185602086016139ee565b612da381613b89565b840191505092915050565b6000612db982613878565b612dc38185613894565b9350612dd38185602086016139ee565b612ddc81613b89565b840191505092915050565b6000612df282613878565b612dfc81856138a5565b9350612e0c8185602086016139ee565b80840191505092915050565b6000612e25602b83613894565b91507f455243373231456e756d657261626c653a206f776e657220696e646578206f7560008301527f74206f6620626f756e64730000000000000000000000000000000000000000006020830152604082019050919050565b6000612e8b603283613894565b91507f4552433732313a207472616e7366657220746f206e6f6e20455243373231526560008301527f63656976657220696d706c656d656e74657200000000000000000000000000006020830152604082019050919050565b6000612ef1601c83613894565b91507f4552433732313a20746f6b656e20616c7265616479206d696e746564000000006000830152602082019050919050565b6000612f31602483613894565b91507f4552433732313a207472616e7366657220746f20746865207a65726f2061646460008301527f72657373000000000000000000000000000000000000000000000000000000006020830152604082019050919050565b6000612f97601983613894565b91507f4552433732313a20617070726f766520746f2063616c6c6572000000000000006000830152602082019050919050565b6000612fd7602c83613894565b91507f4552433732313a206f70657261746f7220717565727920666f72206e6f6e657860008301527f697374656e7420746f6b656e00000000000000000000000000000000000000006020830152604082019050919050565b600061303d603883613894565b91507f4552433732313a20617070726f76652063616c6c6572206973206e6f74206f7760008301527f6e6572206e6f7220617070726f76656420666f7220616c6c00000000000000006020830152604082019050919050565b60006130a3602a83613894565b91507f4552433732313a2062616c616e636520717565727920666f7220746865207a6560008301527f726f2061646472657373000000000000000000000000000000000000000000006020830152604082019050919050565b6000613109602983613894565b91507f4552433732313a206f776e657220717565727920666f72206e6f6e657869737460008301527f656e7420746f6b656e00000000000000000000000000000000000000000000006020830152604082019050919050565b600061316f602083613894565b91507f4552433732313a206d696e7420746f20746865207a65726f20616464726573736000830152602082019050919050565b60006131af602c83613894565b91507f4552433732313a20617070726f76656420717565727920666f72206e6f6e657860008301527f697374656e7420746f6b656e00000000000000000000000000000000000000006020830152604082019050919050565b6000613215602983613894565b91507f4552433732313a207472616e73666572206f6620746f6b656e2074686174206960008301527f73206e6f74206f776e00000000000000000000000000000000000000000000006020830152604082019050919050565b600061327b602f83613894565b91507f4552433732314d657461646174613a2055524920717565727920666f72206e6f60008301527f6e6578697374656e7420746f6b656e00000000000000000000000000000000006020830152604082019050919050565b60006132e1602183613894565b91507f4552433732313a20617070726f76616c20746f2063757272656e74206f776e6560008301527f72000000000000000000000000000000000000000000000000000000000000006020830152604082019050919050565b6000613347603183613894565b91507f4552433732313a207472616e736665722063616c6c6572206973206e6f74206f60008301527f776e6572206e6f7220617070726f7665640000000000000000000000000000006020830152604082019050919050565b60006133ad602c83613894565b91507f455243373231456e756d657261626c653a20676c6f62616c20696e646578206f60008301527f7574206f6620626f756e647300000000000000000000000000000000000000006020830152604082019050919050565b6000613413600e83613894565b91507f4e6f7420656e6f756768204574680000000000000000000000000000000000006000830152602082019050919050565b61344f816139d5565b82525050565b60006134618285612de7565b915061346d8284612de7565b91508190509392505050565b600060208201905061348e6000830184612d57565b92915050565b60006080820190506134a96000830187612d57565b6134b66020830186612d57565b6134c36040830185613446565b81810360608301526134d58184612d75565b905095945050505050565b60006020820190506134f56000830184612d66565b92915050565b600060208201905081810360008301526135158184612dae565b905092915050565b600060e0820190508181036000830152613537818a612dae565b90506135466020830189613446565b6135536040830188612d57565b6135606060830187613446565b81810360808301526135728186612dae565b905081810360a08301526135868185612dae565b905061359560c0830184613446565b98975050505050505050565b600060208201905081810360008301526135ba81612e18565b9050919050565b600060208201905081810360008301526135da81612e7e565b9050919050565b600060208201905081810360008301526135fa81612ee4565b9050919050565b6000602082019050818103600083015261361a81612f24565b9050919050565b6000602082019050818103600083015261363a81612f8a565b9050919050565b6000602082019050818103600083015261365a81612fca565b9050919050565b6000602082019050818103600083015261367a81613030565b9050919050565b6000602082019050818103600083015261369a81613096565b9050919050565b600060208201905081810360008301526136ba816130fc565b9050919050565b600060208201905081810360008301526136da81613162565b9050919050565b600060208201905081810360008301526136fa816131a2565b9050919050565b6000602082019050818103600083015261371a81613208565b9050919050565b6000602082019050818103600083015261373a8161326e565b9050919050565b6000602082019050818103600083015261375a816132d4565b9050919050565b6000602082019050818103600083015261377a8161333a565b9050919050565b6000602082019050818103600083015261379a816133a0565b9050919050565b600060208201905081810360008301526137ba81613406565b9050919050565b60006020820190506137d66000830184613446565b92915050565b6000604051905081810181811067ffffffffffffffff8211171561380357613802613b5a565b5b8060405250919050565b600067ffffffffffffffff82111561382857613827613b5a565b5b601f19601f8301169050602081019050919050565b600067ffffffffffffffff82111561385857613857613b5a565b5b601f19601f8301169050602081019050919050565b600081519050919050565b600081519050919050565b600082825260208201905092915050565b600082825260208201905092915050565b600081905092915050565b60006138bb826139d5565b91506138c6836139d5565b9250827fffffffffffffffffffffffffffffffffffffffffffffffffffffffffffffffff038211156138fb576138fa613acd565b5b828201905092915050565b6000613911826139d5565b915061391c836139d5565b92508261392c5761392b613afc565b5b828204905092915050565b6000613942826139d5565b915061394d836139d5565b9250828210156139605761395f613acd565b5b828203905092915050565b6000613976826139b5565b9050919050565b60008115159050919050565b60007fffffffff0000000000000000000000000000000000000000000000000000000082169050919050565b600073ffffffffffffffffffffffffffffffffffffffff82169050919050565b6000819050919050565b82818337600083830152505050565b60005b83811015613a0c5780820151818401526020810190506139f1565b83811115613a1b576000848401525b50505050565b60006002820490506001821680613a3957607f821691505b60208210811415613a4d57613a4c613b2b565b5b50919050565b6000613a5e826139d5565b91507fffffffffffffffffffffffffffffffffffffffffffffffffffffffffffffffff821415613a9157613a90613acd565b5b600182019050919050565b6000613aa7826139d5565b9150613ab2836139d5565b925082613ac257613ac1613afc565b5b828206905092915050565b7f4e487b7100000000000000000000000000000000000000000000000000000000600052601160045260246000fd5b7f4e487b7100000000000000000000000000000000000000000000000000000000600052601260045260246000fd5b7f4e487b7100000000000000000000000000000000000000000000000000000000600052602260045260246000fd5b7f4e487b7100000000000000000000000000000000000000000000000000000000600052604160045260246000fd5b6000601f19601f8301169050919050565b613ba38161396b565b8114613bae57600080fd5b50565b613bba8161397d565b8114613bc557600080fd5b50565b613bd181613989565b8114613bdc57600080fd5b50565b613be8816139d5565b8114613bf357600080fd5b5056fea2646970667358221220edbc60aec314c7eb4aa66ab174e3e9712eacdfda5d4ebe09893e9fde0f8be0f264736f6c63430008000033",
  "immutableReferences": {},
  "source": "// SPDX-License-Identifier: MIT\npragma solidity >=0.4.22 <0.9.0;\n\nimport \"@openzeppelin/contracts/token/ERC721/ERC721.sol\";\nimport \"@openzeppelin/contracts/token/ERC721/extensions/ERC721Enumerable.sol\";\n\ncontract Cards is ERC721Enumerable {\n    address public admin;\n    uint256 public nextItemId;\n\n    event cardMinted(\n        string title,\n        uint256 id,\n        address owner,\n        uint256 price,\n        string description,\n        string urlPicture,\n        uint256 timestamp,\n        string club,\n        uint256 totalAmount,\n        address createdBy\n    );\n\n    event cardTransfered(\n        uint256 id,\n        address from,\n        address to,\n        uint256 timestamp\n    );\n\n    struct Card {\n        string title;\n        uint256 id;\n        address owner;\n        uint256 price;\n        string description;\n        string urlPicture;\n        uint256 timestamp;\n    }\n\n    mapping(address => mapping(uint256 => Card)) public marketCards;\n    mapping(address => mapping(uint256 => Card)) public myCards;\n\n    constructor() ERC721(\"Cards Futebol\", \"FUT\") {\n        admin = msg.sender;\n    }\n\n    function buyCardFromMarket(uint256 tokenId) external payable {\n        require(\n            msg.value >= marketCards[address(this)][tokenId].price,\n            \"Not enough Eth\"\n        );\n\n        _transfer(address(this), msg.sender, tokenId);\n        myCards[msg.sender][tokenId] = marketCards[address(this)][tokenId];\n        delete marketCards[address(this)][tokenId];\n    }\n\n    function mintCards(\n        string memory _title,\n        uint256 _price,\n        string memory _description,\n        string memory _urlPicture,\n        uint256 _totalAmount\n    ) external {\n        for (uint256 i = 0; i < _totalAmount; i++) {\n            Card memory card = Card({\n                title: _title,\n                id: nextItemId,\n                owner: address(this),\n                price: _price,\n                description: _description,\n                urlPicture: _urlPicture,\n                timestamp: block.timestamp\n            });\n            _mint(address(this), nextItemId);\n            marketCards[address(this)][nextItemId] = card;\n            nextItemId++;\n\n            // emit cardMinted(\n            //     card.title,\n            //     card.id,\n            //     card.owner,\n            //     card.price,\n            //     card.description,\n            //     card.urlPicture,\n            //     card.timestamp,\n            //     card.club,\n            //     card.totalAmount,\n            //     card.createdBy\n            // );\n        }\n\n        // tokenOfOwnerByIndex(owner, index);\n        // tokenByIndex(index);\n    }\n\n    function _baseURI() internal view virtual override returns (string memory) {\n        return \"\";\n    }\n}\n",
  "sourcePath": "/Volumes/APPLE HDD/reactprojects/cards-nft/contracts/Cards.sol",
  "compiler": {
    "name": "solc",
    "version": "0.8.0+commit.c7dfd78e.Emscripten.clang"
  },
  "schemaVersion": "3.4.3",
  "updatedAt": "2021-10-12T06:30:53.071Z",
  "networkType": "ethereum",
  "devdoc": {
    "kind": "dev",
    "methods": {
      "approve(address,uint256)": {
        "details": "See {IERC721-approve}."
      },
      "balanceOf(address)": {
        "details": "See {IERC721-balanceOf}."
      },
      "getApproved(uint256)": {
        "details": "See {IERC721-getApproved}."
      },
      "isApprovedForAll(address,address)": {
        "details": "See {IERC721-isApprovedForAll}."
      },
      "name()": {
        "details": "See {IERC721Metadata-name}."
      },
      "ownerOf(uint256)": {
        "details": "See {IERC721-ownerOf}."
      },
      "safeTransferFrom(address,address,uint256)": {
        "details": "See {IERC721-safeTransferFrom}."
      },
      "safeTransferFrom(address,address,uint256,bytes)": {
        "details": "See {IERC721-safeTransferFrom}."
      },
      "setApprovalForAll(address,bool)": {
        "details": "See {IERC721-setApprovalForAll}."
      },
      "supportsInterface(bytes4)": {
        "details": "See {IERC165-supportsInterface}."
      },
      "symbol()": {
        "details": "See {IERC721Metadata-symbol}."
      },
      "tokenByIndex(uint256)": {
        "details": "See {IERC721Enumerable-tokenByIndex}."
      },
      "tokenOfOwnerByIndex(address,uint256)": {
        "details": "See {IERC721Enumerable-tokenOfOwnerByIndex}."
      },
      "tokenURI(uint256)": {
        "details": "See {IERC721Metadata-tokenURI}."
      },
      "totalSupply()": {
        "details": "See {IERC721Enumerable-totalSupply}."
      },
      "transferFrom(address,address,uint256)": {
        "details": "See {IERC721-transferFrom}."
      }
    },
    "version": 1
  },
  "userdoc": {
    "kind": "user",
    "methods": {},
    "version": 1
  }
}