{
  "contractName": "Cards",
  "abi": [
    {
      "inputs": [],
      "stateMutability": "nonpayable",
      "type": "constructor"
    },
    {
      "anonymous": false,
      "inputs": [
        {
          "indexed": true,
          "internalType": "address",
          "name": "owner",
          "type": "address"
        },
        {
          "indexed": true,
          "internalType": "address",
          "name": "approved",
          "type": "address"
        },
        {
          "indexed": true,
          "internalType": "uint256",
          "name": "tokenId",
          "type": "uint256"
        }
      ],
      "name": "Approval",
      "type": "event"
    },
    {
      "anonymous": false,
      "inputs": [
        {
          "indexed": true,
          "internalType": "address",
          "name": "owner",
          "type": "address"
        },
        {
          "indexed": true,
          "internalType": "address",
          "name": "operator",
          "type": "address"
        },
        {
          "indexed": false,
          "internalType": "bool",
          "name": "approved",
          "type": "bool"
        }
      ],
      "name": "ApprovalForAll",
      "type": "event"
    },
    {
      "anonymous": false,
      "inputs": [
        {
          "indexed": true,
          "internalType": "address",
          "name": "from",
          "type": "address"
        },
        {
          "indexed": true,
          "internalType": "address",
          "name": "to",
          "type": "address"
        },
        {
          "indexed": true,
          "internalType": "uint256",
          "name": "tokenId",
          "type": "uint256"
        }
      ],
      "name": "Transfer",
      "type": "event"
    },
    {
      "inputs": [],
      "name": "admin",
      "outputs": [
        {
          "internalType": "address",
          "name": "",
          "type": "address"
        }
      ],
      "stateMutability": "view",
      "type": "function",
      "constant": true
    },
    {
      "inputs": [
        {
          "internalType": "address",
          "name": "",
          "type": "address"
        }
      ],
      "name": "admins",
      "outputs": [
        {
          "internalType": "bool",
          "name": "",
          "type": "bool"
        }
      ],
      "stateMutability": "view",
      "type": "function",
      "constant": true
    },
    {
      "inputs": [
        {
          "internalType": "address",
          "name": "to",
          "type": "address"
        },
        {
          "internalType": "uint256",
          "name": "tokenId",
          "type": "uint256"
        }
      ],
      "name": "approve",
      "outputs": [],
      "stateMutability": "nonpayable",
      "type": "function"
    },
    {
      "inputs": [
        {
          "internalType": "address",
          "name": "owner",
          "type": "address"
        }
      ],
      "name": "balanceOf",
      "outputs": [
        {
          "internalType": "uint256",
          "name": "",
          "type": "uint256"
        }
      ],
      "stateMutability": "view",
      "type": "function",
      "constant": true
    },
    {
      "inputs": [
        {
          "internalType": "uint256",
          "name": "tokenId",
          "type": "uint256"
        }
      ],
      "name": "getApproved",
      "outputs": [
        {
          "internalType": "address",
          "name": "",
          "type": "address"
        }
      ],
      "stateMutability": "view",
      "type": "function",
      "constant": true
    },
    {
      "inputs": [
        {
          "internalType": "address",
          "name": "owner",
          "type": "address"
        },
        {
          "internalType": "address",
          "name": "operator",
          "type": "address"
        }
      ],
      "name": "isApprovedForAll",
      "outputs": [
        {
          "internalType": "bool",
          "name": "",
          "type": "bool"
        }
      ],
      "stateMutability": "view",
      "type": "function",
      "constant": true
    },
    {
      "inputs": [
        {
          "internalType": "address",
          "name": "",
          "type": "address"
        },
        {
          "internalType": "uint256",
          "name": "",
          "type": "uint256"
        }
      ],
      "name": "marketCards",
      "outputs": [
        {
          "internalType": "uint256",
          "name": "id",
          "type": "uint256"
        },
        {
          "internalType": "string",
          "name": "title",
          "type": "string"
        },
        {
          "internalType": "address",
          "name": "owner",
          "type": "address"
        },
        {
          "internalType": "uint256",
          "name": "price",
          "type": "uint256"
        },
        {
          "internalType": "string",
          "name": "description",
          "type": "string"
        },
        {
          "internalType": "string",
          "name": "urlPicture",
          "type": "string"
        },
        {
          "internalType": "uint256",
          "name": "timestamp",
          "type": "uint256"
        }
      ],
      "stateMutability": "view",
      "type": "function",
      "constant": true
    },
    {
      "inputs": [
        {
          "internalType": "address",
          "name": "",
          "type": "address"
        },
        {
          "internalType": "uint256",
          "name": "",
          "type": "uint256"
        }
      ],
      "name": "myCards",
      "outputs": [
        {
          "internalType": "uint256",
          "name": "id",
          "type": "uint256"
        },
        {
          "internalType": "string",
          "name": "title",
          "type": "string"
        },
        {
          "internalType": "address",
          "name": "owner",
          "type": "address"
        },
        {
          "internalType": "uint256",
          "name": "price",
          "type": "uint256"
        },
        {
          "internalType": "string",
          "name": "description",
          "type": "string"
        },
        {
          "internalType": "string",
          "name": "urlPicture",
          "type": "string"
        },
        {
          "internalType": "uint256",
          "name": "timestamp",
          "type": "uint256"
        }
      ],
      "stateMutability": "view",
      "type": "function",
      "constant": true
    },
    {
      "inputs": [],
      "name": "name",
      "outputs": [
        {
          "internalType": "string",
          "name": "",
          "type": "string"
        }
      ],
      "stateMutability": "view",
      "type": "function",
      "constant": true
    },
    {
      "inputs": [],
      "name": "nextItemId",
      "outputs": [
        {
          "internalType": "uint256",
          "name": "",
          "type": "uint256"
        }
      ],
      "stateMutability": "view",
      "type": "function",
      "constant": true
    },
    {
      "inputs": [
        {
          "internalType": "uint256",
          "name": "tokenId",
          "type": "uint256"
        }
      ],
      "name": "ownerOf",
      "outputs": [
        {
          "internalType": "address",
          "name": "",
          "type": "address"
        }
      ],
      "stateMutability": "view",
      "type": "function",
      "constant": true
    },
    {
      "inputs": [
        {
          "internalType": "address",
          "name": "from",
          "type": "address"
        },
        {
          "internalType": "address",
          "name": "to",
          "type": "address"
        },
        {
          "internalType": "uint256",
          "name": "tokenId",
          "type": "uint256"
        }
      ],
      "name": "safeTransferFrom",
      "outputs": [],
      "stateMutability": "nonpayable",
      "type": "function"
    },
    {
      "inputs": [
        {
          "internalType": "address",
          "name": "from",
          "type": "address"
        },
        {
          "internalType": "address",
          "name": "to",
          "type": "address"
        },
        {
          "internalType": "uint256",
          "name": "tokenId",
          "type": "uint256"
        },
        {
          "internalType": "bytes",
          "name": "_data",
          "type": "bytes"
        }
      ],
      "name": "safeTransferFrom",
      "outputs": [],
      "stateMutability": "nonpayable",
      "type": "function"
    },
    {
      "inputs": [
        {
          "internalType": "address",
          "name": "operator",
          "type": "address"
        },
        {
          "internalType": "bool",
          "name": "approved",
          "type": "bool"
        }
      ],
      "name": "setApprovalForAll",
      "outputs": [],
      "stateMutability": "nonpayable",
      "type": "function"
    },
    {
      "inputs": [
        {
          "internalType": "bytes4",
          "name": "interfaceId",
          "type": "bytes4"
        }
      ],
      "name": "supportsInterface",
      "outputs": [
        {
          "internalType": "bool",
          "name": "",
          "type": "bool"
        }
      ],
      "stateMutability": "view",
      "type": "function",
      "constant": true
    },
    {
      "inputs": [],
      "name": "symbol",
      "outputs": [
        {
          "internalType": "string",
          "name": "",
          "type": "string"
        }
      ],
      "stateMutability": "view",
      "type": "function",
      "constant": true
    },
    {
      "inputs": [
        {
          "internalType": "uint256",
          "name": "index",
          "type": "uint256"
        }
      ],
      "name": "tokenByIndex",
      "outputs": [
        {
          "internalType": "uint256",
          "name": "",
          "type": "uint256"
        }
      ],
      "stateMutability": "view",
      "type": "function",
      "constant": true
    },
    {
      "inputs": [
        {
          "internalType": "address",
          "name": "owner",
          "type": "address"
        },
        {
          "internalType": "uint256",
          "name": "index",
          "type": "uint256"
        }
      ],
      "name": "tokenOfOwnerByIndex",
      "outputs": [
        {
          "internalType": "uint256",
          "name": "",
          "type": "uint256"
        }
      ],
      "stateMutability": "view",
      "type": "function",
      "constant": true
    },
    {
      "inputs": [
        {
          "internalType": "uint256",
          "name": "tokenId",
          "type": "uint256"
        }
      ],
      "name": "tokenURI",
      "outputs": [
        {
          "internalType": "string",
          "name": "",
          "type": "string"
        }
      ],
      "stateMutability": "view",
      "type": "function",
      "constant": true
    },
    {
      "inputs": [],
      "name": "totalSupply",
      "outputs": [
        {
          "internalType": "uint256",
          "name": "",
          "type": "uint256"
        }
      ],
      "stateMutability": "view",
      "type": "function",
      "constant": true
    },
    {
      "inputs": [
        {
          "internalType": "address",
          "name": "from",
          "type": "address"
        },
        {
          "internalType": "address",
          "name": "to",
          "type": "address"
        },
        {
          "internalType": "uint256",
          "name": "tokenId",
          "type": "uint256"
        }
      ],
      "name": "transferFrom",
      "outputs": [],
      "stateMutability": "nonpayable",
      "type": "function"
    },
    {
      "inputs": [
        {
          "internalType": "uint256",
          "name": "_price",
          "type": "uint256"
        },
        {
          "internalType": "string",
          "name": "_title",
          "type": "string"
        },
        {
          "internalType": "string",
          "name": "_description",
          "type": "string"
        },
        {
          "internalType": "string",
          "name": "_urlPicture",
          "type": "string"
        }
      ],
      "name": "mintCards",
      "outputs": [],
      "stateMutability": "nonpayable",
      "type": "function"
    },
    {
      "inputs": [
        {
          "internalType": "address",
          "name": "_newAdmin",
          "type": "address"
        }
      ],
      "name": "addAdmin",
      "outputs": [
        {
          "internalType": "bool",
          "name": "",
          "type": "bool"
        }
      ],
      "stateMutability": "nonpayable",
      "type": "function"
    }
  ],
  "bytecode": "0x60806040523480156200001157600080fd5b506040518060400160405280600d81526020017f43617264732046757465626f6c000000000000000000000000000000000000008152506040518060400160405280600381526020017f4655540000000000000000000000000000000000000000000000000000000000815250816000908051906020019062000096929190620000f9565b508060019080519060200190620000af929190620000f9565b50505033600a60006101000a81548173ffffffffffffffffffffffffffffffffffffffff021916908373ffffffffffffffffffffffffffffffffffffffff1602179055506200020e565b8280546200010790620001a9565b90600052602060002090601f0160209004810192826200012b576000855562000177565b82601f106200014657805160ff191683800117855562000177565b8280016001018555821562000177579182015b828111156200017657825182559160200191906001019062000159565b5b5090506200018691906200018a565b5090565b5b80821115620001a55760008160009055506001016200018b565b5090565b60006002820490506001821680620001c257607f821691505b60208210811415620001d957620001d8620001df565b5b50919050565b7f4e487b7100000000000000000000000000000000000000000000000000000000600052602260045260246000fd5b61389b806200021e6000396000f3fe608060405234801561001057600080fd5b506004361061014d5760003560e01c80636352211e116100c3578063b88d4fde1161007c578063b88d4fde146103f0578063c87b56dd1461040c578063e985e9c51461043c578063e9cb5dd61461046c578063f851a440146104a2578063feec12cd146104c05761014d565b80636352211e146103085780636a86897414610338578063704802751461035657806370a082311461038657806395d89b41146103b6578063a22cb465146103d45761014d565b806323b872dd1161011557806323b872dd1461020a5780632518d7e0146102265780632f745c591461025c57806342842e0e1461028c578063429b62e5146102a85780634f6ccce7146102d85761014d565b806301ffc9a71461015257806306fdde0314610182578063081812fc146101a0578063095ea7b3146101d057806318160ddd146101ec575b600080fd5b61016c600480360381019061016791906128a0565b6104dc565b604051610179919061314f565b60405180910390f35b61018a610556565b604051610197919061316a565b60405180910390f35b6101ba60048036038101906101b591906128f2565b6105e8565b6040516101c791906130e8565b60405180910390f35b6101ea60048036038101906101e59190612864565b61066d565b005b6101f4610785565b60405161020191906133ac565b60405180910390f35b610224600480360381019061021f919061275e565b610792565b005b610240600480360381019061023b9190612864565b6107f2565b60405161025397969594939291906133c7565b60405180910390f35b61027660048036038101906102719190612864565b6109f9565b60405161028391906133ac565b60405180910390f35b6102a660048036038101906102a1919061275e565b610a9e565b005b6102c260048036038101906102bd91906126f9565b610abe565b6040516102cf919061314f565b60405180910390f35b6102f260048036038101906102ed91906128f2565b610ade565b6040516102ff91906133ac565b60405180910390f35b610322600480360381019061031d91906128f2565b610b75565b60405161032f91906130e8565b60405180910390f35b610340610c27565b60405161034d91906133ac565b60405180910390f35b610370600480360381019061036b91906126f9565b610c2d565b60405161037d919061314f565b60405180910390f35b6103a0600480360381019061039b91906126f9565b610d20565b6040516103ad91906133ac565b60405180910390f35b6103be610dd8565b6040516103cb919061316a565b60405180910390f35b6103ee60048036038101906103e99190612828565b610e6a565b005b61040a600480360381019061040591906127ad565b610feb565b005b610426600480360381019061042191906128f2565b61104d565b604051610433919061316a565b60405180910390f35b61045660048036038101906104519190612722565b6110f4565b604051610463919061314f565b60405180910390f35b61048660048036038101906104819190612864565b611188565b60405161049997969594939291906133c7565b60405180910390f35b6104aa61138f565b6040516104b791906130e8565b60405180910390f35b6104da60048036038101906104d5919061291b565b6113b5565b005b60007f780e9d63000000000000000000000000000000000000000000000000000000007bffffffffffffffffffffffffffffffffffffffffffffffffffffffff1916827bffffffffffffffffffffffffffffffffffffffffffffffffffffffff1916148061054f575061054e82611541565b5b9050919050565b60606000805461056590613690565b80601f016020809104026020016040519081016040528092919081815260200182805461059190613690565b80156105de5780601f106105b3576101008083540402835291602001916105de565b820191906000526020600020905b8154815290600101906020018083116105c157829003601f168201915b5050505050905090565b60006105f382611623565b610632576040517f08c379a0000000000000000000000000000000000000000000000000000000008152600401610629906132cc565b60405180910390fd5b6004600083815260200190815260200160002060009054906101000a900473ffffffffffffffffffffffffffffffffffffffff169050919050565b600061067882610b75565b90508073ffffffffffffffffffffffffffffffffffffffff168373ffffffffffffffffffffffffffffffffffffffff1614156106e9576040517f08c379a00000000000000000000000000000000000000000000000000000000081526004016106e09061334c565b60405180910390fd5b8073ffffffffffffffffffffffffffffffffffffffff1661070861168f565b73ffffffffffffffffffffffffffffffffffffffff16148061073757506107368161073161168f565b6110f4565b5b610776576040517f08c379a000000000000000000000000000000000000000000000000000000000815260040161076d9061324c565b60405180910390fd5b6107808383611697565b505050565b6000600880549050905090565b6107a361079d61168f565b82611750565b6107e2576040517f08c379a00000000000000000000000000000000000000000000000000000000081526004016107d99061336c565b60405180910390fd5b6107ed83838361182e565b505050565b600c6020528160005260406000206020528060005260406000206000915091505080600001549080600101805461082890613690565b80601f016020809104026020016040519081016040528092919081815260200182805461085490613690565b80156108a15780601f10610876576101008083540402835291602001916108a1565b820191906000526020600020905b81548152906001019060200180831161088457829003601f168201915b5050505050908060020160009054906101000a900473ffffffffffffffffffffffffffffffffffffffff16908060030154908060040180546108e290613690565b80601f016020809104026020016040519081016040528092919081815260200182805461090e90613690565b801561095b5780601f106109305761010080835404028352916020019161095b565b820191906000526020600020905b81548152906001019060200180831161093e57829003601f168201915b50505050509080600501805461097090613690565b80601f016020809104026020016040519081016040528092919081815260200182805461099c90613690565b80156109e95780601f106109be576101008083540402835291602001916109e9565b820191906000526020600020905b8154815290600101906020018083116109cc57829003601f168201915b5050505050908060060154905087565b6000610a0483610d20565b8210610a45576040517f08c379a0000000000000000000000000000000000000000000000000000000008152600401610a3c9061318c565b60405180910390fd5b600660008473ffffffffffffffffffffffffffffffffffffffff1673ffffffffffffffffffffffffffffffffffffffff168152602001908152602001600020600083815260200190815260200160002054905092915050565b610ab983838360405180602001604052806000815250610feb565b505050565b600e6020528060005260406000206000915054906101000a900460ff1681565b6000610ae8610785565b8210610b29576040517f08c379a0000000000000000000000000000000000000000000000000000000008152600401610b209061338c565b60405180910390fd5b60088281548110610b63577f4e487b7100000000000000000000000000000000000000000000000000000000600052603260045260246000fd5b90600052602060002001549050919050565b6000806002600084815260200190815260200160002060009054906101000a900473ffffffffffffffffffffffffffffffffffffffff169050600073ffffffffffffffffffffffffffffffffffffffff168173ffffffffffffffffffffffffffffffffffffffff161415610c1e576040517f08c379a0000000000000000000000000000000000000000000000000000000008152600401610c159061328c565b60405180910390fd5b80915050919050565b600b5481565b6000600a60009054906101000a900473ffffffffffffffffffffffffffffffffffffffff1673ffffffffffffffffffffffffffffffffffffffff163373ffffffffffffffffffffffffffffffffffffffff1614610cbf576040517f08c379a0000000000000000000000000000000000000000000000000000000008152600401610cb69061332c565b60405180910390fd5b6001600e60008473ffffffffffffffffffffffffffffffffffffffff1673ffffffffffffffffffffffffffffffffffffffff16815260200190815260200160002060006101000a81548160ff02191690831515021790555060019050919050565b60008073ffffffffffffffffffffffffffffffffffffffff168273ffffffffffffffffffffffffffffffffffffffff161415610d91576040517f08c379a0000000000000000000000000000000000000000000000000000000008152600401610d889061326c565b60405180910390fd5b600360008373ffffffffffffffffffffffffffffffffffffffff1673ffffffffffffffffffffffffffffffffffffffff168152602001908152602001600020549050919050565b606060018054610de790613690565b80601f0160208091040260200160405190810160405280929190818152602001828054610e1390613690565b8015610e605780601f10610e3557610100808354040283529160200191610e60565b820191906000526020600020905b815481529060010190602001808311610e4357829003601f168201915b5050505050905090565b610e7261168f565b73ffffffffffffffffffffffffffffffffffffffff168273ffffffffffffffffffffffffffffffffffffffff161415610ee0576040517f08c379a0000000000000000000000000000000000000000000000000000000008152600401610ed79061320c565b60405180910390fd5b8060056000610eed61168f565b73ffffffffffffffffffffffffffffffffffffffff1673ffffffffffffffffffffffffffffffffffffffff16815260200190815260200160002060008473ffffffffffffffffffffffffffffffffffffffff1673ffffffffffffffffffffffffffffffffffffffff16815260200190815260200160002060006101000a81548160ff0219169083151502179055508173ffffffffffffffffffffffffffffffffffffffff16610f9a61168f565b73ffffffffffffffffffffffffffffffffffffffff167f17307eab39ab6107e8899845ad3d59bd9653f200f220920489ca2b5937696c3183604051610fdf919061314f565b60405180910390a35050565b610ffc610ff661168f565b83611750565b61103b576040517f08c379a00000000000000000000000000000000000000000000000000000000081526004016110329061336c565b60405180910390fd5b61104784848484611a8a565b50505050565b606061105882611623565b611097576040517f08c379a000000000000000000000000000000000000000000000000000000000815260040161108e9061330c565b60405180910390fd5b60006110a1611ae6565b905060008151116110c157604051806020016040528060008152506110ec565b806110cb84611afd565b6040516020016110dc9291906130c4565b6040516020818303038152906040525b915050919050565b6000600560008473ffffffffffffffffffffffffffffffffffffffff1673ffffffffffffffffffffffffffffffffffffffff16815260200190815260200160002060008373ffffffffffffffffffffffffffffffffffffffff1673ffffffffffffffffffffffffffffffffffffffff16815260200190815260200160002060009054906101000a900460ff16905092915050565b600d602052816000526040600020602052806000526040600020600091509150508060000154908060010180546111be90613690565b80601f01602080910402602001604051908101604052809291908181526020018280546111ea90613690565b80156112375780601f1061120c57610100808354040283529160200191611237565b820191906000526020600020905b81548152906001019060200180831161121a57829003601f168201915b5050505050908060020160009054906101000a900473ffffffffffffffffffffffffffffffffffffffff169080600301549080600401805461127890613690565b80601f01602080910402602001604051908101604052809291908181526020018280546112a490613690565b80156112f15780601f106112c6576101008083540402835291602001916112f1565b820191906000526020600020905b8154815290600101906020018083116112d457829003601f168201915b50505050509080600501805461130690613690565b80601f016020809104026020016040519081016040528092919081815260200182805461133290613690565b801561137f5780601f106113545761010080835404028352916020019161137f565b820191906000526020600020905b81548152906001019060200180831161136257829003601f168201915b5050505050908060060154905087565b600a60009054906101000a900473ffffffffffffffffffffffffffffffffffffffff1681565b60006040518060e00160405280600b5481526020018581526020013073ffffffffffffffffffffffffffffffffffffffff16815260200186815260200184815260200183815260200142815250905061141030600b54611caa565b80600c60003073ffffffffffffffffffffffffffffffffffffffff1673ffffffffffffffffffffffffffffffffffffffff1681526020019081526020016000206000600b54815260200190815260200160002060008201518160000155602082015181600101908051906020019061148992919061251d565b5060408201518160020160006101000a81548173ffffffffffffffffffffffffffffffffffffffff021916908373ffffffffffffffffffffffffffffffffffffffff1602179055506060820151816003015560808201518160040190805190602001906114f792919061251d565b5060a082015181600501908051906020019061151492919061251d565b5060c08201518160060155905050600b6000815480929190611535906136c2565b91905055505050505050565b60007f80ac58cd000000000000000000000000000000000000000000000000000000007bffffffffffffffffffffffffffffffffffffffffffffffffffffffff1916827bffffffffffffffffffffffffffffffffffffffffffffffffffffffff1916148061160c57507f5b5e139f000000000000000000000000000000000000000000000000000000007bffffffffffffffffffffffffffffffffffffffffffffffffffffffff1916827bffffffffffffffffffffffffffffffffffffffffffffffffffffffff1916145b8061161c575061161b82611e78565b5b9050919050565b60008073ffffffffffffffffffffffffffffffffffffffff166002600084815260200190815260200160002060009054906101000a900473ffffffffffffffffffffffffffffffffffffffff1673ffffffffffffffffffffffffffffffffffffffff1614159050919050565b600033905090565b816004600083815260200190815260200160002060006101000a81548173ffffffffffffffffffffffffffffffffffffffff021916908373ffffffffffffffffffffffffffffffffffffffff160217905550808273ffffffffffffffffffffffffffffffffffffffff1661170a83610b75565b73ffffffffffffffffffffffffffffffffffffffff167f8c5be1e5ebec7d5bd14f71427d1e84f3dd0314c0f7b2291e5b200ac8c7c3b92560405160405180910390a45050565b600061175b82611623565b61179a576040517f08c379a00000000000000000000000000000000000000000000000000000000081526004016117919061322c565b60405180910390fd5b60006117a583610b75565b90508073ffffffffffffffffffffffffffffffffffffffff168473ffffffffffffffffffffffffffffffffffffffff16148061181457508373ffffffffffffffffffffffffffffffffffffffff166117fc846105e8565b73ffffffffffffffffffffffffffffffffffffffff16145b80611825575061182481856110f4565b5b91505092915050565b8273ffffffffffffffffffffffffffffffffffffffff1661184e82610b75565b73ffffffffffffffffffffffffffffffffffffffff16146118a4576040517f08c379a000000000000000000000000000000000000000000000000000000000815260040161189b906132ec565b60405180910390fd5b600073ffffffffffffffffffffffffffffffffffffffff168273ffffffffffffffffffffffffffffffffffffffff161415611914576040517f08c379a000000000000000000000000000000000000000000000000000000000815260040161190b906131ec565b60405180910390fd5b61191f838383611ee2565b61192a600082611697565b6001600360008573ffffffffffffffffffffffffffffffffffffffff1673ffffffffffffffffffffffffffffffffffffffff168152602001908152602001600020600082825461197a91906135a6565b925050819055506001600360008473ffffffffffffffffffffffffffffffffffffffff1673ffffffffffffffffffffffffffffffffffffffff16815260200190815260200160002060008282546119d1919061351f565b92505081905550816002600083815260200190815260200160002060006101000a81548173ffffffffffffffffffffffffffffffffffffffff021916908373ffffffffffffffffffffffffffffffffffffffff160217905550808273ffffffffffffffffffffffffffffffffffffffff168473ffffffffffffffffffffffffffffffffffffffff167fddf252ad1be2c89b69c2b068fc378daa952ba7f163c4a11628f55a4df523b3ef60405160405180910390a4505050565b611a9584848461182e565b611aa184848484611ff6565b611ae0576040517f08c379a0000000000000000000000000000000000000000000000000000000008152600401611ad7906131ac565b60405180910390fd5b50505050565b606060405180602001604052806000815250905090565b60606000821415611b45576040518060400160405280600181526020017f30000000000000000000000000000000000000000000000000000000000000008152509050611ca5565b600082905060005b60008214611b77578080611b60906136c2565b915050600a82611b709190613575565b9150611b4d565b60008167ffffffffffffffff811115611bb9577f4e487b7100000000000000000000000000000000000000000000000000000000600052604160045260246000fd5b6040519080825280601f01601f191660200182016040528015611beb5781602001600182028036833780820191505090505b5090505b60008514611c9e57600182611c0491906135a6565b9150600a85611c13919061370b565b6030611c1f919061351f565b60f81b818381518110611c5b577f4e487b7100000000000000000000000000000000000000000000000000000000600052603260045260246000fd5b60200101907effffffffffffffffffffffffffffffffffffffffffffffffffffffffffffff1916908160001a905350600a85611c979190613575565b9450611bef565b8093505050505b919050565b600073ffffffffffffffffffffffffffffffffffffffff168273ffffffffffffffffffffffffffffffffffffffff161415611d1a576040517f08c379a0000000000000000000000000000000000000000000000000000000008152600401611d11906132ac565b60405180910390fd5b611d2381611623565b15611d63576040517f08c379a0000000000000000000000000000000000000000000000000000000008152600401611d5a906131cc565b60405180910390fd5b611d6f60008383611ee2565b6001600360008473ffffffffffffffffffffffffffffffffffffffff1673ffffffffffffffffffffffffffffffffffffffff1681526020019081526020016000206000828254611dbf919061351f565b92505081905550816002600083815260200190815260200160002060006101000a81548173ffffffffffffffffffffffffffffffffffffffff021916908373ffffffffffffffffffffffffffffffffffffffff160217905550808273ffffffffffffffffffffffffffffffffffffffff16600073ffffffffffffffffffffffffffffffffffffffff167fddf252ad1be2c89b69c2b068fc378daa952ba7f163c4a11628f55a4df523b3ef60405160405180910390a45050565b60007f01ffc9a7000000000000000000000000000000000000000000000000000000007bffffffffffffffffffffffffffffffffffffffffffffffffffffffff1916827bffffffffffffffffffffffffffffffffffffffffffffffffffffffff1916149050919050565b611eed83838361218d565b600073ffffffffffffffffffffffffffffffffffffffff168373ffffffffffffffffffffffffffffffffffffffff161415611f3057611f2b81612192565b611f6f565b8173ffffffffffffffffffffffffffffffffffffffff168373ffffffffffffffffffffffffffffffffffffffff1614611f6e57611f6d83826121db565b5b5b600073ffffffffffffffffffffffffffffffffffffffff168273ffffffffffffffffffffffffffffffffffffffff161415611fb257611fad81612348565b611ff1565b8273ffffffffffffffffffffffffffffffffffffffff168273ffffffffffffffffffffffffffffffffffffffff1614611ff057611fef828261248b565b5b5b505050565b60006120178473ffffffffffffffffffffffffffffffffffffffff1661250a565b15612180578373ffffffffffffffffffffffffffffffffffffffff1663150b7a0261204061168f565b8786866040518563ffffffff1660e01b81526004016120629493929190613103565b602060405180830381600087803b15801561207c57600080fd5b505af19250505080156120ad57506040513d601f19601f820116820180604052508101906120aa91906128c9565b60015b612130573d80600081146120dd576040519150601f19603f3d011682016040523d82523d6000602084013e6120e2565b606091505b50600081511415612128576040517f08c379a000000000000000000000000000000000000000000000000000000000815260040161211f906131ac565b60405180910390fd5b805181602001fd5b63150b7a0260e01b7bffffffffffffffffffffffffffffffffffffffffffffffffffffffff1916817bffffffffffffffffffffffffffffffffffffffffffffffffffffffff191614915050612185565b600190505b949350505050565b505050565b6008805490506009600083815260200190815260200160002081905550600881908060018154018082558091505060019003906000526020600020016000909190919091505550565b600060016121e884610d20565b6121f291906135a6565b90506000600760008481526020019081526020016000205490508181146122d7576000600660008673ffffffffffffffffffffffffffffffffffffffff1673ffffffffffffffffffffffffffffffffffffffff168152602001908152602001600020600084815260200190815260200160002054905080600660008773ffffffffffffffffffffffffffffffffffffffff1673ffffffffffffffffffffffffffffffffffffffff168152602001908152602001600020600084815260200190815260200160002081905550816007600083815260200190815260200160002081905550505b6007600084815260200190815260200160002060009055600660008573ffffffffffffffffffffffffffffffffffffffff1673ffffffffffffffffffffffffffffffffffffffff16815260200190815260200160002060008381526020019081526020016000206000905550505050565b6000600160088054905061235c91906135a6565b90506000600960008481526020019081526020016000205490506000600883815481106123b2577f4e487b7100000000000000000000000000000000000000000000000000000000600052603260045260246000fd5b9060005260206000200154905080600883815481106123fa577f4e487b7100000000000000000000000000000000000000000000000000000000600052603260045260246000fd5b90600052602060002001819055508160096000838152602001908152602001600020819055506009600085815260200190815260200160002060009055600880548061246f577f4e487b7100000000000000000000000000000000000000000000000000000000600052603160045260246000fd5b6001900381819060005260206000200160009055905550505050565b600061249683610d20565b905081600660008573ffffffffffffffffffffffffffffffffffffffff1673ffffffffffffffffffffffffffffffffffffffff168152602001908152602001600020600083815260200190815260200160002081905550806007600084815260200190815260200160002081905550505050565b600080823b905060008111915050919050565b82805461252990613690565b90600052602060002090601f01602090048101928261254b5760008555612592565b82601f1061256457805160ff1916838001178555612592565b82800160010185558215612592579182015b82811115612591578251825591602001919060010190612576565b5b50905061259f91906125a3565b5090565b5b808211156125bc5760008160009055506001016125a4565b5090565b60006125d36125ce8461347c565b61344b565b9050828152602081018484840111156125eb57600080fd5b6125f684828561364e565b509392505050565b600061261161260c846134ac565b61344b565b90508281526020810184848401111561262957600080fd5b61263484828561364e565b509392505050565b60008135905061264b81613809565b92915050565b60008135905061266081613820565b92915050565b60008135905061267581613837565b92915050565b60008151905061268a81613837565b92915050565b600082601f8301126126a157600080fd5b81356126b18482602086016125c0565b91505092915050565b600082601f8301126126cb57600080fd5b81356126db8482602086016125fe565b91505092915050565b6000813590506126f38161384e565b92915050565b60006020828403121561270b57600080fd5b60006127198482850161263c565b91505092915050565b6000806040838503121561273557600080fd5b60006127438582860161263c565b92505060206127548582860161263c565b9150509250929050565b60008060006060848603121561277357600080fd5b60006127818682870161263c565b93505060206127928682870161263c565b92505060406127a3868287016126e4565b9150509250925092565b600080600080608085870312156127c357600080fd5b60006127d18782880161263c565b94505060206127e28782880161263c565b93505060406127f3878288016126e4565b925050606085013567ffffffffffffffff81111561281057600080fd5b61281c87828801612690565b91505092959194509250565b6000806040838503121561283b57600080fd5b60006128498582860161263c565b925050602061285a85828601612651565b9150509250929050565b6000806040838503121561287757600080fd5b60006128858582860161263c565b9250506020612896858286016126e4565b9150509250929050565b6000602082840312156128b257600080fd5b60006128c084828501612666565b91505092915050565b6000602082840312156128db57600080fd5b60006128e98482850161267b565b91505092915050565b60006020828403121561290457600080fd5b6000612912848285016126e4565b91505092915050565b6000806000806080858703121561293157600080fd5b600061293f878288016126e4565b945050602085013567ffffffffffffffff81111561295c57600080fd5b612968878288016126ba565b935050604085013567ffffffffffffffff81111561298557600080fd5b612991878288016126ba565b925050606085013567ffffffffffffffff8111156129ae57600080fd5b6129ba878288016126ba565b91505092959194509250565b6129cf816135da565b82525050565b6129de816135ec565b82525050565b60006129ef826134dc565b6129f981856134f2565b9350612a0981856020860161365d565b612a12816137f8565b840191505092915050565b6000612a28826134e7565b612a328185613503565b9350612a4281856020860161365d565b612a4b816137f8565b840191505092915050565b6000612a61826134e7565b612a6b8185613514565b9350612a7b81856020860161365d565b80840191505092915050565b6000612a94602b83613503565b91507f455243373231456e756d657261626c653a206f776e657220696e646578206f7560008301527f74206f6620626f756e64730000000000000000000000000000000000000000006020830152604082019050919050565b6000612afa603283613503565b91507f4552433732313a207472616e7366657220746f206e6f6e20455243373231526560008301527f63656976657220696d706c656d656e74657200000000000000000000000000006020830152604082019050919050565b6000612b60601c83613503565b91507f4552433732313a20746f6b656e20616c7265616479206d696e746564000000006000830152602082019050919050565b6000612ba0602483613503565b91507f4552433732313a207472616e7366657220746f20746865207a65726f2061646460008301527f72657373000000000000000000000000000000000000000000000000000000006020830152604082019050919050565b6000612c06601983613503565b91507f4552433732313a20617070726f766520746f2063616c6c6572000000000000006000830152602082019050919050565b6000612c46602c83613503565b91507f4552433732313a206f70657261746f7220717565727920666f72206e6f6e657860008301527f697374656e7420746f6b656e00000000000000000000000000000000000000006020830152604082019050919050565b6000612cac603883613503565b91507f4552433732313a20617070726f76652063616c6c6572206973206e6f74206f7760008301527f6e6572206e6f7220617070726f76656420666f7220616c6c00000000000000006020830152604082019050919050565b6000612d12602a83613503565b91507f4552433732313a2062616c616e636520717565727920666f7220746865207a6560008301527f726f2061646472657373000000000000000000000000000000000000000000006020830152604082019050919050565b6000612d78602983613503565b91507f4552433732313a206f776e657220717565727920666f72206e6f6e657869737460008301527f656e7420746f6b656e00000000000000000000000000000000000000000000006020830152604082019050919050565b6000612dde602083613503565b91507f4552433732313a206d696e7420746f20746865207a65726f20616464726573736000830152602082019050919050565b6000612e1e602c83613503565b91507f4552433732313a20617070726f76656420717565727920666f72206e6f6e657860008301527f697374656e7420746f6b656e00000000000000000000000000000000000000006020830152604082019050919050565b6000612e84602983613503565b91507f4552433732313a207472616e73666572206f6620746f6b656e2074686174206960008301527f73206e6f74206f776e00000000000000000000000000000000000000000000006020830152604082019050919050565b6000612eea602f83613503565b91507f4552433732314d657461646174613a2055524920717565727920666f72206e6f60008301527f6e6578697374656e7420746f6b656e00000000000000000000000000000000006020830152604082019050919050565b6000612f50601583613503565b91507f594f5520415245204e4f5420414e2041444d494e2100000000000000000000006000830152602082019050919050565b6000612f90602183613503565b91507f4552433732313a20617070726f76616c20746f2063757272656e74206f776e6560008301527f72000000000000000000000000000000000000000000000000000000000000006020830152604082019050919050565b6000612ff6603183613503565b91507f4552433732313a207472616e736665722063616c6c6572206973206e6f74206f60008301527f776e6572206e6f7220617070726f7665640000000000000000000000000000006020830152604082019050919050565b600061305c602c83613503565b91507f455243373231456e756d657261626c653a20676c6f62616c20696e646578206f60008301527f7574206f6620626f756e647300000000000000000000000000000000000000006020830152604082019050919050565b6130be81613644565b82525050565b60006130d08285612a56565b91506130dc8284612a56565b91508190509392505050565b60006020820190506130fd60008301846129c6565b92915050565b600060808201905061311860008301876129c6565b61312560208301866129c6565b61313260408301856130b5565b818103606083015261314481846129e4565b905095945050505050565b600060208201905061316460008301846129d5565b92915050565b600060208201905081810360008301526131848184612a1d565b905092915050565b600060208201905081810360008301526131a581612a87565b9050919050565b600060208201905081810360008301526131c581612aed565b9050919050565b600060208201905081810360008301526131e581612b53565b9050919050565b6000602082019050818103600083015261320581612b93565b9050919050565b6000602082019050818103600083015261322581612bf9565b9050919050565b6000602082019050818103600083015261324581612c39565b9050919050565b6000602082019050818103600083015261326581612c9f565b9050919050565b6000602082019050818103600083015261328581612d05565b9050919050565b600060208201905081810360008301526132a581612d6b565b9050919050565b600060208201905081810360008301526132c581612dd1565b9050919050565b600060208201905081810360008301526132e581612e11565b9050919050565b6000602082019050818103600083015261330581612e77565b9050919050565b6000602082019050818103600083015261332581612edd565b9050919050565b6000602082019050818103600083015261334581612f43565b9050919050565b6000602082019050818103600083015261336581612f83565b9050919050565b6000602082019050818103600083015261338581612fe9565b9050919050565b600060208201905081810360008301526133a58161304f565b9050919050565b60006020820190506133c160008301846130b5565b92915050565b600060e0820190506133dc600083018a6130b5565b81810360208301526133ee8189612a1d565b90506133fd60408301886129c6565b61340a60608301876130b5565b818103608083015261341c8186612a1d565b905081810360a08301526134308185612a1d565b905061343f60c08301846130b5565b98975050505050505050565b6000604051905081810181811067ffffffffffffffff82111715613472576134716137c9565b5b8060405250919050565b600067ffffffffffffffff821115613497576134966137c9565b5b601f19601f8301169050602081019050919050565b600067ffffffffffffffff8211156134c7576134c66137c9565b5b601f19601f8301169050602081019050919050565b600081519050919050565b600081519050919050565b600082825260208201905092915050565b600082825260208201905092915050565b600081905092915050565b600061352a82613644565b915061353583613644565b9250827fffffffffffffffffffffffffffffffffffffffffffffffffffffffffffffffff0382111561356a5761356961373c565b5b828201905092915050565b600061358082613644565b915061358b83613644565b92508261359b5761359a61376b565b5b828204905092915050565b60006135b182613644565b91506135bc83613644565b9250828210156135cf576135ce61373c565b5b828203905092915050565b60006135e582613624565b9050919050565b60008115159050919050565b60007fffffffff0000000000000000000000000000000000000000000000000000000082169050919050565b600073ffffffffffffffffffffffffffffffffffffffff82169050919050565b6000819050919050565b82818337600083830152505050565b60005b8381101561367b578082015181840152602081019050613660565b8381111561368a576000848401525b50505050565b600060028204905060018216806136a857607f821691505b602082108114156136bc576136bb61379a565b5b50919050565b60006136cd82613644565b91507fffffffffffffffffffffffffffffffffffffffffffffffffffffffffffffffff821415613700576136ff61373c565b5b600182019050919050565b600061371682613644565b915061372183613644565b9250826137315761373061376b565b5b828206905092915050565b7f4e487b7100000000000000000000000000000000000000000000000000000000600052601160045260246000fd5b7f4e487b7100000000000000000000000000000000000000000000000000000000600052601260045260246000fd5b7f4e487b7100000000000000000000000000000000000000000000000000000000600052602260045260246000fd5b7f4e487b7100000000000000000000000000000000000000000000000000000000600052604160045260246000fd5b6000601f19601f8301169050919050565b613812816135da565b811461381d57600080fd5b50565b613829816135ec565b811461383457600080fd5b50565b613840816135f8565b811461384b57600080fd5b50565b61385781613644565b811461386257600080fd5b5056fea26469706673582212208926b57538472761a2c34789c1ed7d293d8147cfec14feb61f68ae39f2aba0ec64736f6c63430008000033",
  "immutableReferences": {},
  "source": "// SPDX-License-Identifier: MIT\npragma solidity >=0.4.22 <0.9.0;\n\nimport \"@openzeppelin/contracts/token/ERC721/ERC721.sol\";\nimport \"@openzeppelin/contracts/token/ERC721/extensions/ERC721Enumerable.sol\";\n\ncontract Cards is ERC721Enumerable {\n    address public admin;\n    uint256 public nextItemId;\n\n    struct Card {\n        uint256 id;\n        string title;\n        address owner;\n        uint256 price;\n        string description;\n        string urlPicture;\n        uint256 timestamp;\n    }\n\n    mapping(address => mapping(uint256 => Card)) public marketCards;\n    mapping(address => mapping(uint256 => Card)) public myCards;\n    mapping(address => bool) public admins;\n\n    constructor() ERC721(\"Cards Futebol\", \"FUT\") {\n        admin = msg.sender;\n    }\n\n    function mintCards(\n        uint256 _price,\n        string memory _title,\n        string memory _description,\n        string memory _urlPicture\n    ) external {\n        Card memory card = Card({\n            id: nextItemId,\n            owner: address(this),\n            title: _title,\n            price: _price,\n            description: _description,\n            urlPicture: _urlPicture,\n            timestamp: block.timestamp\n        });\n\n        _mint(address(this), nextItemId);\n        marketCards[address(this)][nextItemId] = card;\n\n        nextItemId++;\n    }\n\n    function addAdmin(address _newAdmin) external returns (bool) {\n        require(msg.sender == admin, \"YOU ARE NOT AN ADMIN!\");\n\n        admins[_newAdmin] = true;\n        return true;\n    }\n\n    function _baseURI() internal view virtual override returns (string memory) {\n        return \"\";\n    }\n}\n",
  "sourcePath": "/Volumes/APPLE HDD/reactprojects/cards-nft/contracts/Cards.sol",
  "compiler": {
    "name": "solc",
    "version": "0.8.0+commit.c7dfd78e.Emscripten.clang"
  },
  "schemaVersion": "3.4.3",
  "updatedAt": "2021-10-08T03:26:31.294Z",
  "networkType": "ethereum",
  "devdoc": {
    "kind": "dev",
    "methods": {
      "approve(address,uint256)": {
        "details": "See {IERC721-approve}."
      },
      "balanceOf(address)": {
        "details": "See {IERC721-balanceOf}."
      },
      "getApproved(uint256)": {
        "details": "See {IERC721-getApproved}."
      },
      "isApprovedForAll(address,address)": {
        "details": "See {IERC721-isApprovedForAll}."
      },
      "name()": {
        "details": "See {IERC721Metadata-name}."
      },
      "ownerOf(uint256)": {
        "details": "See {IERC721-ownerOf}."
      },
      "safeTransferFrom(address,address,uint256)": {
        "details": "See {IERC721-safeTransferFrom}."
      },
      "safeTransferFrom(address,address,uint256,bytes)": {
        "details": "See {IERC721-safeTransferFrom}."
      },
      "setApprovalForAll(address,bool)": {
        "details": "See {IERC721-setApprovalForAll}."
      },
      "supportsInterface(bytes4)": {
        "details": "See {IERC165-supportsInterface}."
      },
      "symbol()": {
        "details": "See {IERC721Metadata-symbol}."
      },
      "tokenByIndex(uint256)": {
        "details": "See {IERC721Enumerable-tokenByIndex}."
      },
      "tokenOfOwnerByIndex(address,uint256)": {
        "details": "See {IERC721Enumerable-tokenOfOwnerByIndex}."
      },
      "tokenURI(uint256)": {
        "details": "See {IERC721Metadata-tokenURI}."
      },
      "totalSupply()": {
        "details": "See {IERC721Enumerable-totalSupply}."
      },
      "transferFrom(address,address,uint256)": {
        "details": "See {IERC721-transferFrom}."
      }
    },
    "version": 1
  },
  "userdoc": {
    "kind": "user",
    "methods": {},
    "version": 1
  }
}