{
  "contractName": "Cards",
  "abi": [
    {
      "inputs": [],
      "stateMutability": "nonpayable",
      "type": "constructor"
    },
    {
      "anonymous": false,
      "inputs": [
        {
          "indexed": true,
          "internalType": "address",
          "name": "owner",
          "type": "address"
        },
        {
          "indexed": true,
          "internalType": "address",
          "name": "approved",
          "type": "address"
        },
        {
          "indexed": true,
          "internalType": "uint256",
          "name": "tokenId",
          "type": "uint256"
        }
      ],
      "name": "Approval",
      "type": "event"
    },
    {
      "anonymous": false,
      "inputs": [
        {
          "indexed": true,
          "internalType": "address",
          "name": "owner",
          "type": "address"
        },
        {
          "indexed": true,
          "internalType": "address",
          "name": "operator",
          "type": "address"
        },
        {
          "indexed": false,
          "internalType": "bool",
          "name": "approved",
          "type": "bool"
        }
      ],
      "name": "ApprovalForAll",
      "type": "event"
    },
    {
      "anonymous": false,
      "inputs": [
        {
          "indexed": true,
          "internalType": "address",
          "name": "from",
          "type": "address"
        },
        {
          "indexed": true,
          "internalType": "address",
          "name": "to",
          "type": "address"
        },
        {
          "indexed": true,
          "internalType": "uint256",
          "name": "tokenId",
          "type": "uint256"
        }
      ],
      "name": "Transfer",
      "type": "event"
    },
    {
      "inputs": [],
      "name": "admin",
      "outputs": [
        {
          "internalType": "address",
          "name": "",
          "type": "address"
        }
      ],
      "stateMutability": "view",
      "type": "function",
      "constant": true
    },
    {
      "inputs": [
        {
          "internalType": "address",
          "name": "to",
          "type": "address"
        },
        {
          "internalType": "uint256",
          "name": "tokenId",
          "type": "uint256"
        }
      ],
      "name": "approve",
      "outputs": [],
      "stateMutability": "nonpayable",
      "type": "function"
    },
    {
      "inputs": [
        {
          "internalType": "address",
          "name": "owner",
          "type": "address"
        }
      ],
      "name": "balanceOf",
      "outputs": [
        {
          "internalType": "uint256",
          "name": "",
          "type": "uint256"
        }
      ],
      "stateMutability": "view",
      "type": "function",
      "constant": true
    },
    {
      "inputs": [
        {
          "internalType": "uint256",
          "name": "tokenId",
          "type": "uint256"
        }
      ],
      "name": "getApproved",
      "outputs": [
        {
          "internalType": "address",
          "name": "",
          "type": "address"
        }
      ],
      "stateMutability": "view",
      "type": "function",
      "constant": true
    },
    {
      "inputs": [
        {
          "internalType": "address",
          "name": "owner",
          "type": "address"
        },
        {
          "internalType": "address",
          "name": "operator",
          "type": "address"
        }
      ],
      "name": "isApprovedForAll",
      "outputs": [
        {
          "internalType": "bool",
          "name": "",
          "type": "bool"
        }
      ],
      "stateMutability": "view",
      "type": "function",
      "constant": true
    },
    {
      "inputs": [
        {
          "internalType": "address",
          "name": "",
          "type": "address"
        },
        {
          "internalType": "uint256",
          "name": "",
          "type": "uint256"
        }
      ],
      "name": "marketCards",
      "outputs": [
        {
          "internalType": "string",
          "name": "title",
          "type": "string"
        },
        {
          "internalType": "uint256",
          "name": "id",
          "type": "uint256"
        },
        {
          "internalType": "address",
          "name": "owner",
          "type": "address"
        },
        {
          "internalType": "uint256",
          "name": "price",
          "type": "uint256"
        },
        {
          "internalType": "string",
          "name": "description",
          "type": "string"
        },
        {
          "internalType": "string",
          "name": "urlPicture",
          "type": "string"
        },
        {
          "internalType": "uint256",
          "name": "timestamp",
          "type": "uint256"
        }
      ],
      "stateMutability": "view",
      "type": "function",
      "constant": true
    },
    {
      "inputs": [
        {
          "internalType": "address",
          "name": "",
          "type": "address"
        },
        {
          "internalType": "uint256",
          "name": "",
          "type": "uint256"
        }
      ],
      "name": "myCards",
      "outputs": [
        {
          "internalType": "string",
          "name": "title",
          "type": "string"
        },
        {
          "internalType": "uint256",
          "name": "id",
          "type": "uint256"
        },
        {
          "internalType": "address",
          "name": "owner",
          "type": "address"
        },
        {
          "internalType": "uint256",
          "name": "price",
          "type": "uint256"
        },
        {
          "internalType": "string",
          "name": "description",
          "type": "string"
        },
        {
          "internalType": "string",
          "name": "urlPicture",
          "type": "string"
        },
        {
          "internalType": "uint256",
          "name": "timestamp",
          "type": "uint256"
        }
      ],
      "stateMutability": "view",
      "type": "function",
      "constant": true
    },
    {
      "inputs": [],
      "name": "name",
      "outputs": [
        {
          "internalType": "string",
          "name": "",
          "type": "string"
        }
      ],
      "stateMutability": "view",
      "type": "function",
      "constant": true
    },
    {
      "inputs": [],
      "name": "nextItemId",
      "outputs": [
        {
          "internalType": "uint256",
          "name": "",
          "type": "uint256"
        }
      ],
      "stateMutability": "view",
      "type": "function",
      "constant": true
    },
    {
      "inputs": [
        {
          "internalType": "uint256",
          "name": "tokenId",
          "type": "uint256"
        }
      ],
      "name": "ownerOf",
      "outputs": [
        {
          "internalType": "address",
          "name": "",
          "type": "address"
        }
      ],
      "stateMutability": "view",
      "type": "function",
      "constant": true
    },
    {
      "inputs": [
        {
          "internalType": "address",
          "name": "from",
          "type": "address"
        },
        {
          "internalType": "address",
          "name": "to",
          "type": "address"
        },
        {
          "internalType": "uint256",
          "name": "tokenId",
          "type": "uint256"
        }
      ],
      "name": "safeTransferFrom",
      "outputs": [],
      "stateMutability": "nonpayable",
      "type": "function"
    },
    {
      "inputs": [
        {
          "internalType": "address",
          "name": "from",
          "type": "address"
        },
        {
          "internalType": "address",
          "name": "to",
          "type": "address"
        },
        {
          "internalType": "uint256",
          "name": "tokenId",
          "type": "uint256"
        },
        {
          "internalType": "bytes",
          "name": "_data",
          "type": "bytes"
        }
      ],
      "name": "safeTransferFrom",
      "outputs": [],
      "stateMutability": "nonpayable",
      "type": "function"
    },
    {
      "inputs": [
        {
          "internalType": "address",
          "name": "operator",
          "type": "address"
        },
        {
          "internalType": "bool",
          "name": "approved",
          "type": "bool"
        }
      ],
      "name": "setApprovalForAll",
      "outputs": [],
      "stateMutability": "nonpayable",
      "type": "function"
    },
    {
      "inputs": [
        {
          "internalType": "bytes4",
          "name": "interfaceId",
          "type": "bytes4"
        }
      ],
      "name": "supportsInterface",
      "outputs": [
        {
          "internalType": "bool",
          "name": "",
          "type": "bool"
        }
      ],
      "stateMutability": "view",
      "type": "function",
      "constant": true
    },
    {
      "inputs": [],
      "name": "symbol",
      "outputs": [
        {
          "internalType": "string",
          "name": "",
          "type": "string"
        }
      ],
      "stateMutability": "view",
      "type": "function",
      "constant": true
    },
    {
      "inputs": [
        {
          "internalType": "uint256",
          "name": "index",
          "type": "uint256"
        }
      ],
      "name": "tokenByIndex",
      "outputs": [
        {
          "internalType": "uint256",
          "name": "",
          "type": "uint256"
        }
      ],
      "stateMutability": "view",
      "type": "function",
      "constant": true
    },
    {
      "inputs": [
        {
          "internalType": "address",
          "name": "owner",
          "type": "address"
        },
        {
          "internalType": "uint256",
          "name": "index",
          "type": "uint256"
        }
      ],
      "name": "tokenOfOwnerByIndex",
      "outputs": [
        {
          "internalType": "uint256",
          "name": "",
          "type": "uint256"
        }
      ],
      "stateMutability": "view",
      "type": "function",
      "constant": true
    },
    {
      "inputs": [
        {
          "internalType": "uint256",
          "name": "tokenId",
          "type": "uint256"
        }
      ],
      "name": "tokenURI",
      "outputs": [
        {
          "internalType": "string",
          "name": "",
          "type": "string"
        }
      ],
      "stateMutability": "view",
      "type": "function",
      "constant": true
    },
    {
      "inputs": [],
      "name": "totalSupply",
      "outputs": [
        {
          "internalType": "uint256",
          "name": "",
          "type": "uint256"
        }
      ],
      "stateMutability": "view",
      "type": "function",
      "constant": true
    },
    {
      "inputs": [
        {
          "internalType": "address",
          "name": "from",
          "type": "address"
        },
        {
          "internalType": "address",
          "name": "to",
          "type": "address"
        },
        {
          "internalType": "uint256",
          "name": "tokenId",
          "type": "uint256"
        }
      ],
      "name": "transferFrom",
      "outputs": [],
      "stateMutability": "nonpayable",
      "type": "function"
    },
    {
      "inputs": [
        {
          "internalType": "uint256",
          "name": "tokenId",
          "type": "uint256"
        }
      ],
      "name": "buyCardFromMarket",
      "outputs": [],
      "stateMutability": "payable",
      "type": "function",
      "payable": true
    },
    {
      "inputs": [
        {
          "internalType": "string",
          "name": "_title",
          "type": "string"
        },
        {
          "internalType": "uint256",
          "name": "_price",
          "type": "uint256"
        },
        {
          "internalType": "string",
          "name": "_description",
          "type": "string"
        },
        {
          "internalType": "string",
          "name": "_urlPicture",
          "type": "string"
        }
      ],
      "name": "mintCards",
      "outputs": [],
      "stateMutability": "nonpayable",
      "type": "function"
    }
  ],
  "bytecode": "0x60806040523480156200001157600080fd5b506040518060400160405280600d81526020017f43617264732046757465626f6c000000000000000000000000000000000000008152506040518060400160405280600381526020017f4655540000000000000000000000000000000000000000000000000000000000815250816000908051906020019062000096929190620000f9565b508060019080519060200190620000af929190620000f9565b50505033600a60006101000a81548173ffffffffffffffffffffffffffffffffffffffff021916908373ffffffffffffffffffffffffffffffffffffffff1602179055506200020e565b8280546200010790620001a9565b90600052602060002090601f0160209004810192826200012b576000855562000177565b82601f106200014657805160ff191683800117855562000177565b8280016001018555821562000177579182015b828111156200017657825182559160200191906001019062000159565b5b5090506200018691906200018a565b5090565b5b80821115620001a55760008160009055506001016200018b565b5090565b60006002820490506001821680620001c257607f821691505b60208210811415620001d957620001d8620001df565b5b50919050565b7f4e487b7100000000000000000000000000000000000000000000000000000000600052602260045260246000fd5b613bf8806200021e6000396000f3fe6080604052600436106101355760003560e01c80636a868974116100ab578063a22cb4651161006f578063a22cb46514610457578063b88d4fde14610480578063c87b56dd146104a9578063e985e9c5146104e6578063e9cb5dd614610523578063f851a4401461056657610135565b80636a8689741461037f5780636ac408e5146103aa57806370a08231146103c6578063829e65d31461040357806395d89b411461042c57610135565b806323b872dd116100fd57806323b872dd146102335780632518d7e01461025c5780632f745c591461029f57806342842e0e146102dc5780634f6ccce7146103055780636352211e1461034257610135565b806301ffc9a71461013a57806306fdde0314610177578063081812fc146101a2578063095ea7b3146101df57806318160ddd14610208575b600080fd5b34801561014657600080fd5b50610161600480360381019061015c9190612bfd565b610591565b60405161016e91906134ac565b60405180910390f35b34801561018357600080fd5b5061018c61060b565b60405161019991906134c7565b60405180910390f35b3480156101ae57600080fd5b506101c960048036038101906101c49190612cfa565b61069d565b6040516101d69190613445565b60405180910390f35b3480156101eb57600080fd5b5061020660048036038101906102019190612bc1565b610722565b005b34801561021457600080fd5b5061021d61083a565b60405161022a919061378d565b60405180910390f35b34801561023f57600080fd5b5061025a60048036038101906102559190612abb565b610847565b005b34801561026857600080fd5b50610283600480360381019061027e9190612bc1565b6108a7565b60405161029697969594939291906134e9565b60405180910390f35b3480156102ab57600080fd5b506102c660048036038101906102c19190612bc1565b610aae565b6040516102d3919061378d565b60405180910390f35b3480156102e857600080fd5b5061030360048036038101906102fe9190612abb565b610b53565b005b34801561031157600080fd5b5061032c60048036038101906103279190612cfa565b610b73565b604051610339919061378d565b60405180910390f35b34801561034e57600080fd5b5061036960048036038101906103649190612cfa565b610c0a565b6040516103769190613445565b60405180910390f35b34801561038b57600080fd5b50610394610cbc565b6040516103a1919061378d565b60405180910390f35b6103c460048036038101906103bf9190612cfa565b610cc2565b005b3480156103d257600080fd5b506103ed60048036038101906103e89190612a56565b610fb0565b6040516103fa919061378d565b60405180910390f35b34801561040f57600080fd5b5061042a60048036038101906104259190612c4f565b611068565b005b34801561043857600080fd5b506104416111f4565b60405161044e91906134c7565b60405180910390f35b34801561046357600080fd5b5061047e60048036038101906104799190612b85565b611286565b005b34801561048c57600080fd5b506104a760048036038101906104a29190612b0a565b611407565b005b3480156104b557600080fd5b506104d060048036038101906104cb9190612cfa565b611469565b6040516104dd91906134c7565b60405180910390f35b3480156104f257600080fd5b5061050d60048036038101906105089190612a7f565b611510565b60405161051a91906134ac565b60405180910390f35b34801561052f57600080fd5b5061054a60048036038101906105459190612bc1565b6115a4565b60405161055d97969594939291906134e9565b60405180910390f35b34801561057257600080fd5b5061057b6117ab565b6040516105889190613445565b60405180910390f35b60007f780e9d63000000000000000000000000000000000000000000000000000000007bffffffffffffffffffffffffffffffffffffffffffffffffffffffff1916827bffffffffffffffffffffffffffffffffffffffffffffffffffffffff191614806106045750610603826117d1565b5b9050919050565b60606000805461061a906139ed565b80601f0160208091040260200160405190810160405280929190818152602001828054610646906139ed565b80156106935780601f1061066857610100808354040283529160200191610693565b820191906000526020600020905b81548152906001019060200180831161067657829003601f168201915b5050505050905090565b60006106a8826118b3565b6106e7576040517f08c379a00000000000000000000000000000000000000000000000000000000081526004016106de906136ad565b60405180910390fd5b6004600083815260200190815260200160002060009054906101000a900473ffffffffffffffffffffffffffffffffffffffff169050919050565b600061072d82610c0a565b90508073ffffffffffffffffffffffffffffffffffffffff168373ffffffffffffffffffffffffffffffffffffffff16141561079e576040517f08c379a00000000000000000000000000000000000000000000000000000000081526004016107959061370d565b60405180910390fd5b8073ffffffffffffffffffffffffffffffffffffffff166107bd61191f565b73ffffffffffffffffffffffffffffffffffffffff1614806107ec57506107eb816107e661191f565b611510565b5b61082b576040517f08c379a00000000000000000000000000000000000000000000000000000000081526004016108229061362d565b60405180910390fd5b6108358383611927565b505050565b6000600880549050905090565b61085861085261191f565b826119e0565b610897576040517f08c379a000000000000000000000000000000000000000000000000000000000815260040161088e9061372d565b60405180910390fd5b6108a2838383611abe565b505050565b600c602052816000526040600020602052806000526040600020600091509150508060000180546108d7906139ed565b80601f0160208091040260200160405190810160405280929190818152602001828054610903906139ed565b80156109505780601f1061092557610100808354040283529160200191610950565b820191906000526020600020905b81548152906001019060200180831161093357829003601f168201915b5050505050908060010154908060020160009054906101000a900473ffffffffffffffffffffffffffffffffffffffff1690806003015490806004018054610997906139ed565b80601f01602080910402602001604051908101604052809291908181526020018280546109c3906139ed565b8015610a105780601f106109e557610100808354040283529160200191610a10565b820191906000526020600020905b8154815290600101906020018083116109f357829003601f168201915b505050505090806005018054610a25906139ed565b80601f0160208091040260200160405190810160405280929190818152602001828054610a51906139ed565b8015610a9e5780601f10610a7357610100808354040283529160200191610a9e565b820191906000526020600020905b815481529060010190602001808311610a8157829003601f168201915b5050505050908060060154905087565b6000610ab983610fb0565b8210610afa576040517f08c379a0000000000000000000000000000000000000000000000000000000008152600401610af19061356d565b60405180910390fd5b600660008473ffffffffffffffffffffffffffffffffffffffff1673ffffffffffffffffffffffffffffffffffffffff168152602001908152602001600020600083815260200190815260200160002054905092915050565b610b6e83838360405180602001604052806000815250611407565b505050565b6000610b7d61083a565b8210610bbe576040517f08c379a0000000000000000000000000000000000000000000000000000000008152600401610bb59061374d565b60405180910390fd5b60088281548110610bf8577f4e487b7100000000000000000000000000000000000000000000000000000000600052603260045260246000fd5b90600052602060002001549050919050565b6000806002600084815260200190815260200160002060009054906101000a900473ffffffffffffffffffffffffffffffffffffffff169050600073ffffffffffffffffffffffffffffffffffffffff168173ffffffffffffffffffffffffffffffffffffffff161415610cb3576040517f08c379a0000000000000000000000000000000000000000000000000000000008152600401610caa9061366d565b60405180910390fd5b80915050919050565b600b5481565b600c60003073ffffffffffffffffffffffffffffffffffffffff1673ffffffffffffffffffffffffffffffffffffffff168152602001908152602001600020600082815260200190815260200160002060030154341015610d58576040517f08c379a0000000000000000000000000000000000000000000000000000000008152600401610d4f9061376d565b60405180910390fd5b610d63303383611abe565b600c60003073ffffffffffffffffffffffffffffffffffffffff1673ffffffffffffffffffffffffffffffffffffffff1681526020019081526020016000206000828152602001908152602001600020600d60003373ffffffffffffffffffffffffffffffffffffffff1673ffffffffffffffffffffffffffffffffffffffff16815260200190815260200160002060008381526020019081526020016000206000820181600001908054610e17906139ed565b610e229291906127ad565b50600182015481600101556002820160009054906101000a900473ffffffffffffffffffffffffffffffffffffffff168160020160006101000a81548173ffffffffffffffffffffffffffffffffffffffff021916908373ffffffffffffffffffffffffffffffffffffffff160217905550600382015481600301556004820181600401908054610eb2906139ed565b610ebd9291906127ad565b506005820181600501908054610ed2906139ed565b610edd9291906127ad565b5060068201548160060155905050600c60003073ffffffffffffffffffffffffffffffffffffffff1673ffffffffffffffffffffffffffffffffffffffff168152602001908152602001600020600082815260200190815260200160002060008082016000610f4c919061283a565b60018201600090556002820160006101000a81549073ffffffffffffffffffffffffffffffffffffffff02191690556003820160009055600482016000610f93919061283a565b600582016000610fa3919061283a565b6006820160009055505050565b60008073ffffffffffffffffffffffffffffffffffffffff168273ffffffffffffffffffffffffffffffffffffffff161415611021576040517f08c379a00000000000000000000000000000000000000000000000000000000081526004016110189061364d565b60405180910390fd5b600360008373ffffffffffffffffffffffffffffffffffffffff1673ffffffffffffffffffffffffffffffffffffffff168152602001908152602001600020549050919050565b60006040518060e00160405280868152602001600b5481526020013073ffffffffffffffffffffffffffffffffffffffff1681526020018581526020018481526020018381526020014281525090506110c330600b54611d1a565b80600c60003073ffffffffffffffffffffffffffffffffffffffff1673ffffffffffffffffffffffffffffffffffffffff1681526020019081526020016000206000600b548152602001908152602001600020600082015181600001908051906020019061113292919061287a565b506020820151816001015560408201518160020160006101000a81548173ffffffffffffffffffffffffffffffffffffffff021916908373ffffffffffffffffffffffffffffffffffffffff1602179055506060820151816003015560808201518160040190805190602001906111aa92919061287a565b5060a08201518160050190805190602001906111c792919061287a565b5060c08201518160060155905050600b60008154809291906111e890613a1f565b91905055505050505050565b606060018054611203906139ed565b80601f016020809104026020016040519081016040528092919081815260200182805461122f906139ed565b801561127c5780601f106112515761010080835404028352916020019161127c565b820191906000526020600020905b81548152906001019060200180831161125f57829003601f168201915b5050505050905090565b61128e61191f565b73ffffffffffffffffffffffffffffffffffffffff168273ffffffffffffffffffffffffffffffffffffffff1614156112fc576040517f08c379a00000000000000000000000000000000000000000000000000000000081526004016112f3906135ed565b60405180910390fd5b806005600061130961191f565b73ffffffffffffffffffffffffffffffffffffffff1673ffffffffffffffffffffffffffffffffffffffff16815260200190815260200160002060008473ffffffffffffffffffffffffffffffffffffffff1673ffffffffffffffffffffffffffffffffffffffff16815260200190815260200160002060006101000a81548160ff0219169083151502179055508173ffffffffffffffffffffffffffffffffffffffff166113b661191f565b73ffffffffffffffffffffffffffffffffffffffff167f17307eab39ab6107e8899845ad3d59bd9653f200f220920489ca2b5937696c31836040516113fb91906134ac565b60405180910390a35050565b61141861141261191f565b836119e0565b611457576040517f08c379a000000000000000000000000000000000000000000000000000000000815260040161144e9061372d565b60405180910390fd5b61146384848484611ee8565b50505050565b6060611474826118b3565b6114b3576040517f08c379a00000000000000000000000000000000000000000000000000000000081526004016114aa906136ed565b60405180910390fd5b60006114bd611f44565b905060008151116114dd5760405180602001604052806000815250611508565b806114e784611f5b565b6040516020016114f8929190613421565b6040516020818303038152906040525b915050919050565b6000600560008473ffffffffffffffffffffffffffffffffffffffff1673ffffffffffffffffffffffffffffffffffffffff16815260200190815260200160002060008373ffffffffffffffffffffffffffffffffffffffff1673ffffffffffffffffffffffffffffffffffffffff16815260200190815260200160002060009054906101000a900460ff16905092915050565b600d602052816000526040600020602052806000526040600020600091509150508060000180546115d4906139ed565b80601f0160208091040260200160405190810160405280929190818152602001828054611600906139ed565b801561164d5780601f106116225761010080835404028352916020019161164d565b820191906000526020600020905b81548152906001019060200180831161163057829003601f168201915b5050505050908060010154908060020160009054906101000a900473ffffffffffffffffffffffffffffffffffffffff1690806003015490806004018054611694906139ed565b80601f01602080910402602001604051908101604052809291908181526020018280546116c0906139ed565b801561170d5780601f106116e25761010080835404028352916020019161170d565b820191906000526020600020905b8154815290600101906020018083116116f057829003601f168201915b505050505090806005018054611722906139ed565b80601f016020809104026020016040519081016040528092919081815260200182805461174e906139ed565b801561179b5780601f106117705761010080835404028352916020019161179b565b820191906000526020600020905b81548152906001019060200180831161177e57829003601f168201915b5050505050908060060154905087565b600a60009054906101000a900473ffffffffffffffffffffffffffffffffffffffff1681565b60007f80ac58cd000000000000000000000000000000000000000000000000000000007bffffffffffffffffffffffffffffffffffffffffffffffffffffffff1916827bffffffffffffffffffffffffffffffffffffffffffffffffffffffff1916148061189c57507f5b5e139f000000000000000000000000000000000000000000000000000000007bffffffffffffffffffffffffffffffffffffffffffffffffffffffff1916827bffffffffffffffffffffffffffffffffffffffffffffffffffffffff1916145b806118ac57506118ab82612108565b5b9050919050565b60008073ffffffffffffffffffffffffffffffffffffffff166002600084815260200190815260200160002060009054906101000a900473ffffffffffffffffffffffffffffffffffffffff1673ffffffffffffffffffffffffffffffffffffffff1614159050919050565b600033905090565b816004600083815260200190815260200160002060006101000a81548173ffffffffffffffffffffffffffffffffffffffff021916908373ffffffffffffffffffffffffffffffffffffffff160217905550808273ffffffffffffffffffffffffffffffffffffffff1661199a83610c0a565b73ffffffffffffffffffffffffffffffffffffffff167f8c5be1e5ebec7d5bd14f71427d1e84f3dd0314c0f7b2291e5b200ac8c7c3b92560405160405180910390a45050565b60006119eb826118b3565b611a2a576040517f08c379a0000000000000000000000000000000000000000000000000000000008152600401611a219061360d565b60405180910390fd5b6000611a3583610c0a565b90508073ffffffffffffffffffffffffffffffffffffffff168473ffffffffffffffffffffffffffffffffffffffff161480611aa457508373ffffffffffffffffffffffffffffffffffffffff16611a8c8461069d565b73ffffffffffffffffffffffffffffffffffffffff16145b80611ab55750611ab48185611510565b5b91505092915050565b8273ffffffffffffffffffffffffffffffffffffffff16611ade82610c0a565b73ffffffffffffffffffffffffffffffffffffffff1614611b34576040517f08c379a0000000000000000000000000000000000000000000000000000000008152600401611b2b906136cd565b60405180910390fd5b600073ffffffffffffffffffffffffffffffffffffffff168273ffffffffffffffffffffffffffffffffffffffff161415611ba4576040517f08c379a0000000000000000000000000000000000000000000000000000000008152600401611b9b906135cd565b60405180910390fd5b611baf838383612172565b611bba600082611927565b6001600360008573ffffffffffffffffffffffffffffffffffffffff1673ffffffffffffffffffffffffffffffffffffffff1681526020019081526020016000206000828254611c0a9190613903565b925050819055506001600360008473ffffffffffffffffffffffffffffffffffffffff1673ffffffffffffffffffffffffffffffffffffffff1681526020019081526020016000206000828254611c61919061387c565b92505081905550816002600083815260200190815260200160002060006101000a81548173ffffffffffffffffffffffffffffffffffffffff021916908373ffffffffffffffffffffffffffffffffffffffff160217905550808273ffffffffffffffffffffffffffffffffffffffff168473ffffffffffffffffffffffffffffffffffffffff167fddf252ad1be2c89b69c2b068fc378daa952ba7f163c4a11628f55a4df523b3ef60405160405180910390a4505050565b600073ffffffffffffffffffffffffffffffffffffffff168273ffffffffffffffffffffffffffffffffffffffff161415611d8a576040517f08c379a0000000000000000000000000000000000000000000000000000000008152600401611d819061368d565b60405180910390fd5b611d93816118b3565b15611dd3576040517f08c379a0000000000000000000000000000000000000000000000000000000008152600401611dca906135ad565b60405180910390fd5b611ddf60008383612172565b6001600360008473ffffffffffffffffffffffffffffffffffffffff1673ffffffffffffffffffffffffffffffffffffffff1681526020019081526020016000206000828254611e2f919061387c565b92505081905550816002600083815260200190815260200160002060006101000a81548173ffffffffffffffffffffffffffffffffffffffff021916908373ffffffffffffffffffffffffffffffffffffffff160217905550808273ffffffffffffffffffffffffffffffffffffffff16600073ffffffffffffffffffffffffffffffffffffffff167fddf252ad1be2c89b69c2b068fc378daa952ba7f163c4a11628f55a4df523b3ef60405160405180910390a45050565b611ef3848484611abe565b611eff84848484612286565b611f3e576040517f08c379a0000000000000000000000000000000000000000000000000000000008152600401611f359061358d565b60405180910390fd5b50505050565b606060405180602001604052806000815250905090565b60606000821415611fa3576040518060400160405280600181526020017f30000000000000000000000000000000000000000000000000000000000000008152509050612103565b600082905060005b60008214611fd5578080611fbe90613a1f565b915050600a82611fce91906138d2565b9150611fab565b60008167ffffffffffffffff811115612017577f4e487b7100000000000000000000000000000000000000000000000000000000600052604160045260246000fd5b6040519080825280601f01601f1916602001820160405280156120495781602001600182028036833780820191505090505b5090505b600085146120fc576001826120629190613903565b9150600a856120719190613a68565b603061207d919061387c565b60f81b8183815181106120b9577f4e487b7100000000000000000000000000000000000000000000000000000000600052603260045260246000fd5b60200101907effffffffffffffffffffffffffffffffffffffffffffffffffffffffffffff1916908160001a905350600a856120f591906138d2565b945061204d565b8093505050505b919050565b60007f01ffc9a7000000000000000000000000000000000000000000000000000000007bffffffffffffffffffffffffffffffffffffffffffffffffffffffff1916827bffffffffffffffffffffffffffffffffffffffffffffffffffffffff1916149050919050565b61217d83838361241d565b600073ffffffffffffffffffffffffffffffffffffffff168373ffffffffffffffffffffffffffffffffffffffff1614156121c0576121bb81612422565b6121ff565b8173ffffffffffffffffffffffffffffffffffffffff168373ffffffffffffffffffffffffffffffffffffffff16146121fe576121fd838261246b565b5b5b600073ffffffffffffffffffffffffffffffffffffffff168273ffffffffffffffffffffffffffffffffffffffff1614156122425761223d816125d8565b612281565b8273ffffffffffffffffffffffffffffffffffffffff168273ffffffffffffffffffffffffffffffffffffffff16146122805761227f828261271b565b5b5b505050565b60006122a78473ffffffffffffffffffffffffffffffffffffffff1661279a565b15612410578373ffffffffffffffffffffffffffffffffffffffff1663150b7a026122d061191f565b8786866040518563ffffffff1660e01b81526004016122f29493929190613460565b602060405180830381600087803b15801561230c57600080fd5b505af192505050801561233d57506040513d601f19601f8201168201806040525081019061233a9190612c26565b60015b6123c0573d806000811461236d576040519150601f19603f3d011682016040523d82523d6000602084013e612372565b606091505b506000815114156123b8576040517f08c379a00000000000000000000000000000000000000000000000000000000081526004016123af9061358d565b60405180910390fd5b805181602001fd5b63150b7a0260e01b7bffffffffffffffffffffffffffffffffffffffffffffffffffffffff1916817bffffffffffffffffffffffffffffffffffffffffffffffffffffffff191614915050612415565b600190505b949350505050565b505050565b6008805490506009600083815260200190815260200160002081905550600881908060018154018082558091505060019003906000526020600020016000909190919091505550565b6000600161247884610fb0565b6124829190613903565b9050600060076000848152602001908152602001600020549050818114612567576000600660008673ffffffffffffffffffffffffffffffffffffffff1673ffffffffffffffffffffffffffffffffffffffff168152602001908152602001600020600084815260200190815260200160002054905080600660008773ffffffffffffffffffffffffffffffffffffffff1673ffffffffffffffffffffffffffffffffffffffff168152602001908152602001600020600084815260200190815260200160002081905550816007600083815260200190815260200160002081905550505b6007600084815260200190815260200160002060009055600660008573ffffffffffffffffffffffffffffffffffffffff1673ffffffffffffffffffffffffffffffffffffffff16815260200190815260200160002060008381526020019081526020016000206000905550505050565b600060016008805490506125ec9190613903565b9050600060096000848152602001908152602001600020549050600060088381548110612642577f4e487b7100000000000000000000000000000000000000000000000000000000600052603260045260246000fd5b90600052602060002001549050806008838154811061268a577f4e487b7100000000000000000000000000000000000000000000000000000000600052603260045260246000fd5b9060005260206000200181905550816009600083815260200190815260200160002081905550600960008581526020019081526020016000206000905560088054806126ff577f4e487b7100000000000000000000000000000000000000000000000000000000600052603160045260246000fd5b6001900381819060005260206000200160009055905550505050565b600061272683610fb0565b905081600660008573ffffffffffffffffffffffffffffffffffffffff1673ffffffffffffffffffffffffffffffffffffffff168152602001908152602001600020600083815260200190815260200160002081905550806007600084815260200190815260200160002081905550505050565b600080823b905060008111915050919050565b8280546127b9906139ed565b90600052602060002090601f0160209004810192826127db5760008555612829565b82601f106127ec5780548555612829565b8280016001018555821561282957600052602060002091601f016020900482015b8281111561282857825482559160010191906001019061280d565b5b5090506128369190612900565b5090565b508054612846906139ed565b6000825580601f106128585750612877565b601f0160209004906000526020600020908101906128769190612900565b5b50565b828054612886906139ed565b90600052602060002090601f0160209004810192826128a857600085556128ef565b82601f106128c157805160ff19168380011785556128ef565b828001600101855582156128ef579182015b828111156128ee5782518255916020019190600101906128d3565b5b5090506128fc9190612900565b5090565b5b80821115612919576000816000905550600101612901565b5090565b600061293061292b846137d9565b6137a8565b90508281526020810184848401111561294857600080fd5b6129538482856139ab565b509392505050565b600061296e61296984613809565b6137a8565b90508281526020810184848401111561298657600080fd5b6129918482856139ab565b509392505050565b6000813590506129a881613b66565b92915050565b6000813590506129bd81613b7d565b92915050565b6000813590506129d281613b94565b92915050565b6000815190506129e781613b94565b92915050565b600082601f8301126129fe57600080fd5b8135612a0e84826020860161291d565b91505092915050565b600082601f830112612a2857600080fd5b8135612a3884826020860161295b565b91505092915050565b600081359050612a5081613bab565b92915050565b600060208284031215612a6857600080fd5b6000612a7684828501612999565b91505092915050565b60008060408385031215612a9257600080fd5b6000612aa085828601612999565b9250506020612ab185828601612999565b9150509250929050565b600080600060608486031215612ad057600080fd5b6000612ade86828701612999565b9350506020612aef86828701612999565b9250506040612b0086828701612a41565b9150509250925092565b60008060008060808587031215612b2057600080fd5b6000612b2e87828801612999565b9450506020612b3f87828801612999565b9350506040612b5087828801612a41565b925050606085013567ffffffffffffffff811115612b6d57600080fd5b612b79878288016129ed565b91505092959194509250565b60008060408385031215612b9857600080fd5b6000612ba685828601612999565b9250506020612bb7858286016129ae565b9150509250929050565b60008060408385031215612bd457600080fd5b6000612be285828601612999565b9250506020612bf385828601612a41565b9150509250929050565b600060208284031215612c0f57600080fd5b6000612c1d848285016129c3565b91505092915050565b600060208284031215612c3857600080fd5b6000612c46848285016129d8565b91505092915050565b60008060008060808587031215612c6557600080fd5b600085013567ffffffffffffffff811115612c7f57600080fd5b612c8b87828801612a17565b9450506020612c9c87828801612a41565b935050604085013567ffffffffffffffff811115612cb957600080fd5b612cc587828801612a17565b925050606085013567ffffffffffffffff811115612ce257600080fd5b612cee87828801612a17565b91505092959194509250565b600060208284031215612d0c57600080fd5b6000612d1a84828501612a41565b91505092915050565b612d2c81613937565b82525050565b612d3b81613949565b82525050565b6000612d4c82613839565b612d56818561384f565b9350612d668185602086016139ba565b612d6f81613b55565b840191505092915050565b6000612d8582613844565b612d8f8185613860565b9350612d9f8185602086016139ba565b612da881613b55565b840191505092915050565b6000612dbe82613844565b612dc88185613871565b9350612dd88185602086016139ba565b80840191505092915050565b6000612df1602b83613860565b91507f455243373231456e756d657261626c653a206f776e657220696e646578206f7560008301527f74206f6620626f756e64730000000000000000000000000000000000000000006020830152604082019050919050565b6000612e57603283613860565b91507f4552433732313a207472616e7366657220746f206e6f6e20455243373231526560008301527f63656976657220696d706c656d656e74657200000000000000000000000000006020830152604082019050919050565b6000612ebd601c83613860565b91507f4552433732313a20746f6b656e20616c7265616479206d696e746564000000006000830152602082019050919050565b6000612efd602483613860565b91507f4552433732313a207472616e7366657220746f20746865207a65726f2061646460008301527f72657373000000000000000000000000000000000000000000000000000000006020830152604082019050919050565b6000612f63601983613860565b91507f4552433732313a20617070726f766520746f2063616c6c6572000000000000006000830152602082019050919050565b6000612fa3602c83613860565b91507f4552433732313a206f70657261746f7220717565727920666f72206e6f6e657860008301527f697374656e7420746f6b656e00000000000000000000000000000000000000006020830152604082019050919050565b6000613009603883613860565b91507f4552433732313a20617070726f76652063616c6c6572206973206e6f74206f7760008301527f6e6572206e6f7220617070726f76656420666f7220616c6c00000000000000006020830152604082019050919050565b600061306f602a83613860565b91507f4552433732313a2062616c616e636520717565727920666f7220746865207a6560008301527f726f2061646472657373000000000000000000000000000000000000000000006020830152604082019050919050565b60006130d5602983613860565b91507f4552433732313a206f776e657220717565727920666f72206e6f6e657869737460008301527f656e7420746f6b656e00000000000000000000000000000000000000000000006020830152604082019050919050565b600061313b602083613860565b91507f4552433732313a206d696e7420746f20746865207a65726f20616464726573736000830152602082019050919050565b600061317b602c83613860565b91507f4552433732313a20617070726f76656420717565727920666f72206e6f6e657860008301527f697374656e7420746f6b656e00000000000000000000000000000000000000006020830152604082019050919050565b60006131e1602983613860565b91507f4552433732313a207472616e73666572206f6620746f6b656e2074686174206960008301527f73206e6f74206f776e00000000000000000000000000000000000000000000006020830152604082019050919050565b6000613247602f83613860565b91507f4552433732314d657461646174613a2055524920717565727920666f72206e6f60008301527f6e6578697374656e7420746f6b656e00000000000000000000000000000000006020830152604082019050919050565b60006132ad602183613860565b91507f4552433732313a20617070726f76616c20746f2063757272656e74206f776e6560008301527f72000000000000000000000000000000000000000000000000000000000000006020830152604082019050919050565b6000613313603183613860565b91507f4552433732313a207472616e736665722063616c6c6572206973206e6f74206f60008301527f776e6572206e6f7220617070726f7665640000000000000000000000000000006020830152604082019050919050565b6000613379602c83613860565b91507f455243373231456e756d657261626c653a20676c6f62616c20696e646578206f60008301527f7574206f6620626f756e647300000000000000000000000000000000000000006020830152604082019050919050565b60006133df600e83613860565b91507f4e6f7420656e6f756768204574680000000000000000000000000000000000006000830152602082019050919050565b61341b816139a1565b82525050565b600061342d8285612db3565b91506134398284612db3565b91508190509392505050565b600060208201905061345a6000830184612d23565b92915050565b60006080820190506134756000830187612d23565b6134826020830186612d23565b61348f6040830185613412565b81810360608301526134a18184612d41565b905095945050505050565b60006020820190506134c16000830184612d32565b92915050565b600060208201905081810360008301526134e18184612d7a565b905092915050565b600060e0820190508181036000830152613503818a612d7a565b90506135126020830189613412565b61351f6040830188612d23565b61352c6060830187613412565b818103608083015261353e8186612d7a565b905081810360a08301526135528185612d7a565b905061356160c0830184613412565b98975050505050505050565b6000602082019050818103600083015261358681612de4565b9050919050565b600060208201905081810360008301526135a681612e4a565b9050919050565b600060208201905081810360008301526135c681612eb0565b9050919050565b600060208201905081810360008301526135e681612ef0565b9050919050565b6000602082019050818103600083015261360681612f56565b9050919050565b6000602082019050818103600083015261362681612f96565b9050919050565b6000602082019050818103600083015261364681612ffc565b9050919050565b6000602082019050818103600083015261366681613062565b9050919050565b60006020820190508181036000830152613686816130c8565b9050919050565b600060208201905081810360008301526136a68161312e565b9050919050565b600060208201905081810360008301526136c68161316e565b9050919050565b600060208201905081810360008301526136e6816131d4565b9050919050565b600060208201905081810360008301526137068161323a565b9050919050565b60006020820190508181036000830152613726816132a0565b9050919050565b6000602082019050818103600083015261374681613306565b9050919050565b600060208201905081810360008301526137668161336c565b9050919050565b60006020820190508181036000830152613786816133d2565b9050919050565b60006020820190506137a26000830184613412565b92915050565b6000604051905081810181811067ffffffffffffffff821117156137cf576137ce613b26565b5b8060405250919050565b600067ffffffffffffffff8211156137f4576137f3613b26565b5b601f19601f8301169050602081019050919050565b600067ffffffffffffffff82111561382457613823613b26565b5b601f19601f8301169050602081019050919050565b600081519050919050565b600081519050919050565b600082825260208201905092915050565b600082825260208201905092915050565b600081905092915050565b6000613887826139a1565b9150613892836139a1565b9250827fffffffffffffffffffffffffffffffffffffffffffffffffffffffffffffffff038211156138c7576138c6613a99565b5b828201905092915050565b60006138dd826139a1565b91506138e8836139a1565b9250826138f8576138f7613ac8565b5b828204905092915050565b600061390e826139a1565b9150613919836139a1565b92508282101561392c5761392b613a99565b5b828203905092915050565b600061394282613981565b9050919050565b60008115159050919050565b60007fffffffff0000000000000000000000000000000000000000000000000000000082169050919050565b600073ffffffffffffffffffffffffffffffffffffffff82169050919050565b6000819050919050565b82818337600083830152505050565b60005b838110156139d85780820151818401526020810190506139bd565b838111156139e7576000848401525b50505050565b60006002820490506001821680613a0557607f821691505b60208210811415613a1957613a18613af7565b5b50919050565b6000613a2a826139a1565b91507fffffffffffffffffffffffffffffffffffffffffffffffffffffffffffffffff821415613a5d57613a5c613a99565b5b600182019050919050565b6000613a73826139a1565b9150613a7e836139a1565b925082613a8e57613a8d613ac8565b5b828206905092915050565b7f4e487b7100000000000000000000000000000000000000000000000000000000600052601160045260246000fd5b7f4e487b7100000000000000000000000000000000000000000000000000000000600052601260045260246000fd5b7f4e487b7100000000000000000000000000000000000000000000000000000000600052602260045260246000fd5b7f4e487b7100000000000000000000000000000000000000000000000000000000600052604160045260246000fd5b6000601f19601f8301169050919050565b613b6f81613937565b8114613b7a57600080fd5b50565b613b8681613949565b8114613b9157600080fd5b50565b613b9d81613955565b8114613ba857600080fd5b50565b613bb4816139a1565b8114613bbf57600080fd5b5056fea2646970667358221220a76cf72aca80a51c4cfd39f10fbddd9f5a15b1f28c70159cf54e150b8e336fee64736f6c63430008000033",
  "immutableReferences": {},
  "source": "// SPDX-License-Identifier: MIT\npragma solidity >=0.4.22 <0.9.0;\n\nimport \"@openzeppelin/contracts/token/ERC721/ERC721.sol\";\nimport \"@openzeppelin/contracts/token/ERC721/extensions/ERC721Enumerable.sol\";\n\ncontract Cards is ERC721Enumerable {\n    address public admin;\n    uint256 public nextItemId;\n\n    struct Card {\n        string title;\n        uint256 id;\n        address owner;\n        uint256 price;\n        string description;\n        string urlPicture;\n        uint256 timestamp;\n    }\n\n    mapping(address => mapping(uint256 => Card)) public marketCards;\n    mapping(address => mapping(uint256 => Card)) public myCards;\n\n    constructor() ERC721(\"Cards Futebol\", \"FUT\") {\n        admin = msg.sender;\n    }\n\n    function buyCardFromMarket(uint tokenId) payable external {\n        require(msg.value >= marketCards[address(this)][tokenId].price, 'Not enough Eth');\n\n        _transfer(address(this), msg.sender, tokenId);\n        myCards[msg.sender][tokenId] = marketCards[address(this)][tokenId];\n        delete marketCards[address(this)][tokenId];\n    }\n\n    function mintCards(\n        string memory _title,\n        uint256 _price,\n        string memory _description,\n        string memory _urlPicture\n    ) external {\n        \n        Card memory card = Card({\n            title: _title,\n            id: nextItemId,\n            owner: address(this),\n            price: _price,\n            description: _description,\n            urlPicture: _urlPicture,\n            timestamp: block.timestamp\n        });\n\n        _mint(address(this), nextItemId);\n        marketCards[address(this)][nextItemId] = card;\n        // tokenOfOwnerByIndex(owner, index);\n        // tokenByIndex(index);\n        nextItemId++;\n    }\n\n    function _baseURI() internal view virtual override returns (string memory) {\n        return \"\";\n    }\n}\n",
  "sourcePath": "/Volumes/APPLE HDD/reactprojects/cards-nft/contracts/Cards.sol",
  "compiler": {
    "name": "solc",
    "version": "0.8.0+commit.c7dfd78e.Emscripten.clang"
  },
  "schemaVersion": "3.4.3",
  "updatedAt": "2021-10-12T02:58:15.769Z",
  "networkType": "ethereum",
  "devdoc": {
    "kind": "dev",
    "methods": {
      "approve(address,uint256)": {
        "details": "See {IERC721-approve}."
      },
      "balanceOf(address)": {
        "details": "See {IERC721-balanceOf}."
      },
      "getApproved(uint256)": {
        "details": "See {IERC721-getApproved}."
      },
      "isApprovedForAll(address,address)": {
        "details": "See {IERC721-isApprovedForAll}."
      },
      "name()": {
        "details": "See {IERC721Metadata-name}."
      },
      "ownerOf(uint256)": {
        "details": "See {IERC721-ownerOf}."
      },
      "safeTransferFrom(address,address,uint256)": {
        "details": "See {IERC721-safeTransferFrom}."
      },
      "safeTransferFrom(address,address,uint256,bytes)": {
        "details": "See {IERC721-safeTransferFrom}."
      },
      "setApprovalForAll(address,bool)": {
        "details": "See {IERC721-setApprovalForAll}."
      },
      "supportsInterface(bytes4)": {
        "details": "See {IERC165-supportsInterface}."
      },
      "symbol()": {
        "details": "See {IERC721Metadata-symbol}."
      },
      "tokenByIndex(uint256)": {
        "details": "See {IERC721Enumerable-tokenByIndex}."
      },
      "tokenOfOwnerByIndex(address,uint256)": {
        "details": "See {IERC721Enumerable-tokenOfOwnerByIndex}."
      },
      "tokenURI(uint256)": {
        "details": "See {IERC721Metadata-tokenURI}."
      },
      "totalSupply()": {
        "details": "See {IERC721Enumerable-totalSupply}."
      },
      "transferFrom(address,address,uint256)": {
        "details": "See {IERC721-transferFrom}."
      }
    },
    "version": 1
  },
  "userdoc": {
    "kind": "user",
    "methods": {},
    "version": 1
  }
}