{
  "contractName": "Cards",
  "abi": [
    {
      "inputs": [],
      "stateMutability": "nonpayable",
      "type": "constructor"
    },
    {
      "anonymous": false,
      "inputs": [
        {
          "indexed": true,
          "internalType": "address",
          "name": "owner",
          "type": "address"
        },
        {
          "indexed": true,
          "internalType": "address",
          "name": "approved",
          "type": "address"
        },
        {
          "indexed": true,
          "internalType": "uint256",
          "name": "tokenId",
          "type": "uint256"
        }
      ],
      "name": "Approval",
      "type": "event"
    },
    {
      "anonymous": false,
      "inputs": [
        {
          "indexed": true,
          "internalType": "address",
          "name": "owner",
          "type": "address"
        },
        {
          "indexed": true,
          "internalType": "address",
          "name": "operator",
          "type": "address"
        },
        {
          "indexed": false,
          "internalType": "bool",
          "name": "approved",
          "type": "bool"
        }
      ],
      "name": "ApprovalForAll",
      "type": "event"
    },
    {
      "anonymous": false,
      "inputs": [
        {
          "indexed": true,
          "internalType": "address",
          "name": "from",
          "type": "address"
        },
        {
          "indexed": true,
          "internalType": "address",
          "name": "to",
          "type": "address"
        },
        {
          "indexed": true,
          "internalType": "uint256",
          "name": "tokenId",
          "type": "uint256"
        }
      ],
      "name": "Transfer",
      "type": "event"
    },
    {
      "anonymous": false,
      "inputs": [
        {
          "indexed": false,
          "internalType": "string",
          "name": "title",
          "type": "string"
        },
        {
          "indexed": false,
          "internalType": "uint256",
          "name": "id",
          "type": "uint256"
        },
        {
          "indexed": false,
          "internalType": "address",
          "name": "owner",
          "type": "address"
        },
        {
          "indexed": false,
          "internalType": "uint256",
          "name": "price",
          "type": "uint256"
        },
        {
          "indexed": false,
          "internalType": "string",
          "name": "description",
          "type": "string"
        },
        {
          "indexed": false,
          "internalType": "string",
          "name": "urlPicture",
          "type": "string"
        },
        {
          "indexed": false,
          "internalType": "uint256",
          "name": "timestamp",
          "type": "uint256"
        },
        {
          "indexed": false,
          "internalType": "uint256",
          "name": "totalAmount",
          "type": "uint256"
        },
        {
          "indexed": false,
          "internalType": "address",
          "name": "createdBy",
          "type": "address"
        }
      ],
      "name": "cardMinted",
      "type": "event"
    },
    {
      "anonymous": false,
      "inputs": [
        {
          "indexed": false,
          "internalType": "uint256",
          "name": "id",
          "type": "uint256"
        },
        {
          "indexed": false,
          "internalType": "address",
          "name": "from",
          "type": "address"
        },
        {
          "indexed": false,
          "internalType": "address",
          "name": "to",
          "type": "address"
        },
        {
          "indexed": false,
          "internalType": "uint256",
          "name": "timestamp",
          "type": "uint256"
        }
      ],
      "name": "cardTransfered",
      "type": "event"
    },
    {
      "inputs": [],
      "name": "admin",
      "outputs": [
        {
          "internalType": "address",
          "name": "",
          "type": "address"
        }
      ],
      "stateMutability": "view",
      "type": "function",
      "constant": true
    },
    {
      "inputs": [
        {
          "internalType": "address",
          "name": "to",
          "type": "address"
        },
        {
          "internalType": "uint256",
          "name": "tokenId",
          "type": "uint256"
        }
      ],
      "name": "approve",
      "outputs": [],
      "stateMutability": "nonpayable",
      "type": "function"
    },
    {
      "inputs": [
        {
          "internalType": "address",
          "name": "owner",
          "type": "address"
        }
      ],
      "name": "balanceOf",
      "outputs": [
        {
          "internalType": "uint256",
          "name": "",
          "type": "uint256"
        }
      ],
      "stateMutability": "view",
      "type": "function",
      "constant": true
    },
    {
      "inputs": [
        {
          "internalType": "uint256",
          "name": "tokenId",
          "type": "uint256"
        }
      ],
      "name": "getApproved",
      "outputs": [
        {
          "internalType": "address",
          "name": "",
          "type": "address"
        }
      ],
      "stateMutability": "view",
      "type": "function",
      "constant": true
    },
    {
      "inputs": [
        {
          "internalType": "address",
          "name": "owner",
          "type": "address"
        },
        {
          "internalType": "address",
          "name": "operator",
          "type": "address"
        }
      ],
      "name": "isApprovedForAll",
      "outputs": [
        {
          "internalType": "bool",
          "name": "",
          "type": "bool"
        }
      ],
      "stateMutability": "view",
      "type": "function",
      "constant": true
    },
    {
      "inputs": [
        {
          "internalType": "address",
          "name": "",
          "type": "address"
        },
        {
          "internalType": "uint256",
          "name": "",
          "type": "uint256"
        }
      ],
      "name": "marketCards",
      "outputs": [
        {
          "internalType": "string",
          "name": "title",
          "type": "string"
        },
        {
          "internalType": "uint256",
          "name": "id",
          "type": "uint256"
        },
        {
          "internalType": "address",
          "name": "owner",
          "type": "address"
        },
        {
          "internalType": "uint256",
          "name": "price",
          "type": "uint256"
        },
        {
          "internalType": "string",
          "name": "description",
          "type": "string"
        },
        {
          "internalType": "string",
          "name": "urlPicture",
          "type": "string"
        },
        {
          "internalType": "uint256",
          "name": "timestamp",
          "type": "uint256"
        },
        {
          "internalType": "address",
          "name": "createdBy",
          "type": "address"
        },
        {
          "internalType": "uint256",
          "name": "totalAmount",
          "type": "uint256"
        }
      ],
      "stateMutability": "view",
      "type": "function",
      "constant": true
    },
    {
      "inputs": [
        {
          "internalType": "address",
          "name": "",
          "type": "address"
        },
        {
          "internalType": "uint256",
          "name": "",
          "type": "uint256"
        }
      ],
      "name": "myCards",
      "outputs": [
        {
          "internalType": "string",
          "name": "title",
          "type": "string"
        },
        {
          "internalType": "uint256",
          "name": "id",
          "type": "uint256"
        },
        {
          "internalType": "address",
          "name": "owner",
          "type": "address"
        },
        {
          "internalType": "uint256",
          "name": "price",
          "type": "uint256"
        },
        {
          "internalType": "string",
          "name": "description",
          "type": "string"
        },
        {
          "internalType": "string",
          "name": "urlPicture",
          "type": "string"
        },
        {
          "internalType": "uint256",
          "name": "timestamp",
          "type": "uint256"
        },
        {
          "internalType": "address",
          "name": "createdBy",
          "type": "address"
        },
        {
          "internalType": "uint256",
          "name": "totalAmount",
          "type": "uint256"
        }
      ],
      "stateMutability": "view",
      "type": "function",
      "constant": true
    },
    {
      "inputs": [],
      "name": "name",
      "outputs": [
        {
          "internalType": "string",
          "name": "",
          "type": "string"
        }
      ],
      "stateMutability": "view",
      "type": "function",
      "constant": true
    },
    {
      "inputs": [],
      "name": "nextItemId",
      "outputs": [
        {
          "internalType": "uint256",
          "name": "",
          "type": "uint256"
        }
      ],
      "stateMutability": "view",
      "type": "function",
      "constant": true
    },
    {
      "inputs": [
        {
          "internalType": "uint256",
          "name": "tokenId",
          "type": "uint256"
        }
      ],
      "name": "ownerOf",
      "outputs": [
        {
          "internalType": "address",
          "name": "",
          "type": "address"
        }
      ],
      "stateMutability": "view",
      "type": "function",
      "constant": true
    },
    {
      "inputs": [
        {
          "internalType": "address",
          "name": "from",
          "type": "address"
        },
        {
          "internalType": "address",
          "name": "to",
          "type": "address"
        },
        {
          "internalType": "uint256",
          "name": "tokenId",
          "type": "uint256"
        }
      ],
      "name": "safeTransferFrom",
      "outputs": [],
      "stateMutability": "nonpayable",
      "type": "function"
    },
    {
      "inputs": [
        {
          "internalType": "address",
          "name": "from",
          "type": "address"
        },
        {
          "internalType": "address",
          "name": "to",
          "type": "address"
        },
        {
          "internalType": "uint256",
          "name": "tokenId",
          "type": "uint256"
        },
        {
          "internalType": "bytes",
          "name": "_data",
          "type": "bytes"
        }
      ],
      "name": "safeTransferFrom",
      "outputs": [],
      "stateMutability": "nonpayable",
      "type": "function"
    },
    {
      "inputs": [
        {
          "internalType": "address",
          "name": "operator",
          "type": "address"
        },
        {
          "internalType": "bool",
          "name": "approved",
          "type": "bool"
        }
      ],
      "name": "setApprovalForAll",
      "outputs": [],
      "stateMutability": "nonpayable",
      "type": "function"
    },
    {
      "inputs": [
        {
          "internalType": "bytes4",
          "name": "interfaceId",
          "type": "bytes4"
        }
      ],
      "name": "supportsInterface",
      "outputs": [
        {
          "internalType": "bool",
          "name": "",
          "type": "bool"
        }
      ],
      "stateMutability": "view",
      "type": "function",
      "constant": true
    },
    {
      "inputs": [],
      "name": "symbol",
      "outputs": [
        {
          "internalType": "string",
          "name": "",
          "type": "string"
        }
      ],
      "stateMutability": "view",
      "type": "function",
      "constant": true
    },
    {
      "inputs": [
        {
          "internalType": "uint256",
          "name": "index",
          "type": "uint256"
        }
      ],
      "name": "tokenByIndex",
      "outputs": [
        {
          "internalType": "uint256",
          "name": "",
          "type": "uint256"
        }
      ],
      "stateMutability": "view",
      "type": "function",
      "constant": true
    },
    {
      "inputs": [
        {
          "internalType": "address",
          "name": "owner",
          "type": "address"
        },
        {
          "internalType": "uint256",
          "name": "index",
          "type": "uint256"
        }
      ],
      "name": "tokenOfOwnerByIndex",
      "outputs": [
        {
          "internalType": "uint256",
          "name": "",
          "type": "uint256"
        }
      ],
      "stateMutability": "view",
      "type": "function",
      "constant": true
    },
    {
      "inputs": [
        {
          "internalType": "uint256",
          "name": "tokenId",
          "type": "uint256"
        }
      ],
      "name": "tokenURI",
      "outputs": [
        {
          "internalType": "string",
          "name": "",
          "type": "string"
        }
      ],
      "stateMutability": "view",
      "type": "function",
      "constant": true
    },
    {
      "inputs": [],
      "name": "totalSupply",
      "outputs": [
        {
          "internalType": "uint256",
          "name": "",
          "type": "uint256"
        }
      ],
      "stateMutability": "view",
      "type": "function",
      "constant": true
    },
    {
      "inputs": [
        {
          "internalType": "address",
          "name": "from",
          "type": "address"
        },
        {
          "internalType": "address",
          "name": "to",
          "type": "address"
        },
        {
          "internalType": "uint256",
          "name": "tokenId",
          "type": "uint256"
        }
      ],
      "name": "transferFrom",
      "outputs": [],
      "stateMutability": "nonpayable",
      "type": "function"
    },
    {
      "inputs": [
        {
          "internalType": "uint256",
          "name": "tokenId",
          "type": "uint256"
        }
      ],
      "name": "buyCardFromMarket",
      "outputs": [],
      "stateMutability": "payable",
      "type": "function",
      "payable": true
    },
    {
      "inputs": [
        {
          "internalType": "string",
          "name": "_title",
          "type": "string"
        },
        {
          "internalType": "uint256",
          "name": "_price",
          "type": "uint256"
        },
        {
          "internalType": "string",
          "name": "_description",
          "type": "string"
        },
        {
          "internalType": "string",
          "name": "_urlPicture",
          "type": "string"
        },
        {
          "internalType": "uint256",
          "name": "_totalAmount",
          "type": "uint256"
        }
      ],
      "name": "mintCards",
      "outputs": [],
      "stateMutability": "nonpayable",
      "type": "function"
    }
  ],
  "bytecode": "0x60806040523480156200001157600080fd5b506040518060400160405280600d81526020017f43617264732046757465626f6c000000000000000000000000000000000000008152506040518060400160405280600381526020017f4655540000000000000000000000000000000000000000000000000000000000815250816000908051906020019062000096929190620000f9565b508060019080519060200190620000af929190620000f9565b50505033600a60006101000a81548173ffffffffffffffffffffffffffffffffffffffff021916908373ffffffffffffffffffffffffffffffffffffffff1602179055506200020e565b8280546200010790620001a9565b90600052602060002090601f0160209004810192826200012b576000855562000177565b82601f106200014657805160ff191683800117855562000177565b8280016001018555821562000177579182015b828111156200017657825182559160200191906001019062000159565b5b5090506200018691906200018a565b5090565b5b80821115620001a55760008160009055506001016200018b565b5090565b60006002820490506001821680620001c257607f821691505b60208210811415620001d957620001d8620001df565b5b50919050565b7f4e487b7100000000000000000000000000000000000000000000000000000000600052602260045260246000fd5b613ec9806200021e6000396000f3fe6080604052600436106101355760003560e01c80636a868974116100ab578063b88d4fde1161006f578063b88d4fde14610459578063c87b56dd14610482578063e985e9c5146104bf578063e9cb5dd6146104fc578063f851a44014610541578063fc45b9e11461056c57610135565b80636a868974146103815780636ac408e5146103ac57806370a08231146103c857806395d89b4114610405578063a22cb4651461043057610135565b806323b872dd116100fd57806323b872dd146102335780632518d7e01461025c5780632f745c59146102a157806342842e0e146102de5780634f6ccce7146103075780636352211e1461034457610135565b806301ffc9a71461013a57806306fdde0314610177578063081812fc146101a2578063095ea7b3146101df57806318160ddd14610208575b600080fd5b34801561014657600080fd5b50610161600480360381019061015c9190612dfa565b610595565b60405161016e91906136bd565b60405180910390f35b34801561018357600080fd5b5061018c61060f565b60405161019991906136d8565b60405180910390f35b3480156101ae57600080fd5b506101c960048036038101906101c49190612f0b565b6106a1565b6040516101d69190613656565b60405180910390f35b3480156101eb57600080fd5b5061020660048036038101906102019190612dbe565b610726565b005b34801561021457600080fd5b5061021d61083e565b60405161022a9190613a5e565b60405180910390f35b34801561023f57600080fd5b5061025a60048036038101906102559190612cb8565b61084b565b005b34801561026857600080fd5b50610283600480360381019061027e9190612dbe565b6108ab565b604051610298999897969594939291906136fa565b60405180910390f35b3480156102ad57600080fd5b506102c860048036038101906102c39190612dbe565b610ade565b6040516102d59190613a5e565b60405180910390f35b3480156102ea57600080fd5b5061030560048036038101906103009190612cb8565b610b83565b005b34801561031357600080fd5b5061032e60048036038101906103299190612f0b565b610ba3565b60405161033b9190613a5e565b60405180910390f35b34801561035057600080fd5b5061036b60048036038101906103669190612f0b565b610c3a565b6040516103789190613656565b60405180910390f35b34801561038d57600080fd5b50610396610cec565b6040516103a39190613a5e565b60405180910390f35b6103c660048036038101906103c19190612f0b565b610cf2565b005b3480156103d457600080fd5b506103ef60048036038101906103ea9190612c53565b611080565b6040516103fc9190613a5e565b60405180910390f35b34801561041157600080fd5b5061041a611138565b60405161042791906136d8565b60405180910390f35b34801561043c57600080fd5b5061045760048036038101906104529190612d82565b6111ca565b005b34801561046557600080fd5b50610480600480360381019061047b9190612d07565b61134b565b005b34801561048e57600080fd5b506104a960048036038101906104a49190612f0b565b6113ad565b6040516104b691906136d8565b60405180910390f35b3480156104cb57600080fd5b506104e660048036038101906104e19190612c7c565b611454565b6040516104f391906136bd565b60405180910390f35b34801561050857600080fd5b50610523600480360381019061051e9190612dbe565b6114e8565b604051610538999897969594939291906136fa565b60405180910390f35b34801561054d57600080fd5b5061055661171b565b6040516105639190613656565b60405180910390f35b34801561057857600080fd5b50610593600480360381019061058e9190612e4c565b611741565b005b60007f780e9d63000000000000000000000000000000000000000000000000000000007bffffffffffffffffffffffffffffffffffffffffffffffffffffffff1916827bffffffffffffffffffffffffffffffffffffffffffffffffffffffff191614806106085750610607826119ce565b5b9050919050565b60606000805461061e90613cbe565b80601f016020809104026020016040519081016040528092919081815260200182805461064a90613cbe565b80156106975780601f1061066c57610100808354040283529160200191610697565b820191906000526020600020905b81548152906001019060200180831161067a57829003601f168201915b5050505050905090565b60006106ac82611ab0565b6106eb576040517f08c379a00000000000000000000000000000000000000000000000000000000081526004016106e29061397e565b60405180910390fd5b6004600083815260200190815260200160002060009054906101000a900473ffffffffffffffffffffffffffffffffffffffff169050919050565b600061073182610c3a565b90508073ffffffffffffffffffffffffffffffffffffffff168373ffffffffffffffffffffffffffffffffffffffff1614156107a2576040517f08c379a0000000000000000000000000000000000000000000000000000000008152600401610799906139de565b60405180910390fd5b8073ffffffffffffffffffffffffffffffffffffffff166107c1611b1c565b73ffffffffffffffffffffffffffffffffffffffff1614806107f057506107ef816107ea611b1c565b611454565b5b61082f576040517f08c379a0000000000000000000000000000000000000000000000000000000008152600401610826906138fe565b60405180910390fd5b6108398383611b24565b505050565b6000600880549050905090565b61085c610856611b1c565b82611bdd565b61089b576040517f08c379a0000000000000000000000000000000000000000000000000000000008152600401610892906139fe565b60405180910390fd5b6108a6838383611cbb565b505050565b600c602052816000526040600020602052806000526040600020600091509150508060000180546108db90613cbe565b80601f016020809104026020016040519081016040528092919081815260200182805461090790613cbe565b80156109545780601f1061092957610100808354040283529160200191610954565b820191906000526020600020905b81548152906001019060200180831161093757829003601f168201915b5050505050908060010154908060020160009054906101000a900473ffffffffffffffffffffffffffffffffffffffff169080600301549080600401805461099b90613cbe565b80601f01602080910402602001604051908101604052809291908181526020018280546109c790613cbe565b8015610a145780601f106109e957610100808354040283529160200191610a14565b820191906000526020600020905b8154815290600101906020018083116109f757829003601f168201915b505050505090806005018054610a2990613cbe565b80601f0160208091040260200160405190810160405280929190818152602001828054610a5590613cbe565b8015610aa25780601f10610a7757610100808354040283529160200191610aa2565b820191906000526020600020905b815481529060010190602001808311610a8557829003601f168201915b5050505050908060060154908060070160009054906101000a900473ffffffffffffffffffffffffffffffffffffffff16908060080154905089565b6000610ae983611080565b8210610b2a576040517f08c379a0000000000000000000000000000000000000000000000000000000008152600401610b219061383e565b60405180910390fd5b600660008473ffffffffffffffffffffffffffffffffffffffff1673ffffffffffffffffffffffffffffffffffffffff168152602001908152602001600020600083815260200190815260200160002054905092915050565b610b9e8383836040518060200160405280600081525061134b565b505050565b6000610bad61083e565b8210610bee576040517f08c379a0000000000000000000000000000000000000000000000000000000008152600401610be590613a1e565b60405180910390fd5b60088281548110610c28577f4e487b7100000000000000000000000000000000000000000000000000000000600052603260045260246000fd5b90600052602060002001549050919050565b6000806002600084815260200190815260200160002060009054906101000a900473ffffffffffffffffffffffffffffffffffffffff169050600073ffffffffffffffffffffffffffffffffffffffff168173ffffffffffffffffffffffffffffffffffffffff161415610ce3576040517f08c379a0000000000000000000000000000000000000000000000000000000008152600401610cda9061393e565b60405180910390fd5b80915050919050565b600b5481565b600c60003073ffffffffffffffffffffffffffffffffffffffff1673ffffffffffffffffffffffffffffffffffffffff168152602001908152602001600020600082815260200190815260200160002060030154341015610d88576040517f08c379a0000000000000000000000000000000000000000000000000000000008152600401610d7f90613a3e565b60405180910390fd5b610d93303383611cbb565b600c60003073ffffffffffffffffffffffffffffffffffffffff1673ffffffffffffffffffffffffffffffffffffffff1681526020019081526020016000206000828152602001908152602001600020600d60003373ffffffffffffffffffffffffffffffffffffffff1673ffffffffffffffffffffffffffffffffffffffff16815260200190815260200160002060008381526020019081526020016000206000820181600001908054610e4790613cbe565b610e529291906129aa565b50600182015481600101556002820160009054906101000a900473ffffffffffffffffffffffffffffffffffffffff168160020160006101000a81548173ffffffffffffffffffffffffffffffffffffffff021916908373ffffffffffffffffffffffffffffffffffffffff160217905550600382015481600301556004820181600401908054610ee290613cbe565b610eed9291906129aa565b506005820181600501908054610f0290613cbe565b610f0d9291906129aa565b50600682015481600601556007820160009054906101000a900473ffffffffffffffffffffffffffffffffffffffff168160070160006101000a81548173ffffffffffffffffffffffffffffffffffffffff021916908373ffffffffffffffffffffffffffffffffffffffff16021790555060088201548160080155905050600c60003073ffffffffffffffffffffffffffffffffffffffff1673ffffffffffffffffffffffffffffffffffffffff168152602001908152602001600020600082815260200190815260200160002060008082016000610fed9190612a37565b60018201600090556002820160006101000a81549073ffffffffffffffffffffffffffffffffffffffff021916905560038201600090556004820160006110349190612a37565b6005820160006110449190612a37565b60068201600090556007820160006101000a81549073ffffffffffffffffffffffffffffffffffffffff02191690556008820160009055505050565b60008073ffffffffffffffffffffffffffffffffffffffff168273ffffffffffffffffffffffffffffffffffffffff1614156110f1576040517f08c379a00000000000000000000000000000000000000000000000000000000081526004016110e89061391e565b60405180910390fd5b600360008373ffffffffffffffffffffffffffffffffffffffff1673ffffffffffffffffffffffffffffffffffffffff168152602001908152602001600020549050919050565b60606001805461114790613cbe565b80601f016020809104026020016040519081016040528092919081815260200182805461117390613cbe565b80156111c05780601f10611195576101008083540402835291602001916111c0565b820191906000526020600020905b8154815290600101906020018083116111a357829003601f168201915b5050505050905090565b6111d2611b1c565b73ffffffffffffffffffffffffffffffffffffffff168273ffffffffffffffffffffffffffffffffffffffff161415611240576040517f08c379a0000000000000000000000000000000000000000000000000000000008152600401611237906138be565b60405180910390fd5b806005600061124d611b1c565b73ffffffffffffffffffffffffffffffffffffffff1673ffffffffffffffffffffffffffffffffffffffff16815260200190815260200160002060008473ffffffffffffffffffffffffffffffffffffffff1673ffffffffffffffffffffffffffffffffffffffff16815260200190815260200160002060006101000a81548160ff0219169083151502179055508173ffffffffffffffffffffffffffffffffffffffff166112fa611b1c565b73ffffffffffffffffffffffffffffffffffffffff167f17307eab39ab6107e8899845ad3d59bd9653f200f220920489ca2b5937696c318360405161133f91906136bd565b60405180910390a35050565b61135c611356611b1c565b83611bdd565b61139b576040517f08c379a0000000000000000000000000000000000000000000000000000000008152600401611392906139fe565b60405180910390fd5b6113a784848484611f17565b50505050565b60606113b882611ab0565b6113f7576040517f08c379a00000000000000000000000000000000000000000000000000000000081526004016113ee906139be565b60405180910390fd5b6000611401611f73565b90506000815111611421576040518060200160405280600081525061144c565b8061142b84611f8a565b60405160200161143c929190613632565b6040516020818303038152906040525b915050919050565b6000600560008473ffffffffffffffffffffffffffffffffffffffff1673ffffffffffffffffffffffffffffffffffffffff16815260200190815260200160002060008373ffffffffffffffffffffffffffffffffffffffff1673ffffffffffffffffffffffffffffffffffffffff16815260200190815260200160002060009054906101000a900460ff16905092915050565b600d6020528160005260406000206020528060005260406000206000915091505080600001805461151890613cbe565b80601f016020809104026020016040519081016040528092919081815260200182805461154490613cbe565b80156115915780601f1061156657610100808354040283529160200191611591565b820191906000526020600020905b81548152906001019060200180831161157457829003601f168201915b5050505050908060010154908060020160009054906101000a900473ffffffffffffffffffffffffffffffffffffffff16908060030154908060040180546115d890613cbe565b80601f016020809104026020016040519081016040528092919081815260200182805461160490613cbe565b80156116515780601f1061162657610100808354040283529160200191611651565b820191906000526020600020905b81548152906001019060200180831161163457829003601f168201915b50505050509080600501805461166690613cbe565b80601f016020809104026020016040519081016040528092919081815260200182805461169290613cbe565b80156116df5780601f106116b4576101008083540402835291602001916116df565b820191906000526020600020905b8154815290600101906020018083116116c257829003601f168201915b5050505050908060060154908060070160009054906101000a900473ffffffffffffffffffffffffffffffffffffffff16908060080154905089565b600a60009054906101000a900473ffffffffffffffffffffffffffffffffffffffff1681565b60005b818110156119c6576000604051806101200160405280888152602001600b5481526020013073ffffffffffffffffffffffffffffffffffffffff1681526020018781526020018681526020018581526020014281526020013373ffffffffffffffffffffffffffffffffffffffff1681526020018481525090506117ca30600b54612137565b80600c60003073ffffffffffffffffffffffffffffffffffffffff1673ffffffffffffffffffffffffffffffffffffffff1681526020019081526020016000206000600b5481526020019081526020016000206000820151816000019080519060200190611839929190612a77565b506020820151816001015560408201518160020160006101000a81548173ffffffffffffffffffffffffffffffffffffffff021916908373ffffffffffffffffffffffffffffffffffffffff1602179055506060820151816003015560808201518160040190805190602001906118b1929190612a77565b5060a08201518160050190805190602001906118ce929190612a77565b5060c0820151816006015560e08201518160070160006101000a81548173ffffffffffffffffffffffffffffffffffffffff021916908373ffffffffffffffffffffffffffffffffffffffff1602179055506101008201518160080155905050600b600081548092919061194190613cf0565b91905055507f76d7fc2acd49c7f7e283c64228d295e5b6020449a55771e32a9ce55ffdeb8707816000015182602001518360400151846060015185608001518660a001518760c001518861010001518960e001516040516119aa9998979695949392919061379c565b60405180910390a15080806119be90613cf0565b915050611744565b505050505050565b60007f80ac58cd000000000000000000000000000000000000000000000000000000007bffffffffffffffffffffffffffffffffffffffffffffffffffffffff1916827bffffffffffffffffffffffffffffffffffffffffffffffffffffffff19161480611a9957507f5b5e139f000000000000000000000000000000000000000000000000000000007bffffffffffffffffffffffffffffffffffffffffffffffffffffffff1916827bffffffffffffffffffffffffffffffffffffffffffffffffffffffff1916145b80611aa95750611aa882612305565b5b9050919050565b60008073ffffffffffffffffffffffffffffffffffffffff166002600084815260200190815260200160002060009054906101000a900473ffffffffffffffffffffffffffffffffffffffff1673ffffffffffffffffffffffffffffffffffffffff1614159050919050565b600033905090565b816004600083815260200190815260200160002060006101000a81548173ffffffffffffffffffffffffffffffffffffffff021916908373ffffffffffffffffffffffffffffffffffffffff160217905550808273ffffffffffffffffffffffffffffffffffffffff16611b9783610c3a565b73ffffffffffffffffffffffffffffffffffffffff167f8c5be1e5ebec7d5bd14f71427d1e84f3dd0314c0f7b2291e5b200ac8c7c3b92560405160405180910390a45050565b6000611be882611ab0565b611c27576040517f08c379a0000000000000000000000000000000000000000000000000000000008152600401611c1e906138de565b60405180910390fd5b6000611c3283610c3a565b90508073ffffffffffffffffffffffffffffffffffffffff168473ffffffffffffffffffffffffffffffffffffffff161480611ca157508373ffffffffffffffffffffffffffffffffffffffff16611c89846106a1565b73ffffffffffffffffffffffffffffffffffffffff16145b80611cb25750611cb18185611454565b5b91505092915050565b8273ffffffffffffffffffffffffffffffffffffffff16611cdb82610c3a565b73ffffffffffffffffffffffffffffffffffffffff1614611d31576040517f08c379a0000000000000000000000000000000000000000000000000000000008152600401611d289061399e565b60405180910390fd5b600073ffffffffffffffffffffffffffffffffffffffff168273ffffffffffffffffffffffffffffffffffffffff161415611da1576040517f08c379a0000000000000000000000000000000000000000000000000000000008152600401611d989061389e565b60405180910390fd5b611dac83838361236f565b611db7600082611b24565b6001600360008573ffffffffffffffffffffffffffffffffffffffff1673ffffffffffffffffffffffffffffffffffffffff1681526020019081526020016000206000828254611e079190613bd4565b925050819055506001600360008473ffffffffffffffffffffffffffffffffffffffff1673ffffffffffffffffffffffffffffffffffffffff1681526020019081526020016000206000828254611e5e9190613b4d565b92505081905550816002600083815260200190815260200160002060006101000a81548173ffffffffffffffffffffffffffffffffffffffff021916908373ffffffffffffffffffffffffffffffffffffffff160217905550808273ffffffffffffffffffffffffffffffffffffffff168473ffffffffffffffffffffffffffffffffffffffff167fddf252ad1be2c89b69c2b068fc378daa952ba7f163c4a11628f55a4df523b3ef60405160405180910390a4505050565b611f22848484611cbb565b611f2e84848484612483565b611f6d576040517f08c379a0000000000000000000000000000000000000000000000000000000008152600401611f649061385e565b60405180910390fd5b50505050565b606060405180602001604052806000815250905090565b60606000821415611fd2576040518060400160405280600181526020017f30000000000000000000000000000000000000000000000000000000000000008152509050612132565b600082905060005b60008214612004578080611fed90613cf0565b915050600a82611ffd9190613ba3565b9150611fda565b60008167ffffffffffffffff811115612046577f4e487b7100000000000000000000000000000000000000000000000000000000600052604160045260246000fd5b6040519080825280601f01601f1916602001820160405280156120785781602001600182028036833780820191505090505b5090505b6000851461212b576001826120919190613bd4565b9150600a856120a09190613d39565b60306120ac9190613b4d565b60f81b8183815181106120e8577f4e487b7100000000000000000000000000000000000000000000000000000000600052603260045260246000fd5b60200101907effffffffffffffffffffffffffffffffffffffffffffffffffffffffffffff1916908160001a905350600a856121249190613ba3565b945061207c565b8093505050505b919050565b600073ffffffffffffffffffffffffffffffffffffffff168273ffffffffffffffffffffffffffffffffffffffff1614156121a7576040517f08c379a000000000000000000000000000000000000000000000000000000000815260040161219e9061395e565b60405180910390fd5b6121b081611ab0565b156121f0576040517f08c379a00000000000000000000000000000000000000000000000000000000081526004016121e79061387e565b60405180910390fd5b6121fc6000838361236f565b6001600360008473ffffffffffffffffffffffffffffffffffffffff1673ffffffffffffffffffffffffffffffffffffffff168152602001908152602001600020600082825461224c9190613b4d565b92505081905550816002600083815260200190815260200160002060006101000a81548173ffffffffffffffffffffffffffffffffffffffff021916908373ffffffffffffffffffffffffffffffffffffffff160217905550808273ffffffffffffffffffffffffffffffffffffffff16600073ffffffffffffffffffffffffffffffffffffffff167fddf252ad1be2c89b69c2b068fc378daa952ba7f163c4a11628f55a4df523b3ef60405160405180910390a45050565b60007f01ffc9a7000000000000000000000000000000000000000000000000000000007bffffffffffffffffffffffffffffffffffffffffffffffffffffffff1916827bffffffffffffffffffffffffffffffffffffffffffffffffffffffff1916149050919050565b61237a83838361261a565b600073ffffffffffffffffffffffffffffffffffffffff168373ffffffffffffffffffffffffffffffffffffffff1614156123bd576123b88161261f565b6123fc565b8173ffffffffffffffffffffffffffffffffffffffff168373ffffffffffffffffffffffffffffffffffffffff16146123fb576123fa8382612668565b5b5b600073ffffffffffffffffffffffffffffffffffffffff168273ffffffffffffffffffffffffffffffffffffffff16141561243f5761243a816127d5565b61247e565b8273ffffffffffffffffffffffffffffffffffffffff168273ffffffffffffffffffffffffffffffffffffffff161461247d5761247c8282612918565b5b5b505050565b60006124a48473ffffffffffffffffffffffffffffffffffffffff16612997565b1561260d578373ffffffffffffffffffffffffffffffffffffffff1663150b7a026124cd611b1c565b8786866040518563ffffffff1660e01b81526004016124ef9493929190613671565b602060405180830381600087803b15801561250957600080fd5b505af192505050801561253a57506040513d601f19601f820116820180604052508101906125379190612e23565b60015b6125bd573d806000811461256a576040519150601f19603f3d011682016040523d82523d6000602084013e61256f565b606091505b506000815114156125b5576040517f08c379a00000000000000000000000000000000000000000000000000000000081526004016125ac9061385e565b60405180910390fd5b805181602001fd5b63150b7a0260e01b7bffffffffffffffffffffffffffffffffffffffffffffffffffffffff1916817bffffffffffffffffffffffffffffffffffffffffffffffffffffffff191614915050612612565b600190505b949350505050565b505050565b6008805490506009600083815260200190815260200160002081905550600881908060018154018082558091505060019003906000526020600020016000909190919091505550565b6000600161267584611080565b61267f9190613bd4565b9050600060076000848152602001908152602001600020549050818114612764576000600660008673ffffffffffffffffffffffffffffffffffffffff1673ffffffffffffffffffffffffffffffffffffffff168152602001908152602001600020600084815260200190815260200160002054905080600660008773ffffffffffffffffffffffffffffffffffffffff1673ffffffffffffffffffffffffffffffffffffffff168152602001908152602001600020600084815260200190815260200160002081905550816007600083815260200190815260200160002081905550505b6007600084815260200190815260200160002060009055600660008573ffffffffffffffffffffffffffffffffffffffff1673ffffffffffffffffffffffffffffffffffffffff16815260200190815260200160002060008381526020019081526020016000206000905550505050565b600060016008805490506127e99190613bd4565b905060006009600084815260200190815260200160002054905060006008838154811061283f577f4e487b7100000000000000000000000000000000000000000000000000000000600052603260045260246000fd5b906000526020600020015490508060088381548110612887577f4e487b7100000000000000000000000000000000000000000000000000000000600052603260045260246000fd5b9060005260206000200181905550816009600083815260200190815260200160002081905550600960008581526020019081526020016000206000905560088054806128fc577f4e487b7100000000000000000000000000000000000000000000000000000000600052603160045260246000fd5b6001900381819060005260206000200160009055905550505050565b600061292383611080565b905081600660008573ffffffffffffffffffffffffffffffffffffffff1673ffffffffffffffffffffffffffffffffffffffff168152602001908152602001600020600083815260200190815260200160002081905550806007600084815260200190815260200160002081905550505050565b600080823b905060008111915050919050565b8280546129b690613cbe565b90600052602060002090601f0160209004810192826129d85760008555612a26565b82601f106129e95780548555612a26565b82800160010185558215612a2657600052602060002091601f016020900482015b82811115612a25578254825591600101919060010190612a0a565b5b509050612a339190612afd565b5090565b508054612a4390613cbe565b6000825580601f10612a555750612a74565b601f016020900490600052602060002090810190612a739190612afd565b5b50565b828054612a8390613cbe565b90600052602060002090601f016020900481019282612aa55760008555612aec565b82601f10612abe57805160ff1916838001178555612aec565b82800160010185558215612aec579182015b82811115612aeb578251825591602001919060010190612ad0565b5b509050612af99190612afd565b5090565b5b80821115612b16576000816000905550600101612afe565b5090565b6000612b2d612b2884613aaa565b613a79565b905082815260208101848484011115612b4557600080fd5b612b50848285613c7c565b509392505050565b6000612b6b612b6684613ada565b613a79565b905082815260208101848484011115612b8357600080fd5b612b8e848285613c7c565b509392505050565b600081359050612ba581613e37565b92915050565b600081359050612bba81613e4e565b92915050565b600081359050612bcf81613e65565b92915050565b600081519050612be481613e65565b92915050565b600082601f830112612bfb57600080fd5b8135612c0b848260208601612b1a565b91505092915050565b600082601f830112612c2557600080fd5b8135612c35848260208601612b58565b91505092915050565b600081359050612c4d81613e7c565b92915050565b600060208284031215612c6557600080fd5b6000612c7384828501612b96565b91505092915050565b60008060408385031215612c8f57600080fd5b6000612c9d85828601612b96565b9250506020612cae85828601612b96565b9150509250929050565b600080600060608486031215612ccd57600080fd5b6000612cdb86828701612b96565b9350506020612cec86828701612b96565b9250506040612cfd86828701612c3e565b9150509250925092565b60008060008060808587031215612d1d57600080fd5b6000612d2b87828801612b96565b9450506020612d3c87828801612b96565b9350506040612d4d87828801612c3e565b925050606085013567ffffffffffffffff811115612d6a57600080fd5b612d7687828801612bea565b91505092959194509250565b60008060408385031215612d9557600080fd5b6000612da385828601612b96565b9250506020612db485828601612bab565b9150509250929050565b60008060408385031215612dd157600080fd5b6000612ddf85828601612b96565b9250506020612df085828601612c3e565b9150509250929050565b600060208284031215612e0c57600080fd5b6000612e1a84828501612bc0565b91505092915050565b600060208284031215612e3557600080fd5b6000612e4384828501612bd5565b91505092915050565b600080600080600060a08688031215612e6457600080fd5b600086013567ffffffffffffffff811115612e7e57600080fd5b612e8a88828901612c14565b9550506020612e9b88828901612c3e565b945050604086013567ffffffffffffffff811115612eb857600080fd5b612ec488828901612c14565b935050606086013567ffffffffffffffff811115612ee157600080fd5b612eed88828901612c14565b9250506080612efe88828901612c3e565b9150509295509295909350565b600060208284031215612f1d57600080fd5b6000612f2b84828501612c3e565b91505092915050565b612f3d81613c08565b82525050565b612f4c81613c1a565b82525050565b6000612f5d82613b0a565b612f678185613b20565b9350612f77818560208601613c8b565b612f8081613e26565b840191505092915050565b6000612f9682613b15565b612fa08185613b31565b9350612fb0818560208601613c8b565b612fb981613e26565b840191505092915050565b6000612fcf82613b15565b612fd98185613b42565b9350612fe9818560208601613c8b565b80840191505092915050565b6000613002602b83613b31565b91507f455243373231456e756d657261626c653a206f776e657220696e646578206f7560008301527f74206f6620626f756e64730000000000000000000000000000000000000000006020830152604082019050919050565b6000613068603283613b31565b91507f4552433732313a207472616e7366657220746f206e6f6e20455243373231526560008301527f63656976657220696d706c656d656e74657200000000000000000000000000006020830152604082019050919050565b60006130ce601c83613b31565b91507f4552433732313a20746f6b656e20616c7265616479206d696e746564000000006000830152602082019050919050565b600061310e602483613b31565b91507f4552433732313a207472616e7366657220746f20746865207a65726f2061646460008301527f72657373000000000000000000000000000000000000000000000000000000006020830152604082019050919050565b6000613174601983613b31565b91507f4552433732313a20617070726f766520746f2063616c6c6572000000000000006000830152602082019050919050565b60006131b4602c83613b31565b91507f4552433732313a206f70657261746f7220717565727920666f72206e6f6e657860008301527f697374656e7420746f6b656e00000000000000000000000000000000000000006020830152604082019050919050565b600061321a603883613b31565b91507f4552433732313a20617070726f76652063616c6c6572206973206e6f74206f7760008301527f6e6572206e6f7220617070726f76656420666f7220616c6c00000000000000006020830152604082019050919050565b6000613280602a83613b31565b91507f4552433732313a2062616c616e636520717565727920666f7220746865207a6560008301527f726f2061646472657373000000000000000000000000000000000000000000006020830152604082019050919050565b60006132e6602983613b31565b91507f4552433732313a206f776e657220717565727920666f72206e6f6e657869737460008301527f656e7420746f6b656e00000000000000000000000000000000000000000000006020830152604082019050919050565b600061334c602083613b31565b91507f4552433732313a206d696e7420746f20746865207a65726f20616464726573736000830152602082019050919050565b600061338c602c83613b31565b91507f4552433732313a20617070726f76656420717565727920666f72206e6f6e657860008301527f697374656e7420746f6b656e00000000000000000000000000000000000000006020830152604082019050919050565b60006133f2602983613b31565b91507f4552433732313a207472616e73666572206f6620746f6b656e2074686174206960008301527f73206e6f74206f776e00000000000000000000000000000000000000000000006020830152604082019050919050565b6000613458602f83613b31565b91507f4552433732314d657461646174613a2055524920717565727920666f72206e6f60008301527f6e6578697374656e7420746f6b656e00000000000000000000000000000000006020830152604082019050919050565b60006134be602183613b31565b91507f4552433732313a20617070726f76616c20746f2063757272656e74206f776e6560008301527f72000000000000000000000000000000000000000000000000000000000000006020830152604082019050919050565b6000613524603183613b31565b91507f4552433732313a207472616e736665722063616c6c6572206973206e6f74206f60008301527f776e6572206e6f7220617070726f7665640000000000000000000000000000006020830152604082019050919050565b600061358a602c83613b31565b91507f455243373231456e756d657261626c653a20676c6f62616c20696e646578206f60008301527f7574206f6620626f756e647300000000000000000000000000000000000000006020830152604082019050919050565b60006135f0600e83613b31565b91507f4e6f7420656e6f756768204574680000000000000000000000000000000000006000830152602082019050919050565b61362c81613c72565b82525050565b600061363e8285612fc4565b915061364a8284612fc4565b91508190509392505050565b600060208201905061366b6000830184612f34565b92915050565b60006080820190506136866000830187612f34565b6136936020830186612f34565b6136a06040830185613623565b81810360608301526136b28184612f52565b905095945050505050565b60006020820190506136d26000830184612f43565b92915050565b600060208201905081810360008301526136f28184612f8b565b905092915050565b6000610120820190508181036000830152613715818c612f8b565b9050613724602083018b613623565b613731604083018a612f34565b61373e6060830189613623565b81810360808301526137508188612f8b565b905081810360a08301526137648187612f8b565b905061377360c0830186613623565b61378060e0830185612f34565b61378e610100830184613623565b9a9950505050505050505050565b60006101208201905081810360008301526137b7818c612f8b565b90506137c6602083018b613623565b6137d3604083018a612f34565b6137e06060830189613623565b81810360808301526137f28188612f8b565b905081810360a08301526138068187612f8b565b905061381560c0830186613623565b61382260e0830185613623565b613830610100830184612f34565b9a9950505050505050505050565b6000602082019050818103600083015261385781612ff5565b9050919050565b600060208201905081810360008301526138778161305b565b9050919050565b60006020820190508181036000830152613897816130c1565b9050919050565b600060208201905081810360008301526138b781613101565b9050919050565b600060208201905081810360008301526138d781613167565b9050919050565b600060208201905081810360008301526138f7816131a7565b9050919050565b600060208201905081810360008301526139178161320d565b9050919050565b6000602082019050818103600083015261393781613273565b9050919050565b60006020820190508181036000830152613957816132d9565b9050919050565b600060208201905081810360008301526139778161333f565b9050919050565b600060208201905081810360008301526139978161337f565b9050919050565b600060208201905081810360008301526139b7816133e5565b9050919050565b600060208201905081810360008301526139d78161344b565b9050919050565b600060208201905081810360008301526139f7816134b1565b9050919050565b60006020820190508181036000830152613a1781613517565b9050919050565b60006020820190508181036000830152613a378161357d565b9050919050565b60006020820190508181036000830152613a57816135e3565b9050919050565b6000602082019050613a736000830184613623565b92915050565b6000604051905081810181811067ffffffffffffffff82111715613aa057613a9f613df7565b5b8060405250919050565b600067ffffffffffffffff821115613ac557613ac4613df7565b5b601f19601f8301169050602081019050919050565b600067ffffffffffffffff821115613af557613af4613df7565b5b601f19601f8301169050602081019050919050565b600081519050919050565b600081519050919050565b600082825260208201905092915050565b600082825260208201905092915050565b600081905092915050565b6000613b5882613c72565b9150613b6383613c72565b9250827fffffffffffffffffffffffffffffffffffffffffffffffffffffffffffffffff03821115613b9857613b97613d6a565b5b828201905092915050565b6000613bae82613c72565b9150613bb983613c72565b925082613bc957613bc8613d99565b5b828204905092915050565b6000613bdf82613c72565b9150613bea83613c72565b925082821015613bfd57613bfc613d6a565b5b828203905092915050565b6000613c1382613c52565b9050919050565b60008115159050919050565b60007fffffffff0000000000000000000000000000000000000000000000000000000082169050919050565b600073ffffffffffffffffffffffffffffffffffffffff82169050919050565b6000819050919050565b82818337600083830152505050565b60005b83811015613ca9578082015181840152602081019050613c8e565b83811115613cb8576000848401525b50505050565b60006002820490506001821680613cd657607f821691505b60208210811415613cea57613ce9613dc8565b5b50919050565b6000613cfb82613c72565b91507fffffffffffffffffffffffffffffffffffffffffffffffffffffffffffffffff821415613d2e57613d2d613d6a565b5b600182019050919050565b6000613d4482613c72565b9150613d4f83613c72565b925082613d5f57613d5e613d99565b5b828206905092915050565b7f4e487b7100000000000000000000000000000000000000000000000000000000600052601160045260246000fd5b7f4e487b7100000000000000000000000000000000000000000000000000000000600052601260045260246000fd5b7f4e487b7100000000000000000000000000000000000000000000000000000000600052602260045260246000fd5b7f4e487b7100000000000000000000000000000000000000000000000000000000600052604160045260246000fd5b6000601f19601f8301169050919050565b613e4081613c08565b8114613e4b57600080fd5b50565b613e5781613c1a565b8114613e6257600080fd5b50565b613e6e81613c26565b8114613e7957600080fd5b50565b613e8581613c72565b8114613e9057600080fd5b5056fea264697066735822122090f325f67de3953f5daf2d49fb30da816909d68c90844c309885f4633cf7d0f764736f6c63430008000033",
  "immutableReferences": {},
  "source": "// SPDX-License-Identifier: MIT\npragma solidity >=0.4.22 <0.9.0;\n\nimport \"@openzeppelin/contracts/token/ERC721/ERC721.sol\";\nimport \"@openzeppelin/contracts/token/ERC721/extensions/ERC721Enumerable.sol\";\n\ncontract Cards is ERC721Enumerable {\n    address public admin;\n    uint256 public nextItemId;\n\n    event cardMinted(\n        string title,\n        uint256 id,\n        address owner,\n        uint256 price,\n        string description,\n        string urlPicture,\n        uint256 timestamp,\n        uint256 totalAmount,\n        address createdBy\n    );\n\n    event cardTransfered(\n        uint256 id,\n        address from,\n        address to,\n        uint256 timestamp\n    );\n\n    struct Card {\n        string title;\n        uint256 id;\n        address owner;\n        uint256 price;\n        string description;\n        string urlPicture;\n        uint256 timestamp;\n        address createdBy;\n        uint256 totalAmount;\n    }\n\n    mapping(address => mapping(uint256 => Card)) public marketCards;\n    mapping(address => mapping(uint256 => Card)) public myCards;\n\n    constructor() ERC721(\"Cards Futebol\", \"FUT\") {\n        admin = msg.sender;\n    }\n\n    function buyCardFromMarket(uint256 tokenId) external payable {\n        require(\n            msg.value >= marketCards[address(this)][tokenId].price,\n            \"Not enough Eth\"\n        );\n\n        _transfer(address(this), msg.sender, tokenId);\n        myCards[msg.sender][tokenId] = marketCards[address(this)][tokenId];\n        delete marketCards[address(this)][tokenId];\n    }\n\n    function mintCards(\n        string memory _title,\n        uint256 _price,\n        string memory _description,\n        string memory _urlPicture,\n        uint256 _totalAmount\n    ) external {\n        for (uint256 i = 0; i < _totalAmount; i++) {\n            Card memory card = Card({\n                title: _title,\n                id: nextItemId,\n                owner: address(this),\n                price: _price,\n                description: _description,\n                urlPicture: _urlPicture,\n                timestamp: block.timestamp,\n                createdBy: msg.sender,\n                totalAmount: _totalAmount\n            });\n            _mint(address(this), nextItemId);\n            marketCards[address(this)][nextItemId] = card;\n            nextItemId++;\n\n            emit cardMinted(\n                card.title,\n                card.id,\n                card.owner,\n                card.price,\n                card.description,\n                card.urlPicture,\n                card.timestamp,\n                card.totalAmount,\n                card.createdBy\n            );\n        }\n\n        // tokenOfOwnerByIndex(owner, index);\n        // tokenByIndex(index);\n    }\n\n    function _baseURI() internal view virtual override returns (string memory) {\n        return \"\";\n    }\n}\n",
  "sourcePath": "/Volumes/APPLE HDD/reactprojects/cards-nft/contracts/Cards.sol",
  "compiler": {
    "name": "solc",
    "version": "0.8.0+commit.c7dfd78e.Emscripten.clang"
  },
  "schemaVersion": "3.4.3",
  "updatedAt": "2021-10-12T06:35:14.014Z",
  "networkType": "ethereum",
  "devdoc": {
    "kind": "dev",
    "methods": {
      "approve(address,uint256)": {
        "details": "See {IERC721-approve}."
      },
      "balanceOf(address)": {
        "details": "See {IERC721-balanceOf}."
      },
      "getApproved(uint256)": {
        "details": "See {IERC721-getApproved}."
      },
      "isApprovedForAll(address,address)": {
        "details": "See {IERC721-isApprovedForAll}."
      },
      "name()": {
        "details": "See {IERC721Metadata-name}."
      },
      "ownerOf(uint256)": {
        "details": "See {IERC721-ownerOf}."
      },
      "safeTransferFrom(address,address,uint256)": {
        "details": "See {IERC721-safeTransferFrom}."
      },
      "safeTransferFrom(address,address,uint256,bytes)": {
        "details": "See {IERC721-safeTransferFrom}."
      },
      "setApprovalForAll(address,bool)": {
        "details": "See {IERC721-setApprovalForAll}."
      },
      "supportsInterface(bytes4)": {
        "details": "See {IERC165-supportsInterface}."
      },
      "symbol()": {
        "details": "See {IERC721Metadata-symbol}."
      },
      "tokenByIndex(uint256)": {
        "details": "See {IERC721Enumerable-tokenByIndex}."
      },
      "tokenOfOwnerByIndex(address,uint256)": {
        "details": "See {IERC721Enumerable-tokenOfOwnerByIndex}."
      },
      "tokenURI(uint256)": {
        "details": "See {IERC721Metadata-tokenURI}."
      },
      "totalSupply()": {
        "details": "See {IERC721Enumerable-totalSupply}."
      },
      "transferFrom(address,address,uint256)": {
        "details": "See {IERC721-transferFrom}."
      }
    },
    "version": 1
  },
  "userdoc": {
    "kind": "user",
    "methods": {},
    "version": 1
  }
}