{
  "contractName": "Cards",
  "abi": [
    {
      "inputs": [],
      "stateMutability": "nonpayable",
      "type": "constructor"
    },
    {
      "anonymous": false,
      "inputs": [
        {
          "indexed": true,
          "internalType": "address",
          "name": "owner",
          "type": "address"
        },
        {
          "indexed": true,
          "internalType": "address",
          "name": "approved",
          "type": "address"
        },
        {
          "indexed": true,
          "internalType": "uint256",
          "name": "tokenId",
          "type": "uint256"
        }
      ],
      "name": "Approval",
      "type": "event"
    },
    {
      "anonymous": false,
      "inputs": [
        {
          "indexed": true,
          "internalType": "address",
          "name": "owner",
          "type": "address"
        },
        {
          "indexed": true,
          "internalType": "address",
          "name": "operator",
          "type": "address"
        },
        {
          "indexed": false,
          "internalType": "bool",
          "name": "approved",
          "type": "bool"
        }
      ],
      "name": "ApprovalForAll",
      "type": "event"
    },
    {
      "anonymous": false,
      "inputs": [
        {
          "indexed": true,
          "internalType": "address",
          "name": "from",
          "type": "address"
        },
        {
          "indexed": true,
          "internalType": "address",
          "name": "to",
          "type": "address"
        },
        {
          "indexed": true,
          "internalType": "uint256",
          "name": "tokenId",
          "type": "uint256"
        }
      ],
      "name": "Transfer",
      "type": "event"
    },
    {
      "anonymous": false,
      "inputs": [
        {
          "indexed": false,
          "internalType": "string",
          "name": "title",
          "type": "string"
        },
        {
          "indexed": false,
          "internalType": "uint256",
          "name": "id",
          "type": "uint256"
        },
        {
          "indexed": false,
          "internalType": "address",
          "name": "owner",
          "type": "address"
        },
        {
          "indexed": false,
          "internalType": "uint256",
          "name": "price",
          "type": "uint256"
        },
        {
          "indexed": false,
          "internalType": "string",
          "name": "description",
          "type": "string"
        },
        {
          "indexed": false,
          "internalType": "string",
          "name": "urlPicture",
          "type": "string"
        },
        {
          "indexed": false,
          "internalType": "uint256",
          "name": "timestamp",
          "type": "uint256"
        },
        {
          "indexed": false,
          "internalType": "uint256",
          "name": "totalAmount",
          "type": "uint256"
        },
        {
          "indexed": false,
          "internalType": "address",
          "name": "createdBy",
          "type": "address"
        }
      ],
      "name": "cardMinted",
      "type": "event"
    },
    {
      "anonymous": false,
      "inputs": [
        {
          "indexed": false,
          "internalType": "uint256",
          "name": "id",
          "type": "uint256"
        },
        {
          "indexed": false,
          "internalType": "address",
          "name": "from",
          "type": "address"
        },
        {
          "indexed": false,
          "internalType": "address",
          "name": "to",
          "type": "address"
        },
        {
          "indexed": false,
          "internalType": "uint256",
          "name": "timestamp",
          "type": "uint256"
        }
      ],
      "name": "cardTransfered",
      "type": "event"
    },
    {
      "inputs": [],
      "name": "CONTRACT_FEE",
      "outputs": [
        {
          "internalType": "uint256",
          "name": "",
          "type": "uint256"
        }
      ],
      "stateMutability": "view",
      "type": "function",
      "constant": true
    },
    {
      "inputs": [],
      "name": "CREATORS_FEE",
      "outputs": [
        {
          "internalType": "uint256",
          "name": "",
          "type": "uint256"
        }
      ],
      "stateMutability": "view",
      "type": "function",
      "constant": true
    },
    {
      "inputs": [],
      "name": "admin",
      "outputs": [
        {
          "internalType": "address",
          "name": "",
          "type": "address"
        }
      ],
      "stateMutability": "view",
      "type": "function",
      "constant": true
    },
    {
      "inputs": [
        {
          "internalType": "address",
          "name": "to",
          "type": "address"
        },
        {
          "internalType": "uint256",
          "name": "tokenId",
          "type": "uint256"
        }
      ],
      "name": "approve",
      "outputs": [],
      "stateMutability": "nonpayable",
      "type": "function"
    },
    {
      "inputs": [
        {
          "internalType": "address",
          "name": "owner",
          "type": "address"
        }
      ],
      "name": "balanceOf",
      "outputs": [
        {
          "internalType": "uint256",
          "name": "",
          "type": "uint256"
        }
      ],
      "stateMutability": "view",
      "type": "function",
      "constant": true
    },
    {
      "inputs": [
        {
          "internalType": "string",
          "name": "",
          "type": "string"
        }
      ],
      "name": "clubToCreator",
      "outputs": [
        {
          "internalType": "address",
          "name": "",
          "type": "address"
        }
      ],
      "stateMutability": "view",
      "type": "function",
      "constant": true
    },
    {
      "inputs": [
        {
          "internalType": "address",
          "name": "",
          "type": "address"
        }
      ],
      "name": "creators",
      "outputs": [
        {
          "internalType": "bool",
          "name": "",
          "type": "bool"
        }
      ],
      "stateMutability": "view",
      "type": "function",
      "constant": true
    },
    {
      "inputs": [
        {
          "internalType": "uint256",
          "name": "tokenId",
          "type": "uint256"
        }
      ],
      "name": "getApproved",
      "outputs": [
        {
          "internalType": "address",
          "name": "",
          "type": "address"
        }
      ],
      "stateMutability": "view",
      "type": "function",
      "constant": true
    },
    {
      "inputs": [
        {
          "internalType": "address",
          "name": "owner",
          "type": "address"
        },
        {
          "internalType": "address",
          "name": "operator",
          "type": "address"
        }
      ],
      "name": "isApprovedForAll",
      "outputs": [
        {
          "internalType": "bool",
          "name": "",
          "type": "bool"
        }
      ],
      "stateMutability": "view",
      "type": "function",
      "constant": true
    },
    {
      "inputs": [
        {
          "internalType": "address",
          "name": "",
          "type": "address"
        },
        {
          "internalType": "uint256",
          "name": "",
          "type": "uint256"
        }
      ],
      "name": "marketCards",
      "outputs": [
        {
          "internalType": "string",
          "name": "title",
          "type": "string"
        },
        {
          "internalType": "uint256",
          "name": "id",
          "type": "uint256"
        },
        {
          "internalType": "address",
          "name": "owner",
          "type": "address"
        },
        {
          "internalType": "uint256",
          "name": "price",
          "type": "uint256"
        },
        {
          "internalType": "string",
          "name": "description",
          "type": "string"
        },
        {
          "internalType": "string",
          "name": "urlPicture",
          "type": "string"
        },
        {
          "internalType": "string",
          "name": "club",
          "type": "string"
        },
        {
          "internalType": "uint256",
          "name": "timestamp",
          "type": "uint256"
        },
        {
          "internalType": "address",
          "name": "createdBy",
          "type": "address"
        },
        {
          "internalType": "uint256",
          "name": "totalAmount",
          "type": "uint256"
        }
      ],
      "stateMutability": "view",
      "type": "function",
      "constant": true
    },
    {
      "inputs": [
        {
          "internalType": "address",
          "name": "",
          "type": "address"
        },
        {
          "internalType": "uint256",
          "name": "",
          "type": "uint256"
        }
      ],
      "name": "myCards",
      "outputs": [
        {
          "internalType": "string",
          "name": "title",
          "type": "string"
        },
        {
          "internalType": "uint256",
          "name": "id",
          "type": "uint256"
        },
        {
          "internalType": "address",
          "name": "owner",
          "type": "address"
        },
        {
          "internalType": "uint256",
          "name": "price",
          "type": "uint256"
        },
        {
          "internalType": "string",
          "name": "description",
          "type": "string"
        },
        {
          "internalType": "string",
          "name": "urlPicture",
          "type": "string"
        },
        {
          "internalType": "string",
          "name": "club",
          "type": "string"
        },
        {
          "internalType": "uint256",
          "name": "timestamp",
          "type": "uint256"
        },
        {
          "internalType": "address",
          "name": "createdBy",
          "type": "address"
        },
        {
          "internalType": "uint256",
          "name": "totalAmount",
          "type": "uint256"
        }
      ],
      "stateMutability": "view",
      "type": "function",
      "constant": true
    },
    {
      "inputs": [],
      "name": "name",
      "outputs": [
        {
          "internalType": "string",
          "name": "",
          "type": "string"
        }
      ],
      "stateMutability": "view",
      "type": "function",
      "constant": true
    },
    {
      "inputs": [],
      "name": "nextItemId",
      "outputs": [
        {
          "internalType": "uint256",
          "name": "",
          "type": "uint256"
        }
      ],
      "stateMutability": "view",
      "type": "function",
      "constant": true
    },
    {
      "inputs": [
        {
          "internalType": "uint256",
          "name": "tokenId",
          "type": "uint256"
        }
      ],
      "name": "ownerOf",
      "outputs": [
        {
          "internalType": "address",
          "name": "",
          "type": "address"
        }
      ],
      "stateMutability": "view",
      "type": "function",
      "constant": true
    },
    {
      "inputs": [
        {
          "internalType": "address",
          "name": "from",
          "type": "address"
        },
        {
          "internalType": "address",
          "name": "to",
          "type": "address"
        },
        {
          "internalType": "uint256",
          "name": "tokenId",
          "type": "uint256"
        }
      ],
      "name": "safeTransferFrom",
      "outputs": [],
      "stateMutability": "nonpayable",
      "type": "function"
    },
    {
      "inputs": [
        {
          "internalType": "address",
          "name": "from",
          "type": "address"
        },
        {
          "internalType": "address",
          "name": "to",
          "type": "address"
        },
        {
          "internalType": "uint256",
          "name": "tokenId",
          "type": "uint256"
        },
        {
          "internalType": "bytes",
          "name": "_data",
          "type": "bytes"
        }
      ],
      "name": "safeTransferFrom",
      "outputs": [],
      "stateMutability": "nonpayable",
      "type": "function"
    },
    {
      "inputs": [
        {
          "internalType": "address",
          "name": "operator",
          "type": "address"
        },
        {
          "internalType": "bool",
          "name": "approved",
          "type": "bool"
        }
      ],
      "name": "setApprovalForAll",
      "outputs": [],
      "stateMutability": "nonpayable",
      "type": "function"
    },
    {
      "inputs": [
        {
          "internalType": "bytes4",
          "name": "interfaceId",
          "type": "bytes4"
        }
      ],
      "name": "supportsInterface",
      "outputs": [
        {
          "internalType": "bool",
          "name": "",
          "type": "bool"
        }
      ],
      "stateMutability": "view",
      "type": "function",
      "constant": true
    },
    {
      "inputs": [],
      "name": "symbol",
      "outputs": [
        {
          "internalType": "string",
          "name": "",
          "type": "string"
        }
      ],
      "stateMutability": "view",
      "type": "function",
      "constant": true
    },
    {
      "inputs": [
        {
          "internalType": "uint256",
          "name": "index",
          "type": "uint256"
        }
      ],
      "name": "tokenByIndex",
      "outputs": [
        {
          "internalType": "uint256",
          "name": "",
          "type": "uint256"
        }
      ],
      "stateMutability": "view",
      "type": "function",
      "constant": true
    },
    {
      "inputs": [
        {
          "internalType": "address",
          "name": "owner",
          "type": "address"
        },
        {
          "internalType": "uint256",
          "name": "index",
          "type": "uint256"
        }
      ],
      "name": "tokenOfOwnerByIndex",
      "outputs": [
        {
          "internalType": "uint256",
          "name": "",
          "type": "uint256"
        }
      ],
      "stateMutability": "view",
      "type": "function",
      "constant": true
    },
    {
      "inputs": [
        {
          "internalType": "uint256",
          "name": "tokenId",
          "type": "uint256"
        }
      ],
      "name": "tokenURI",
      "outputs": [
        {
          "internalType": "string",
          "name": "",
          "type": "string"
        }
      ],
      "stateMutability": "view",
      "type": "function",
      "constant": true
    },
    {
      "inputs": [],
      "name": "totalSupply",
      "outputs": [
        {
          "internalType": "uint256",
          "name": "",
          "type": "uint256"
        }
      ],
      "stateMutability": "view",
      "type": "function",
      "constant": true
    },
    {
      "inputs": [
        {
          "internalType": "address",
          "name": "from",
          "type": "address"
        },
        {
          "internalType": "address",
          "name": "to",
          "type": "address"
        },
        {
          "internalType": "uint256",
          "name": "tokenId",
          "type": "uint256"
        }
      ],
      "name": "transferFrom",
      "outputs": [],
      "stateMutability": "nonpayable",
      "type": "function"
    },
    {
      "inputs": [
        {
          "internalType": "string",
          "name": "_title",
          "type": "string"
        },
        {
          "internalType": "uint256",
          "name": "_price",
          "type": "uint256"
        },
        {
          "internalType": "string",
          "name": "_description",
          "type": "string"
        },
        {
          "internalType": "string",
          "name": "_club",
          "type": "string"
        },
        {
          "internalType": "string",
          "name": "_urlPicture",
          "type": "string"
        },
        {
          "internalType": "uint256",
          "name": "_totalAmount",
          "type": "uint256"
        }
      ],
      "name": "mintCards",
      "outputs": [],
      "stateMutability": "nonpayable",
      "type": "function"
    },
    {
      "inputs": [],
      "name": "retrieveFunds",
      "outputs": [],
      "stateMutability": "nonpayable",
      "type": "function"
    },
    {
      "inputs": [
        {
          "internalType": "address",
          "name": "_addr",
          "type": "address"
        },
        {
          "internalType": "string",
          "name": "_club",
          "type": "string"
        }
      ],
      "name": "removeCreator",
      "outputs": [],
      "stateMutability": "nonpayable",
      "type": "function"
    },
    {
      "inputs": [],
      "name": "totalFundsCollected",
      "outputs": [
        {
          "internalType": "uint256",
          "name": "",
          "type": "uint256"
        }
      ],
      "stateMutability": "view",
      "type": "function",
      "constant": true
    },
    {
      "inputs": [
        {
          "internalType": "address",
          "name": "_addr",
          "type": "address"
        }
      ],
      "name": "isCreator",
      "outputs": [
        {
          "internalType": "bool",
          "name": "",
          "type": "bool"
        }
      ],
      "stateMutability": "view",
      "type": "function",
      "constant": true
    },
    {
      "inputs": [
        {
          "internalType": "string",
          "name": "_club",
          "type": "string"
        }
      ],
      "name": "isClubCreator",
      "outputs": [
        {
          "internalType": "bool",
          "name": "",
          "type": "bool"
        }
      ],
      "stateMutability": "view",
      "type": "function",
      "constant": true
    },
    {
      "inputs": [
        {
          "internalType": "address",
          "name": "_addr",
          "type": "address"
        },
        {
          "internalType": "string",
          "name": "_club",
          "type": "string"
        }
      ],
      "name": "addCreator",
      "outputs": [],
      "stateMutability": "nonpayable",
      "type": "function"
    },
    {
      "inputs": [
        {
          "internalType": "uint256",
          "name": "tokenId",
          "type": "uint256"
        }
      ],
      "name": "buyCardFromMarket",
      "outputs": [],
      "stateMutability": "payable",
      "type": "function",
      "payable": true
    }
  ],
  "bytecode": "0x60806040526103e8600c556107d0600d553480156200001d57600080fd5b506040518060400160405280600d81526020017f43617264732046757465626f6c000000000000000000000000000000000000008152506040518060400160405280600381526020017f46555400000000000000000000000000000000000000000000000000000000008152508160009080519060200190620000a29291906200015d565b508060019080519060200190620000bb9291906200015d565b50505033600a60006101000a81548173ffffffffffffffffffffffffffffffffffffffff021916908373ffffffffffffffffffffffffffffffffffffffff1602179055506001601160003373ffffffffffffffffffffffffffffffffffffffff1673ffffffffffffffffffffffffffffffffffffffff16815260200190815260200160002060006101000a81548160ff02191690831515021790555062000272565b8280546200016b906200020d565b90600052602060002090601f0160209004810192826200018f5760008555620001db565b82601f10620001aa57805160ff1916838001178555620001db565b82800160010185558215620001db579182015b82811115620001da578251825591602001919060010190620001bd565b5b509050620001ea9190620001ee565b5090565b5b8082111562000209576000816000905550600101620001ef565b5090565b600060028204905060018216806200022657607f821691505b602082108114156200023d576200023c62000243565b5b50919050565b7f4e487b7100000000000000000000000000000000000000000000000000000000600052602260045260246000fd5b614e1a80620002826000396000f3fe6080604052600436106101e35760003560e01c806370a0823111610102578063c87b56dd11610095578063efd4606511610064578063efd4606514610765578063f58a6d60146107a2578063f70d3746146107cd578063f851a440146107f8576101e3565b8063c87b56dd1461067c578063e24577b8146106b9578063e985e9c5146106e2578063e9cb5dd61461071f576101e3565b806395d89b41116100d157806395d89b41146105c2578063a22cb465146105ed578063a8b329df14610616578063b88d4fde14610653576101e3565b806370a08231146104f457806375fbbc8714610531578063895f9f9d1461055c578063933166e114610585576101e3565b80632f745c591161017a57806361b20d8c1161014957806361b20d8c146104595780636352211e146104705780636a868974146104ad5780636ac408e5146104d8576101e3565b80632f745c591461038d57806342842e0e146103ca578063453bc2a7146103f35780634f6ccce71461041c576101e3565b806318160ddd116101b657806318160ddd146102b657806323b872dd146102e157806324466df91461030a5780632518d7e014610347576101e3565b806301ffc9a7146101e857806306fdde0314610225578063081812fc14610250578063095ea7b31461028d575b600080fd5b3480156101f457600080fd5b5061020f600480360381019061020a9190613a0e565b610823565b60405161021c91906144b9565b60405180910390f35b34801561023157600080fd5b5061023a61089d565b60405161024791906144d4565b60405180910390f35b34801561025c57600080fd5b5061027760048036038101906102729190613b8a565b61092f565b6040516102849190614452565b60405180910390f35b34801561029957600080fd5b506102b460048036038101906102af91906139d2565b6109b4565b005b3480156102c257600080fd5b506102cb610acc565b6040516102d89190614910565b60405180910390f35b3480156102ed57600080fd5b5061030860048036038101906103039190613878565b610ad9565b005b34801561031657600080fd5b50610331600480360381019061032c9190613a60565b610b39565b60405161033e9190614452565b60405180910390f35b34801561035357600080fd5b5061036e600480360381019061036991906139d2565b610b82565b6040516103849a999897969594939291906144f6565b60405180910390f35b34801561039957600080fd5b506103b460048036038101906103af91906139d2565b610e43565b6040516103c19190614910565b60405180910390f35b3480156103d657600080fd5b506103f160048036038101906103ec9190613878565b610ee8565b005b3480156103ff57600080fd5b5061041a6004803603810190610415919061397e565b610f08565b005b34801561042857600080fd5b50610443600480360381019061043e9190613b8a565b611051565b6040516104509190614910565b60405180910390f35b34801561046557600080fd5b5061046e6110e8565b005b34801561047c57600080fd5b5061049760048036038101906104929190613b8a565b6111e3565b6040516104a49190614452565b60405180910390f35b3480156104b957600080fd5b506104c2611295565b6040516104cf9190614910565b60405180910390f35b6104f260048036038101906104ed9190613b8a565b61129b565b005b34801561050057600080fd5b5061051b60048036038101906105169190613813565b611768565b6040516105289190614910565b60405180910390f35b34801561053d57600080fd5b50610546611820565b6040516105539190614910565b60405180910390f35b34801561056857600080fd5b50610583600480360381019061057e9190613aa1565b611826565b005b34801561059157600080fd5b506105ac60048036038101906105a79190613813565b611c11565b6040516105b991906144b9565b60405180910390f35b3480156105ce57600080fd5b506105d7611c31565b6040516105e491906144d4565b60405180910390f35b3480156105f957600080fd5b50610614600480360381019061060f9190613942565b611cc3565b005b34801561062257600080fd5b5061063d60048036038101906106389190613a60565b611e44565b60405161064a91906144b9565b60405180910390f35b34801561065f57600080fd5b5061067a600480360381019061067591906138c7565b611efb565b005b34801561068857600080fd5b506106a3600480360381019061069e9190613b8a565b611f5d565b6040516106b091906144d4565b60405180910390f35b3480156106c557600080fd5b506106e060048036038101906106db919061397e565b612004565b005b3480156106ee57600080fd5b506107096004803603810190610704919061383c565b612131565b60405161071691906144b9565b60405180910390f35b34801561072b57600080fd5b50610746600480360381019061074191906139d2565b6121c5565b60405161075c9a999897969594939291906144f6565b60405180910390f35b34801561077157600080fd5b5061078c60048036038101906107879190613813565b612486565b60405161079991906144b9565b60405180910390f35b3480156107ae57600080fd5b506107b76124dc565b6040516107c49190614910565b60405180910390f35b3480156107d957600080fd5b506107e26124e4565b6040516107ef9190614910565b60405180910390f35b34801561080457600080fd5b5061080d6124ea565b60405161081a9190614452565b60405180910390f35b60007f780e9d63000000000000000000000000000000000000000000000000000000007bffffffffffffffffffffffffffffffffffffffffffffffffffffffff1916827bffffffffffffffffffffffffffffffffffffffffffffffffffffffff19161480610896575061089582612510565b5b9050919050565b6060600080546108ac90614c0f565b80601f01602080910402602001604051908101604052809291908181526020018280546108d890614c0f565b80156109255780601f106108fa57610100808354040283529160200191610925565b820191906000526020600020905b81548152906001019060200180831161090857829003601f168201915b5050505050905090565b600061093a826125f2565b610979576040517f08c379a0000000000000000000000000000000000000000000000000000000008152600401610970906147f0565b60405180910390fd5b6004600083815260200190815260200160002060009054906101000a900473ffffffffffffffffffffffffffffffffffffffff169050919050565b60006109bf826111e3565b90508073ffffffffffffffffffffffffffffffffffffffff168373ffffffffffffffffffffffffffffffffffffffff161415610a30576040517f08c379a0000000000000000000000000000000000000000000000000000000008152600401610a2790614870565b60405180910390fd5b8073ffffffffffffffffffffffffffffffffffffffff16610a4f61265e565b73ffffffffffffffffffffffffffffffffffffffff161480610a7e5750610a7d81610a7861265e565b612131565b5b610abd576040517f08c379a0000000000000000000000000000000000000000000000000000000008152600401610ab490614750565b60405180910390fd5b610ac78383612666565b505050565b6000600880549050905090565b610aea610ae461265e565b8261271f565b610b29576040517f08c379a0000000000000000000000000000000000000000000000000000000008152600401610b2090614890565b60405180910390fd5b610b348383836127fd565b505050565b6010818051602081018201805184825260208301602085012081835280955050505050506000915054906101000a900473ffffffffffffffffffffffffffffffffffffffff1681565b600e60205281600052604060002060205280600052604060002060009150915050806000018054610bb290614c0f565b80601f0160208091040260200160405190810160405280929190818152602001828054610bde90614c0f565b8015610c2b5780601f10610c0057610100808354040283529160200191610c2b565b820191906000526020600020905b815481529060010190602001808311610c0e57829003601f168201915b5050505050908060010154908060020160009054906101000a900473ffffffffffffffffffffffffffffffffffffffff1690806003015490806004018054610c7290614c0f565b80601f0160208091040260200160405190810160405280929190818152602001828054610c9e90614c0f565b8015610ceb5780601f10610cc057610100808354040283529160200191610ceb565b820191906000526020600020905b815481529060010190602001808311610cce57829003601f168201915b505050505090806005018054610d0090614c0f565b80601f0160208091040260200160405190810160405280929190818152602001828054610d2c90614c0f565b8015610d795780601f10610d4e57610100808354040283529160200191610d79565b820191906000526020600020905b815481529060010190602001808311610d5c57829003601f168201915b505050505090806006018054610d8e90614c0f565b80601f0160208091040260200160405190810160405280929190818152602001828054610dba90614c0f565b8015610e075780601f10610ddc57610100808354040283529160200191610e07565b820191906000526020600020905b815481529060010190602001808311610dea57829003601f168201915b5050505050908060070154908060080160009054906101000a900473ffffffffffffffffffffffffffffffffffffffff1690806009015490508a565b6000610e4e83611768565b8210610e8f576040517f08c379a0000000000000000000000000000000000000000000000000000000008152600401610e8690614650565b60405180910390fd5b600660008473ffffffffffffffffffffffffffffffffffffffff1673ffffffffffffffffffffffffffffffffffffffff168152602001908152602001600020600083815260200190815260200160002054905092915050565b610f0383838360405180602001604052806000815250611efb565b505050565b3373ffffffffffffffffffffffffffffffffffffffff16600a60009054906101000a900473ffffffffffffffffffffffffffffffffffffffff1673ffffffffffffffffffffffffffffffffffffffff1614610f98576040517f08c379a0000000000000000000000000000000000000000000000000000000008152600401610f8f906148b0565b60405180910390fd5b6001601160008473ffffffffffffffffffffffffffffffffffffffff1673ffffffffffffffffffffffffffffffffffffffff16815260200190815260200160002060006101000a81548160ff021916908315150217905550816010826040516110019190614417565b908152602001604051809103902060006101000a81548173ffffffffffffffffffffffffffffffffffffffff021916908373ffffffffffffffffffffffffffffffffffffffff1602179055505050565b600061105b610acc565b821061109c576040517f08c379a0000000000000000000000000000000000000000000000000000000008152600401611093906148d0565b60405180910390fd5b600882815481106110d6577f4e487b7100000000000000000000000000000000000000000000000000000000600052603260045260246000fd5b90600052602060002001549050919050565b600a60009054906101000a900473ffffffffffffffffffffffffffffffffffffffff1673ffffffffffffffffffffffffffffffffffffffff163373ffffffffffffffffffffffffffffffffffffffff1614611178576040517f08c379a000000000000000000000000000000000000000000000000000000000815260040161116f906147b0565b60405180910390fd5b600a60009054906101000a900473ffffffffffffffffffffffffffffffffffffffff1673ffffffffffffffffffffffffffffffffffffffff166108fc479081150290604051600060405180830381858888f193505050501580156111e0573d6000803e3d6000fd5b50565b6000806002600084815260200190815260200160002060009054906101000a900473ffffffffffffffffffffffffffffffffffffffff169050600073ffffffffffffffffffffffffffffffffffffffff168173ffffffffffffffffffffffffffffffffffffffff16141561128c576040517f08c379a000000000000000000000000000000000000000000000000000000000815260040161128390614790565b60405180910390fd5b80915050919050565b600b5481565b600e60003073ffffffffffffffffffffffffffffffffffffffff1673ffffffffffffffffffffffffffffffffffffffff1681526020019081526020016000206000828152602001908152602001600020600301543414611330576040517f08c379a0000000000000000000000000000000000000000000000000000000008152600401611327906148f0565b60405180910390fd5b600061133b34612a59565b9050600e60003073ffffffffffffffffffffffffffffffffffffffff1673ffffffffffffffffffffffffffffffffffffffff168152602001908152602001600020600083815260200190815260200160002060080160009054906101000a900473ffffffffffffffffffffffffffffffffffffffff1673ffffffffffffffffffffffffffffffffffffffff166108fc82346113d69190614b25565b9081150290604051600060405180830381858888f19350505050158015611401573d6000803e3d6000fd5b5061140d3033846127fd565b600e60003073ffffffffffffffffffffffffffffffffffffffff1673ffffffffffffffffffffffffffffffffffffffff1681526020019081526020016000206000838152602001908152602001600020600f60003373ffffffffffffffffffffffffffffffffffffffff1673ffffffffffffffffffffffffffffffffffffffff168152602001908152602001600020600084815260200190815260200160002060008201816000019080546114c190614c0f565b6114cc92919061356a565b50600182015481600101556002820160009054906101000a900473ffffffffffffffffffffffffffffffffffffffff168160020160006101000a81548173ffffffffffffffffffffffffffffffffffffffff021916908373ffffffffffffffffffffffffffffffffffffffff16021790555060038201548160030155600482018160040190805461155c90614c0f565b61156792919061356a565b50600582018160050190805461157c90614c0f565b61158792919061356a565b50600682018160060190805461159c90614c0f565b6115a792919061356a565b50600782015481600701556008820160009054906101000a900473ffffffffffffffffffffffffffffffffffffffff168160080160006101000a81548173ffffffffffffffffffffffffffffffffffffffff021916908373ffffffffffffffffffffffffffffffffffffffff16021790555060098201548160090155905050600e60003073ffffffffffffffffffffffffffffffffffffffff1673ffffffffffffffffffffffffffffffffffffffff16815260200190815260200160002060008381526020019081526020016000206000808201600061168791906135f7565b60018201600090556002820160006101000a81549073ffffffffffffffffffffffffffffffffffffffff021916905560038201600090556004820160006116ce91906135f7565b6005820160006116de91906135f7565b6006820160006116ee91906135f7565b60078201600090556008820160006101000a81549073ffffffffffffffffffffffffffffffffffffffff0219169055600982016000905550507fb39e3962c0052e0629255c8a8ce98f8a76d55118a8282743b004081e8a60906b8230334260405161175c949392919061492b565b60405180910390a15050565b60008073ffffffffffffffffffffffffffffffffffffffff168273ffffffffffffffffffffffffffffffffffffffff1614156117d9576040517f08c379a00000000000000000000000000000000000000000000000000000000081526004016117d090614770565b60405180910390fd5b600360008373ffffffffffffffffffffffffffffffffffffffff1673ffffffffffffffffffffffffffffffffffffffff168152602001908152602001600020549050919050565b600d5481565b601160003373ffffffffffffffffffffffffffffffffffffffff1673ffffffffffffffffffffffffffffffffffffffff16815260200190815260200160002060009054906101000a900460ff166118b2576040517f08c379a00000000000000000000000000000000000000000000000000000000081526004016118a990614730565b60405180910390fd5b3373ffffffffffffffffffffffffffffffffffffffff166010846040516118d99190614417565b908152602001604051809103902060009054906101000a900473ffffffffffffffffffffffffffffffffffffffff1673ffffffffffffffffffffffffffffffffffffffff161461195e576040517f08c379a000000000000000000000000000000000000000000000000000000000815260040161195590614850565b60405180910390fd5b60005b81811015611c08576000604051806101400160405280898152602001600b5481526020013073ffffffffffffffffffffffffffffffffffffffff1681526020018881526020018781526020018581526020018681526020014281526020013373ffffffffffffffffffffffffffffffffffffffff1681526020018481525090506119ed30600b54612ad7565b80600e60003073ffffffffffffffffffffffffffffffffffffffff1673ffffffffffffffffffffffffffffffffffffffff1681526020019081526020016000206000600b5481526020019081526020016000206000820151816000019080519060200190611a5c929190613637565b506020820151816001015560408201518160020160006101000a81548173ffffffffffffffffffffffffffffffffffffffff021916908373ffffffffffffffffffffffffffffffffffffffff160217905550606082015181600301556080820151816004019080519060200190611ad4929190613637565b5060a0820151816005019080519060200190611af1929190613637565b5060c0820151816006019080519060200190611b0e929190613637565b5060e082015181600701556101008201518160080160006101000a81548173ffffffffffffffffffffffffffffffffffffffff021916908373ffffffffffffffffffffffffffffffffffffffff1602179055506101208201518160090155905050600b6000815480929190611b8290614c41565b91905055507f76d7fc2acd49c7f7e283c64228d295e5b6020449a55771e32a9ce55ffdeb8707816000015182602001518360400151846060015185608001518660a001518760e00151886101200151896101000151604051611bec999897969594939291906145ae565b60405180910390a1508080611c0090614c41565b915050611961565b50505050505050565b60116020528060005260406000206000915054906101000a900460ff1681565b606060018054611c4090614c0f565b80601f0160208091040260200160405190810160405280929190818152602001828054611c6c90614c0f565b8015611cb95780601f10611c8e57610100808354040283529160200191611cb9565b820191906000526020600020905b815481529060010190602001808311611c9c57829003601f168201915b5050505050905090565b611ccb61265e565b73ffffffffffffffffffffffffffffffffffffffff168273ffffffffffffffffffffffffffffffffffffffff161415611d39576040517f08c379a0000000000000000000000000000000000000000000000000000000008152600401611d30906146f0565b60405180910390fd5b8060056000611d4661265e565b73ffffffffffffffffffffffffffffffffffffffff1673ffffffffffffffffffffffffffffffffffffffff16815260200190815260200160002060008473ffffffffffffffffffffffffffffffffffffffff1673ffffffffffffffffffffffffffffffffffffffff16815260200190815260200160002060006101000a81548160ff0219169083151502179055508173ffffffffffffffffffffffffffffffffffffffff16611df361265e565b73ffffffffffffffffffffffffffffffffffffffff167f17307eab39ab6107e8899845ad3d59bd9653f200f220920489ca2b5937696c3183604051611e3891906144b9565b60405180910390a35050565b60003373ffffffffffffffffffffffffffffffffffffffff16601083604051611e6d9190614417565b908152602001604051809103902060009054906101000a900473ffffffffffffffffffffffffffffffffffffffff1673ffffffffffffffffffffffffffffffffffffffff1614611ef2576040517f08c379a0000000000000000000000000000000000000000000000000000000008152600401611ee990614850565b60405180910390fd5b60019050919050565b611f0c611f0661265e565b8361271f565b611f4b576040517f08c379a0000000000000000000000000000000000000000000000000000000008152600401611f4290614890565b60405180910390fd5b611f5784848484612ca5565b50505050565b6060611f68826125f2565b611fa7576040517f08c379a0000000000000000000000000000000000000000000000000000000008152600401611f9e90614830565b60405180910390fd5b6000611fb1612d01565b90506000815111611fd15760405180602001604052806000815250611ffc565b80611fdb84612d18565b604051602001611fec92919061442e565b6040516020818303038152906040525b915050919050565b3373ffffffffffffffffffffffffffffffffffffffff16600a60009054906101000a900473ffffffffffffffffffffffffffffffffffffffff1673ffffffffffffffffffffffffffffffffffffffff1614612094576040517f08c379a000000000000000000000000000000000000000000000000000000000815260040161208b906148b0565b60405180910390fd5b6000601160008473ffffffffffffffffffffffffffffffffffffffff1673ffffffffffffffffffffffffffffffffffffffff16815260200190815260200160002060006101000a81548160ff0219169083151502179055506010816040516120fc9190614417565b908152602001604051809103902060006101000a81549073ffffffffffffffffffffffffffffffffffffffff02191690555050565b6000600560008473ffffffffffffffffffffffffffffffffffffffff1673ffffffffffffffffffffffffffffffffffffffff16815260200190815260200160002060008373ffffffffffffffffffffffffffffffffffffffff1673ffffffffffffffffffffffffffffffffffffffff16815260200190815260200160002060009054906101000a900460ff16905092915050565b600f602052816000526040600020602052806000526040600020600091509150508060000180546121f590614c0f565b80601f016020809104026020016040519081016040528092919081815260200182805461222190614c0f565b801561226e5780601f106122435761010080835404028352916020019161226e565b820191906000526020600020905b81548152906001019060200180831161225157829003601f168201915b5050505050908060010154908060020160009054906101000a900473ffffffffffffffffffffffffffffffffffffffff16908060030154908060040180546122b590614c0f565b80601f01602080910402602001604051908101604052809291908181526020018280546122e190614c0f565b801561232e5780601f106123035761010080835404028352916020019161232e565b820191906000526020600020905b81548152906001019060200180831161231157829003601f168201915b50505050509080600501805461234390614c0f565b80601f016020809104026020016040519081016040528092919081815260200182805461236f90614c0f565b80156123bc5780601f10612391576101008083540402835291602001916123bc565b820191906000526020600020905b81548152906001019060200180831161239f57829003601f168201915b5050505050908060060180546123d190614c0f565b80601f01602080910402602001604051908101604052809291908181526020018280546123fd90614c0f565b801561244a5780601f1061241f5761010080835404028352916020019161244a565b820191906000526020600020905b81548152906001019060200180831161242d57829003601f168201915b5050505050908060070154908060080160009054906101000a900473ffffffffffffffffffffffffffffffffffffffff1690806009015490508a565b6000601160008373ffffffffffffffffffffffffffffffffffffffff1673ffffffffffffffffffffffffffffffffffffffff16815260200190815260200160002060009054906101000a900460ff169050919050565b600047905090565b600c5481565b600a60009054906101000a900473ffffffffffffffffffffffffffffffffffffffff1681565b60007f80ac58cd000000000000000000000000000000000000000000000000000000007bffffffffffffffffffffffffffffffffffffffffffffffffffffffff1916827bffffffffffffffffffffffffffffffffffffffffffffffffffffffff191614806125db57507f5b5e139f000000000000000000000000000000000000000000000000000000007bffffffffffffffffffffffffffffffffffffffffffffffffffffffff1916827bffffffffffffffffffffffffffffffffffffffffffffffffffffffff1916145b806125eb57506125ea82612ec5565b5b9050919050565b60008073ffffffffffffffffffffffffffffffffffffffff166002600084815260200190815260200160002060009054906101000a900473ffffffffffffffffffffffffffffffffffffffff1673ffffffffffffffffffffffffffffffffffffffff1614159050919050565b600033905090565b816004600083815260200190815260200160002060006101000a81548173ffffffffffffffffffffffffffffffffffffffff021916908373ffffffffffffffffffffffffffffffffffffffff160217905550808273ffffffffffffffffffffffffffffffffffffffff166126d9836111e3565b73ffffffffffffffffffffffffffffffffffffffff167f8c5be1e5ebec7d5bd14f71427d1e84f3dd0314c0f7b2291e5b200ac8c7c3b92560405160405180910390a45050565b600061272a826125f2565b612769576040517f08c379a000000000000000000000000000000000000000000000000000000000815260040161276090614710565b60405180910390fd5b6000612774836111e3565b90508073ffffffffffffffffffffffffffffffffffffffff168473ffffffffffffffffffffffffffffffffffffffff1614806127e357508373ffffffffffffffffffffffffffffffffffffffff166127cb8461092f565b73ffffffffffffffffffffffffffffffffffffffff16145b806127f457506127f38185612131565b5b91505092915050565b8273ffffffffffffffffffffffffffffffffffffffff1661281d826111e3565b73ffffffffffffffffffffffffffffffffffffffff1614612873576040517f08c379a000000000000000000000000000000000000000000000000000000000815260040161286a90614810565b60405180910390fd5b600073ffffffffffffffffffffffffffffffffffffffff168273ffffffffffffffffffffffffffffffffffffffff1614156128e3576040517f08c379a00000000000000000000000000000000000000000000000000000000081526004016128da906146d0565b60405180910390fd5b6128ee838383612f2f565b6128f9600082612666565b6001600360008573ffffffffffffffffffffffffffffffffffffffff1673ffffffffffffffffffffffffffffffffffffffff16815260200190815260200160002060008282546129499190614b25565b925050819055506001600360008473ffffffffffffffffffffffffffffffffffffffff1673ffffffffffffffffffffffffffffffffffffffff16815260200190815260200160002060008282546129a09190614a44565b92505081905550816002600083815260200190815260200160002060006101000a81548173ffffffffffffffffffffffffffffffffffffffff021916908373ffffffffffffffffffffffffffffffffffffffff160217905550808273ffffffffffffffffffffffffffffffffffffffff168473ffffffffffffffffffffffffffffffffffffffff167fddf252ad1be2c89b69c2b068fc378daa952ba7f163c4a11628f55a4df523b3ef60405160405180910390a4505050565b6000816127108084612a6b9190614a9a565b612a759190614acb565b14612ab5576040517f08c379a0000000000000000000000000000000000000000000000000000000008152600401612aac906146b0565b60405180910390fd5b612710600c5483612ac69190614acb565b612ad09190614a9a565b9050919050565b600073ffffffffffffffffffffffffffffffffffffffff168273ffffffffffffffffffffffffffffffffffffffff161415612b47576040517f08c379a0000000000000000000000000000000000000000000000000000000008152600401612b3e906147d0565b60405180910390fd5b612b50816125f2565b15612b90576040517f08c379a0000000000000000000000000000000000000000000000000000000008152600401612b8790614690565b60405180910390fd5b612b9c60008383612f2f565b6001600360008473ffffffffffffffffffffffffffffffffffffffff1673ffffffffffffffffffffffffffffffffffffffff1681526020019081526020016000206000828254612bec9190614a44565b92505081905550816002600083815260200190815260200160002060006101000a81548173ffffffffffffffffffffffffffffffffffffffff021916908373ffffffffffffffffffffffffffffffffffffffff160217905550808273ffffffffffffffffffffffffffffffffffffffff16600073ffffffffffffffffffffffffffffffffffffffff167fddf252ad1be2c89b69c2b068fc378daa952ba7f163c4a11628f55a4df523b3ef60405160405180910390a45050565b612cb08484846127fd565b612cbc84848484613043565b612cfb576040517f08c379a0000000000000000000000000000000000000000000000000000000008152600401612cf290614670565b60405180910390fd5b50505050565b606060405180602001604052806000815250905090565b60606000821415612d60576040518060400160405280600181526020017f30000000000000000000000000000000000000000000000000000000000000008152509050612ec0565b600082905060005b60008214612d92578080612d7b90614c41565b915050600a82612d8b9190614a9a565b9150612d68565b60008167ffffffffffffffff811115612dd4577f4e487b7100000000000000000000000000000000000000000000000000000000600052604160045260246000fd5b6040519080825280601f01601f191660200182016040528015612e065781602001600182028036833780820191505090505b5090505b60008514612eb957600182612e1f9190614b25565b9150600a85612e2e9190614c8a565b6030612e3a9190614a44565b60f81b818381518110612e76577f4e487b7100000000000000000000000000000000000000000000000000000000600052603260045260246000fd5b60200101907effffffffffffffffffffffffffffffffffffffffffffffffffffffffffffff1916908160001a905350600a85612eb29190614a9a565b9450612e0a565b8093505050505b919050565b60007f01ffc9a7000000000000000000000000000000000000000000000000000000007bffffffffffffffffffffffffffffffffffffffffffffffffffffffff1916827bffffffffffffffffffffffffffffffffffffffffffffffffffffffff1916149050919050565b612f3a8383836131da565b600073ffffffffffffffffffffffffffffffffffffffff168373ffffffffffffffffffffffffffffffffffffffff161415612f7d57612f78816131df565b612fbc565b8173ffffffffffffffffffffffffffffffffffffffff168373ffffffffffffffffffffffffffffffffffffffff1614612fbb57612fba8382613228565b5b5b600073ffffffffffffffffffffffffffffffffffffffff168273ffffffffffffffffffffffffffffffffffffffff161415612fff57612ffa81613395565b61303e565b8273ffffffffffffffffffffffffffffffffffffffff168273ffffffffffffffffffffffffffffffffffffffff161461303d5761303c82826134d8565b5b5b505050565b60006130648473ffffffffffffffffffffffffffffffffffffffff16613557565b156131cd578373ffffffffffffffffffffffffffffffffffffffff1663150b7a0261308d61265e565b8786866040518563ffffffff1660e01b81526004016130af949392919061446d565b602060405180830381600087803b1580156130c957600080fd5b505af19250505080156130fa57506040513d601f19601f820116820180604052508101906130f79190613a37565b60015b61317d573d806000811461312a576040519150601f19603f3d011682016040523d82523d6000602084013e61312f565b606091505b50600081511415613175576040517f08c379a000000000000000000000000000000000000000000000000000000000815260040161316c90614670565b60405180910390fd5b805181602001fd5b63150b7a0260e01b7bffffffffffffffffffffffffffffffffffffffffffffffffffffffff1916817bffffffffffffffffffffffffffffffffffffffffffffffffffffffff1916149150506131d2565b600190505b949350505050565b505050565b6008805490506009600083815260200190815260200160002081905550600881908060018154018082558091505060019003906000526020600020016000909190919091505550565b6000600161323584611768565b61323f9190614b25565b9050600060076000848152602001908152602001600020549050818114613324576000600660008673ffffffffffffffffffffffffffffffffffffffff1673ffffffffffffffffffffffffffffffffffffffff168152602001908152602001600020600084815260200190815260200160002054905080600660008773ffffffffffffffffffffffffffffffffffffffff1673ffffffffffffffffffffffffffffffffffffffff168152602001908152602001600020600084815260200190815260200160002081905550816007600083815260200190815260200160002081905550505b6007600084815260200190815260200160002060009055600660008573ffffffffffffffffffffffffffffffffffffffff1673ffffffffffffffffffffffffffffffffffffffff16815260200190815260200160002060008381526020019081526020016000206000905550505050565b600060016008805490506133a99190614b25565b90506000600960008481526020019081526020016000205490506000600883815481106133ff577f4e487b7100000000000000000000000000000000000000000000000000000000600052603260045260246000fd5b906000526020600020015490508060088381548110613447577f4e487b7100000000000000000000000000000000000000000000000000000000600052603260045260246000fd5b9060005260206000200181905550816009600083815260200190815260200160002081905550600960008581526020019081526020016000206000905560088054806134bc577f4e487b7100000000000000000000000000000000000000000000000000000000600052603160045260246000fd5b6001900381819060005260206000200160009055905550505050565b60006134e383611768565b905081600660008573ffffffffffffffffffffffffffffffffffffffff1673ffffffffffffffffffffffffffffffffffffffff168152602001908152602001600020600083815260200190815260200160002081905550806007600084815260200190815260200160002081905550505050565b600080823b905060008111915050919050565b82805461357690614c0f565b90600052602060002090601f01602090048101928261359857600085556135e6565b82601f106135a957805485556135e6565b828001600101855582156135e657600052602060002091601f016020900482015b828111156135e55782548255916001019190600101906135ca565b5b5090506135f391906136bd565b5090565b50805461360390614c0f565b6000825580601f106136155750613634565b601f01602090049060005260206000209081019061363391906136bd565b5b50565b82805461364390614c0f565b90600052602060002090601f01602090048101928261366557600085556136ac565b82601f1061367e57805160ff19168380011785556136ac565b828001600101855582156136ac579182015b828111156136ab578251825591602001919060010190613690565b5b5090506136b991906136bd565b5090565b5b808211156136d65760008160009055506001016136be565b5090565b60006136ed6136e8846149a1565b614970565b90508281526020810184848401111561370557600080fd5b613710848285614bcd565b509392505050565b600061372b613726846149d1565b614970565b90508281526020810184848401111561374357600080fd5b61374e848285614bcd565b509392505050565b60008135905061376581614d88565b92915050565b60008135905061377a81614d9f565b92915050565b60008135905061378f81614db6565b92915050565b6000815190506137a481614db6565b92915050565b600082601f8301126137bb57600080fd5b81356137cb8482602086016136da565b91505092915050565b600082601f8301126137e557600080fd5b81356137f5848260208601613718565b91505092915050565b60008135905061380d81614dcd565b92915050565b60006020828403121561382557600080fd5b600061383384828501613756565b91505092915050565b6000806040838503121561384f57600080fd5b600061385d85828601613756565b925050602061386e85828601613756565b9150509250929050565b60008060006060848603121561388d57600080fd5b600061389b86828701613756565b93505060206138ac86828701613756565b92505060406138bd868287016137fe565b9150509250925092565b600080600080608085870312156138dd57600080fd5b60006138eb87828801613756565b94505060206138fc87828801613756565b935050604061390d878288016137fe565b925050606085013567ffffffffffffffff81111561392a57600080fd5b613936878288016137aa565b91505092959194509250565b6000806040838503121561395557600080fd5b600061396385828601613756565b92505060206139748582860161376b565b9150509250929050565b6000806040838503121561399157600080fd5b600061399f85828601613756565b925050602083013567ffffffffffffffff8111156139bc57600080fd5b6139c8858286016137d4565b9150509250929050565b600080604083850312156139e557600080fd5b60006139f385828601613756565b9250506020613a04858286016137fe565b9150509250929050565b600060208284031215613a2057600080fd5b6000613a2e84828501613780565b91505092915050565b600060208284031215613a4957600080fd5b6000613a5784828501613795565b91505092915050565b600060208284031215613a7257600080fd5b600082013567ffffffffffffffff811115613a8c57600080fd5b613a98848285016137d4565b91505092915050565b60008060008060008060c08789031215613aba57600080fd5b600087013567ffffffffffffffff811115613ad457600080fd5b613ae089828a016137d4565b9650506020613af189828a016137fe565b955050604087013567ffffffffffffffff811115613b0e57600080fd5b613b1a89828a016137d4565b945050606087013567ffffffffffffffff811115613b3757600080fd5b613b4389828a016137d4565b935050608087013567ffffffffffffffff811115613b6057600080fd5b613b6c89828a016137d4565b92505060a0613b7d89828a016137fe565b9150509295509295509295565b600060208284031215613b9c57600080fd5b6000613baa848285016137fe565b91505092915050565b613bbc81614b59565b82525050565b613bcb81614b6b565b82525050565b6000613bdc82614a01565b613be68185614a17565b9350613bf6818560208601614bdc565b613bff81614d77565b840191505092915050565b6000613c1582614a0c565b613c1f8185614a28565b9350613c2f818560208601614bdc565b613c3881614d77565b840191505092915050565b6000613c4e82614a0c565b613c588185614a39565b9350613c68818560208601614bdc565b80840191505092915050565b6000613c81602b83614a28565b91507f455243373231456e756d657261626c653a206f776e657220696e646578206f7560008301527f74206f6620626f756e64730000000000000000000000000000000000000000006020830152604082019050919050565b6000613ce7603283614a28565b91507f4552433732313a207472616e7366657220746f206e6f6e20455243373231526560008301527f63656976657220696d706c656d656e74657200000000000000000000000000006020830152604082019050919050565b6000613d4d601c83614a28565b91507f4552433732313a20746f6b656e20616c7265616479206d696e746564000000006000830152602082019050919050565b6000613d8d600983614a28565b91507f746f6f20736d616c6c00000000000000000000000000000000000000000000006000830152602082019050919050565b6000613dcd602483614a28565b91507f4552433732313a207472616e7366657220746f20746865207a65726f2061646460008301527f72657373000000000000000000000000000000000000000000000000000000006020830152604082019050919050565b6000613e33601983614a28565b91507f4552433732313a20617070726f766520746f2063616c6c6572000000000000006000830152602082019050919050565b6000613e73602c83614a28565b91507f4552433732313a206f70657261746f7220717565727920666f72206e6f6e657860008301527f697374656e7420746f6b656e00000000000000000000000000000000000000006020830152604082019050919050565b6000613ed9601583614a28565b91507f594f5520415245204e4f5420412043524541544f5200000000000000000000006000830152602082019050919050565b6000613f19603883614a28565b91507f4552433732313a20617070726f76652063616c6c6572206973206e6f74206f7760008301527f6e6572206e6f7220617070726f76656420666f7220616c6c00000000000000006020830152604082019050919050565b6000613f7f602a83614a28565b91507f4552433732313a2062616c616e636520717565727920666f7220746865207a6560008301527f726f2061646472657373000000000000000000000000000000000000000000006020830152604082019050919050565b6000613fe5602983614a28565b91507f4552433732313a206f776e657220717565727920666f72206e6f6e657869737460008301527f656e7420746f6b656e00000000000000000000000000000000000000000000006020830152604082019050919050565b600061404b601383614a28565b91507f594f5520415245204e4f5420414c4c4f574544000000000000000000000000006000830152602082019050919050565b600061408b602083614a28565b91507f4552433732313a206d696e7420746f20746865207a65726f20616464726573736000830152602082019050919050565b60006140cb602c83614a28565b91507f4552433732313a20617070726f76656420717565727920666f72206e6f6e657860008301527f697374656e7420746f6b656e00000000000000000000000000000000000000006020830152604082019050919050565b6000614131602983614a28565b91507f4552433732313a207472616e73666572206f6620746f6b656e2074686174206960008301527f73206e6f74206f776e00000000000000000000000000000000000000000000006020830152604082019050919050565b6000614197602f83614a28565b91507f4552433732314d657461646174613a2055524920717565727920666f72206e6f60008301527f6e6578697374656e7420746f6b656e00000000000000000000000000000000006020830152604082019050919050565b60006141fd602083614a28565b91507f594f5520415245204e4f542043524541544f52204f46205448495320434c55426000830152602082019050919050565b600061423d602183614a28565b91507f4552433732313a20617070726f76616c20746f2063757272656e74206f776e6560008301527f72000000000000000000000000000000000000000000000000000000000000006020830152604082019050919050565b60006142a3603183614a28565b91507f4552433732313a207472616e736665722063616c6c6572206973206e6f74206f60008301527f776e6572206e6f7220617070726f7665640000000000000000000000000000006020830152604082019050919050565b6000614309601183614a28565b91507f594f5520415245204e4f542041444d494e0000000000000000000000000000006000830152602082019050919050565b6000614349602c83614a28565b91507f455243373231456e756d657261626c653a20676c6f62616c20696e646578206f60008301527f7574206f6620626f756e647300000000000000000000000000000000000000006020830152604082019050919050565b60006143af603083614a28565b91507f4e4f542054484520524947485420414d4f554e54204f46204554482c204d415960008301527f204245204d4f5245204f52204c455353000000000000000000000000000000006020830152604082019050919050565b61441181614bc3565b82525050565b60006144238284613c43565b915081905092915050565b600061443a8285613c43565b91506144468284613c43565b91508190509392505050565b60006020820190506144676000830184613bb3565b92915050565b60006080820190506144826000830187613bb3565b61448f6020830186613bb3565b61449c6040830185614408565b81810360608301526144ae8184613bd1565b905095945050505050565b60006020820190506144ce6000830184613bc2565b92915050565b600060208201905081810360008301526144ee8184613c0a565b905092915050565b6000610140820190508181036000830152614511818d613c0a565b9050614520602083018c614408565b61452d604083018b613bb3565b61453a606083018a614408565b818103608083015261454c8189613c0a565b905081810360a08301526145608188613c0a565b905081810360c08301526145748187613c0a565b905061458360e0830186614408565b614591610100830185613bb3565b61459f610120830184614408565b9b9a5050505050505050505050565b60006101208201905081810360008301526145c9818c613c0a565b90506145d8602083018b614408565b6145e5604083018a613bb3565b6145f26060830189614408565b81810360808301526146048188613c0a565b905081810360a08301526146188187613c0a565b905061462760c0830186614408565b61463460e0830185614408565b614642610100830184613bb3565b9a9950505050505050505050565b6000602082019050818103600083015261466981613c74565b9050919050565b6000602082019050818103600083015261468981613cda565b9050919050565b600060208201905081810360008301526146a981613d40565b9050919050565b600060208201905081810360008301526146c981613d80565b9050919050565b600060208201905081810360008301526146e981613dc0565b9050919050565b6000602082019050818103600083015261470981613e26565b9050919050565b6000602082019050818103600083015261472981613e66565b9050919050565b6000602082019050818103600083015261474981613ecc565b9050919050565b6000602082019050818103600083015261476981613f0c565b9050919050565b6000602082019050818103600083015261478981613f72565b9050919050565b600060208201905081810360008301526147a981613fd8565b9050919050565b600060208201905081810360008301526147c98161403e565b9050919050565b600060208201905081810360008301526147e98161407e565b9050919050565b60006020820190508181036000830152614809816140be565b9050919050565b6000602082019050818103600083015261482981614124565b9050919050565b600060208201905081810360008301526148498161418a565b9050919050565b60006020820190508181036000830152614869816141f0565b9050919050565b6000602082019050818103600083015261488981614230565b9050919050565b600060208201905081810360008301526148a981614296565b9050919050565b600060208201905081810360008301526148c9816142fc565b9050919050565b600060208201905081810360008301526148e98161433c565b9050919050565b60006020820190508181036000830152614909816143a2565b9050919050565b60006020820190506149256000830184614408565b92915050565b60006080820190506149406000830187614408565b61494d6020830186613bb3565b61495a6040830185613bb3565b6149676060830184614408565b95945050505050565b6000604051905081810181811067ffffffffffffffff8211171561499757614996614d48565b5b8060405250919050565b600067ffffffffffffffff8211156149bc576149bb614d48565b5b601f19601f8301169050602081019050919050565b600067ffffffffffffffff8211156149ec576149eb614d48565b5b601f19601f8301169050602081019050919050565b600081519050919050565b600081519050919050565b600082825260208201905092915050565b600082825260208201905092915050565b600081905092915050565b6000614a4f82614bc3565b9150614a5a83614bc3565b9250827fffffffffffffffffffffffffffffffffffffffffffffffffffffffffffffffff03821115614a8f57614a8e614cbb565b5b828201905092915050565b6000614aa582614bc3565b9150614ab083614bc3565b925082614ac057614abf614cea565b5b828204905092915050565b6000614ad682614bc3565b9150614ae183614bc3565b9250817fffffffffffffffffffffffffffffffffffffffffffffffffffffffffffffffff0483118215151615614b1a57614b19614cbb565b5b828202905092915050565b6000614b3082614bc3565b9150614b3b83614bc3565b925082821015614b4e57614b4d614cbb565b5b828203905092915050565b6000614b6482614ba3565b9050919050565b60008115159050919050565b60007fffffffff0000000000000000000000000000000000000000000000000000000082169050919050565b600073ffffffffffffffffffffffffffffffffffffffff82169050919050565b6000819050919050565b82818337600083830152505050565b60005b83811015614bfa578082015181840152602081019050614bdf565b83811115614c09576000848401525b50505050565b60006002820490506001821680614c2757607f821691505b60208210811415614c3b57614c3a614d19565b5b50919050565b6000614c4c82614bc3565b91507fffffffffffffffffffffffffffffffffffffffffffffffffffffffffffffffff821415614c7f57614c7e614cbb565b5b600182019050919050565b6000614c9582614bc3565b9150614ca083614bc3565b925082614cb057614caf614cea565b5b828206905092915050565b7f4e487b7100000000000000000000000000000000000000000000000000000000600052601160045260246000fd5b7f4e487b7100000000000000000000000000000000000000000000000000000000600052601260045260246000fd5b7f4e487b7100000000000000000000000000000000000000000000000000000000600052602260045260246000fd5b7f4e487b7100000000000000000000000000000000000000000000000000000000600052604160045260246000fd5b6000601f19601f8301169050919050565b614d9181614b59565b8114614d9c57600080fd5b50565b614da881614b6b565b8114614db357600080fd5b50565b614dbf81614b77565b8114614dca57600080fd5b50565b614dd681614bc3565b8114614de157600080fd5b5056fea26469706673582212203f2637e90ff30299ae3d94a755f9cdf48f1404ea694c6122bad7fb731ff4388e64736f6c63430008000033",
  "immutableReferences": {},
  "source": "// SPDX-License-Identifier: MIT\npragma solidity >=0.4.22 <0.9.0;\n\nimport \"@openzeppelin/contracts/token/ERC721/ERC721.sol\";\nimport \"@openzeppelin/contracts/token/ERC721/extensions/ERC721Enumerable.sol\";\n\ncontract Cards is ERC721Enumerable {\n    address public admin;\n    uint256 public nextItemId;\n    uint256 public CONTRACT_FEE = 1000; //10% fee\n    uint256 public CREATORS_FEE = 2000; // 20% fee\n    //185 basis points = 1.85 pct\n\n    mapping(address => mapping(uint256 => Card)) public marketCards;\n    mapping(address => mapping(uint256 => Card)) public myCards;\n    /*for now just add one creator per club, but when I want to increase more creators\n    for each club I just need to add mapping(string=>mapping(uint=>address)) \n    */\n\n    //MIGRATE CONTRACT FIRST BEFORE ANYTHING, OF COURSE\n    // first get the clubToCreator address of what team i want, then loop through marketCards\n    // filtering just the cards `createdBy` that address and return it to the user\n\n    mapping(string => address) public clubToCreator;\n    mapping(address => bool) public creators;\n\n    function mintCards(\n        string memory _title,\n        uint256 _price,\n        string memory _description,\n        string memory _club,\n        string memory _urlPicture,\n        uint256 _totalAmount\n    ) external {\n        require(creators[msg.sender], \"YOU ARE NOT A CREATOR\");\n        require(\n            clubToCreator[_club] == msg.sender,\n            \"YOU ARE NOT CREATOR OF THIS CLUB\"\n        );\n\n        for (uint256 i = 0; i < _totalAmount; i++) {\n            Card memory card = Card({\n                title: _title,\n                id: nextItemId,\n                owner: address(this),\n                price: _price,\n                description: _description,\n                urlPicture: _urlPicture,\n                club: _club,\n                timestamp: block.timestamp,\n                createdBy: msg.sender,\n                totalAmount: _totalAmount\n            });\n            _mint(address(this), nextItemId);\n            marketCards[address(this)][nextItemId] = card;\n            nextItemId++;\n\n            emit cardMinted(\n                card.title,\n                card.id,\n                card.owner,\n                card.price,\n                card.description,\n                card.urlPicture,\n                card.timestamp,\n                card.totalAmount,\n                card.createdBy\n            );\n        }\n\n        // tokenOfOwnerByIndex(owner, index);\n        // tokenByIndex(index);\n    }\n\n    //owner of the contract retrieving all of its fee's\n    function retrieveFunds() external {\n        require(msg.sender == admin, \"YOU ARE NOT ALLOWED\");\n        payable(admin).transfer(address(this).balance);\n    }\n\n    // removing card creators, just admin allowed to remove\n    function removeCreator(address _addr, string memory _club) external {\n        require(admin == msg.sender, \"YOU ARE NOT ADMIN\");\n        creators[_addr] = false;\n        delete clubToCreator[_club];\n    }\n\n    function totalFundsCollected() external view returns (uint256) {\n        return address(this).balance;\n    }\n\n    event cardMinted(\n        string title,\n        uint256 id,\n        address owner,\n        uint256 price,\n        string description,\n        string urlPicture,\n        uint256 timestamp,\n        uint256 totalAmount,\n        address createdBy\n    );\n\n    event cardTransfered(\n        uint256 id,\n        address from,\n        address to,\n        uint256 timestamp\n    );\n\n    struct Card {\n        string title;\n        uint256 id;\n        address owner;\n        uint256 price;\n        string description;\n        string urlPicture;\n        string club;\n        uint256 timestamp;\n        address createdBy;\n        uint256 totalAmount;\n    }\n\n    constructor() ERC721(\"Cards Futebol\", \"FUT\") {\n        admin = msg.sender;\n        creators[msg.sender] = true;\n    }\n\n    function isCreator(address _addr) external view returns (bool) {\n        return creators[_addr];\n    }\n\n    function isClubCreator(string memory _club) external view returns (bool) {\n        require(\n            clubToCreator[_club] == msg.sender,\n            \"YOU ARE NOT CREATOR OF THIS CLUB\"\n        );\n\n        return true;\n    }\n\n    // adding card creators, just admin allowed to add\n    function addCreator(address _addr, string memory _club) external {\n        require(admin == msg.sender, \"YOU ARE NOT ADMIN\");\n        creators[_addr] = true;\n        clubToCreator[_club] = _addr;\n    }\n\n    function buyCardFromMarket(uint256 tokenId) external payable {\n        require(\n            msg.value == marketCards[address(this)][tokenId].price,\n            \"NOT THE RIGHT AMOUNT OF ETH, MAY BE MORE OR LESS\"\n        );\n\n        uint256 _fee_contract = calculateFeeAdmin(msg.value); //msg.value - FEE\n        payable(marketCards[address(this)][tokenId].createdBy).transfer(\n            msg.value - _fee_contract\n        );\n\n        _transfer(address(this), msg.sender, tokenId);\n        myCards[msg.sender][tokenId] = marketCards[address(this)][tokenId];\n        delete marketCards[address(this)][tokenId];\n\n        emit cardTransfered(\n            tokenId,\n            address(this),\n            msg.sender,\n            block.timestamp\n        );\n    }\n\n    //PUT MINT FN HERE\n\n    //100 basis points = 1.00 pct\n    function calculateFeeAdmin(uint256 amount) private view returns (uint256) {\n        require((amount / 10000) * 10000 == amount, \"too small\");\n        return (amount * CONTRACT_FEE) / 10000;\n    }\n\n    function calculateFeeCreator(uint256 amount)\n        private\n        view\n        returns (uint256)\n    {\n        require((amount / 10000) * 10000 == amount, \"too small\");\n        return (amount * CREATORS_FEE) / 10000;\n    }\n\n    function _baseURI() internal view virtual override returns (string memory) {\n        return \"\";\n    }\n}\n",
  "sourcePath": "/Volumes/APPLE HDD/reactprojects/cards-nft/contracts/Cards.sol",
  "compiler": {
    "name": "solc",
    "version": "0.8.0+commit.c7dfd78e.Emscripten.clang"
  },
  "schemaVersion": "3.4.3",
  "updatedAt": "2021-10-31T02:41:49.942Z",
  "networkType": "ethereum",
  "devdoc": {
    "kind": "dev",
    "methods": {
      "approve(address,uint256)": {
        "details": "See {IERC721-approve}."
      },
      "balanceOf(address)": {
        "details": "See {IERC721-balanceOf}."
      },
      "getApproved(uint256)": {
        "details": "See {IERC721-getApproved}."
      },
      "isApprovedForAll(address,address)": {
        "details": "See {IERC721-isApprovedForAll}."
      },
      "name()": {
        "details": "See {IERC721Metadata-name}."
      },
      "ownerOf(uint256)": {
        "details": "See {IERC721-ownerOf}."
      },
      "safeTransferFrom(address,address,uint256)": {
        "details": "See {IERC721-safeTransferFrom}."
      },
      "safeTransferFrom(address,address,uint256,bytes)": {
        "details": "See {IERC721-safeTransferFrom}."
      },
      "setApprovalForAll(address,bool)": {
        "details": "See {IERC721-setApprovalForAll}."
      },
      "supportsInterface(bytes4)": {
        "details": "See {IERC165-supportsInterface}."
      },
      "symbol()": {
        "details": "See {IERC721Metadata-symbol}."
      },
      "tokenByIndex(uint256)": {
        "details": "See {IERC721Enumerable-tokenByIndex}."
      },
      "tokenOfOwnerByIndex(address,uint256)": {
        "details": "See {IERC721Enumerable-tokenOfOwnerByIndex}."
      },
      "tokenURI(uint256)": {
        "details": "See {IERC721Metadata-tokenURI}."
      },
      "totalSupply()": {
        "details": "See {IERC721Enumerable-totalSupply}."
      },
      "transferFrom(address,address,uint256)": {
        "details": "See {IERC721-transferFrom}."
      }
    },
    "version": 1
  },
  "userdoc": {
    "kind": "user",
    "methods": {},
    "version": 1
  }
}