{
  "contractName": "Cards",
  "abi": [
    {
      "inputs": [],
      "stateMutability": "nonpayable",
      "type": "constructor"
    },
    {
      "anonymous": false,
      "inputs": [
        {
          "indexed": true,
          "internalType": "address",
          "name": "owner",
          "type": "address"
        },
        {
          "indexed": true,
          "internalType": "address",
          "name": "approved",
          "type": "address"
        },
        {
          "indexed": true,
          "internalType": "uint256",
          "name": "tokenId",
          "type": "uint256"
        }
      ],
      "name": "Approval",
      "type": "event"
    },
    {
      "anonymous": false,
      "inputs": [
        {
          "indexed": true,
          "internalType": "address",
          "name": "owner",
          "type": "address"
        },
        {
          "indexed": true,
          "internalType": "address",
          "name": "operator",
          "type": "address"
        },
        {
          "indexed": false,
          "internalType": "bool",
          "name": "approved",
          "type": "bool"
        }
      ],
      "name": "ApprovalForAll",
      "type": "event"
    },
    {
      "anonymous": false,
      "inputs": [
        {
          "indexed": true,
          "internalType": "address",
          "name": "from",
          "type": "address"
        },
        {
          "indexed": true,
          "internalType": "address",
          "name": "to",
          "type": "address"
        },
        {
          "indexed": true,
          "internalType": "uint256",
          "name": "tokenId",
          "type": "uint256"
        }
      ],
      "name": "Transfer",
      "type": "event"
    },
    {
      "anonymous": false,
      "inputs": [
        {
          "indexed": false,
          "internalType": "address",
          "name": "exOwner",
          "type": "address"
        },
        {
          "indexed": false,
          "internalType": "address",
          "name": "newOwner",
          "type": "address"
        },
        {
          "indexed": false,
          "internalType": "uint256",
          "name": "price",
          "type": "uint256"
        },
        {
          "indexed": false,
          "internalType": "uint256",
          "name": "timestamp",
          "type": "uint256"
        },
        {
          "indexed": false,
          "internalType": "string",
          "name": "action",
          "type": "string"
        }
      ],
      "name": "cardTransaction",
      "type": "event"
    },
    {
      "inputs": [],
      "name": "admin",
      "outputs": [
        {
          "internalType": "address",
          "name": "",
          "type": "address"
        }
      ],
      "stateMutability": "view",
      "type": "function",
      "constant": true
    },
    {
      "inputs": [
        {
          "internalType": "address",
          "name": "",
          "type": "address"
        }
      ],
      "name": "admins",
      "outputs": [
        {
          "internalType": "bool",
          "name": "",
          "type": "bool"
        }
      ],
      "stateMutability": "view",
      "type": "function",
      "constant": true
    },
    {
      "inputs": [
        {
          "internalType": "address",
          "name": "to",
          "type": "address"
        },
        {
          "internalType": "uint256",
          "name": "tokenId",
          "type": "uint256"
        }
      ],
      "name": "approve",
      "outputs": [],
      "stateMutability": "nonpayable",
      "type": "function"
    },
    {
      "inputs": [
        {
          "internalType": "address",
          "name": "owner",
          "type": "address"
        }
      ],
      "name": "balanceOf",
      "outputs": [
        {
          "internalType": "uint256",
          "name": "",
          "type": "uint256"
        }
      ],
      "stateMutability": "view",
      "type": "function",
      "constant": true
    },
    {
      "inputs": [
        {
          "internalType": "uint256",
          "name": "tokenId",
          "type": "uint256"
        }
      ],
      "name": "getApproved",
      "outputs": [
        {
          "internalType": "address",
          "name": "",
          "type": "address"
        }
      ],
      "stateMutability": "view",
      "type": "function",
      "constant": true
    },
    {
      "inputs": [
        {
          "internalType": "address",
          "name": "owner",
          "type": "address"
        },
        {
          "internalType": "address",
          "name": "operator",
          "type": "address"
        }
      ],
      "name": "isApprovedForAll",
      "outputs": [
        {
          "internalType": "bool",
          "name": "",
          "type": "bool"
        }
      ],
      "stateMutability": "view",
      "type": "function",
      "constant": true
    },
    {
      "inputs": [
        {
          "internalType": "address",
          "name": "",
          "type": "address"
        },
        {
          "internalType": "uint256",
          "name": "",
          "type": "uint256"
        }
      ],
      "name": "marketCards",
      "outputs": [
        {
          "internalType": "uint256",
          "name": "id",
          "type": "uint256"
        },
        {
          "internalType": "string",
          "name": "title",
          "type": "string"
        },
        {
          "internalType": "address",
          "name": "owner",
          "type": "address"
        },
        {
          "internalType": "uint256",
          "name": "price",
          "type": "uint256"
        },
        {
          "internalType": "string",
          "name": "description",
          "type": "string"
        },
        {
          "internalType": "string",
          "name": "urlPicture",
          "type": "string"
        },
        {
          "internalType": "uint256",
          "name": "timestamp",
          "type": "uint256"
        }
      ],
      "stateMutability": "view",
      "type": "function",
      "constant": true
    },
    {
      "inputs": [
        {
          "internalType": "address",
          "name": "",
          "type": "address"
        },
        {
          "internalType": "uint256",
          "name": "",
          "type": "uint256"
        }
      ],
      "name": "myCards",
      "outputs": [
        {
          "internalType": "uint256",
          "name": "id",
          "type": "uint256"
        },
        {
          "internalType": "string",
          "name": "title",
          "type": "string"
        },
        {
          "internalType": "address",
          "name": "owner",
          "type": "address"
        },
        {
          "internalType": "uint256",
          "name": "price",
          "type": "uint256"
        },
        {
          "internalType": "string",
          "name": "description",
          "type": "string"
        },
        {
          "internalType": "string",
          "name": "urlPicture",
          "type": "string"
        },
        {
          "internalType": "uint256",
          "name": "timestamp",
          "type": "uint256"
        }
      ],
      "stateMutability": "view",
      "type": "function",
      "constant": true
    },
    {
      "inputs": [],
      "name": "name",
      "outputs": [
        {
          "internalType": "string",
          "name": "",
          "type": "string"
        }
      ],
      "stateMutability": "view",
      "type": "function",
      "constant": true
    },
    {
      "inputs": [],
      "name": "nextItemId",
      "outputs": [
        {
          "internalType": "uint256",
          "name": "",
          "type": "uint256"
        }
      ],
      "stateMutability": "view",
      "type": "function",
      "constant": true
    },
    {
      "inputs": [
        {
          "internalType": "uint256",
          "name": "tokenId",
          "type": "uint256"
        }
      ],
      "name": "ownerOf",
      "outputs": [
        {
          "internalType": "address",
          "name": "",
          "type": "address"
        }
      ],
      "stateMutability": "view",
      "type": "function",
      "constant": true
    },
    {
      "inputs": [
        {
          "internalType": "address",
          "name": "from",
          "type": "address"
        },
        {
          "internalType": "address",
          "name": "to",
          "type": "address"
        },
        {
          "internalType": "uint256",
          "name": "tokenId",
          "type": "uint256"
        }
      ],
      "name": "safeTransferFrom",
      "outputs": [],
      "stateMutability": "nonpayable",
      "type": "function"
    },
    {
      "inputs": [
        {
          "internalType": "address",
          "name": "from",
          "type": "address"
        },
        {
          "internalType": "address",
          "name": "to",
          "type": "address"
        },
        {
          "internalType": "uint256",
          "name": "tokenId",
          "type": "uint256"
        },
        {
          "internalType": "bytes",
          "name": "_data",
          "type": "bytes"
        }
      ],
      "name": "safeTransferFrom",
      "outputs": [],
      "stateMutability": "nonpayable",
      "type": "function"
    },
    {
      "inputs": [
        {
          "internalType": "address",
          "name": "operator",
          "type": "address"
        },
        {
          "internalType": "bool",
          "name": "approved",
          "type": "bool"
        }
      ],
      "name": "setApprovalForAll",
      "outputs": [],
      "stateMutability": "nonpayable",
      "type": "function"
    },
    {
      "inputs": [
        {
          "internalType": "bytes4",
          "name": "interfaceId",
          "type": "bytes4"
        }
      ],
      "name": "supportsInterface",
      "outputs": [
        {
          "internalType": "bool",
          "name": "",
          "type": "bool"
        }
      ],
      "stateMutability": "view",
      "type": "function",
      "constant": true
    },
    {
      "inputs": [],
      "name": "symbol",
      "outputs": [
        {
          "internalType": "string",
          "name": "",
          "type": "string"
        }
      ],
      "stateMutability": "view",
      "type": "function",
      "constant": true
    },
    {
      "inputs": [
        {
          "internalType": "uint256",
          "name": "index",
          "type": "uint256"
        }
      ],
      "name": "tokenByIndex",
      "outputs": [
        {
          "internalType": "uint256",
          "name": "",
          "type": "uint256"
        }
      ],
      "stateMutability": "view",
      "type": "function",
      "constant": true
    },
    {
      "inputs": [
        {
          "internalType": "address",
          "name": "owner",
          "type": "address"
        },
        {
          "internalType": "uint256",
          "name": "index",
          "type": "uint256"
        }
      ],
      "name": "tokenOfOwnerByIndex",
      "outputs": [
        {
          "internalType": "uint256",
          "name": "",
          "type": "uint256"
        }
      ],
      "stateMutability": "view",
      "type": "function",
      "constant": true
    },
    {
      "inputs": [
        {
          "internalType": "uint256",
          "name": "tokenId",
          "type": "uint256"
        }
      ],
      "name": "tokenURI",
      "outputs": [
        {
          "internalType": "string",
          "name": "",
          "type": "string"
        }
      ],
      "stateMutability": "view",
      "type": "function",
      "constant": true
    },
    {
      "inputs": [],
      "name": "totalSupply",
      "outputs": [
        {
          "internalType": "uint256",
          "name": "",
          "type": "uint256"
        }
      ],
      "stateMutability": "view",
      "type": "function",
      "constant": true
    },
    {
      "inputs": [
        {
          "internalType": "address",
          "name": "from",
          "type": "address"
        },
        {
          "internalType": "address",
          "name": "to",
          "type": "address"
        },
        {
          "internalType": "uint256",
          "name": "tokenId",
          "type": "uint256"
        }
      ],
      "name": "transferFrom",
      "outputs": [],
      "stateMutability": "nonpayable",
      "type": "function"
    },
    {
      "inputs": [
        {
          "internalType": "uint256",
          "name": "_price",
          "type": "uint256"
        },
        {
          "internalType": "string",
          "name": "_title",
          "type": "string"
        },
        {
          "internalType": "string",
          "name": "_description",
          "type": "string"
        },
        {
          "internalType": "string",
          "name": "_urlPicture",
          "type": "string"
        }
      ],
      "name": "mintCards",
      "outputs": [],
      "stateMutability": "nonpayable",
      "type": "function"
    },
    {
      "inputs": [
        {
          "internalType": "uint256",
          "name": "_idCard",
          "type": "uint256"
        }
      ],
      "name": "buyCardFromMarket",
      "outputs": [
        {
          "internalType": "bool",
          "name": "",
          "type": "bool"
        }
      ],
      "stateMutability": "payable",
      "type": "function",
      "payable": true
    },
    {
      "inputs": [
        {
          "internalType": "address",
          "name": "_newAdmin",
          "type": "address"
        }
      ],
      "name": "addAdmin",
      "outputs": [
        {
          "internalType": "bool",
          "name": "",
          "type": "bool"
        }
      ],
      "stateMutability": "nonpayable",
      "type": "function"
    }
  ],
  "bytecode": "0x60806040523480156200001157600080fd5b506040518060400160405280600d81526020017f43617264732046757465626f6c000000000000000000000000000000000000008152506040518060400160405280600381526020017f4655540000000000000000000000000000000000000000000000000000000000815250816000908051906020019062000096929190620000f9565b508060019080519060200190620000af929190620000f9565b50505033600a60006101000a81548173ffffffffffffffffffffffffffffffffffffffff021916908373ffffffffffffffffffffffffffffffffffffffff1602179055506200020e565b8280546200010790620001a9565b90600052602060002090601f0160209004810192826200012b576000855562000177565b82601f106200014657805160ff191683800117855562000177565b8280016001018555821562000177579182015b828111156200017657825182559160200191906001019062000159565b5b5090506200018691906200018a565b5090565b5b80821115620001a55760008160009055506001016200018b565b5090565b60006002820490506001821680620001c257607f821691505b60208210811415620001d957620001d8620001df565b5b50919050565b7f4e487b7100000000000000000000000000000000000000000000000000000000600052602260045260246000fd5b614285806200021e6000396000f3fe60806040526004361061014b5760003560e01c80636a868974116100b6578063b88d4fde1161006f578063b88d4fde146104fb578063c87b56dd14610524578063e985e9c514610561578063e9cb5dd61461059e578063f851a440146105e1578063feec12cd1461060c5761014b565b80636a868974146103d25780636ac408e5146103fd578063704802751461042d57806370a082311461046a57806395d89b41146104a7578063a22cb465146104d25761014b565b80632518d7e0116101085780632518d7e0146102725780632f745c59146102b557806342842e0e146102f2578063429b62e51461031b5780634f6ccce7146103585780636352211e146103955761014b565b806301ffc9a71461015057806306fdde031461018d578063081812fc146101b8578063095ea7b3146101f557806318160ddd1461021e57806323b872dd14610249575b600080fd5b34801561015c57600080fd5b5061017760048036038101906101729190613192565b610635565b6040516101849190613b19565b60405180910390f35b34801561019957600080fd5b506101a26106af565b6040516101af9190613b34565b60405180910390f35b3480156101c457600080fd5b506101df60048036038101906101da91906131e4565b610741565b6040516101ec9190613a5a565b60405180910390f35b34801561020157600080fd5b5061021c60048036038101906102179190613156565b6107c6565b005b34801561022a57600080fd5b506102336108de565b6040516102409190613d96565b60405180910390f35b34801561025557600080fd5b50610270600480360381019061026b9190613050565b6108eb565b005b34801561027e57600080fd5b5061029960048036038101906102949190613156565b61094b565b6040516102ac9796959493929190613db1565b60405180910390f35b3480156102c157600080fd5b506102dc60048036038101906102d79190613156565b610b52565b6040516102e99190613d96565b60405180910390f35b3480156102fe57600080fd5b5061031960048036038101906103149190613050565b610bf7565b005b34801561032757600080fd5b50610342600480360381019061033d9190612feb565b610c17565b60405161034f9190613b19565b60405180910390f35b34801561036457600080fd5b5061037f600480360381019061037a91906131e4565b610c37565b60405161038c9190613d96565b60405180910390f35b3480156103a157600080fd5b506103bc60048036038101906103b791906131e4565b610cce565b6040516103c99190613a5a565b60405180910390f35b3480156103de57600080fd5b506103e7610d80565b6040516103f49190613d96565b60405180910390f35b610417600480360381019061041291906131e4565b610d86565b6040516104249190613b19565b60405180910390f35b34801561043957600080fd5b50610454600480360381019061044f9190612feb565b6114df565b6040516104619190613b19565b60405180910390f35b34801561047657600080fd5b50610491600480360381019061048c9190612feb565b6115d2565b60405161049e9190613d96565b60405180910390f35b3480156104b357600080fd5b506104bc61168a565b6040516104c99190613b34565b60405180910390f35b3480156104de57600080fd5b506104f960048036038101906104f4919061311a565b61171c565b005b34801561050757600080fd5b50610522600480360381019061051d919061309f565b61189d565b005b34801561053057600080fd5b5061054b600480360381019061054691906131e4565b6118ff565b6040516105589190613b34565b60405180910390f35b34801561056d57600080fd5b5061058860048036038101906105839190613014565b6119a6565b6040516105959190613b19565b60405180910390f35b3480156105aa57600080fd5b506105c560048036038101906105c09190613156565b611a3a565b6040516105d89796959493929190613db1565b60405180910390f35b3480156105ed57600080fd5b506105f6611c41565b6040516106039190613a5a565b60405180910390f35b34801561061857600080fd5b50610633600480360381019061062e919061320d565b611c67565b005b60007f780e9d63000000000000000000000000000000000000000000000000000000007bffffffffffffffffffffffffffffffffffffffffffffffffffffffff1916827bffffffffffffffffffffffffffffffffffffffffffffffffffffffff191614806106a857506106a782611df3565b5b9050919050565b6060600080546106be9061407a565b80601f01602080910402602001604051908101604052809291908181526020018280546106ea9061407a565b80156107375780601f1061070c57610100808354040283529160200191610737565b820191906000526020600020905b81548152906001019060200180831161071a57829003601f168201915b5050505050905090565b600061074c82611ed5565b61078b576040517f08c379a000000000000000000000000000000000000000000000000000000000815260040161078290613cb6565b60405180910390fd5b6004600083815260200190815260200160002060009054906101000a900473ffffffffffffffffffffffffffffffffffffffff169050919050565b60006107d182610cce565b90508073ffffffffffffffffffffffffffffffffffffffff168373ffffffffffffffffffffffffffffffffffffffff161415610842576040517f08c379a000000000000000000000000000000000000000000000000000000000815260040161083990613d36565b60405180910390fd5b8073ffffffffffffffffffffffffffffffffffffffff16610861611f41565b73ffffffffffffffffffffffffffffffffffffffff161480610890575061088f8161088a611f41565b6119a6565b5b6108cf576040517f08c379a00000000000000000000000000000000000000000000000000000000081526004016108c690613c36565b60405180910390fd5b6108d98383611f49565b505050565b6000600880549050905090565b6108fc6108f6611f41565b82612002565b61093b576040517f08c379a000000000000000000000000000000000000000000000000000000000815260040161093290613d56565b60405180910390fd5b6109468383836120e0565b505050565b600c602052816000526040600020602052806000526040600020600091509150508060000154908060010180546109819061407a565b80601f01602080910402602001604051908101604052809291908181526020018280546109ad9061407a565b80156109fa5780601f106109cf576101008083540402835291602001916109fa565b820191906000526020600020905b8154815290600101906020018083116109dd57829003601f168201915b5050505050908060020160009054906101000a900473ffffffffffffffffffffffffffffffffffffffff1690806003015490806004018054610a3b9061407a565b80601f0160208091040260200160405190810160405280929190818152602001828054610a679061407a565b8015610ab45780601f10610a8957610100808354040283529160200191610ab4565b820191906000526020600020905b815481529060010190602001808311610a9757829003601f168201915b505050505090806005018054610ac99061407a565b80601f0160208091040260200160405190810160405280929190818152602001828054610af59061407a565b8015610b425780601f10610b1757610100808354040283529160200191610b42565b820191906000526020600020905b815481529060010190602001808311610b2557829003601f168201915b5050505050908060060154905087565b6000610b5d836115d2565b8210610b9e576040517f08c379a0000000000000000000000000000000000000000000000000000000008152600401610b9590613b56565b60405180910390fd5b600660008473ffffffffffffffffffffffffffffffffffffffff1673ffffffffffffffffffffffffffffffffffffffff168152602001908152602001600020600083815260200190815260200160002054905092915050565b610c128383836040518060200160405280600081525061189d565b505050565b600e6020528060005260406000206000915054906101000a900460ff1681565b6000610c416108de565b8210610c82576040517f08c379a0000000000000000000000000000000000000000000000000000000008152600401610c7990613d76565b60405180910390fd5b60088281548110610cbc577f4e487b7100000000000000000000000000000000000000000000000000000000600052603260045260246000fd5b90600052602060002001549050919050565b6000806002600084815260200190815260200160002060009054906101000a900473ffffffffffffffffffffffffffffffffffffffff169050600073ffffffffffffffffffffffffffffffffffffffff168173ffffffffffffffffffffffffffffffffffffffff161415610d77576040517f08c379a0000000000000000000000000000000000000000000000000000000008152600401610d6e90613c76565b60405180910390fd5b80915050919050565b600b5481565b600034600c60003073ffffffffffffffffffffffffffffffffffffffff1673ffffffffffffffffffffffffffffffffffffffff1681526020019081526020016000206000848152602001908152602001600020600301541115610e1e576040517f08c379a0000000000000000000000000000000000000000000000000000000008152600401610e1590613bb6565b60405180910390fd5b60006040518060e00160405280600c60003073ffffffffffffffffffffffffffffffffffffffff1673ffffffffffffffffffffffffffffffffffffffff1681526020019081526020016000206000868152602001908152602001600020600001548152602001600c60003073ffffffffffffffffffffffffffffffffffffffff1673ffffffffffffffffffffffffffffffffffffffff16815260200190815260200160002060008681526020019081526020016000206001018054610ee29061407a565b80601f0160208091040260200160405190810160405280929190818152602001828054610f0e9061407a565b8015610f5b5780601f10610f3057610100808354040283529160200191610f5b565b820191906000526020600020905b815481529060010190602001808311610f3e57829003601f168201915b50505050508152602001600c60003073ffffffffffffffffffffffffffffffffffffffff1673ffffffffffffffffffffffffffffffffffffffff168152602001908152602001600020600086815260200190815260200160002060020160009054906101000a900473ffffffffffffffffffffffffffffffffffffffff1673ffffffffffffffffffffffffffffffffffffffff168152602001600c60003073ffffffffffffffffffffffffffffffffffffffff1673ffffffffffffffffffffffffffffffffffffffff1681526020019081526020016000206000868152602001908152602001600020600301548152602001600c60003073ffffffffffffffffffffffffffffffffffffffff1673ffffffffffffffffffffffffffffffffffffffff168152602001908152602001600020600086815260200190815260200160002060040180546110ab9061407a565b80601f01602080910402602001604051908101604052809291908181526020018280546110d79061407a565b80156111245780601f106110f957610100808354040283529160200191611124565b820191906000526020600020905b81548152906001019060200180831161110757829003601f168201915b50505050508152602001600c60003073ffffffffffffffffffffffffffffffffffffffff1673ffffffffffffffffffffffffffffffffffffffff1681526020019081526020016000206000868152602001908152602001600020600501805461118c9061407a565b80601f01602080910402602001604051908101604052809291908181526020018280546111b89061407a565b80156112055780601f106111da57610100808354040283529160200191611205565b820191906000526020600020905b8154815290600101906020018083116111e857829003601f168201915b50505050508152602001600c60003073ffffffffffffffffffffffffffffffffffffffff1673ffffffffffffffffffffffffffffffffffffffff168152602001908152602001600020600086815260200190815260200160002060060154815250905080600d60003373ffffffffffffffffffffffffffffffffffffffff1673ffffffffffffffffffffffffffffffffffffffff16815260200190815260200160002060008581526020019081526020016000206000820151816000015560208201518160010190805190602001906112df929190612dcf565b5060408201518160020160006101000a81548173ffffffffffffffffffffffffffffffffffffffff021916908373ffffffffffffffffffffffffffffffffffffffff16021790555060608201518160030155608082015181600401908051906020019061134d929190612dcf565b5060a082015181600501908051906020019061136a929190612dcf565b5060c08201518160060155905050600c60003073ffffffffffffffffffffffffffffffffffffffff1673ffffffffffffffffffffffffffffffffffffffff16815260200190815260200160002060008481526020019081526020016000206000808201600090556001820160006113e19190612e55565b6002820160006101000a81549073ffffffffffffffffffffffffffffffffffffffff021916905560038201600090556004820160006114209190612e55565b6005820160006114309190612e55565b600682016000905550506114453033856120e0565b7f8e9936cb131bc9bee7380e34a3d6ea8e8b9a9654f15b83ba0b2d470850a686023033600c60003073ffffffffffffffffffffffffffffffffffffffff1673ffffffffffffffffffffffffffffffffffffffff168152602001908152602001600020600087815260200190815260200160002060030154426040516114cd9493929190613ac1565b60405180910390a16001915050919050565b6000600a60009054906101000a900473ffffffffffffffffffffffffffffffffffffffff1673ffffffffffffffffffffffffffffffffffffffff163373ffffffffffffffffffffffffffffffffffffffff1614611571576040517f08c379a000000000000000000000000000000000000000000000000000000000815260040161156890613d16565b60405180910390fd5b6001600e60008473ffffffffffffffffffffffffffffffffffffffff1673ffffffffffffffffffffffffffffffffffffffff16815260200190815260200160002060006101000a81548160ff02191690831515021790555060019050919050565b60008073ffffffffffffffffffffffffffffffffffffffff168273ffffffffffffffffffffffffffffffffffffffff161415611643576040517f08c379a000000000000000000000000000000000000000000000000000000000815260040161163a90613c56565b60405180910390fd5b600360008373ffffffffffffffffffffffffffffffffffffffff1673ffffffffffffffffffffffffffffffffffffffff168152602001908152602001600020549050919050565b6060600180546116999061407a565b80601f01602080910402602001604051908101604052809291908181526020018280546116c59061407a565b80156117125780601f106116e757610100808354040283529160200191611712565b820191906000526020600020905b8154815290600101906020018083116116f557829003601f168201915b5050505050905090565b611724611f41565b73ffffffffffffffffffffffffffffffffffffffff168273ffffffffffffffffffffffffffffffffffffffff161415611792576040517f08c379a000000000000000000000000000000000000000000000000000000000815260040161178990613bf6565b60405180910390fd5b806005600061179f611f41565b73ffffffffffffffffffffffffffffffffffffffff1673ffffffffffffffffffffffffffffffffffffffff16815260200190815260200160002060008473ffffffffffffffffffffffffffffffffffffffff1673ffffffffffffffffffffffffffffffffffffffff16815260200190815260200160002060006101000a81548160ff0219169083151502179055508173ffffffffffffffffffffffffffffffffffffffff1661184c611f41565b73ffffffffffffffffffffffffffffffffffffffff167f17307eab39ab6107e8899845ad3d59bd9653f200f220920489ca2b5937696c31836040516118919190613b19565b60405180910390a35050565b6118ae6118a8611f41565b83612002565b6118ed576040517f08c379a00000000000000000000000000000000000000000000000000000000081526004016118e490613d56565b60405180910390fd5b6118f98484848461233c565b50505050565b606061190a82611ed5565b611949576040517f08c379a000000000000000000000000000000000000000000000000000000000815260040161194090613cf6565b60405180910390fd5b6000611953612398565b90506000815111611973576040518060200160405280600081525061199e565b8061197d846123af565b60405160200161198e929190613a36565b6040516020818303038152906040525b915050919050565b6000600560008473ffffffffffffffffffffffffffffffffffffffff1673ffffffffffffffffffffffffffffffffffffffff16815260200190815260200160002060008373ffffffffffffffffffffffffffffffffffffffff1673ffffffffffffffffffffffffffffffffffffffff16815260200190815260200160002060009054906101000a900460ff16905092915050565b600d60205281600052604060002060205280600052604060002060009150915050806000015490806001018054611a709061407a565b80601f0160208091040260200160405190810160405280929190818152602001828054611a9c9061407a565b8015611ae95780601f10611abe57610100808354040283529160200191611ae9565b820191906000526020600020905b815481529060010190602001808311611acc57829003601f168201915b5050505050908060020160009054906101000a900473ffffffffffffffffffffffffffffffffffffffff1690806003015490806004018054611b2a9061407a565b80601f0160208091040260200160405190810160405280929190818152602001828054611b569061407a565b8015611ba35780601f10611b7857610100808354040283529160200191611ba3565b820191906000526020600020905b815481529060010190602001808311611b8657829003601f168201915b505050505090806005018054611bb89061407a565b80601f0160208091040260200160405190810160405280929190818152602001828054611be49061407a565b8015611c315780601f10611c0657610100808354040283529160200191611c31565b820191906000526020600020905b815481529060010190602001808311611c1457829003601f168201915b5050505050908060060154905087565b600a60009054906101000a900473ffffffffffffffffffffffffffffffffffffffff1681565b60006040518060e00160405280600b5481526020018581526020013073ffffffffffffffffffffffffffffffffffffffff168152602001868152602001848152602001838152602001428152509050611cc230600b5461255c565b80600c60003073ffffffffffffffffffffffffffffffffffffffff1673ffffffffffffffffffffffffffffffffffffffff1681526020019081526020016000206000600b548152602001908152602001600020600082015181600001556020820151816001019080519060200190611d3b929190612dcf565b5060408201518160020160006101000a81548173ffffffffffffffffffffffffffffffffffffffff021916908373ffffffffffffffffffffffffffffffffffffffff160217905550606082015181600301556080820151816004019080519060200190611da9929190612dcf565b5060a0820151816005019080519060200190611dc6929190612dcf565b5060c08201518160060155905050600b6000815480929190611de7906140ac565b91905055505050505050565b60007f80ac58cd000000000000000000000000000000000000000000000000000000007bffffffffffffffffffffffffffffffffffffffffffffffffffffffff1916827bffffffffffffffffffffffffffffffffffffffffffffffffffffffff19161480611ebe57507f5b5e139f000000000000000000000000000000000000000000000000000000007bffffffffffffffffffffffffffffffffffffffffffffffffffffffff1916827bffffffffffffffffffffffffffffffffffffffffffffffffffffffff1916145b80611ece5750611ecd8261272a565b5b9050919050565b60008073ffffffffffffffffffffffffffffffffffffffff166002600084815260200190815260200160002060009054906101000a900473ffffffffffffffffffffffffffffffffffffffff1673ffffffffffffffffffffffffffffffffffffffff1614159050919050565b600033905090565b816004600083815260200190815260200160002060006101000a81548173ffffffffffffffffffffffffffffffffffffffff021916908373ffffffffffffffffffffffffffffffffffffffff160217905550808273ffffffffffffffffffffffffffffffffffffffff16611fbc83610cce565b73ffffffffffffffffffffffffffffffffffffffff167f8c5be1e5ebec7d5bd14f71427d1e84f3dd0314c0f7b2291e5b200ac8c7c3b92560405160405180910390a45050565b600061200d82611ed5565b61204c576040517f08c379a000000000000000000000000000000000000000000000000000000000815260040161204390613c16565b60405180910390fd5b600061205783610cce565b90508073ffffffffffffffffffffffffffffffffffffffff168473ffffffffffffffffffffffffffffffffffffffff1614806120c657508373ffffffffffffffffffffffffffffffffffffffff166120ae84610741565b73ffffffffffffffffffffffffffffffffffffffff16145b806120d757506120d681856119a6565b5b91505092915050565b8273ffffffffffffffffffffffffffffffffffffffff1661210082610cce565b73ffffffffffffffffffffffffffffffffffffffff1614612156576040517f08c379a000000000000000000000000000000000000000000000000000000000815260040161214d90613cd6565b60405180910390fd5b600073ffffffffffffffffffffffffffffffffffffffff168273ffffffffffffffffffffffffffffffffffffffff1614156121c6576040517f08c379a00000000000000000000000000000000000000000000000000000000081526004016121bd90613bd6565b60405180910390fd5b6121d1838383612794565b6121dc600082611f49565b6001600360008573ffffffffffffffffffffffffffffffffffffffff1673ffffffffffffffffffffffffffffffffffffffff168152602001908152602001600020600082825461222c9190613f90565b925050819055506001600360008473ffffffffffffffffffffffffffffffffffffffff1673ffffffffffffffffffffffffffffffffffffffff16815260200190815260200160002060008282546122839190613f09565b92505081905550816002600083815260200190815260200160002060006101000a81548173ffffffffffffffffffffffffffffffffffffffff021916908373ffffffffffffffffffffffffffffffffffffffff160217905550808273ffffffffffffffffffffffffffffffffffffffff168473ffffffffffffffffffffffffffffffffffffffff167fddf252ad1be2c89b69c2b068fc378daa952ba7f163c4a11628f55a4df523b3ef60405160405180910390a4505050565b6123478484846120e0565b612353848484846128a8565b612392576040517f08c379a000000000000000000000000000000000000000000000000000000000815260040161238990613b76565b60405180910390fd5b50505050565b606060405180602001604052806000815250905090565b606060008214156123f7576040518060400160405280600181526020017f30000000000000000000000000000000000000000000000000000000000000008152509050612557565b600082905060005b60008214612429578080612412906140ac565b915050600a826124229190613f5f565b91506123ff565b60008167ffffffffffffffff81111561246b577f4e487b7100000000000000000000000000000000000000000000000000000000600052604160045260246000fd5b6040519080825280601f01601f19166020018201604052801561249d5781602001600182028036833780820191505090505b5090505b60008514612550576001826124b69190613f90565b9150600a856124c591906140f5565b60306124d19190613f09565b60f81b81838151811061250d577f4e487b7100000000000000000000000000000000000000000000000000000000600052603260045260246000fd5b60200101907effffffffffffffffffffffffffffffffffffffffffffffffffffffffffffff1916908160001a905350600a856125499190613f5f565b94506124a1565b8093505050505b919050565b600073ffffffffffffffffffffffffffffffffffffffff168273ffffffffffffffffffffffffffffffffffffffff1614156125cc576040517f08c379a00000000000000000000000000000000000000000000000000000000081526004016125c390613c96565b60405180910390fd5b6125d581611ed5565b15612615576040517f08c379a000000000000000000000000000000000000000000000000000000000815260040161260c90613b96565b60405180910390fd5b61262160008383612794565b6001600360008473ffffffffffffffffffffffffffffffffffffffff1673ffffffffffffffffffffffffffffffffffffffff16815260200190815260200160002060008282546126719190613f09565b92505081905550816002600083815260200190815260200160002060006101000a81548173ffffffffffffffffffffffffffffffffffffffff021916908373ffffffffffffffffffffffffffffffffffffffff160217905550808273ffffffffffffffffffffffffffffffffffffffff16600073ffffffffffffffffffffffffffffffffffffffff167fddf252ad1be2c89b69c2b068fc378daa952ba7f163c4a11628f55a4df523b3ef60405160405180910390a45050565b60007f01ffc9a7000000000000000000000000000000000000000000000000000000007bffffffffffffffffffffffffffffffffffffffffffffffffffffffff1916827bffffffffffffffffffffffffffffffffffffffffffffffffffffffff1916149050919050565b61279f838383612a3f565b600073ffffffffffffffffffffffffffffffffffffffff168373ffffffffffffffffffffffffffffffffffffffff1614156127e2576127dd81612a44565b612821565b8173ffffffffffffffffffffffffffffffffffffffff168373ffffffffffffffffffffffffffffffffffffffff16146128205761281f8382612a8d565b5b5b600073ffffffffffffffffffffffffffffffffffffffff168273ffffffffffffffffffffffffffffffffffffffff1614156128645761285f81612bfa565b6128a3565b8273ffffffffffffffffffffffffffffffffffffffff168273ffffffffffffffffffffffffffffffffffffffff16146128a2576128a18282612d3d565b5b5b505050565b60006128c98473ffffffffffffffffffffffffffffffffffffffff16612dbc565b15612a32578373ffffffffffffffffffffffffffffffffffffffff1663150b7a026128f2611f41565b8786866040518563ffffffff1660e01b81526004016129149493929190613a75565b602060405180830381600087803b15801561292e57600080fd5b505af192505050801561295f57506040513d601f19601f8201168201806040525081019061295c91906131bb565b60015b6129e2573d806000811461298f576040519150601f19603f3d011682016040523d82523d6000602084013e612994565b606091505b506000815114156129da576040517f08c379a00000000000000000000000000000000000000000000000000000000081526004016129d190613b76565b60405180910390fd5b805181602001fd5b63150b7a0260e01b7bffffffffffffffffffffffffffffffffffffffffffffffffffffffff1916817bffffffffffffffffffffffffffffffffffffffffffffffffffffffff191614915050612a37565b600190505b949350505050565b505050565b6008805490506009600083815260200190815260200160002081905550600881908060018154018082558091505060019003906000526020600020016000909190919091505550565b60006001612a9a846115d2565b612aa49190613f90565b9050600060076000848152602001908152602001600020549050818114612b89576000600660008673ffffffffffffffffffffffffffffffffffffffff1673ffffffffffffffffffffffffffffffffffffffff168152602001908152602001600020600084815260200190815260200160002054905080600660008773ffffffffffffffffffffffffffffffffffffffff1673ffffffffffffffffffffffffffffffffffffffff168152602001908152602001600020600084815260200190815260200160002081905550816007600083815260200190815260200160002081905550505b6007600084815260200190815260200160002060009055600660008573ffffffffffffffffffffffffffffffffffffffff1673ffffffffffffffffffffffffffffffffffffffff16815260200190815260200160002060008381526020019081526020016000206000905550505050565b60006001600880549050612c0e9190613f90565b9050600060096000848152602001908152602001600020549050600060088381548110612c64577f4e487b7100000000000000000000000000000000000000000000000000000000600052603260045260246000fd5b906000526020600020015490508060088381548110612cac577f4e487b7100000000000000000000000000000000000000000000000000000000600052603260045260246000fd5b906000526020600020018190555081600960008381526020019081526020016000208190555060096000858152602001908152602001600020600090556008805480612d21577f4e487b7100000000000000000000000000000000000000000000000000000000600052603160045260246000fd5b6001900381819060005260206000200160009055905550505050565b6000612d48836115d2565b905081600660008573ffffffffffffffffffffffffffffffffffffffff1673ffffffffffffffffffffffffffffffffffffffff168152602001908152602001600020600083815260200190815260200160002081905550806007600084815260200190815260200160002081905550505050565b600080823b905060008111915050919050565b828054612ddb9061407a565b90600052602060002090601f016020900481019282612dfd5760008555612e44565b82601f10612e1657805160ff1916838001178555612e44565b82800160010185558215612e44579182015b82811115612e43578251825591602001919060010190612e28565b5b509050612e519190612e95565b5090565b508054612e619061407a565b6000825580601f10612e735750612e92565b601f016020900490600052602060002090810190612e919190612e95565b5b50565b5b80821115612eae576000816000905550600101612e96565b5090565b6000612ec5612ec084613e66565b613e35565b905082815260208101848484011115612edd57600080fd5b612ee8848285614038565b509392505050565b6000612f03612efe84613e96565b613e35565b905082815260208101848484011115612f1b57600080fd5b612f26848285614038565b509392505050565b600081359050612f3d816141f3565b92915050565b600081359050612f528161420a565b92915050565b600081359050612f6781614221565b92915050565b600081519050612f7c81614221565b92915050565b600082601f830112612f9357600080fd5b8135612fa3848260208601612eb2565b91505092915050565b600082601f830112612fbd57600080fd5b8135612fcd848260208601612ef0565b91505092915050565b600081359050612fe581614238565b92915050565b600060208284031215612ffd57600080fd5b600061300b84828501612f2e565b91505092915050565b6000806040838503121561302757600080fd5b600061303585828601612f2e565b925050602061304685828601612f2e565b9150509250929050565b60008060006060848603121561306557600080fd5b600061307386828701612f2e565b935050602061308486828701612f2e565b925050604061309586828701612fd6565b9150509250925092565b600080600080608085870312156130b557600080fd5b60006130c387828801612f2e565b94505060206130d487828801612f2e565b93505060406130e587828801612fd6565b925050606085013567ffffffffffffffff81111561310257600080fd5b61310e87828801612f82565b91505092959194509250565b6000806040838503121561312d57600080fd5b600061313b85828601612f2e565b925050602061314c85828601612f43565b9150509250929050565b6000806040838503121561316957600080fd5b600061317785828601612f2e565b925050602061318885828601612fd6565b9150509250929050565b6000602082840312156131a457600080fd5b60006131b284828501612f58565b91505092915050565b6000602082840312156131cd57600080fd5b60006131db84828501612f6d565b91505092915050565b6000602082840312156131f657600080fd5b600061320484828501612fd6565b91505092915050565b6000806000806080858703121561322357600080fd5b600061323187828801612fd6565b945050602085013567ffffffffffffffff81111561324e57600080fd5b61325a87828801612fac565b935050604085013567ffffffffffffffff81111561327757600080fd5b61328387828801612fac565b925050606085013567ffffffffffffffff8111156132a057600080fd5b6132ac87828801612fac565b91505092959194509250565b6132c181613fc4565b82525050565b6132d081613fd6565b82525050565b60006132e182613ec6565b6132eb8185613edc565b93506132fb818560208601614047565b613304816141e2565b840191505092915050565b600061331a82613ed1565b6133248185613eed565b9350613334818560208601614047565b61333d816141e2565b840191505092915050565b600061335382613ed1565b61335d8185613efe565b935061336d818560208601614047565b80840191505092915050565b6000613386602b83613eed565b91507f455243373231456e756d657261626c653a206f776e657220696e646578206f7560008301527f74206f6620626f756e64730000000000000000000000000000000000000000006020830152604082019050919050565b60006133ec603283613eed565b91507f4552433732313a207472616e7366657220746f206e6f6e20455243373231526560008301527f63656976657220696d706c656d656e74657200000000000000000000000000006020830152604082019050919050565b6000613452601c83613eed565b91507f4552433732313a20746f6b656e20616c7265616479206d696e746564000000006000830152602082019050919050565b6000613492601383613eed565b91507f76616c7565206973206e6f7420656e6f756768000000000000000000000000006000830152602082019050919050565b60006134d2602483613eed565b91507f4552433732313a207472616e7366657220746f20746865207a65726f2061646460008301527f72657373000000000000000000000000000000000000000000000000000000006020830152604082019050919050565b6000613538601983613eed565b91507f4552433732313a20617070726f766520746f2063616c6c6572000000000000006000830152602082019050919050565b6000613578602c83613eed565b91507f4552433732313a206f70657261746f7220717565727920666f72206e6f6e657860008301527f697374656e7420746f6b656e00000000000000000000000000000000000000006020830152604082019050919050565b60006135de603883613eed565b91507f4552433732313a20617070726f76652063616c6c6572206973206e6f74206f7760008301527f6e6572206e6f7220617070726f76656420666f7220616c6c00000000000000006020830152604082019050919050565b6000613644602a83613eed565b91507f4552433732313a2062616c616e636520717565727920666f7220746865207a6560008301527f726f2061646472657373000000000000000000000000000000000000000000006020830152604082019050919050565b60006136aa602983613eed565b91507f4552433732313a206f776e657220717565727920666f72206e6f6e657869737460008301527f656e7420746f6b656e00000000000000000000000000000000000000000000006020830152604082019050919050565b6000613710600383613eed565b91507f42757900000000000000000000000000000000000000000000000000000000006000830152602082019050919050565b6000613750602083613eed565b91507f4552433732313a206d696e7420746f20746865207a65726f20616464726573736000830152602082019050919050565b6000613790602c83613eed565b91507f4552433732313a20617070726f76656420717565727920666f72206e6f6e657860008301527f697374656e7420746f6b656e00000000000000000000000000000000000000006020830152604082019050919050565b60006137f6602983613eed565b91507f4552433732313a207472616e73666572206f6620746f6b656e2074686174206960008301527f73206e6f74206f776e00000000000000000000000000000000000000000000006020830152604082019050919050565b600061385c602f83613eed565b91507f4552433732314d657461646174613a2055524920717565727920666f72206e6f60008301527f6e6578697374656e7420746f6b656e00000000000000000000000000000000006020830152604082019050919050565b60006138c2601583613eed565b91507f594f5520415245204e4f5420414e2041444d494e2100000000000000000000006000830152602082019050919050565b6000613902602183613eed565b91507f4552433732313a20617070726f76616c20746f2063757272656e74206f776e6560008301527f72000000000000000000000000000000000000000000000000000000000000006020830152604082019050919050565b6000613968603183613eed565b91507f4552433732313a207472616e736665722063616c6c6572206973206e6f74206f60008301527f776e6572206e6f7220617070726f7665640000000000000000000000000000006020830152604082019050919050565b60006139ce602c83613eed565b91507f455243373231456e756d657261626c653a20676c6f62616c20696e646578206f60008301527f7574206f6620626f756e647300000000000000000000000000000000000000006020830152604082019050919050565b613a308161402e565b82525050565b6000613a428285613348565b9150613a4e8284613348565b91508190509392505050565b6000602082019050613a6f60008301846132b8565b92915050565b6000608082019050613a8a60008301876132b8565b613a9760208301866132b8565b613aa46040830185613a27565b8181036060830152613ab681846132d6565b905095945050505050565b600060a082019050613ad660008301876132b8565b613ae360208301866132b8565b613af06040830185613a27565b613afd6060830184613a27565b8181036080830152613b0e81613703565b905095945050505050565b6000602082019050613b2e60008301846132c7565b92915050565b60006020820190508181036000830152613b4e818461330f565b905092915050565b60006020820190508181036000830152613b6f81613379565b9050919050565b60006020820190508181036000830152613b8f816133df565b9050919050565b60006020820190508181036000830152613baf81613445565b9050919050565b60006020820190508181036000830152613bcf81613485565b9050919050565b60006020820190508181036000830152613bef816134c5565b9050919050565b60006020820190508181036000830152613c0f8161352b565b9050919050565b60006020820190508181036000830152613c2f8161356b565b9050919050565b60006020820190508181036000830152613c4f816135d1565b9050919050565b60006020820190508181036000830152613c6f81613637565b9050919050565b60006020820190508181036000830152613c8f8161369d565b9050919050565b60006020820190508181036000830152613caf81613743565b9050919050565b60006020820190508181036000830152613ccf81613783565b9050919050565b60006020820190508181036000830152613cef816137e9565b9050919050565b60006020820190508181036000830152613d0f8161384f565b9050919050565b60006020820190508181036000830152613d2f816138b5565b9050919050565b60006020820190508181036000830152613d4f816138f5565b9050919050565b60006020820190508181036000830152613d6f8161395b565b9050919050565b60006020820190508181036000830152613d8f816139c1565b9050919050565b6000602082019050613dab6000830184613a27565b92915050565b600060e082019050613dc6600083018a613a27565b8181036020830152613dd8818961330f565b9050613de760408301886132b8565b613df46060830187613a27565b8181036080830152613e06818661330f565b905081810360a0830152613e1a818561330f565b9050613e2960c0830184613a27565b98975050505050505050565b6000604051905081810181811067ffffffffffffffff82111715613e5c57613e5b6141b3565b5b8060405250919050565b600067ffffffffffffffff821115613e8157613e806141b3565b5b601f19601f8301169050602081019050919050565b600067ffffffffffffffff821115613eb157613eb06141b3565b5b601f19601f8301169050602081019050919050565b600081519050919050565b600081519050919050565b600082825260208201905092915050565b600082825260208201905092915050565b600081905092915050565b6000613f148261402e565b9150613f1f8361402e565b9250827fffffffffffffffffffffffffffffffffffffffffffffffffffffffffffffffff03821115613f5457613f53614126565b5b828201905092915050565b6000613f6a8261402e565b9150613f758361402e565b925082613f8557613f84614155565b5b828204905092915050565b6000613f9b8261402e565b9150613fa68361402e565b925082821015613fb957613fb8614126565b5b828203905092915050565b6000613fcf8261400e565b9050919050565b60008115159050919050565b60007fffffffff0000000000000000000000000000000000000000000000000000000082169050919050565b600073ffffffffffffffffffffffffffffffffffffffff82169050919050565b6000819050919050565b82818337600083830152505050565b60005b8381101561406557808201518184015260208101905061404a565b83811115614074576000848401525b50505050565b6000600282049050600182168061409257607f821691505b602082108114156140a6576140a5614184565b5b50919050565b60006140b78261402e565b91507fffffffffffffffffffffffffffffffffffffffffffffffffffffffffffffffff8214156140ea576140e9614126565b5b600182019050919050565b60006141008261402e565b915061410b8361402e565b92508261411b5761411a614155565b5b828206905092915050565b7f4e487b7100000000000000000000000000000000000000000000000000000000600052601160045260246000fd5b7f4e487b7100000000000000000000000000000000000000000000000000000000600052601260045260246000fd5b7f4e487b7100000000000000000000000000000000000000000000000000000000600052602260045260246000fd5b7f4e487b7100000000000000000000000000000000000000000000000000000000600052604160045260246000fd5b6000601f19601f8301169050919050565b6141fc81613fc4565b811461420757600080fd5b50565b61421381613fd6565b811461421e57600080fd5b50565b61422a81613fe2565b811461423557600080fd5b50565b6142418161402e565b811461424c57600080fd5b5056fea2646970667358221220b4c16bd163398ade2ea1dd27a82c99a990a2def3a3b91a4c3826e8981f31f5cd64736f6c63430008000033",
  "immutableReferences": {},
  "source": "// SPDX-License-Identifier: MIT\npragma solidity >=0.4.22 <0.9.0;\n\nimport \"@openzeppelin/contracts/token/ERC721/ERC721.sol\";\nimport \"@openzeppelin/contracts/token/ERC721/extensions/ERC721Enumerable.sol\";\n\ncontract Cards is ERC721Enumerable {\n    address public admin;\n    uint256 public nextItemId;\n\n    // event cardMinted();\n    event cardTransaction(\n        address exOwner,\n        address newOwner,\n        uint256 price,\n        uint256 timestamp,\n        string action\n    );\n\n    struct Card {\n        uint256 id;\n        string title;\n        address owner;\n        uint256 price;\n        string description;\n        string urlPicture;\n        uint256 timestamp;\n    }\n\n    mapping(address => mapping(uint256 => Card)) public marketCards;\n    mapping(address => mapping(uint256 => Card)) public myCards;\n    mapping(address => bool) public admins;\n\n    constructor() ERC721(\"Cards Futebol\", \"FUT\") {\n        admin = msg.sender;\n    }\n\n    function mintCards(\n        uint256 _price,\n        string memory _title,\n        string memory _description,\n        string memory _urlPicture\n    ) external {\n        Card memory card = Card({\n            id: nextItemId,\n            owner: address(this),\n            title: _title,\n            price: _price,\n            description: _description,\n            urlPicture: _urlPicture,\n            timestamp: block.timestamp\n        });\n\n        _mint(address(this), nextItemId);\n        marketCards[address(this)][nextItemId] = card;\n        nextItemId++;\n    }\n\n    function buyCardFromMarket(uint256 _idCard)\n        external\n        payable\n        returns (bool)\n    {\n        require(\n            marketCards[address(this)][_idCard].price <= msg.value,\n            \"value is not enough\"\n        );\n\n        Card memory card = Card({\n            id: marketCards[address(this)][_idCard].id,\n            owner: marketCards[address(this)][_idCard].owner,\n            title: marketCards[address(this)][_idCard].title,\n            price: marketCards[address(this)][_idCard].price,\n            description: marketCards[address(this)][_idCard].description,\n            urlPicture: marketCards[address(this)][_idCard].urlPicture,\n            timestamp: marketCards[address(this)][_idCard].timestamp\n        });\n\n        myCards[msg.sender][_idCard] = card;\n        delete marketCards[address(this)][_idCard];\n\n        _transfer(address(this), msg.sender, _idCard);\n\n        emit cardTransaction(\n            address(this),\n            msg.sender,\n            marketCards[address(this)][_idCard].price,\n            block.timestamp,\n            \"Buy\"\n        );\n\n        return true;\n    }\n\n    function addAdmin(address _newAdmin) external returns (bool) {\n        require(msg.sender == admin, \"YOU ARE NOT AN ADMIN!\");\n\n        admins[_newAdmin] = true;\n        return true;\n    }\n\n    function _baseURI() internal view virtual override returns (string memory) {\n        return \"\";\n    }\n}\n",
  "sourcePath": "/Volumes/APPLE HDD/reactprojects/cards-nft/contracts/Cards.sol",
  "compiler": {
    "name": "solc",
    "version": "0.8.0+commit.c7dfd78e.Emscripten.clang"
  },
  "schemaVersion": "3.4.3",
  "updatedAt": "2021-10-09T21:43:52.008Z",
  "networkType": "ethereum",
  "devdoc": {
    "kind": "dev",
    "methods": {
      "approve(address,uint256)": {
        "details": "See {IERC721-approve}."
      },
      "balanceOf(address)": {
        "details": "See {IERC721-balanceOf}."
      },
      "getApproved(uint256)": {
        "details": "See {IERC721-getApproved}."
      },
      "isApprovedForAll(address,address)": {
        "details": "See {IERC721-isApprovedForAll}."
      },
      "name()": {
        "details": "See {IERC721Metadata-name}."
      },
      "ownerOf(uint256)": {
        "details": "See {IERC721-ownerOf}."
      },
      "safeTransferFrom(address,address,uint256)": {
        "details": "See {IERC721-safeTransferFrom}."
      },
      "safeTransferFrom(address,address,uint256,bytes)": {
        "details": "See {IERC721-safeTransferFrom}."
      },
      "setApprovalForAll(address,bool)": {
        "details": "See {IERC721-setApprovalForAll}."
      },
      "supportsInterface(bytes4)": {
        "details": "See {IERC165-supportsInterface}."
      },
      "symbol()": {
        "details": "See {IERC721Metadata-symbol}."
      },
      "tokenByIndex(uint256)": {
        "details": "See {IERC721Enumerable-tokenByIndex}."
      },
      "tokenOfOwnerByIndex(address,uint256)": {
        "details": "See {IERC721Enumerable-tokenOfOwnerByIndex}."
      },
      "tokenURI(uint256)": {
        "details": "See {IERC721Metadata-tokenURI}."
      },
      "totalSupply()": {
        "details": "See {IERC721Enumerable-totalSupply}."
      },
      "transferFrom(address,address,uint256)": {
        "details": "See {IERC721-transferFrom}."
      }
    },
    "version": 1
  },
  "userdoc": {
    "kind": "user",
    "methods": {},
    "version": 1
  }
}